{
  "contractName": "Token",
  "abi": [
    {
      "inputs": [
        {
          "internalType": "string",
          "name": "name",
          "type": "string"
        },
        {
          "internalType": "string",
          "name": "symbol",
          "type": "string"
        },
        {
          "internalType": "string",
          "name": "uri",
          "type": "string"
        }
      ],
      "stateMutability": "nonpayable",
      "type": "constructor"
    },
    {
      "anonymous": false,
      "inputs": [
        {
          "indexed": true,
          "internalType": "address",
          "name": "account",
          "type": "address"
        },
        {
          "indexed": true,
          "internalType": "address",
          "name": "operator",
          "type": "address"
        },
        {
          "indexed": false,
          "internalType": "bool",
          "name": "approved",
          "type": "bool"
        }
      ],
      "name": "ApprovalForAll",
      "type": "event"
    },
    {
      "anonymous": false,
      "inputs": [
        {
          "indexed": true,
          "internalType": "address",
          "name": "previousOwner",
          "type": "address"
        },
        {
          "indexed": true,
          "internalType": "address",
          "name": "newOwner",
          "type": "address"
        }
      ],
      "name": "OwnershipTransferred",
      "type": "event"
    },
    {
      "anonymous": false,
      "inputs": [
        {
          "indexed": true,
          "internalType": "address",
          "name": "operator",
          "type": "address"
        },
        {
          "indexed": true,
          "internalType": "address",
          "name": "from",
          "type": "address"
        },
        {
          "indexed": true,
          "internalType": "address",
          "name": "to",
          "type": "address"
        },
        {
          "indexed": false,
          "internalType": "uint256[]",
          "name": "ids",
          "type": "uint256[]"
        },
        {
          "indexed": false,
          "internalType": "uint256[]",
          "name": "values",
          "type": "uint256[]"
        }
      ],
      "name": "TransferBatch",
      "type": "event"
    },
    {
      "anonymous": false,
      "inputs": [
        {
          "indexed": true,
          "internalType": "address",
          "name": "operator",
          "type": "address"
        },
        {
          "indexed": true,
          "internalType": "address",
          "name": "from",
          "type": "address"
        },
        {
          "indexed": true,
          "internalType": "address",
          "name": "to",
          "type": "address"
        },
        {
          "indexed": false,
          "internalType": "uint256",
          "name": "id",
          "type": "uint256"
        },
        {
          "indexed": false,
          "internalType": "uint256",
          "name": "value",
          "type": "uint256"
        }
      ],
      "name": "TransferSingle",
      "type": "event"
    },
    {
      "anonymous": false,
      "inputs": [
        {
          "indexed": false,
          "internalType": "string",
          "name": "value",
          "type": "string"
        },
        {
          "indexed": true,
          "internalType": "uint256",
          "name": "id",
          "type": "uint256"
        }
      ],
      "name": "URI",
      "type": "event"
    },
    {
      "inputs": [
        {
          "internalType": "address",
          "name": "account",
          "type": "address"
        },
        {
          "internalType": "uint256",
          "name": "id",
          "type": "uint256"
        }
      ],
      "name": "balanceOf",
      "outputs": [
        {
          "internalType": "uint256",
          "name": "",
          "type": "uint256"
        }
      ],
      "stateMutability": "view",
      "type": "function"
    },
    {
      "inputs": [
        {
          "internalType": "address[]",
          "name": "accounts",
          "type": "address[]"
        },
        {
          "internalType": "uint256[]",
          "name": "ids",
          "type": "uint256[]"
        }
      ],
      "name": "balanceOfBatch",
      "outputs": [
        {
          "internalType": "uint256[]",
          "name": "",
          "type": "uint256[]"
        }
      ],
      "stateMutability": "view",
      "type": "function"
    },
    {
      "inputs": [
        {
          "internalType": "address",
          "name": "account",
          "type": "address"
        },
        {
          "internalType": "address",
          "name": "operator",
          "type": "address"
        }
      ],
      "name": "isApprovedForAll",
      "outputs": [
        {
          "internalType": "bool",
          "name": "",
          "type": "bool"
        }
      ],
      "stateMutability": "view",
      "type": "function"
    },
    {
      "inputs": [],
      "name": "owner",
      "outputs": [
        {
          "internalType": "address",
          "name": "",
          "type": "address"
        }
      ],
      "stateMutability": "view",
      "type": "function"
    },
    {
      "inputs": [],
      "name": "renounceOwnership",
      "outputs": [],
      "stateMutability": "nonpayable",
      "type": "function"
    },
    {
      "inputs": [
        {
          "internalType": "address",
          "name": "from",
          "type": "address"
        },
        {
          "internalType": "address",
          "name": "to",
          "type": "address"
        },
        {
          "internalType": "uint256[]",
          "name": "ids",
          "type": "uint256[]"
        },
        {
          "internalType": "uint256[]",
          "name": "amounts",
          "type": "uint256[]"
        },
        {
          "internalType": "bytes",
          "name": "data",
          "type": "bytes"
        }
      ],
      "name": "safeBatchTransferFrom",
      "outputs": [],
      "stateMutability": "nonpayable",
      "type": "function"
    },
    {
      "inputs": [
        {
          "internalType": "address",
          "name": "from",
          "type": "address"
        },
        {
          "internalType": "address",
          "name": "to",
          "type": "address"
        },
        {
          "internalType": "uint256",
          "name": "id",
          "type": "uint256"
        },
        {
          "internalType": "uint256",
          "name": "amount",
          "type": "uint256"
        },
        {
          "internalType": "bytes",
          "name": "data",
          "type": "bytes"
        }
      ],
      "name": "safeTransferFrom",
      "outputs": [],
      "stateMutability": "nonpayable",
      "type": "function"
    },
    {
      "inputs": [
        {
          "internalType": "address",
          "name": "operator",
          "type": "address"
        },
        {
          "internalType": "bool",
          "name": "approved",
          "type": "bool"
        }
      ],
      "name": "setApprovalForAll",
      "outputs": [],
      "stateMutability": "nonpayable",
      "type": "function"
    },
    {
      "inputs": [
        {
          "internalType": "bytes4",
          "name": "interfaceId",
          "type": "bytes4"
        }
      ],
      "name": "supportsInterface",
      "outputs": [
        {
          "internalType": "bool",
          "name": "",
          "type": "bool"
        }
      ],
      "stateMutability": "view",
      "type": "function"
    },
    {
      "inputs": [
        {
          "internalType": "address",
          "name": "newOwner",
          "type": "address"
        }
      ],
      "name": "transferOwnership",
      "outputs": [],
      "stateMutability": "nonpayable",
      "type": "function"
    },
    {
      "inputs": [
        {
          "internalType": "uint256",
          "name": "",
          "type": "uint256"
        }
      ],
      "name": "uri",
      "outputs": [
        {
          "internalType": "string",
          "name": "",
          "type": "string"
        }
      ],
      "stateMutability": "view",
      "type": "function"
    },
    {
      "inputs": [
        {
          "internalType": "uint256",
          "name": "tokenId",
          "type": "uint256"
        }
      ],
      "name": "getTokenDetails",
      "outputs": [
        {
          "components": [
            {
              "internalType": "uint8",
              "name": "part",
              "type": "uint8"
            },
            {
              "internalType": "uint8",
              "name": "set",
              "type": "uint8"
            },
            {
              "internalType": "uint8",
              "name": "mainOpType",
              "type": "uint8"
            },
            {
              "internalType": "uint256",
              "name": "mainOpValue",
              "type": "uint256"
            },
            {
              "internalType": "uint8[4]",
              "name": "subOpType",
              "type": "uint8[4]"
            },
            {
              "internalType": "uint256[4]",
              "name": "subOpValue",
              "type": "uint256[4]"
            },
            {
              "internalType": "uint8",
              "name": "level",
              "type": "uint8"
            },
            {
              "internalType": "uint256",
              "name": "exp",
              "type": "uint256"
            }
          ],
          "internalType": "struct Token.Relic",
          "name": "",
          "type": "tuple"
        }
      ],
      "stateMutability": "view",
      "type": "function"
    },
    {
      "inputs": [
        {
          "internalType": "uint8",
          "name": "part",
          "type": "uint8"
        },
        {
          "internalType": "uint8",
          "name": "set",
          "type": "uint8"
        },
        {
          "internalType": "uint8",
          "name": "mainOpType",
          "type": "uint8"
        },
        {
          "internalType": "uint256",
          "name": "mainOpValue",
          "type": "uint256"
        },
        {
          "internalType": "uint8[4]",
          "name": "subOpType",
          "type": "uint8[4]"
        },
        {
          "internalType": "uint256[4]",
          "name": "subOpValue",
          "type": "uint256[4]"
        }
      ],
      "name": "mint",
      "outputs": [],
      "stateMutability": "nonpayable",
      "type": "function"
    },
    {
      "inputs": [
        {
          "internalType": "uint256",
          "name": "tokenId",
          "type": "uint256"
        },
        {
          "internalType": "uint8",
          "name": "targetIndex",
          "type": "uint8"
        },
        {
          "internalType": "uint256",
          "name": "targetValue",
          "type": "uint256"
        },
        {
          "internalType": "uint8",
          "name": "targetType",
          "type": "uint8"
        }
      ],
      "name": "enhance",
      "outputs": [],
      "stateMutability": "nonpayable",
      "type": "function"
    },
    {
      "inputs": [
        {
          "internalType": "address",
          "name": "user",
          "type": "address"
        }
      ],
      "name": "getAllTokensForUser",
      "outputs": [
        {
          "internalType": "uint256[]",
          "name": "",
          "type": "uint256[]"
        }
      ],
      "stateMutability": "view",
      "type": "function"
    },
    {
      "inputs": [
        {
          "internalType": "address",
          "name": "operator",
          "type": "address"
        },
        {
          "internalType": "address",
          "name": "from",
          "type": "address"
        },
        {
          "internalType": "address",
          "name": "to",
          "type": "address"
        },
        {
          "internalType": "uint256[]",
          "name": "ids",
          "type": "uint256[]"
        },
        {
          "internalType": "uint256[]",
          "name": "amounts",
          "type": "uint256[]"
        },
        {
          "internalType": "string",
          "name": "data",
          "type": "string"
        }
      ],
      "name": "_beforeTokenTransfer",
      "outputs": [],
      "stateMutability": "view",
      "type": "function"
    }
  ],
  "bytecode": "0x608060405260006004553480156200001657600080fd5b506040516200407a3803806200407a83398181016040528101906200003c919062000284565b806200004e816200007860201b60201c565b506200006f620000636200009460201b60201c565b6200009c60201b60201c565b50505062000456565b80600290805190602001906200009092919062000162565b5050565b600033905090565b6000600360009054906101000a900473ffffffffffffffffffffffffffffffffffffffff16905081600360006101000a81548173ffffffffffffffffffffffffffffffffffffffff021916908373ffffffffffffffffffffffffffffffffffffffff1602179055508173ffffffffffffffffffffffffffffffffffffffff168173ffffffffffffffffffffffffffffffffffffffff167f8be0079c531659141344cd1fd0a4f28419497f9722a3daafe3b4186f6b6457e060405160405180910390a35050565b8280546200017090620003c2565b90600052602060002090601f016020900481019282620001945760008555620001e0565b82601f10620001af57805160ff1916838001178555620001e0565b82800160010185558215620001e0579182015b82811115620001df578251825591602001919060010190620001c2565b5b509050620001ef9190620001f3565b5090565b5b808211156200020e576000816000905550600101620001f4565b5090565b600062000229620002238462000359565b62000325565b9050828152602081018484840111156200024257600080fd5b6200024f8482856200038c565b509392505050565b600082601f8301126200026957600080fd5b81516200027b84826020860162000212565b91505092915050565b6000806000606084860312156200029a57600080fd5b600084015167ffffffffffffffff811115620002b557600080fd5b620002c38682870162000257565b935050602084015167ffffffffffffffff811115620002e157600080fd5b620002ef8682870162000257565b925050604084015167ffffffffffffffff8111156200030d57600080fd5b6200031b8682870162000257565b9150509250925092565b6000604051905081810181811067ffffffffffffffff821117156200034f576200034e62000427565b5b8060405250919050565b600067ffffffffffffffff82111562000377576200037662000427565b5b601f19601f8301169050602081019050919050565b60005b83811015620003ac5780820151818401526020810190506200038f565b83811115620003bc576000848401525b50505050565b60006002820490506001821680620003db57607f821691505b60208210811415620003f257620003f1620003f8565b5b50919050565b7f4e487b7100000000000000000000000000000000000000000000000000000000600052602260045260246000fd5b7f4e487b7100000000000000000000000000000000000000000000000000000000600052604160045260246000fd5b613c1480620004666000396000f3fe608060405234801561001057600080fd5b50600436106100ff5760003560e01c8063715018a611610097578063c1e0372811610066578063c1e03728146102a8578063e985e9c5146102d8578063f242432a14610308578063f2fde38b14610324576100ff565b8063715018a61461023457806382de8fe91461023e5780638da5cb5b1461026e578063a22cb4651461028c576100ff565b80632eb2c2d6116100d35780632eb2c2d6146101b057806336313d83146101cc5780634e1273f4146101e85780636ab6236f14610218576100ff565b8062fdd58e1461010457806301ffc9a71461013457806303af5571146101645780630e89341c14610180575b600080fd5b61011e600480360381019061011991906128e1565b610340565b60405161012b91906135c7565b60405180910390f35b61014e60048036038101906101499190612989565b610409565b60405161015b91906133ce565b60405180910390f35b61017e60048036038101906101799190612a04565b6104eb565b005b61019a600480360381019061019591906129db565b61067d565b6040516101a791906133e9565b60405180910390f35b6101ca60048036038101906101c59190612757565b610711565b005b6101e660048036038101906101e19190612a67565b6107b2565b005b61020260048036038101906101fd919061291d565b610997565b60405161020f9190613375565b60405180910390f35b610232600480360381019061022d9190612686565b610b48565b005b61023c610c25565b005b61025860048036038101906102539190612621565b610cad565b6040516102659190613375565b60405180910390f35b610276610e74565b6040516102839190613298565b60405180910390f35b6102a660048036038101906102a191906128a5565b610e9e565b005b6102c260048036038101906102bd91906129db565b610eb4565b6040516102cf91906135ab565b60405180910390f35b6102f260048036038101906102ed919061264a565b61101a565b6040516102ff91906133ce565b60405180910390f35b610322600480360381019061031d9190612816565b6110ae565b005b61033e60048036038101906103399190612621565b61114f565b005b60008073ffffffffffffffffffffffffffffffffffffffff168373ffffffffffffffffffffffffffffffffffffffff1614156103b1576040517f08c379a00000000000000000000000000000000000000000000000000000000081526004016103a89061344b565b60405180910390fd5b60008083815260200190815260200160002060008473ffffffffffffffffffffffffffffffffffffffff1673ffffffffffffffffffffffffffffffffffffffff16815260200190815260200160002054905092915050565b60007fd9b67a26000000000000000000000000000000000000000000000000000000007bffffffffffffffffffffffffffffffffffffffffffffffffffffffff1916827bffffffffffffffffffffffffffffffffffffffffffffffffffffffff191614806104d457507f0e89341c000000000000000000000000000000000000000000000000000000007bffffffffffffffffffffffffffffffffffffffffffffffffffffffff1916827bffffffffffffffffffffffffffffffffffffffffffffffffffffffff1916145b806104e457506104e382611247565b5b9050919050565b600060056000868152602001908152602001600020905060018160070160008282829054906101000a900460ff166105239190613861565b92506101000a81548160ff021916908360ff16021790555060008460ff1614158015610550575060008314155b1561067657600081600201600360048110610594577f4e487b7100000000000000000000000000000000000000000000000000000000600052603260045260246000fd5b602091828204019190069054906101000a900460ff1660ff1614156106125781816002016003600481106105f1577f4e487b7100000000000000000000000000000000000000000000000000000000600052603260045260246000fd5b602091828204019190066101000a81548160ff021916908360ff1602179055505b82816003016001866106249190613898565b60ff166004811061065e577f4e487b7100000000000000000000000000000000000000000000000000000000600052603260045260246000fd5b01600082825461066e919061380b565b925050819055505b5050505050565b60606002805461068c9061398f565b80601f01602080910402602001604051908101604052809291908181526020018280546106b89061398f565b80156107055780601f106106da57610100808354040283529160200191610705565b820191906000526020600020905b8154815290600101906020018083116106e857829003601f168201915b50505050509050919050565b6107196112b1565b73ffffffffffffffffffffffffffffffffffffffff168573ffffffffffffffffffffffffffffffffffffffff16148061075f575061075e856107596112b1565b61101a565b5b61079e576040517f08c379a0000000000000000000000000000000000000000000000000000000008152600401610795906134cb565b60405180910390fd5b6107ab85858585856112b9565b5050505050565b6107ba6112b1565b73ffffffffffffffffffffffffffffffffffffffff166107d8610e74565b73ffffffffffffffffffffffffffffffffffffffff161461082e576040517f08c379a00000000000000000000000000000000000000000000000000000000081526004016108259061350b565b60405180910390fd5b6000806040518061010001604052808960ff1681526020018860ff1681526020018760ff1681526020018681526020018581526020018481526020018360ff1681526020018281525060056000600454815260200190815260200160002060008201518160000160006101000a81548160ff021916908360ff16021790555060208201518160000160016101000a81548160ff021916908360ff16021790555060408201518160000160026101000a81548160ff021916908360ff160217905550606082015181600101556080820151816002019060046109109291906120fb565b5060a082015181600301906004610928929190612195565b5060c08201518160070160006101000a81548160ff021916908360ff16021790555060e0820151816008015590505061097533600454600160405180602001604052806000815250611619565b60046000815480929190610988906139c1565b91905055505050505050505050565b606081518351146109dd576040517f08c379a00000000000000000000000000000000000000000000000000000000081526004016109d49061354b565b60405180910390fd5b6000835167ffffffffffffffff811115610a20577f4e487b7100000000000000000000000000000000000000000000000000000000600052604160045260246000fd5b604051908082528060200260200182016040528015610a4e5781602001602082028036833780820191505090505b50905060005b8451811015610b3d57610ae7858281518110610a99577f4e487b7100000000000000000000000000000000000000000000000000000000600052603260045260246000fd5b6020026020010151858381518110610ada577f4e487b7100000000000000000000000000000000000000000000000000000000600052603260045260246000fd5b6020026020010151610340565b828281518110610b20577f4e487b7100000000000000000000000000000000000000000000000000000000600052603260045260246000fd5b60200260200101818152505080610b36906139c1565b9050610a54565b508091505092915050565b610b506112b1565b73ffffffffffffffffffffffffffffffffffffffff16610b6e610e74565b73ffffffffffffffffffffffffffffffffffffffff1614610bc4576040517f08c379a0000000000000000000000000000000000000000000000000000000008152600401610bbb9061350b565b60405180910390fd5b60006005600085600081518110610c04577f4e487b7100000000000000000000000000000000000000000000000000000000600052603260045260246000fd5b60200260200101518152602001908152602001600020905050505050505050565b610c2d6112b1565b73ffffffffffffffffffffffffffffffffffffffff16610c4b610e74565b73ffffffffffffffffffffffffffffffffffffffff1614610ca1576040517f08c379a0000000000000000000000000000000000000000000000000000000008152600401610c989061350b565b60405180910390fd5b610cab60006117af565b565b60606000805b600454811015610ce757610cc78482610340565b82610cd2919061380b565b91508080610cdf906139c1565b915050610cb3565b6000821415610d6957600067ffffffffffffffff811115610d31577f4e487b7100000000000000000000000000000000000000000000000000000000600052604160045260246000fd5b604051908082528060200260200182016040528015610d5f5781602001602082028036833780820191505090505b5092505050610e6f565b60008267ffffffffffffffff811115610dab577f4e487b7100000000000000000000000000000000000000000000000000000000600052604160045260246000fd5b604051908082528060200260200182016040528015610dd95781602001602082028036833780820191505090505b509050600060045490506000805b82811015610e6557610df881611875565b15610e525780848381518110610e37577f4e487b7100000000000000000000000000000000000000000000000000000000600052603260045260246000fd5b6020026020010181815250508180610e4e906139c1565b9250505b8080610e5d906139c1565b915050610de7565b8396505050505050505b919050565b6000600360009054906101000a900473ffffffffffffffffffffffffffffffffffffffff16905090565b610eb0610ea96112b1565b838361188b565b5050565b610ebc6121d5565b60056000838152602001908152602001600020604051806101000160405290816000820160009054906101000a900460ff1660ff1660ff1681526020016000820160019054906101000a900460ff1660ff1660ff1681526020016000820160029054906101000a900460ff1660ff1660ff1681526020016001820154815260200160028201600480602002604051908101604052809291908260048015610f9e576020028201916000905b82829054906101000a900460ff1660ff1681526020019060010190602082600001049283019260010382029150808411610f675790505b5050505050815260200160038201600480602002604051908101604052809291908260048015610fe3576020028201915b815481526020019060010190808311610fcf575b505050505081526020016007820160009054906101000a900460ff1660ff1660ff1681526020016008820154815250509050919050565b6000600160008473ffffffffffffffffffffffffffffffffffffffff1673ffffffffffffffffffffffffffffffffffffffff16815260200190815260200160002060008373ffffffffffffffffffffffffffffffffffffffff1673ffffffffffffffffffffffffffffffffffffffff16815260200190815260200160002060009054906101000a900460ff16905092915050565b6110b66112b1565b73ffffffffffffffffffffffffffffffffffffffff168573ffffffffffffffffffffffffffffffffffffffff1614806110fc57506110fb856110f66112b1565b61101a565b5b61113b576040517f08c379a00000000000000000000000000000000000000000000000000000000081526004016111329061348b565b60405180910390fd5b61114885858585856119f8565b5050505050565b6111576112b1565b73ffffffffffffffffffffffffffffffffffffffff16611175610e74565b73ffffffffffffffffffffffffffffffffffffffff16146111cb576040517f08c379a00000000000000000000000000000000000000000000000000000000081526004016111c29061350b565b60405180910390fd5b600073ffffffffffffffffffffffffffffffffffffffff168173ffffffffffffffffffffffffffffffffffffffff16141561123b576040517f08c379a00000000000000000000000000000000000000000000000000000000081526004016112329061346b565b60405180910390fd5b611244816117af565b50565b60007f01ffc9a7000000000000000000000000000000000000000000000000000000007bffffffffffffffffffffffffffffffffffffffffffffffffffffffff1916827bffffffffffffffffffffffffffffffffffffffffffffffffffffffff1916149050919050565b600033905090565b81518351146112fd576040517f08c379a00000000000000000000000000000000000000000000000000000000081526004016112f49061356b565b60405180910390fd5b600073ffffffffffffffffffffffffffffffffffffffff168473ffffffffffffffffffffffffffffffffffffffff16141561136d576040517f08c379a0000000000000000000000000000000000000000000000000000000008152600401611364906134ab565b60405180910390fd5b60006113776112b1565b9050611387818787878787611c7a565b60005b84518110156115845760008582815181106113ce577f4e487b7100000000000000000000000000000000000000000000000000000000600052603260045260246000fd5b602002602001015190506000858381518110611413577f4e487b7100000000000000000000000000000000000000000000000000000000600052603260045260246000fd5b60200260200101519050600080600084815260200190815260200160002060008b73ffffffffffffffffffffffffffffffffffffffff1673ffffffffffffffffffffffffffffffffffffffff168152602001908152602001600020549050818110156114b4576040517f08c379a00000000000000000000000000000000000000000000000000000000081526004016114ab906134eb565b60405180910390fd5b81810360008085815260200190815260200160002060008c73ffffffffffffffffffffffffffffffffffffffff1673ffffffffffffffffffffffffffffffffffffffff168152602001908152602001600020819055508160008085815260200190815260200160002060008b73ffffffffffffffffffffffffffffffffffffffff1673ffffffffffffffffffffffffffffffffffffffff1681526020019081526020016000206000828254611569919061380b565b925050819055505050508061157d906139c1565b905061138a565b508473ffffffffffffffffffffffffffffffffffffffff168673ffffffffffffffffffffffffffffffffffffffff168273ffffffffffffffffffffffffffffffffffffffff167f4a39dc06d4c0dbc64b70af90fd698a233a518aa5d07e595d983b8c0526c8f7fb87876040516115fb929190613397565b60405180910390a4611611818787878787611c82565b505050505050565b600073ffffffffffffffffffffffffffffffffffffffff168473ffffffffffffffffffffffffffffffffffffffff161415611689576040517f08c379a00000000000000000000000000000000000000000000000000000000081526004016116809061358b565b60405180910390fd5b60006116936112b1565b90506116b4816000876116a588611e52565b6116ae88611e52565b87611c7a565b8260008086815260200190815260200160002060008773ffffffffffffffffffffffffffffffffffffffff1673ffffffffffffffffffffffffffffffffffffffff1681526020019081526020016000206000828254611713919061380b565b925050819055508473ffffffffffffffffffffffffffffffffffffffff16600073ffffffffffffffffffffffffffffffffffffffff168273ffffffffffffffffffffffffffffffffffffffff167fc3d58168c5ae7397731d063d5bbf3d657854427343f4c083240f7aacaa2d0f6287876040516117919291906135e2565b60405180910390a46117a881600087878787611f18565b5050505050565b6000600360009054906101000a900473ffffffffffffffffffffffffffffffffffffffff16905081600360006101000a81548173ffffffffffffffffffffffffffffffffffffffff021916908373ffffffffffffffffffffffffffffffffffffffff1602179055508173ffffffffffffffffffffffffffffffffffffffff168173ffffffffffffffffffffffffffffffffffffffff167f8be0079c531659141344cd1fd0a4f28419497f9722a3daafe3b4186f6b6457e060405160405180910390a35050565b6000806118823384610340565b14159050919050565b8173ffffffffffffffffffffffffffffffffffffffff168373ffffffffffffffffffffffffffffffffffffffff1614156118fa576040517f08c379a00000000000000000000000000000000000000000000000000000000081526004016118f19061352b565b60405180910390fd5b80600160008573ffffffffffffffffffffffffffffffffffffffff1673ffffffffffffffffffffffffffffffffffffffff16815260200190815260200160002060008473ffffffffffffffffffffffffffffffffffffffff1673ffffffffffffffffffffffffffffffffffffffff16815260200190815260200160002060006101000a81548160ff0219169083151502179055508173ffffffffffffffffffffffffffffffffffffffff168373ffffffffffffffffffffffffffffffffffffffff167f17307eab39ab6107e8899845ad3d59bd9653f200f220920489ca2b5937696c31836040516119eb91906133ce565b60405180910390a3505050565b600073ffffffffffffffffffffffffffffffffffffffff168473ffffffffffffffffffffffffffffffffffffffff161415611a68576040517f08c379a0000000000000000000000000000000000000000000000000000000008152600401611a5f906134ab565b60405180910390fd5b6000611a726112b1565b9050611a92818787611a8388611e52565b611a8c88611e52565b87611c7a565b600080600086815260200190815260200160002060008873ffffffffffffffffffffffffffffffffffffffff1673ffffffffffffffffffffffffffffffffffffffff16815260200190815260200160002054905083811015611b29576040517f08c379a0000000000000000000000000000000000000000000000000000000008152600401611b20906134eb565b60405180910390fd5b83810360008087815260200190815260200160002060008973ffffffffffffffffffffffffffffffffffffffff1673ffffffffffffffffffffffffffffffffffffffff168152602001908152602001600020819055508360008087815260200190815260200160002060008873ffffffffffffffffffffffffffffffffffffffff1673ffffffffffffffffffffffffffffffffffffffff1681526020019081526020016000206000828254611bde919061380b565b925050819055508573ffffffffffffffffffffffffffffffffffffffff168773ffffffffffffffffffffffffffffffffffffffff168373ffffffffffffffffffffffffffffffffffffffff167fc3d58168c5ae7397731d063d5bbf3d657854427343f4c083240f7aacaa2d0f628888604051611c5b9291906135e2565b60405180910390a4611c71828888888888611f18565b50505050505050565b505050505050565b611ca18473ffffffffffffffffffffffffffffffffffffffff166120e8565b15611e4a578373ffffffffffffffffffffffffffffffffffffffff1663bc197c8187878686866040518663ffffffff1660e01b8152600401611ce79594939291906132b3565b602060405180830381600087803b158015611d0157600080fd5b505af1925050508015611d3257506040513d601f19601f82011682018060405250810190611d2f91906129b2565b60015b611dc157611d3e613ab5565b80611d495750611d86565b806040517f08c379a0000000000000000000000000000000000000000000000000000000008152600401611d7d91906133e9565b60405180910390fd5b6040517f08c379a0000000000000000000000000000000000000000000000000000000008152600401611db89061340b565b60405180910390fd5b63bc197c8160e01b7bffffffffffffffffffffffffffffffffffffffffffffffffffffffff1916817bffffffffffffffffffffffffffffffffffffffffffffffffffffffff191614611e48576040517f08c379a0000000000000000000000000000000000000000000000000000000008152600401611e3f9061342b565b60405180910390fd5b505b505050505050565b60606000600167ffffffffffffffff811115611e97577f4e487b7100000000000000000000000000000000000000000000000000000000600052604160045260246000fd5b604051908082528060200260200182016040528015611ec55781602001602082028036833780820191505090505b5090508281600081518110611f03577f4e487b7100000000000000000000000000000000000000000000000000000000600052603260045260246000fd5b60200260200101818152505080915050919050565b611f378473ffffffffffffffffffffffffffffffffffffffff166120e8565b156120e0578373ffffffffffffffffffffffffffffffffffffffff1663f23a6e6187878686866040518663ffffffff1660e01b8152600401611f7d95949392919061331b565b602060405180830381600087803b158015611f9757600080fd5b505af1925050508015611fc857506040513d601f19601f82011682018060405250810190611fc591906129b2565b60015b61205757611fd4613ab5565b80611fdf575061201c565b806040517f08c379a000000000000000000000000000000000000000000000000000000000815260040161201391906133e9565b60405180910390fd5b6040517f08c379a000000000000000000000000000000000000000000000000000000000815260040161204e9061340b565b60405180910390fd5b63f23a6e6160e01b7bffffffffffffffffffffffffffffffffffffffffffffffffffffffff1916817bffffffffffffffffffffffffffffffffffffffffffffffffffffffff1916146120de576040517f08c379a00000000000000000000000000000000000000000000000000000000081526004016120d59061342b565b60405180910390fd5b505b505050505050565b600080823b905060008111915050919050565b826004601f016020900481019282156121845791602002820160005b8382111561215557835183826101000a81548160ff021916908360ff1602179055509260200192600101602081600001049283019260010302612117565b80156121825782816101000a81549060ff0219169055600101602081600001049283019260010302612155565b505b5090506121919190612232565b5090565b82600481019282156121c4579160200282015b828111156121c35782518255916020019190600101906121a8565b5b5090506121d19190612232565b5090565b604051806101000160405280600060ff168152602001600060ff168152602001600060ff1681526020016000815260200161220e61224f565b815260200161221b612271565b8152602001600060ff168152602001600081525090565b5b8082111561224b576000816000905550600101612233565b5090565b6040518060800160405280600490602082028036833780820191505090505090565b6040518060800160405280600490602082028036833780820191505090505090565b60006122a66122a18461363c565b61360b565b905080838252602082019050828560208602820111156122c557600080fd5b60005b858110156122f557816122db88826124ad565b8452602084019350602083019250506001810190506122c8565b5050509392505050565b600061231261230d84613668565b61360b565b9050808285602086028201111561232857600080fd5b60005b85811015612358578161233e88826125f7565b84526020840193506020830192505060018101905061232b565b5050509392505050565b60006123756123708461368e565b61360b565b9050808382526020820190508285602086028201111561239457600080fd5b60005b858110156123c457816123aa88826125f7565b845260208401935060208301925050600181019050612397565b5050509392505050565b60006123e16123dc846136ba565b61360b565b905080828560208602820111156123f757600080fd5b60005b85811015612427578161240d888261260c565b8452602084019350602083019250506001810190506123fa565b5050509392505050565b600061244461243f846136e0565b61360b565b90508281526020810184848401111561245c57600080fd5b61246784828561394d565b509392505050565b600061248261247d84613710565b61360b565b90508281526020810184848401111561249a57600080fd5b6124a584828561394d565b509392505050565b6000813590506124bc81613b6b565b92915050565b600082601f8301126124d357600080fd5b81356124e3848260208601612293565b91505092915050565b600082601f8301126124fd57600080fd5b600461250a8482856122ff565b91505092915050565b600082601f83011261252457600080fd5b8135612534848260208601612362565b91505092915050565b600082601f83011261254e57600080fd5b600461255b8482856123ce565b91505092915050565b60008135905061257381613b82565b92915050565b60008135905061258881613b99565b92915050565b60008151905061259d81613b99565b92915050565b600082601f8301126125b457600080fd5b81356125c4848260208601612431565b91505092915050565b600082601f8301126125de57600080fd5b81356125ee84826020860161246f565b91505092915050565b60008135905061260681613bb0565b92915050565b60008135905061261b81613bc7565b92915050565b60006020828403121561263357600080fd5b6000612641848285016124ad565b91505092915050565b6000806040838503121561265d57600080fd5b600061266b858286016124ad565b925050602061267c858286016124ad565b9150509250929050565b60008060008060008060c0878903121561269f57600080fd5b60006126ad89828a016124ad565b96505060206126be89828a016124ad565b95505060406126cf89828a016124ad565b945050606087013567ffffffffffffffff8111156126ec57600080fd5b6126f889828a01612513565b935050608087013567ffffffffffffffff81111561271557600080fd5b61272189828a01612513565b92505060a087013567ffffffffffffffff81111561273e57600080fd5b61274a89828a016125cd565b9150509295509295509295565b600080600080600060a0868803121561276f57600080fd5b600061277d888289016124ad565b955050602061278e888289016124ad565b945050604086013567ffffffffffffffff8111156127ab57600080fd5b6127b788828901612513565b935050606086013567ffffffffffffffff8111156127d457600080fd5b6127e088828901612513565b925050608086013567ffffffffffffffff8111156127fd57600080fd5b612809888289016125a3565b9150509295509295909350565b600080600080600060a0868803121561282e57600080fd5b600061283c888289016124ad565b955050602061284d888289016124ad565b945050604061285e888289016125f7565b935050606061286f888289016125f7565b925050608086013567ffffffffffffffff81111561288c57600080fd5b612898888289016125a3565b9150509295509295909350565b600080604083850312156128b857600080fd5b60006128c6858286016124ad565b92505060206128d785828601612564565b9150509250929050565b600080604083850312156128f457600080fd5b6000612902858286016124ad565b9250506020612913858286016125f7565b9150509250929050565b6000806040838503121561293057600080fd5b600083013567ffffffffffffffff81111561294a57600080fd5b612956858286016124c2565b925050602083013567ffffffffffffffff81111561297357600080fd5b61297f85828601612513565b9150509250929050565b60006020828403121561299b57600080fd5b60006129a984828501612579565b91505092915050565b6000602082840312156129c457600080fd5b60006129d28482850161258e565b91505092915050565b6000602082840312156129ed57600080fd5b60006129fb848285016125f7565b91505092915050565b60008060008060808587031215612a1a57600080fd5b6000612a28878288016125f7565b9450506020612a398782880161260c565b9350506040612a4a878288016125f7565b9250506060612a5b8782880161260c565b91505092959194509250565b6000806000806000806101808789031215612a8157600080fd5b6000612a8f89828a0161260c565b9650506020612aa089828a0161260c565b9550506040612ab189828a0161260c565b9450506060612ac289828a016125f7565b9350506080612ad389828a0161253d565b925050610100612ae589828a016124ec565b9150509295509295509295565b6000612afe838361326b565b60208301905092915050565b6000612b168383613289565b60208301905092915050565b612b2b816138cc565b82525050565b612b3a81613764565b612b4481846137c2565b9250612b4f82613740565b8060005b83811015612b80578151612b678782612af2565b9650612b728361379b565b925050600181019050612b53565b505050505050565b6000612b938261376f565b612b9d81856137cd565b9350612ba88361374a565b8060005b83811015612bd9578151612bc08882612af2565b9750612bcb836137a8565b925050600181019050612bac565b5085935050505092915050565b612bef8161377a565b612bf981846137de565b9250612c048261375a565b8060005b83811015612c35578151612c1c8782612b0a565b9650612c27836137b5565b925050600181019050612c08565b505050505050565b612c46816138de565b82525050565b6000612c5782613785565b612c6181856137e9565b9350612c7181856020860161395c565b612c7a81613a97565b840191505092915050565b6000612c9082613790565b612c9a81856137fa565b9350612caa81856020860161395c565b612cb381613a97565b840191505092915050565b6000612ccb6034836137fa565b91507f455243313135353a207472616e7366657220746f206e6f6e204552433131353560008301527f526563656976657220696d706c656d656e7465720000000000000000000000006020830152604082019050919050565b6000612d316028836137fa565b91507f455243313135353a204552433131353552656365697665722072656a6563746560008301527f6420746f6b656e730000000000000000000000000000000000000000000000006020830152604082019050919050565b6000612d97602b836137fa565b91507f455243313135353a2062616c616e636520717565727920666f7220746865207a60008301527f65726f20616464726573730000000000000000000000000000000000000000006020830152604082019050919050565b6000612dfd6026836137fa565b91507f4f776e61626c653a206e6577206f776e657220697320746865207a65726f206160008301527f64647265737300000000000000000000000000000000000000000000000000006020830152604082019050919050565b6000612e636029836137fa565b91507f455243313135353a2063616c6c6572206973206e6f74206f776e6572206e6f7260008301527f20617070726f76656400000000000000000000000000000000000000000000006020830152604082019050919050565b6000612ec96025836137fa565b91507f455243313135353a207472616e7366657220746f20746865207a65726f20616460008301527f64726573730000000000000000000000000000000000000000000000000000006020830152604082019050919050565b6000612f2f6032836137fa565b91507f455243313135353a207472616e736665722063616c6c6572206973206e6f742060008301527f6f776e6572206e6f7220617070726f76656400000000000000000000000000006020830152604082019050919050565b6000612f95602a836137fa565b91507f455243313135353a20696e73756666696369656e742062616c616e636520666f60008301527f72207472616e73666572000000000000000000000000000000000000000000006020830152604082019050919050565b6000612ffb6020836137fa565b91507f4f776e61626c653a2063616c6c6572206973206e6f7420746865206f776e65726000830152602082019050919050565b600061303b6029836137fa565b91507f455243313135353a2073657474696e6720617070726f76616c2073746174757360008301527f20666f722073656c6600000000000000000000000000000000000000000000006020830152604082019050919050565b60006130a16029836137fa565b91507f455243313135353a206163636f756e747320616e6420696473206c656e67746860008301527f206d69736d6174636800000000000000000000000000000000000000000000006020830152604082019050919050565b60006131076028836137fa565b91507f455243313135353a2069647320616e6420616d6f756e7473206c656e6774682060008301527f6d69736d617463680000000000000000000000000000000000000000000000006020830152604082019050919050565b600061316d6021836137fa565b91507f455243313135353a206d696e7420746f20746865207a65726f2061646472657360008301527f73000000000000000000000000000000000000000000000000000000000000006020830152604082019050919050565b6101c0820160008201516131dd6000850182613289565b5060208201516131f06020850182613289565b5060408201516132036040850182613289565b506060820151613216606085018261326b565b5060808201516132296080850182612be6565b5060a082015161323d610100850182612b31565b5060c0820151613251610180850182613289565b5060e08201516132656101a085018261326b565b50505050565b61327481613936565b82525050565b61328381613936565b82525050565b61329281613940565b82525050565b60006020820190506132ad6000830184612b22565b92915050565b600060a0820190506132c86000830188612b22565b6132d56020830187612b22565b81810360408301526132e78186612b88565b905081810360608301526132fb8185612b88565b9050818103608083015261330f8184612c4c565b90509695505050505050565b600060a0820190506133306000830188612b22565b61333d6020830187612b22565b61334a604083018661327a565b613357606083018561327a565b81810360808301526133698184612c4c565b90509695505050505050565b6000602082019050818103600083015261338f8184612b88565b905092915050565b600060408201905081810360008301526133b18185612b88565b905081810360208301526133c58184612b88565b90509392505050565b60006020820190506133e36000830184612c3d565b92915050565b600060208201905081810360008301526134038184612c85565b905092915050565b6000602082019050818103600083015261342481612cbe565b9050919050565b6000602082019050818103600083015261344481612d24565b9050919050565b6000602082019050818103600083015261346481612d8a565b9050919050565b6000602082019050818103600083015261348481612df0565b9050919050565b600060208201905081810360008301526134a481612e56565b9050919050565b600060208201905081810360008301526134c481612ebc565b9050919050565b600060208201905081810360008301526134e481612f22565b9050919050565b6000602082019050818103600083015261350481612f88565b9050919050565b6000602082019050818103600083015261352481612fee565b9050919050565b600060208201905081810360008301526135448161302e565b9050919050565b6000602082019050818103600083015261356481613094565b9050919050565b60006020820190508181036000830152613584816130fa565b9050919050565b600060208201905081810360008301526135a481613160565b9050919050565b60006101c0820190506135c160008301846131c6565b92915050565b60006020820190506135dc600083018461327a565b92915050565b60006040820190506135f7600083018561327a565b613604602083018461327a565b9392505050565b6000604051905081810181811067ffffffffffffffff8211171561363257613631613a68565b5b8060405250919050565b600067ffffffffffffffff82111561365757613656613a68565b5b602082029050602081019050919050565b600067ffffffffffffffff82111561368357613682613a68565b5b602082029050919050565b600067ffffffffffffffff8211156136a9576136a8613a68565b5b602082029050602081019050919050565b600067ffffffffffffffff8211156136d5576136d4613a68565b5b602082029050919050565b600067ffffffffffffffff8211156136fb576136fa613a68565b5b601f19601f8301169050602081019050919050565b600067ffffffffffffffff82111561372b5761372a613a68565b5b601f19601f8301169050602081019050919050565b6000819050919050565b6000819050602082019050919050565b6000819050919050565b600060049050919050565b600081519050919050565b600060049050919050565b600081519050919050565b600081519050919050565b6000602082019050919050565b6000602082019050919050565b6000602082019050919050565b600081905092915050565b600082825260208201905092915050565b600081905092915050565b600082825260208201905092915050565b600082825260208201905092915050565b600061381682613936565b915061382183613936565b9250827fffffffffffffffffffffffffffffffffffffffffffffffffffffffffffffffff0382111561385657613855613a0a565b5b828201905092915050565b600061386c82613940565b915061387783613940565b92508260ff0382111561388d5761388c613a0a565b5b828201905092915050565b60006138a382613940565b91506138ae83613940565b9250828210156138c1576138c0613a0a565b5b828203905092915050565b60006138d782613916565b9050919050565b60008115159050919050565b60007fffffffff0000000000000000000000000000000000000000000000000000000082169050919050565b600073ffffffffffffffffffffffffffffffffffffffff82169050919050565b6000819050919050565b600060ff82169050919050565b82818337600083830152505050565b60005b8381101561397a57808201518184015260208101905061395f565b83811115613989576000848401525b50505050565b600060028204905060018216806139a757607f821691505b602082108114156139bb576139ba613a39565b5b50919050565b60006139cc82613936565b91507fffffffffffffffffffffffffffffffffffffffffffffffffffffffffffffffff8214156139ff576139fe613a0a565b5b600182019050919050565b7f4e487b7100000000000000000000000000000000000000000000000000000000600052601160045260246000fd5b7f4e487b7100000000000000000000000000000000000000000000000000000000600052602260045260246000fd5b7f4e487b7100000000000000000000000000000000000000000000000000000000600052604160045260246000fd5b6000601f19601f8301169050919050565b60008160e01c9050919050565b600060443d1015613ac557613b68565b60046000803e613ad6600051613aa8565b6308c379a08114613ae75750613b68565b60405160043d036004823e80513d602482011167ffffffffffffffff82111715613b1357505050613b68565b808201805167ffffffffffffffff811115613b32575050505050613b68565b8060208301013d8501811115613b4d57505050505050613b68565b613b5682613a97565b60208401016040528296505050505050505b90565b613b74816138cc565b8114613b7f57600080fd5b50565b613b8b816138de565b8114613b9657600080fd5b50565b613ba2816138ea565b8114613bad57600080fd5b50565b613bb981613936565b8114613bc457600080fd5b50565b613bd081613940565b8114613bdb57600080fd5b5056fea2646970667358221220b548fcea84186f5842c9fe2dc9ce771e3724da59580f8c2406c1754ec78c4e5e64736f6c63430008000033",
  "immutableReferences": {},
  "source": "// SPDX-License-Identifier: GPL-3.0-or-later\r\npragma solidity ^0.8.0;\r\n\r\nimport \"../node_modules/@openzeppelin/contracts/token/ERC1155/ERC1155.sol\";\r\nimport \"../node_modules/@openzeppelin/contracts/access/Ownable.sol\";\r\n\r\ncontract Token is ERC1155, Ownable {\r\n\r\n    uint8 constant FLOWER = 1;\r\n    uint8 constant FEATHER = 2;\r\n    uint8 constant SANDS = 3;\r\n    uint8 constant GOBLET = 4;\r\n    uint8 constant CIRCLET = 5;\r\n\r\n    struct Relic {\r\n        uint8 part;\r\n        uint8 set;\r\n        uint8 mainOpType;\r\n        uint256 mainOpValue;\r\n        uint8[4] subOpType;\r\n        uint256[4] subOpValue;\r\n        uint8 level;\r\n        uint256 exp;\r\n    }\r\n\r\n    uint256 nextId = 0;\r\n\r\n    mapping(uint256 => Relic) private _tokenDetails;\r\n\r\n    constructor(string memory name, string memory symbol, string memory uri) ERC1155(uri) {\r\n\r\n    }\r\n\r\n    function getTokenDetails(uint256 tokenId) public view returns (Relic memory) {\r\n        return _tokenDetails[tokenId];\r\n    }\r\n\r\n    function mint(uint8 part, uint8 set, uint8 mainOpType, uint256 mainOpValue, uint8[4] memory subOpType, uint256[4] memory subOpValue) public onlyOwner {\r\n        uint8 level = 0;\r\n        uint256 exp = 0;\r\n        _tokenDetails[nextId] = Relic(part, set, mainOpType, mainOpValue, subOpType, subOpValue, level, exp);\r\n        _mint(msg.sender, nextId, 1, \"\");\r\n        nextId++;\r\n    }\r\n\r\n    function enhance(uint256 tokenId, uint8 targetIndex, uint256 targetValue, uint8 targetType) public {\r\n        Relic storage relic = _tokenDetails[tokenId];\r\n        relic.level += 1;\r\n        if (targetIndex != 0 && targetValue != 0) {\r\n            if (relic.subOpType[3] == 0) {\r\n                relic.subOpType[3] = targetType;\r\n            }\r\n            relic.subOpValue[targetIndex-1] += targetValue;\r\n        }\r\n    }\r\n\r\n    function getAllTokensForUser(address user) public view returns (uint256[] memory) {\r\n        uint256 tokenCount = 0;\r\n        uint256 j;\r\n        for(j = 0; j < nextId; j++) {\r\n            tokenCount = tokenCount + balanceOf(user, j);\r\n        }\r\n        if(tokenCount == 0) {\r\n            return new uint256[](0);\r\n        }\r\n        else {\r\n            uint[] memory result = new uint256[](tokenCount);\r\n            uint256 totalPets = nextId;\r\n            uint256 resultIndex = 0;\r\n            uint256 i;\r\n            for(i = 0; i < totalPets; i++) {\r\n                if(_ownerOf(i)) {\r\n                    result[resultIndex] = i;\r\n                    resultIndex++; \r\n                }\r\n            }\r\n            return result;\r\n        }\r\n    }\r\n\r\n    function _beforeTokenTransfer(address operator, address from, address to, uint256[] memory ids, uint256[] memory amounts, string memory data) public view onlyOwner {\r\n        Relic storage relic = _tokenDetails[ids[0]];\r\n    }\r\n\r\n    function _ownerOf(uint256 tokenId) internal view returns (bool) {\r\n        return balanceOf(msg.sender, tokenId) != 0;\r\n    }\r\n}\r\n\r\n\r\n",
  "sourcePath": "C:\\Users\\mario\\Desktop\\NFTG\\contracts\\Token.sol",
  "compiler": {
    "name": "solc",
    "version": "0.8.0+commit.c7dfd78e.Emscripten.clang"
  },
  "schemaVersion": "3.4.5",
  "updatedAt": "2022-03-12T11:31:36.408Z",
  "devdoc": {
    "kind": "dev",
    "methods": {
      "balanceOf(address,uint256)": {
        "details": "See {IERC1155-balanceOf}. Requirements: - `account` cannot be the zero address."
      },
      "balanceOfBatch(address[],uint256[])": {
        "details": "See {IERC1155-balanceOfBatch}. Requirements: - `accounts` and `ids` must have the same length."
      },
      "isApprovedForAll(address,address)": {
        "details": "See {IERC1155-isApprovedForAll}."
      },
      "owner()": {
        "details": "Returns the address of the current owner."
      },
      "renounceOwnership()": {
        "details": "Leaves the contract without owner. It will not be possible to call `onlyOwner` functions anymore. Can only be called by the current owner. NOTE: Renouncing ownership will leave the contract without an owner, thereby removing any functionality that is only available to the owner."
      },
      "safeBatchTransferFrom(address,address,uint256[],uint256[],bytes)": {
        "details": "See {IERC1155-safeBatchTransferFrom}."
      },
      "safeTransferFrom(address,address,uint256,uint256,bytes)": {
        "details": "See {IERC1155-safeTransferFrom}."
      },
      "setApprovalForAll(address,bool)": {
        "details": "See {IERC1155-setApprovalForAll}."
      },
      "supportsInterface(bytes4)": {
        "details": "See {IERC165-supportsInterface}."
      },
      "transferOwnership(address)": {
        "details": "Transfers ownership of the contract to a new account (`newOwner`). Can only be called by the current owner."
      },
      "uri(uint256)": {
        "details": "See {IERC1155MetadataURI-uri}. This implementation returns the same URI for *all* token types. It relies on the token type ID substitution mechanism https://eips.ethereum.org/EIPS/eip-1155#metadata[defined in the EIP]. Clients calling this function must replace the `\\{id\\}` substring with the actual token type ID."
      }
    },
    "version": 1
  },
  "userdoc": {
    "kind": "user",
    "methods": {},
    "version": 1
  }
}