{
  "contractName": "Token",
  "abi": [
    {
      "inputs": [
        {
          "internalType": "string",
          "name": "name",
          "type": "string"
        },
        {
          "internalType": "string",
          "name": "symbol",
          "type": "string"
        },
        {
          "internalType": "string",
          "name": "uri",
          "type": "string"
        }
      ],
      "stateMutability": "nonpayable",
      "type": "constructor"
    },
    {
      "anonymous": false,
      "inputs": [
        {
          "indexed": true,
          "internalType": "address",
          "name": "account",
          "type": "address"
        },
        {
          "indexed": true,
          "internalType": "address",
          "name": "operator",
          "type": "address"
        },
        {
          "indexed": false,
          "internalType": "bool",
          "name": "approved",
          "type": "bool"
        }
      ],
      "name": "ApprovalForAll",
      "type": "event"
    },
    {
      "anonymous": false,
      "inputs": [
        {
          "indexed": true,
          "internalType": "address",
          "name": "previousOwner",
          "type": "address"
        },
        {
          "indexed": true,
          "internalType": "address",
          "name": "newOwner",
          "type": "address"
        }
      ],
      "name": "OwnershipTransferred",
      "type": "event"
    },
    {
      "anonymous": false,
      "inputs": [
        {
          "indexed": true,
          "internalType": "address",
          "name": "operator",
          "type": "address"
        },
        {
          "indexed": true,
          "internalType": "address",
          "name": "from",
          "type": "address"
        },
        {
          "indexed": true,
          "internalType": "address",
          "name": "to",
          "type": "address"
        },
        {
          "indexed": false,
          "internalType": "uint256[]",
          "name": "ids",
          "type": "uint256[]"
        },
        {
          "indexed": false,
          "internalType": "uint256[]",
          "name": "values",
          "type": "uint256[]"
        }
      ],
      "name": "TransferBatch",
      "type": "event"
    },
    {
      "anonymous": false,
      "inputs": [
        {
          "indexed": true,
          "internalType": "address",
          "name": "operator",
          "type": "address"
        },
        {
          "indexed": true,
          "internalType": "address",
          "name": "from",
          "type": "address"
        },
        {
          "indexed": true,
          "internalType": "address",
          "name": "to",
          "type": "address"
        },
        {
          "indexed": false,
          "internalType": "uint256",
          "name": "id",
          "type": "uint256"
        },
        {
          "indexed": false,
          "internalType": "uint256",
          "name": "value",
          "type": "uint256"
        }
      ],
      "name": "TransferSingle",
      "type": "event"
    },
    {
      "anonymous": false,
      "inputs": [
        {
          "indexed": false,
          "internalType": "string",
          "name": "value",
          "type": "string"
        },
        {
          "indexed": true,
          "internalType": "uint256",
          "name": "id",
          "type": "uint256"
        }
      ],
      "name": "URI",
      "type": "event"
    },
    {
      "inputs": [
        {
          "internalType": "address",
          "name": "account",
          "type": "address"
        },
        {
          "internalType": "uint256",
          "name": "id",
          "type": "uint256"
        }
      ],
      "name": "balanceOf",
      "outputs": [
        {
          "internalType": "uint256",
          "name": "",
          "type": "uint256"
        }
      ],
      "stateMutability": "view",
      "type": "function",
      "constant": true
    },
    {
      "inputs": [
        {
          "internalType": "address[]",
          "name": "accounts",
          "type": "address[]"
        },
        {
          "internalType": "uint256[]",
          "name": "ids",
          "type": "uint256[]"
        }
      ],
      "name": "balanceOfBatch",
      "outputs": [
        {
          "internalType": "uint256[]",
          "name": "",
          "type": "uint256[]"
        }
      ],
      "stateMutability": "view",
      "type": "function",
      "constant": true
    },
    {
      "inputs": [
        {
          "internalType": "address",
          "name": "account",
          "type": "address"
        },
        {
          "internalType": "address",
          "name": "operator",
          "type": "address"
        }
      ],
      "name": "isApprovedForAll",
      "outputs": [
        {
          "internalType": "bool",
          "name": "",
          "type": "bool"
        }
      ],
      "stateMutability": "view",
      "type": "function",
      "constant": true
    },
    {
      "inputs": [],
      "name": "owner",
      "outputs": [
        {
          "internalType": "address",
          "name": "",
          "type": "address"
        }
      ],
      "stateMutability": "view",
      "type": "function",
      "constant": true
    },
    {
      "inputs": [],
      "name": "renounceOwnership",
      "outputs": [],
      "stateMutability": "nonpayable",
      "type": "function"
    },
    {
      "inputs": [
        {
          "internalType": "address",
          "name": "from",
          "type": "address"
        },
        {
          "internalType": "address",
          "name": "to",
          "type": "address"
        },
        {
          "internalType": "uint256[]",
          "name": "ids",
          "type": "uint256[]"
        },
        {
          "internalType": "uint256[]",
          "name": "amounts",
          "type": "uint256[]"
        },
        {
          "internalType": "bytes",
          "name": "data",
          "type": "bytes"
        }
      ],
      "name": "safeBatchTransferFrom",
      "outputs": [],
      "stateMutability": "nonpayable",
      "type": "function"
    },
    {
      "inputs": [
        {
          "internalType": "address",
          "name": "from",
          "type": "address"
        },
        {
          "internalType": "address",
          "name": "to",
          "type": "address"
        },
        {
          "internalType": "uint256",
          "name": "id",
          "type": "uint256"
        },
        {
          "internalType": "uint256",
          "name": "amount",
          "type": "uint256"
        },
        {
          "internalType": "bytes",
          "name": "data",
          "type": "bytes"
        }
      ],
      "name": "safeTransferFrom",
      "outputs": [],
      "stateMutability": "nonpayable",
      "type": "function"
    },
    {
      "inputs": [
        {
          "internalType": "address",
          "name": "operator",
          "type": "address"
        },
        {
          "internalType": "bool",
          "name": "approved",
          "type": "bool"
        }
      ],
      "name": "setApprovalForAll",
      "outputs": [],
      "stateMutability": "nonpayable",
      "type": "function"
    },
    {
      "inputs": [
        {
          "internalType": "bytes4",
          "name": "interfaceId",
          "type": "bytes4"
        }
      ],
      "name": "supportsInterface",
      "outputs": [
        {
          "internalType": "bool",
          "name": "",
          "type": "bool"
        }
      ],
      "stateMutability": "view",
      "type": "function",
      "constant": true
    },
    {
      "inputs": [
        {
          "internalType": "address",
          "name": "newOwner",
          "type": "address"
        }
      ],
      "name": "transferOwnership",
      "outputs": [],
      "stateMutability": "nonpayable",
      "type": "function"
    },
    {
      "inputs": [
        {
          "internalType": "uint256",
          "name": "",
          "type": "uint256"
        }
      ],
      "name": "uri",
      "outputs": [
        {
          "internalType": "string",
          "name": "",
          "type": "string"
        }
      ],
      "stateMutability": "view",
      "type": "function",
      "constant": true
    },
    {
      "inputs": [
        {
          "internalType": "uint256",
          "name": "tokenId",
          "type": "uint256"
        }
      ],
      "name": "getTokenDetails",
      "outputs": [
        {
          "components": [
            {
              "internalType": "uint256",
              "name": "part",
              "type": "uint256"
            },
            {
              "internalType": "uint256",
              "name": "set",
              "type": "uint256"
            },
            {
              "internalType": "uint256",
              "name": "mainOpType",
              "type": "uint256"
            },
            {
              "internalType": "uint256",
              "name": "mainOpValue",
              "type": "uint256"
            },
            {
              "internalType": "uint256[4]",
              "name": "subOpType",
              "type": "uint256[4]"
            },
            {
              "internalType": "uint256[4]",
              "name": "subOpValue",
              "type": "uint256[4]"
            },
            {
              "internalType": "uint256",
              "name": "level",
              "type": "uint256"
            },
            {
              "internalType": "uint256",
              "name": "exp",
              "type": "uint256"
            }
          ],
          "internalType": "struct Token.Relic",
          "name": "",
          "type": "tuple"
        }
      ],
      "stateMutability": "view",
      "type": "function",
      "constant": true
    },
    {
      "inputs": [
        {
          "internalType": "uint256[10]",
          "name": "arr",
          "type": "uint256[10]"
        },
        {
          "internalType": "uint256",
          "name": "searchFor",
          "type": "uint256"
        }
      ],
      "name": "indexOf",
      "outputs": [
        {
          "internalType": "int256",
          "name": "",
          "type": "int256"
        }
      ],
      "stateMutability": "pure",
      "type": "function",
      "constant": true
    },
    {
      "inputs": [
        {
          "internalType": "uint256",
          "name": "location",
          "type": "uint256"
        }
      ],
      "name": "mint",
      "outputs": [],
      "stateMutability": "nonpayable",
      "type": "function"
    },
    {
      "inputs": [],
      "name": "getRandomPart",
      "outputs": [
        {
          "internalType": "uint256",
          "name": "",
          "type": "uint256"
        }
      ],
      "stateMutability": "view",
      "type": "function",
      "constant": true
    },
    {
      "inputs": [
        {
          "internalType": "uint256",
          "name": "location",
          "type": "uint256"
        }
      ],
      "name": "getRandomSet",
      "outputs": [
        {
          "internalType": "uint256",
          "name": "",
          "type": "uint256"
        }
      ],
      "stateMutability": "view",
      "type": "function",
      "constant": true
    },
    {
      "inputs": [
        {
          "internalType": "uint256",
          "name": "part",
          "type": "uint256"
        }
      ],
      "name": "getMainOpType",
      "outputs": [
        {
          "internalType": "uint256",
          "name": "",
          "type": "uint256"
        }
      ],
      "stateMutability": "view",
      "type": "function",
      "constant": true
    },
    {
      "inputs": [
        {
          "internalType": "uint256",
          "name": "mainOpType",
          "type": "uint256"
        }
      ],
      "name": "getMainOpValue",
      "outputs": [
        {
          "internalType": "uint256",
          "name": "",
          "type": "uint256"
        }
      ],
      "stateMutability": "pure",
      "type": "function",
      "constant": true
    },
    {
      "inputs": [
        {
          "internalType": "uint256",
          "name": "mainOpType",
          "type": "uint256"
        }
      ],
      "name": "getSubOpType",
      "outputs": [
        {
          "internalType": "uint256[4]",
          "name": "",
          "type": "uint256[4]"
        }
      ],
      "stateMutability": "view",
      "type": "function",
      "constant": true
    },
    {
      "inputs": [
        {
          "internalType": "uint256[4]",
          "name": "subOpType",
          "type": "uint256[4]"
        }
      ],
      "name": "getSubOpValue",
      "outputs": [
        {
          "internalType": "uint256[4]",
          "name": "",
          "type": "uint256[4]"
        }
      ],
      "stateMutability": "view",
      "type": "function",
      "constant": true
    },
    {
      "inputs": [
        {
          "internalType": "uint256",
          "name": "number",
          "type": "uint256"
        },
        {
          "internalType": "uint256",
          "name": "randNonce",
          "type": "uint256"
        }
      ],
      "name": "createRandom",
      "outputs": [
        {
          "internalType": "uint256",
          "name": "",
          "type": "uint256"
        }
      ],
      "stateMutability": "view",
      "type": "function",
      "constant": true
    },
    {
      "inputs": [
        {
          "internalType": "uint256",
          "name": "tokenId",
          "type": "uint256"
        },
        {
          "internalType": "uint8",
          "name": "targetIndex",
          "type": "uint8"
        },
        {
          "internalType": "uint256",
          "name": "targetValue",
          "type": "uint256"
        },
        {
          "internalType": "uint8",
          "name": "targetType",
          "type": "uint8"
        }
      ],
      "name": "enhance",
      "outputs": [],
      "stateMutability": "nonpayable",
      "type": "function"
    },
    {
      "inputs": [
        {
          "internalType": "address",
          "name": "user",
          "type": "address"
        }
      ],
      "name": "getAllTokensForUser",
      "outputs": [
        {
          "internalType": "uint256[]",
          "name": "",
          "type": "uint256[]"
        }
      ],
      "stateMutability": "view",
      "type": "function",
      "constant": true
    },
    {
      "inputs": [
        {
          "internalType": "address",
          "name": "operator",
          "type": "address"
        },
        {
          "internalType": "address",
          "name": "from",
          "type": "address"
        },
        {
          "internalType": "address",
          "name": "to",
          "type": "address"
        },
        {
          "internalType": "uint256[]",
          "name": "ids",
          "type": "uint256[]"
        },
        {
          "internalType": "uint256[]",
          "name": "amounts",
          "type": "uint256[]"
        },
        {
          "internalType": "string",
          "name": "data",
          "type": "string"
        }
      ],
      "name": "_beforeTokenTransfer",
      "outputs": [],
      "stateMutability": "view",
      "type": "function",
      "constant": true
    }
  ],
  "bytecode": "0x608060405260006004553480156200001657600080fd5b5060405162004c3738038062004c3783398181016040528101906200003c919062000284565b806200004e816200007860201b60201c565b506200006f620000636200009460201b60201c565b6200009c60201b60201c565b50505062000456565b80600290805190602001906200009092919062000162565b5050565b600033905090565b6000600360009054906101000a900473ffffffffffffffffffffffffffffffffffffffff16905081600360006101000a81548173ffffffffffffffffffffffffffffffffffffffff021916908373ffffffffffffffffffffffffffffffffffffffff1602179055508173ffffffffffffffffffffffffffffffffffffffff168173ffffffffffffffffffffffffffffffffffffffff167f8be0079c531659141344cd1fd0a4f28419497f9722a3daafe3b4186f6b6457e060405160405180910390a35050565b8280546200017090620003c2565b90600052602060002090601f016020900481019282620001945760008555620001e0565b82601f10620001af57805160ff1916838001178555620001e0565b82800160010185558215620001e0579182015b82811115620001df578251825591602001919060010190620001c2565b5b509050620001ef9190620001f3565b5090565b5b808211156200020e576000816000905550600101620001f4565b5090565b600062000229620002238462000359565b62000325565b9050828152602081018484840111156200024257600080fd5b6200024f8482856200038c565b509392505050565b600082601f8301126200026957600080fd5b81516200027b84826020860162000212565b91505092915050565b6000806000606084860312156200029a57600080fd5b600084015167ffffffffffffffff811115620002b557600080fd5b620002c38682870162000257565b935050602084015167ffffffffffffffff811115620002e157600080fd5b620002ef8682870162000257565b925050604084015167ffffffffffffffff8111156200030d57600080fd5b6200031b8682870162000257565b9150509250925092565b6000604051905081810181811067ffffffffffffffff821117156200034f576200034e62000427565b5b8060405250919050565b600067ffffffffffffffff82111562000377576200037662000427565b5b601f19601f8301169050602081019050919050565b60005b83811015620003ac5780820151818401526020810190506200038f565b83811115620003bc576000848401525b50505050565b60006002820490506001821680620003db57607f821691505b60208210811415620003f257620003f1620003f8565b5b50919050565b7f4e487b7100000000000000000000000000000000000000000000000000000000600052602260045260246000fd5b7f4e487b7100000000000000000000000000000000000000000000000000000000600052604160045260246000fd5b6147d180620004666000396000f3fe608060405234801561001057600080fd5b50600436106101575760003560e01c806382de8fe9116100c3578063c1e037281161007c578063c1e0372814610420578063d46feaaf14610450578063e32a44051461046e578063e985e9c51461049e578063f242432a146104ce578063f2fde38b146104ea57610157565b806382de8fe91461033a5780638560389e1461036a5780638da5cb5b1461039a57806394cc25e3146103b8578063a0712d68146103e8578063a22cb4651461040457610157565b80634987b8ab116101155780634987b8ab146102545780634e1273f414610284578063640a0759146102b45780636ab6236f146102e4578063715018a61461030057806379e492c91461030a57610157565b8062fdd58e1461015c57806301ffc9a71461018c57806303af5571146101bc5780630e89341c146101d85780632eb2c2d61461020857806332282af514610224575b600080fd5b610176600480360381019061017191906132da565b610506565b6040516101839190614061565b60405180910390f35b6101a660048036038101906101a191906133e9565b6105cf565b6040516101b39190613e4d565b60405180910390f35b6101d660048036038101906101d191906134a0565b6106b1565b005b6101f260048036038101906101ed919061343b565b6107f7565b6040516101ff9190613e83565b60405180910390f35b610222600480360381019061021d9190613150565b61088b565b005b61023e600480360381019061023991906133c0565b61092c565b60405161024b9190613dd9565b60405180910390f35b61026e60048036038101906102699190613382565b610c0c565b60405161027b9190613e68565b60405180910390f35b61029e60048036038101906102999190613316565b610ca9565b6040516102ab9190613df4565b60405180910390f35b6102ce60048036038101906102c99190613464565b610e5a565b6040516102db9190614061565b60405180910390f35b6102fe60048036038101906102f9919061307f565b610e9d565b005b610308610f7a565b005b610324600480360381019061031f919061343b565b611002565b6040516103319190614061565b60405180910390f35b610354600480360381019061034f919061301a565b61101c565b6040516103619190613df4565b60405180910390f35b610384600480360381019061037f919061343b565b6111e3565b6040516103919190614061565b60405180910390f35b6103a26112cb565b6040516103af9190613cfc565b60405180910390f35b6103d260048036038101906103cd919061343b565b6112f5565b6040516103df9190613dd9565b60405180910390f35b61040260048036038101906103fd919061343b565b611592565b005b61041e6004803603810190610419919061329e565b61175d565b005b61043a6004803603810190610435919061343b565b611773565b6040516104479190614045565b60405180910390f35b610458611867565b6040516104659190614061565b60405180910390f35b6104886004803603810190610483919061343b565b61187f565b6040516104959190614061565b60405180910390f35b6104b860048036038101906104b39190613043565b611a96565b6040516104c59190613e4d565b60405180910390f35b6104e860048036038101906104e3919061320f565b611b2a565b005b61050460048036038101906104ff919061301a565b611bcb565b005b60008073ffffffffffffffffffffffffffffffffffffffff168373ffffffffffffffffffffffffffffffffffffffff161415610577576040517f08c379a000000000000000000000000000000000000000000000000000000000815260040161056e90613ee5565b60405180910390fd5b60008083815260200190815260200160002060008473ffffffffffffffffffffffffffffffffffffffff1673ffffffffffffffffffffffffffffffffffffffff16815260200190815260200160002054905092915050565b60007fd9b67a26000000000000000000000000000000000000000000000000000000007bffffffffffffffffffffffffffffffffffffffffffffffffffffffff1916827bffffffffffffffffffffffffffffffffffffffffffffffffffffffff1916148061069a57507f0e89341c000000000000000000000000000000000000000000000000000000007bffffffffffffffffffffffffffffffffffffffffffffffffffffffff1916827bffffffffffffffffffffffffffffffffffffffffffffffffffffffff1916145b806106aa57506106a982611cc3565b5b9050919050565b6000600560008681526020019081526020016000209050600181600c0160008282546106dd9190614283565b9250508190555060008460ff16141580156106f9575060008314155b156107f05760008160040160036004811061073d577f4e487b7100000000000000000000000000000000000000000000000000000000600052603260045260246000fd5b0154141561078c578160ff1681600401600360048110610786577f4e487b7100000000000000000000000000000000000000000000000000000000600052603260045260246000fd5b01819055505b828160080160018661079e9190614367565b60ff16600481106107d8577f4e487b7100000000000000000000000000000000000000000000000000000000600052603260045260246000fd5b0160008282546107e89190614283565b925050819055505b5050505050565b60606002805461080690614468565b80601f016020809104026020016040519081016040528092919081815260200182805461083290614468565b801561087f5780601f106108545761010080835404028352916020019161087f565b820191906000526020600020905b81548152906001019060200180831161086257829003601f168201915b50505050509050919050565b610893611d2d565b73ffffffffffffffffffffffffffffffffffffffff168573ffffffffffffffffffffffffffffffffffffffff1614806108d957506108d8856108d3611d2d565b611a96565b5b610918576040517f08c379a000000000000000000000000000000000000000000000000000000000815260040161090f90613f65565b60405180910390fd5b6109258585858585611d35565b5050505050565b610934612b77565b6000604051806105800160405280608c815260200160a0815260200160b4815260200160be815260200161082a81526020016109568152602001610a828152602001610bae815260200160a0815260200160be815260200160d2815260200160e68152602001608c815260200160a0815260200160b4815260200160be815260200160298152602001602f815260200160358152602001603a815260200160298152602001602f815260200160358152602001603a815260200160338152602001603a81526020016042815260200160498152602001601b8152602001601f8152602001602381526020016027815260200160368152602001603e815260200160468152602001604e815260200160a0815260200160be815260200160d2815260200160e68152602001602d815260200160348152602001603a8152602001604181525090506000604051806080016040528060008152602001600081526020016000815260200160008152509050600080600090505b6004811015610c00576000868260048110610aef577f4e487b7100000000000000000000000000000000000000000000000000000000600052603260045260246000fd5b60200201511415610aff57610bed565b610b0a600482610e5a565b9150838260046001898560048110610b4b577f4e487b7100000000000000000000000000000000000000000000000000000000600052603260045260246000fd5b6020020151610b5a9190614333565b610b6491906142d9565b610b6e9190614283565b602c8110610ba5577f4e487b7100000000000000000000000000000000000000000000000000000000600052603260045260246000fd5b6020020151838260048110610be3577f4e487b7100000000000000000000000000000000000000000000000000000000600052603260045260246000fd5b6020020181815250505b8080610bf8906144e3565b915050610aab565b50819350505050919050565b600080600090505b600a811215610c7e57828482600a8110610c57577f4e487b7100000000000000000000000000000000000000000000000000000000600052603260045260246000fd5b60200201511415610c6b5780915050610ca3565b8080610c769061449a565b915050610c14565b507fffffffffffffffffffffffffffffffffffffffffffffffffffffffffffffffff90505b92915050565b60608151835114610cef576040517f08c379a0000000000000000000000000000000000000000000000000000000008152600401610ce690613fe5565b60405180910390fd5b6000835167ffffffffffffffff811115610d32577f4e487b7100000000000000000000000000000000000000000000000000000000600052604160045260246000fd5b604051908082528060200260200182016040528015610d605781602001602082028036833780820191505090505b50905060005b8451811015610e4f57610df9858281518110610dab577f4e487b7100000000000000000000000000000000000000000000000000000000600052603260045260246000fd5b6020026020010151858381518110610dec577f4e487b7100000000000000000000000000000000000000000000000000000000600052603260045260246000fd5b6020026020010151610506565b828281518110610e32577f4e487b7100000000000000000000000000000000000000000000000000000000600052603260045260246000fd5b60200260200101818152505080610e48906144e3565b9050610d66565b508091505092915050565b600082423384604051602001610e7293929190613cbf565b6040516020818303038152906040528051906020012060001c610e95919061455a565b905092915050565b610ea5611d2d565b73ffffffffffffffffffffffffffffffffffffffff16610ec36112cb565b73ffffffffffffffffffffffffffffffffffffffff1614610f19576040517f08c379a0000000000000000000000000000000000000000000000000000000008152600401610f1090613fa5565b60405180910390fd5b60006005600085600081518110610f59577f4e487b7100000000000000000000000000000000000000000000000000000000600052603260045260246000fd5b60200260200101518152602001908152602001600020905050505050505050565b610f82611d2d565b73ffffffffffffffffffffffffffffffffffffffff16610fa06112cb565b73ffffffffffffffffffffffffffffffffffffffff1614610ff6576040517f08c379a0000000000000000000000000000000000000000000000000000000008152600401610fed90613fa5565b60405180910390fd5b6110006000612095565b565b60008061101160026000610e5a565b905080915050919050565b60606000805b600454811015611056576110368482610506565b826110419190614283565b9150808061104e906144e3565b915050611022565b60008214156110d857600067ffffffffffffffff8111156110a0577f4e487b7100000000000000000000000000000000000000000000000000000000600052604160045260246000fd5b6040519080825280602002602001820160405280156110ce5781602001602082028036833780820191505090505b50925050506111de565b60008267ffffffffffffffff81111561111a577f4e487b7100000000000000000000000000000000000000000000000000000000600052604160045260246000fd5b6040519080825280602002602001820160405280156111485781602001602082028036833780820191505090505b509050600060045490506000805b828110156111d4576111678161215b565b156111c157808483815181106111a6577f4e487b7100000000000000000000000000000000000000000000000000000000600052603260045260246000fd5b60200260200101818152505081806111bd906144e3565b9250505b80806111cc906144e3565b915050611156565b8396505050505050505b919050565b6000806040518061024001604052806101d68152602001611c02815260200160008152602001604681526020016046815260200160578152602001602f8152602001605d81526020016101188152602001604e815260200160578152602001604681526020016046815260200160468152602001604681526020016046815260200160468152602001603681525090506000816001856112839190614333565b601281106112ba577f4e487b7100000000000000000000000000000000000000000000000000000000600052603260045260246000fd5b602002015190508092505050919050565b6000600360009054906101000a900473ffffffffffffffffffffffffffffffffffffffff16905090565b6112fd612b77565b6000604051806080016040528060008152602001600081526020016000815260200160008152509050600061133460026000610e5a565b90506000604051806101400160405280600181526020016002815260200160038152602001600481526020016005815260200160068152602001600781526020016008815260200160098152602001600a81525090507fffffffffffffffffffffffffffffffffffffffffffffffffffffffffffffffff6113b58287610c0c565b1461140657806113c58287610c0c565b600a81106113fc577f4e487b7100000000000000000000000000000000000000000000000000000000600052603260045260246000fd5b6020020160008152505b60005b6004811015611537578161141e600a83610e5a565b600a8110611455577f4e487b7100000000000000000000000000000000000000000000000000000000600052603260045260246000fd5b6020020151848260048110611493577f4e487b7100000000000000000000000000000000000000000000000000000000600052603260045260246000fd5b602002018181525050816114e4838684600481106114da577f4e487b7100000000000000000000000000000000000000000000000000000000600052603260045260246000fd5b6020020151610c0c565b600a811061151b577f4e487b7100000000000000000000000000000000000000000000000000000000600052603260045260246000fd5b602002016000815250808061152f906144e3565b915050611409565b5060008214156115875760008360036004811061157d577f4e487b7100000000000000000000000000000000000000000000000000000000600052603260045260246000fd5b6020020181815250505b829350505050919050565b61159a611d2d565b73ffffffffffffffffffffffffffffffffffffffff166115b86112cb565b73ffffffffffffffffffffffffffffffffffffffff161461160e576040517f08c379a000000000000000000000000000000000000000000000000000000000815260040161160590613fa5565b60405180910390fd5b600080600061161c84611002565b90506000611628611867565b905060006116358261187f565b90506000611642826111e3565b9050600061164f836112f5565b9050600061165c8261092c565b905060405180610100016040528086815260200187815260200185815260200184815260200183815260200182815260200189815260200188815250600560006004548152602001908152602001600020600082015181600001556020820151816001015560408201518160020155606082015181600301556080820151816004019060046116ec929190612b99565b5060a082015181600801906004611704929190612b99565b5060c082015181600c015560e082015181600d015590505061173a33600454600160405180602001604052806000815250612171565b6004600081548092919061174d906144e3565b9190505550505050505050505050565b61176f611768611d2d565b8383612307565b5050565b61177b612bd9565b600560008381526020019081526020016000206040518061010001604052908160008201548152602001600182015481526020016002820154815260200160038201548152602001600482016004806020026040519081016040528092919082600480156117fe576020028201915b8154815260200190600101908083116117ea575b5050505050815260200160088201600480602002604051908101604052809291908260048015611843576020028201915b81548152602001906001019080831161182f575b50505050508152602001600c8201548152602001600d820154815250509050919050565b60008061187660056000610e5a565b90508091505090565b6000806000905060018314156118985760029050611a8d565b60028314156118aa5760019050611a8c565b600383141561193a576118bb612c2a565b6040518060a0016040528060048152602001600581526020016006815260200160098152602001600a8152509050806118f660056000610e5a565b6005811061192d577f4e487b7100000000000000000000000000000000000000000000000000000000600052603260045260246000fd5b6020020151915050611a8b565b60048314156119f55761194b612c4c565b60405180610160016040528060048152602001600581526020016006815260200160098152602001600b8152602001600c8152602001600d8152602001600e8152602001600f81526020016010815260200160118152509050806119b1600b6000610e5a565b600b81106119e8577f4e487b7100000000000000000000000000000000000000000000000000000000600052603260045260246000fd5b6020020151915050611a8a565b6005831415611a895760006040518060e001604052806004815260200160058152602001600681526020016007815260200160088152602001600981526020016012815250905080611a4960076000610e5a565b60078110611a80577f4e487b7100000000000000000000000000000000000000000000000000000000600052603260045260246000fd5b60200201519150505b5b5b5b5b80915050919050565b6000600160008473ffffffffffffffffffffffffffffffffffffffff1673ffffffffffffffffffffffffffffffffffffffff16815260200190815260200160002060008373ffffffffffffffffffffffffffffffffffffffff1673ffffffffffffffffffffffffffffffffffffffff16815260200190815260200160002060009054906101000a900460ff16905092915050565b611b32611d2d565b73ffffffffffffffffffffffffffffffffffffffff168573ffffffffffffffffffffffffffffffffffffffff161480611b785750611b7785611b72611d2d565b611a96565b5b611bb7576040517f08c379a0000000000000000000000000000000000000000000000000000000008152600401611bae90613f25565b60405180910390fd5b611bc48585858585612474565b5050505050565b611bd3611d2d565b73ffffffffffffffffffffffffffffffffffffffff16611bf16112cb565b73ffffffffffffffffffffffffffffffffffffffff1614611c47576040517f08c379a0000000000000000000000000000000000000000000000000000000008152600401611c3e90613fa5565b60405180910390fd5b600073ffffffffffffffffffffffffffffffffffffffff168173ffffffffffffffffffffffffffffffffffffffff161415611cb7576040517f08c379a0000000000000000000000000000000000000000000000000000000008152600401611cae90613f05565b60405180910390fd5b611cc081612095565b50565b60007f01ffc9a7000000000000000000000000000000000000000000000000000000007bffffffffffffffffffffffffffffffffffffffffffffffffffffffff1916827bffffffffffffffffffffffffffffffffffffffffffffffffffffffff1916149050919050565b600033905090565b8151835114611d79576040517f08c379a0000000000000000000000000000000000000000000000000000000008152600401611d7090614005565b60405180910390fd5b600073ffffffffffffffffffffffffffffffffffffffff168473ffffffffffffffffffffffffffffffffffffffff161415611de9576040517f08c379a0000000000000000000000000000000000000000000000000000000008152600401611de090613f45565b60405180910390fd5b6000611df3611d2d565b9050611e038187878787876126f6565b60005b8451811015612000576000858281518110611e4a577f4e487b7100000000000000000000000000000000000000000000000000000000600052603260045260246000fd5b602002602001015190506000858381518110611e8f577f4e487b7100000000000000000000000000000000000000000000000000000000600052603260045260246000fd5b60200260200101519050600080600084815260200190815260200160002060008b73ffffffffffffffffffffffffffffffffffffffff1673ffffffffffffffffffffffffffffffffffffffff16815260200190815260200160002054905081811015611f30576040517f08c379a0000000000000000000000000000000000000000000000000000000008152600401611f2790613f85565b60405180910390fd5b81810360008085815260200190815260200160002060008c73ffffffffffffffffffffffffffffffffffffffff1673ffffffffffffffffffffffffffffffffffffffff168152602001908152602001600020819055508160008085815260200190815260200160002060008b73ffffffffffffffffffffffffffffffffffffffff1673ffffffffffffffffffffffffffffffffffffffff1681526020019081526020016000206000828254611fe59190614283565b9250508190555050505080611ff9906144e3565b9050611e06565b508473ffffffffffffffffffffffffffffffffffffffff168673ffffffffffffffffffffffffffffffffffffffff168273ffffffffffffffffffffffffffffffffffffffff167f4a39dc06d4c0dbc64b70af90fd698a233a518aa5d07e595d983b8c0526c8f7fb8787604051612077929190613e16565b60405180910390a461208d8187878787876126fe565b505050505050565b6000600360009054906101000a900473ffffffffffffffffffffffffffffffffffffffff16905081600360006101000a81548173ffffffffffffffffffffffffffffffffffffffff021916908373ffffffffffffffffffffffffffffffffffffffff1602179055508173ffffffffffffffffffffffffffffffffffffffff168173ffffffffffffffffffffffffffffffffffffffff167f8be0079c531659141344cd1fd0a4f28419497f9722a3daafe3b4186f6b6457e060405160405180910390a35050565b6000806121683384610506565b14159050919050565b600073ffffffffffffffffffffffffffffffffffffffff168473ffffffffffffffffffffffffffffffffffffffff1614156121e1576040517f08c379a00000000000000000000000000000000000000000000000000000000081526004016121d890614025565b60405180910390fd5b60006121eb611d2d565b905061220c816000876121fd886128ce565b612206886128ce565b876126f6565b8260008086815260200190815260200160002060008773ffffffffffffffffffffffffffffffffffffffff1673ffffffffffffffffffffffffffffffffffffffff168152602001908152602001600020600082825461226b9190614283565b925050819055508473ffffffffffffffffffffffffffffffffffffffff16600073ffffffffffffffffffffffffffffffffffffffff168273ffffffffffffffffffffffffffffffffffffffff167fc3d58168c5ae7397731d063d5bbf3d657854427343f4c083240f7aacaa2d0f6287876040516122e992919061407c565b60405180910390a461230081600087878787612994565b5050505050565b8173ffffffffffffffffffffffffffffffffffffffff168373ffffffffffffffffffffffffffffffffffffffff161415612376576040517f08c379a000000000000000000000000000000000000000000000000000000000815260040161236d90613fc5565b60405180910390fd5b80600160008573ffffffffffffffffffffffffffffffffffffffff1673ffffffffffffffffffffffffffffffffffffffff16815260200190815260200160002060008473ffffffffffffffffffffffffffffffffffffffff1673ffffffffffffffffffffffffffffffffffffffff16815260200190815260200160002060006101000a81548160ff0219169083151502179055508173ffffffffffffffffffffffffffffffffffffffff168373ffffffffffffffffffffffffffffffffffffffff167f17307eab39ab6107e8899845ad3d59bd9653f200f220920489ca2b5937696c31836040516124679190613e4d565b60405180910390a3505050565b600073ffffffffffffffffffffffffffffffffffffffff168473ffffffffffffffffffffffffffffffffffffffff1614156124e4576040517f08c379a00000000000000000000000000000000000000000000000000000000081526004016124db90613f45565b60405180910390fd5b60006124ee611d2d565b905061250e8187876124ff886128ce565b612508886128ce565b876126f6565b600080600086815260200190815260200160002060008873ffffffffffffffffffffffffffffffffffffffff1673ffffffffffffffffffffffffffffffffffffffff168152602001908152602001600020549050838110156125a5576040517f08c379a000000000000000000000000000000000000000000000000000000000815260040161259c90613f85565b60405180910390fd5b83810360008087815260200190815260200160002060008973ffffffffffffffffffffffffffffffffffffffff1673ffffffffffffffffffffffffffffffffffffffff168152602001908152602001600020819055508360008087815260200190815260200160002060008873ffffffffffffffffffffffffffffffffffffffff1673ffffffffffffffffffffffffffffffffffffffff168152602001908152602001600020600082825461265a9190614283565b925050819055508573ffffffffffffffffffffffffffffffffffffffff168773ffffffffffffffffffffffffffffffffffffffff168373ffffffffffffffffffffffffffffffffffffffff167fc3d58168c5ae7397731d063d5bbf3d657854427343f4c083240f7aacaa2d0f6288886040516126d792919061407c565b60405180910390a46126ed828888888888612994565b50505050505050565b505050505050565b61271d8473ffffffffffffffffffffffffffffffffffffffff16612b64565b156128c6578373ffffffffffffffffffffffffffffffffffffffff1663bc197c8187878686866040518663ffffffff1660e01b8152600401612763959493929190613d17565b602060405180830381600087803b15801561277d57600080fd5b505af19250505080156127ae57506040513d601f19601f820116820180604052508101906127ab9190613412565b60015b61283d576127ba614672565b806127c55750612802565b806040517f08c379a00000000000000000000000000000000000000000000000000000000081526004016127f99190613e83565b60405180910390fd5b6040517f08c379a000000000000000000000000000000000000000000000000000000000815260040161283490613ea5565b60405180910390fd5b63bc197c8160e01b7bffffffffffffffffffffffffffffffffffffffffffffffffffffffff1916817bffffffffffffffffffffffffffffffffffffffffffffffffffffffff1916146128c4576040517f08c379a00000000000000000000000000000000000000000000000000000000081526004016128bb90613ec5565b60405180910390fd5b505b505050505050565b60606000600167ffffffffffffffff811115612913577f4e487b7100000000000000000000000000000000000000000000000000000000600052604160045260246000fd5b6040519080825280602002602001820160405280156129415781602001602082028036833780820191505090505b509050828160008151811061297f577f4e487b7100000000000000000000000000000000000000000000000000000000600052603260045260246000fd5b60200260200101818152505080915050919050565b6129b38473ffffffffffffffffffffffffffffffffffffffff16612b64565b15612b5c578373ffffffffffffffffffffffffffffffffffffffff1663f23a6e6187878686866040518663ffffffff1660e01b81526004016129f9959493929190613d7f565b602060405180830381600087803b158015612a1357600080fd5b505af1925050508015612a4457506040513d601f19601f82011682018060405250810190612a419190613412565b60015b612ad357612a50614672565b80612a5b5750612a98565b806040517f08c379a0000000000000000000000000000000000000000000000000000000008152600401612a8f9190613e83565b60405180910390fd5b6040517f08c379a0000000000000000000000000000000000000000000000000000000008152600401612aca90613ea5565b60405180910390fd5b63f23a6e6160e01b7bffffffffffffffffffffffffffffffffffffffffffffffffffffffff1916817bffffffffffffffffffffffffffffffffffffffffffffffffffffffff191614612b5a576040517f08c379a0000000000000000000000000000000000000000000000000000000008152600401612b5190613ec5565b60405180910390fd5b505b505050505050565b600080823b905060008111915050919050565b6040518060800160405280600490602082028036833780820191505090505090565b8260048101928215612bc8579160200282015b82811115612bc7578251825591602001919060010190612bac565b5b509050612bd59190612c6f565b5090565b60405180610100016040528060008152602001600081526020016000815260200160008152602001612c09612b77565b8152602001612c16612b77565b815260200160008152602001600081525090565b6040518060a00160405280600590602082028036833780820191505090505090565b604051806101600160405280600b90602082028036833780820191505090505090565b5b80821115612c88576000816000905550600101612c70565b5090565b6000612c9f612c9a846140d6565b6140a5565b90508083825260208201905082856020860282011115612cbe57600080fd5b60005b85811015612cee5781612cd48882612ea6565b845260208401935060208301925050600181019050612cc1565b5050509392505050565b6000612d0b612d0684614102565b6140a5565b90508082856020860282011115612d2157600080fd5b60005b85811015612d515781612d378882612ff0565b845260208401935060208301925050600181019050612d24565b5050509392505050565b6000612d6e612d6984614128565b6140a5565b90508082856020860282011115612d8457600080fd5b60005b85811015612db45781612d9a8882612ff0565b845260208401935060208301925050600181019050612d87565b5050509392505050565b6000612dd1612dcc8461414e565b6140a5565b90508083825260208201905082856020860282011115612df057600080fd5b60005b85811015612e205781612e068882612ff0565b845260208401935060208301925050600181019050612df3565b5050509392505050565b6000612e3d612e388461417a565b6140a5565b905082815260208101848484011115612e5557600080fd5b612e60848285614426565b509392505050565b6000612e7b612e76846141aa565b6140a5565b905082815260208101848484011115612e9357600080fd5b612e9e848285614426565b509392505050565b600081359050612eb581614728565b92915050565b600082601f830112612ecc57600080fd5b8135612edc848260208601612c8c565b91505092915050565b600082601f830112612ef657600080fd5b600a612f03848285612cf8565b91505092915050565b600082601f830112612f1d57600080fd5b6004612f2a848285612d5b565b91505092915050565b600082601f830112612f4457600080fd5b8135612f54848260208601612dbe565b91505092915050565b600081359050612f6c8161473f565b92915050565b600081359050612f8181614756565b92915050565b600081519050612f9681614756565b92915050565b600082601f830112612fad57600080fd5b8135612fbd848260208601612e2a565b91505092915050565b600082601f830112612fd757600080fd5b8135612fe7848260208601612e68565b91505092915050565b600081359050612fff8161476d565b92915050565b60008135905061301481614784565b92915050565b60006020828403121561302c57600080fd5b600061303a84828501612ea6565b91505092915050565b6000806040838503121561305657600080fd5b600061306485828601612ea6565b925050602061307585828601612ea6565b9150509250929050565b60008060008060008060c0878903121561309857600080fd5b60006130a689828a01612ea6565b96505060206130b789828a01612ea6565b95505060406130c889828a01612ea6565b945050606087013567ffffffffffffffff8111156130e557600080fd5b6130f189828a01612f33565b935050608087013567ffffffffffffffff81111561310e57600080fd5b61311a89828a01612f33565b92505060a087013567ffffffffffffffff81111561313757600080fd5b61314389828a01612fc6565b9150509295509295509295565b600080600080600060a0868803121561316857600080fd5b600061317688828901612ea6565b955050602061318788828901612ea6565b945050604086013567ffffffffffffffff8111156131a457600080fd5b6131b088828901612f33565b935050606086013567ffffffffffffffff8111156131cd57600080fd5b6131d988828901612f33565b925050608086013567ffffffffffffffff8111156131f657600080fd5b61320288828901612f9c565b9150509295509295909350565b600080600080600060a0868803121561322757600080fd5b600061323588828901612ea6565b955050602061324688828901612ea6565b945050604061325788828901612ff0565b935050606061326888828901612ff0565b925050608086013567ffffffffffffffff81111561328557600080fd5b61329188828901612f9c565b9150509295509295909350565b600080604083850312156132b157600080fd5b60006132bf85828601612ea6565b92505060206132d085828601612f5d565b9150509250929050565b600080604083850312156132ed57600080fd5b60006132fb85828601612ea6565b925050602061330c85828601612ff0565b9150509250929050565b6000806040838503121561332957600080fd5b600083013567ffffffffffffffff81111561334357600080fd5b61334f85828601612ebb565b925050602083013567ffffffffffffffff81111561336c57600080fd5b61337885828601612f33565b9150509250929050565b600080610160838503121561339657600080fd5b60006133a485828601612ee5565b9250506101406133b685828601612ff0565b9150509250929050565b6000608082840312156133d257600080fd5b60006133e084828501612f0c565b91505092915050565b6000602082840312156133fb57600080fd5b600061340984828501612f72565b91505092915050565b60006020828403121561342457600080fd5b600061343284828501612f87565b91505092915050565b60006020828403121561344d57600080fd5b600061345b84828501612ff0565b91505092915050565b6000806040838503121561347757600080fd5b600061348585828601612ff0565b925050602061349685828601612ff0565b9150509250929050565b600080600080608085870312156134b657600080fd5b60006134c487828801612ff0565b94505060206134d587828801613005565b93505060406134e687828801612ff0565b92505060606134f787828801613005565b91505092959194509250565b600061350f8383613c8a565b60208301905092915050565b6135248161439b565b82525050565b61353b6135368261439b565b61452c565b82525050565b61354a816141f4565b613554818461423a565b925061355f826141da565b8060005b838110156135905781516135778782613503565b965061358283614220565b925050600181019050613563565b505050505050565b6135a1816141f4565b6135ab8184614245565b92506135b6826141da565b8060005b838110156135e75781516135ce8782613503565b96506135d983614220565b9250506001810190506135ba565b505050505050565b60006135fa826141ff565b6136048185614250565b935061360f836141e4565b8060005b838110156136405781516136278882613503565b97506136328361422d565b925050600181019050613613565b5085935050505092915050565b613656816143ad565b82525050565b60006136678261420a565b6136718185614261565b9350613681818560208601614435565b61368a81614647565b840191505092915050565b61369e816143e5565b82525050565b60006136af82614215565b6136b98185614272565b93506136c9818560208601614435565b6136d281614647565b840191505092915050565b60006136ea603483614272565b91507f455243313135353a207472616e7366657220746f206e6f6e204552433131353560008301527f526563656976657220696d706c656d656e7465720000000000000000000000006020830152604082019050919050565b6000613750602883614272565b91507f455243313135353a204552433131353552656365697665722072656a6563746560008301527f6420746f6b656e730000000000000000000000000000000000000000000000006020830152604082019050919050565b60006137b6602b83614272565b91507f455243313135353a2062616c616e636520717565727920666f7220746865207a60008301527f65726f20616464726573730000000000000000000000000000000000000000006020830152604082019050919050565b600061381c602683614272565b91507f4f776e61626c653a206e6577206f776e657220697320746865207a65726f206160008301527f64647265737300000000000000000000000000000000000000000000000000006020830152604082019050919050565b6000613882602983614272565b91507f455243313135353a2063616c6c6572206973206e6f74206f776e6572206e6f7260008301527f20617070726f76656400000000000000000000000000000000000000000000006020830152604082019050919050565b60006138e8602583614272565b91507f455243313135353a207472616e7366657220746f20746865207a65726f20616460008301527f64726573730000000000000000000000000000000000000000000000000000006020830152604082019050919050565b600061394e603283614272565b91507f455243313135353a207472616e736665722063616c6c6572206973206e6f742060008301527f6f776e6572206e6f7220617070726f76656400000000000000000000000000006020830152604082019050919050565b60006139b4602a83614272565b91507f455243313135353a20696e73756666696369656e742062616c616e636520666f60008301527f72207472616e73666572000000000000000000000000000000000000000000006020830152604082019050919050565b6000613a1a602083614272565b91507f4f776e61626c653a2063616c6c6572206973206e6f7420746865206f776e65726000830152602082019050919050565b6000613a5a602983614272565b91507f455243313135353a2073657474696e6720617070726f76616c2073746174757360008301527f20666f722073656c6600000000000000000000000000000000000000000000006020830152604082019050919050565b6000613ac0602983614272565b91507f455243313135353a206163636f756e747320616e6420696473206c656e67746860008301527f206d69736d6174636800000000000000000000000000000000000000000000006020830152604082019050919050565b6000613b26602883614272565b91507f455243313135353a2069647320616e6420616d6f756e7473206c656e6774682060008301527f6d69736d617463680000000000000000000000000000000000000000000000006020830152604082019050919050565b6000613b8c602183614272565b91507f455243313135353a206d696e7420746f20746865207a65726f2061646472657360008301527f73000000000000000000000000000000000000000000000000000000000000006020830152604082019050919050565b6101c082016000820151613bfc6000850182613c8a565b506020820151613c0f6020850182613c8a565b506040820151613c226040850182613c8a565b506060820151613c356060850182613c8a565b506080820151613c486080850182613541565b5060a0820151613c5c610100850182613541565b5060c0820151613c70610180850182613c8a565b5060e0820151613c846101a0850182613c8a565b50505050565b613c938161440f565b82525050565b613ca28161440f565b82525050565b613cb9613cb48261440f565b614550565b82525050565b6000613ccb8286613ca8565b602082019150613cdb828561352a565b601482019150613ceb8284613ca8565b602082019150819050949350505050565b6000602082019050613d11600083018461351b565b92915050565b600060a082019050613d2c600083018861351b565b613d39602083018761351b565b8181036040830152613d4b81866135ef565b90508181036060830152613d5f81856135ef565b90508181036080830152613d73818461365c565b90509695505050505050565b600060a082019050613d94600083018861351b565b613da1602083018761351b565b613dae6040830186613c99565b613dbb6060830185613c99565b8181036080830152613dcd818461365c565b90509695505050505050565b6000608082019050613dee6000830184613598565b92915050565b60006020820190508181036000830152613e0e81846135ef565b905092915050565b60006040820190508181036000830152613e3081856135ef565b90508181036020830152613e4481846135ef565b90509392505050565b6000602082019050613e62600083018461364d565b92915050565b6000602082019050613e7d6000830184613695565b92915050565b60006020820190508181036000830152613e9d81846136a4565b905092915050565b60006020820190508181036000830152613ebe816136dd565b9050919050565b60006020820190508181036000830152613ede81613743565b9050919050565b60006020820190508181036000830152613efe816137a9565b9050919050565b60006020820190508181036000830152613f1e8161380f565b9050919050565b60006020820190508181036000830152613f3e81613875565b9050919050565b60006020820190508181036000830152613f5e816138db565b9050919050565b60006020820190508181036000830152613f7e81613941565b9050919050565b60006020820190508181036000830152613f9e816139a7565b9050919050565b60006020820190508181036000830152613fbe81613a0d565b9050919050565b60006020820190508181036000830152613fde81613a4d565b9050919050565b60006020820190508181036000830152613ffe81613ab3565b9050919050565b6000602082019050818103600083015261401e81613b19565b9050919050565b6000602082019050818103600083015261403e81613b7f565b9050919050565b60006101c08201905061405b6000830184613be5565b92915050565b60006020820190506140766000830184613c99565b92915050565b60006040820190506140916000830185613c99565b61409e6020830184613c99565b9392505050565b6000604051905081810181811067ffffffffffffffff821117156140cc576140cb614618565b5b8060405250919050565b600067ffffffffffffffff8211156140f1576140f0614618565b5b602082029050602081019050919050565b600067ffffffffffffffff82111561411d5761411c614618565b5b602082029050919050565b600067ffffffffffffffff82111561414357614142614618565b5b602082029050919050565b600067ffffffffffffffff82111561416957614168614618565b5b602082029050602081019050919050565b600067ffffffffffffffff82111561419557614194614618565b5b601f19601f8301169050602081019050919050565b600067ffffffffffffffff8211156141c5576141c4614618565b5b601f19601f8301169050602081019050919050565b6000819050919050565b6000819050602082019050919050565b600060049050919050565b600081519050919050565b600081519050919050565b600081519050919050565b6000602082019050919050565b6000602082019050919050565b600081905092915050565b600081905092915050565b600082825260208201905092915050565b600082825260208201905092915050565b600082825260208201905092915050565b600061428e8261440f565b91506142998361440f565b9250827fffffffffffffffffffffffffffffffffffffffffffffffffffffffffffffffff038211156142ce576142cd61458b565b5b828201905092915050565b60006142e48261440f565b91506142ef8361440f565b9250817fffffffffffffffffffffffffffffffffffffffffffffffffffffffffffffffff04831182151516156143285761432761458b565b5b828202905092915050565b600061433e8261440f565b91506143498361440f565b92508282101561435c5761435b61458b565b5b828203905092915050565b600061437282614419565b915061437d83614419565b9250828210156143905761438f61458b565b5b828203905092915050565b60006143a6826143ef565b9050919050565b60008115159050919050565b60007fffffffff0000000000000000000000000000000000000000000000000000000082169050919050565b6000819050919050565b600073ffffffffffffffffffffffffffffffffffffffff82169050919050565b6000819050919050565b600060ff82169050919050565b82818337600083830152505050565b60005b83811015614453578082015181840152602081019050614438565b83811115614462576000848401525b50505050565b6000600282049050600182168061448057607f821691505b60208210811415614494576144936145e9565b5b50919050565b60006144a5826143e5565b91507f7fffffffffffffffffffffffffffffffffffffffffffffffffffffffffffffff8214156144d8576144d761458b565b5b600182019050919050565b60006144ee8261440f565b91507fffffffffffffffffffffffffffffffffffffffffffffffffffffffffffffffff8214156145215761452061458b565b5b600182019050919050565b60006145378261453e565b9050919050565b600061454982614658565b9050919050565b6000819050919050565b60006145658261440f565b91506145708361440f565b9250826145805761457f6145ba565b5b828206905092915050565b7f4e487b7100000000000000000000000000000000000000000000000000000000600052601160045260246000fd5b7f4e487b7100000000000000000000000000000000000000000000000000000000600052601260045260246000fd5b7f4e487b7100000000000000000000000000000000000000000000000000000000600052602260045260246000fd5b7f4e487b7100000000000000000000000000000000000000000000000000000000600052604160045260246000fd5b6000601f19601f8301169050919050565b60008160601b9050919050565b60008160e01c9050919050565b600060443d101561468257614725565b60046000803e614693600051614665565b6308c379a081146146a45750614725565b60405160043d036004823e80513d602482011167ffffffffffffffff821117156146d057505050614725565b808201805167ffffffffffffffff8111156146ef575050505050614725565b8060208301013d850181111561470a57505050505050614725565b61471382614647565b60208401016040528296505050505050505b90565b6147318161439b565b811461473c57600080fd5b50565b614748816143ad565b811461475357600080fd5b50565b61475f816143b9565b811461476a57600080fd5b50565b6147768161440f565b811461478157600080fd5b50565b61478d81614419565b811461479857600080fd5b5056fea26469706673582212205582ed33059c84c7693927f04f8beb7413a56608e3dc77c74fcce03ca25e24e564736f6c63430008000033",
  "immutableReferences": {},
  "source": "// SPDX-License-Identifier: GPL-3.0-or-later\r\npragma solidity ^0.8.0;\r\n\r\nimport \"../node_modules/@openzeppelin/contracts/token/ERC1155/ERC1155.sol\";\r\nimport \"../node_modules/@openzeppelin/contracts/access/Ownable.sol\";\r\n\r\ncontract Token is ERC1155, Ownable {\r\n\r\n    uint8 constant FLOWER = 1;\r\n    uint8 constant FEATHER = 2;\r\n    uint8 constant SANDS = 3;\r\n    uint8 constant GOBLET = 4;\r\n    uint8 constant CIRCLET = 5;\r\n\r\n    struct Relic {\r\n        uint256 part;\r\n        uint256 set;\r\n        uint256 mainOpType;\r\n        uint256 mainOpValue;\r\n        uint256[4] subOpType;\r\n        uint256[4] subOpValue;\r\n        uint256 level;\r\n        uint256 exp;\r\n    }\r\n\r\n    uint256 nextId = 0;\r\n\r\n    mapping(uint256 => Relic) private _tokenDetails;\r\n\r\n    constructor(string memory name, string memory symbol, string memory uri) ERC1155(uri) {\r\n\r\n    }\r\n\r\n    function getTokenDetails(uint256 tokenId) public view returns (Relic memory) {\r\n        return _tokenDetails[tokenId];\r\n    }\r\n\r\n    function indexOf(uint256[10] memory arr, uint256 searchFor) public pure returns (int256) {\r\n        for (int256 i = 0; i < int256(arr.length); i++) {\r\n            if (arr[uint256(i)] == searchFor) {\r\n                return i;\r\n            }\r\n        }\r\n        return -1;\r\n    }\r\n\r\n    function mint(uint256 location) public onlyOwner {\r\n        uint256 level = 0;\r\n        uint256 exp = 0;\r\n\r\n        uint256 set = getRandomSet(location);\r\n        uint256 part = getRandomPart();\r\n        uint256 mainOpType = getMainOpType(part);\r\n        uint256 mainOpValue = getMainOpValue(mainOpType);\r\n        uint256[4] memory subOpType = getSubOpType(mainOpType);\r\n        uint256[4] memory subOpValue = getSubOpValue(subOpType);\r\n\r\n        _tokenDetails[nextId] = Relic(part, set, mainOpType, mainOpValue, subOpType, subOpValue, level, exp);\r\n        _mint(msg.sender, nextId, 1, \"\");\r\n        nextId++;\r\n    }\r\n\r\n    function getRandomPart() public view returns (uint256) {\r\n        uint256 part = uint256(createRandom(5, 0));\r\n        return part;\r\n    }\r\n\r\n    function getRandomSet(uint256 location) public view returns (uint256) {\r\n        uint256 part = uint256(createRandom(2, 0));\r\n        return part;\r\n    }\r\n\r\n    function getMainOpType(uint256 part) public view returns (uint256) {\r\n        uint256 mainOpType = 0;\r\n        if (part == 1) {\r\n            mainOpType = 2;\r\n        }\r\n        else if (part == 2) {\r\n            mainOpType = 1;\r\n        }     \r\n        else if (part == 3) {\r\n            uint256[5] memory typeArray;\r\n            typeArray = [uint256(4), 5, 6, 9, 10];\r\n            mainOpType = typeArray[createRandom(typeArray.length, 0)];\r\n        }\r\n        else if (part == 4) {\r\n            uint256[11] memory typeArray;\r\n            typeArray = [uint256(4), 5, 6, 9, 11, 12, 13, 14, 15, 16, 17];\r\n            mainOpType = typeArray[createRandom(typeArray.length, 0)];\r\n        }\r\n        else if (part == 5) {\r\n            uint256[7] memory typeArray = [uint256(4), 5, 6, 7, 8, 9, 18];\r\n            mainOpType = typeArray[createRandom(typeArray.length, 0)];\r\n        }\r\n        return mainOpType;\r\n    }\r\n\r\n    function getMainOpValue(uint256 mainOpType) public pure returns (uint256) {\r\n        uint256[18] memory valueArray = [uint256(470), 7170, 0, 70, 70, 87, 47, 93, 280, 78, 87, 70, 70, 70, 70, 70, 70, 54];\r\n        uint256 mainOpValue = valueArray[mainOpType-1];\r\n        return mainOpValue;\r\n    }\r\n\r\n    function getSubOpType(uint256 mainOpType) public view returns (uint256[4] memory) {\r\n        uint256[4] memory subOpType = [uint256(0), 0, 0, 0];\r\n        uint256 isFourLine = uint256(createRandom(2, 0));\r\n        uint256[10] memory typeArray = [uint256(1), 2, 3, 4, 5, 6, 7, 8, 9, 10];\r\n\r\n        if (indexOf(typeArray, mainOpType) != -1) {\r\n            delete typeArray[uint256(indexOf(typeArray, mainOpType))];\r\n        }\r\n\r\n        for (uint256 i = 0; i < 4; i++) {\r\n            subOpType[i] = typeArray[createRandom(typeArray.length, i)];\r\n            delete typeArray[uint256(indexOf(typeArray, subOpType[i]))];\r\n        }\r\n\r\n        if (isFourLine == 0) {\r\n            subOpType[3] = 0;\r\n        }\r\n\r\n        return subOpType;\r\n    }\r\n\r\n    function getSubOpValue(uint256[4] memory subOpType) public view returns (uint256[4] memory) {\r\n        uint256[44] memory valueArray = \r\n            [uint256(140), 160, 180, 190, 2090, 2390, 2690, 2990, 160, 190, 210, 230, 140, 160, 180, 190, 41, 47, 53, 58,\r\n                41, 47, 53, 58, 51, 58, 66, 73, 27, 31, 35, 39, 54, 62, 70, 78, 160, 190, 210, 230, 45, 52, 58, 65];\r\n        uint256[4] memory subOpValue = [uint256(0), 0, 0, 0];\r\n        \r\n        uint256 offset;\r\n        for (uint256 i = 0; i < 4; i++) {\r\n            if (subOpType[i] == 0) { continue; }\r\n            offset = uint256(createRandom(4, i));\r\n\r\n            subOpValue[i] = valueArray[(subOpType[i]-1) * 4 + offset];\r\n        }\r\n\r\n        return subOpValue;\r\n    }\r\n\r\n    function createRandom(uint number, uint randNonce) public view returns(uint) {\r\n        return uint(keccak256(abi.encodePacked(block.timestamp, msg.sender, randNonce))) % number;\r\n    }\r\n\r\n    function enhance(uint256 tokenId, uint8 targetIndex, uint256 targetValue, uint8 targetType) public {\r\n        Relic storage relic = _tokenDetails[tokenId];\r\n        relic.level += 1;\r\n        if (targetIndex != 0 && targetValue != 0) {\r\n            if (relic.subOpType[3] == 0) {\r\n                relic.subOpType[3] = targetType;\r\n            }\r\n            relic.subOpValue[targetIndex-1] += targetValue;\r\n        }\r\n    }\r\n\r\n    function getAllTokensForUser(address user) public view returns (uint256[] memory) {\r\n        uint256 tokenCount = 0;\r\n        uint256 j;\r\n        for(j = 0; j < nextId; j++) {\r\n            tokenCount = tokenCount + balanceOf(user, j);\r\n        }\r\n        if(tokenCount == 0) {\r\n            return new uint256[](0);\r\n        }\r\n        else {\r\n            uint[] memory result = new uint256[](tokenCount);\r\n            uint256 totalPets = nextId;\r\n            uint256 resultIndex = 0;\r\n            uint256 i;\r\n            for(i = 0; i < totalPets; i++) {\r\n                if(_ownerOf(i)) {\r\n                    result[resultIndex] = i;\r\n                    resultIndex++; \r\n                }\r\n            }\r\n            return result;\r\n        }\r\n    }\r\n\r\n    function _beforeTokenTransfer(address operator, address from, address to, uint256[] memory ids, uint256[] memory amounts, string memory data) public view onlyOwner {\r\n        Relic storage relic = _tokenDetails[ids[0]];\r\n    }\r\n\r\n    function _ownerOf(uint256 tokenId) internal view returns (bool) {\r\n        return balanceOf(msg.sender, tokenId) != 0;\r\n    }\r\n}\r\n\r\n\r\n",
  "sourcePath": "C:\\Users\\mario\\Desktop\\NFTG\\contracts\\Token.sol",
  "compiler": {
    "name": "solc",
    "version": "0.8.0+commit.c7dfd78e.Emscripten.clang"
  },
  "schemaVersion": "3.4.5",
  "updatedAt": "2022-04-03T13:42:52.918Z",
  "networkType": "ethereum",
  "devdoc": {
    "kind": "dev",
    "methods": {
      "balanceOf(address,uint256)": {
        "details": "See {IERC1155-balanceOf}. Requirements: - `account` cannot be the zero address."
      },
      "balanceOfBatch(address[],uint256[])": {
        "details": "See {IERC1155-balanceOfBatch}. Requirements: - `accounts` and `ids` must have the same length."
      },
      "isApprovedForAll(address,address)": {
        "details": "See {IERC1155-isApprovedForAll}."
      },
      "owner()": {
        "details": "Returns the address of the current owner."
      },
      "renounceOwnership()": {
        "details": "Leaves the contract without owner. It will not be possible to call `onlyOwner` functions anymore. Can only be called by the current owner. NOTE: Renouncing ownership will leave the contract without an owner, thereby removing any functionality that is only available to the owner."
      },
      "safeBatchTransferFrom(address,address,uint256[],uint256[],bytes)": {
        "details": "See {IERC1155-safeBatchTransferFrom}."
      },
      "safeTransferFrom(address,address,uint256,uint256,bytes)": {
        "details": "See {IERC1155-safeTransferFrom}."
      },
      "setApprovalForAll(address,bool)": {
        "details": "See {IERC1155-setApprovalForAll}."
      },
      "supportsInterface(bytes4)": {
        "details": "See {IERC165-supportsInterface}."
      },
      "transferOwnership(address)": {
        "details": "Transfers ownership of the contract to a new account (`newOwner`). Can only be called by the current owner."
      },
      "uri(uint256)": {
        "details": "See {IERC1155MetadataURI-uri}. This implementation returns the same URI for *all* token types. It relies on the token type ID substitution mechanism https://eips.ethereum.org/EIPS/eip-1155#metadata[defined in the EIP]. Clients calling this function must replace the `\\{id\\}` substring with the actual token type ID."
      }
    },
    "version": 1
  },
  "userdoc": {
    "kind": "user",
    "methods": {},
    "version": 1
  }
}