{
  "contractName": "Token",
  "abi": [
    {
      "inputs": [
        {
          "internalType": "string",
          "name": "name",
          "type": "string"
        },
        {
          "internalType": "string",
          "name": "symbol",
          "type": "string"
        },
        {
          "internalType": "string",
          "name": "uri",
          "type": "string"
        }
      ],
      "stateMutability": "nonpayable",
      "type": "constructor"
    },
    {
      "anonymous": false,
      "inputs": [
        {
          "indexed": true,
          "internalType": "address",
          "name": "account",
          "type": "address"
        },
        {
          "indexed": true,
          "internalType": "address",
          "name": "operator",
          "type": "address"
        },
        {
          "indexed": false,
          "internalType": "bool",
          "name": "approved",
          "type": "bool"
        }
      ],
      "name": "ApprovalForAll",
      "type": "event"
    },
    {
      "anonymous": false,
      "inputs": [
        {
          "indexed": true,
          "internalType": "address",
          "name": "previousOwner",
          "type": "address"
        },
        {
          "indexed": true,
          "internalType": "address",
          "name": "newOwner",
          "type": "address"
        }
      ],
      "name": "OwnershipTransferred",
      "type": "event"
    },
    {
      "anonymous": false,
      "inputs": [
        {
          "indexed": true,
          "internalType": "address",
          "name": "operator",
          "type": "address"
        },
        {
          "indexed": true,
          "internalType": "address",
          "name": "from",
          "type": "address"
        },
        {
          "indexed": true,
          "internalType": "address",
          "name": "to",
          "type": "address"
        },
        {
          "indexed": false,
          "internalType": "uint256[]",
          "name": "ids",
          "type": "uint256[]"
        },
        {
          "indexed": false,
          "internalType": "uint256[]",
          "name": "values",
          "type": "uint256[]"
        }
      ],
      "name": "TransferBatch",
      "type": "event"
    },
    {
      "anonymous": false,
      "inputs": [
        {
          "indexed": true,
          "internalType": "address",
          "name": "operator",
          "type": "address"
        },
        {
          "indexed": true,
          "internalType": "address",
          "name": "from",
          "type": "address"
        },
        {
          "indexed": true,
          "internalType": "address",
          "name": "to",
          "type": "address"
        },
        {
          "indexed": false,
          "internalType": "uint256",
          "name": "id",
          "type": "uint256"
        },
        {
          "indexed": false,
          "internalType": "uint256",
          "name": "value",
          "type": "uint256"
        }
      ],
      "name": "TransferSingle",
      "type": "event"
    },
    {
      "anonymous": false,
      "inputs": [
        {
          "indexed": false,
          "internalType": "string",
          "name": "value",
          "type": "string"
        },
        {
          "indexed": true,
          "internalType": "uint256",
          "name": "id",
          "type": "uint256"
        }
      ],
      "name": "URI",
      "type": "event"
    },
    {
      "inputs": [
        {
          "internalType": "address",
          "name": "account",
          "type": "address"
        },
        {
          "internalType": "uint256",
          "name": "id",
          "type": "uint256"
        }
      ],
      "name": "balanceOf",
      "outputs": [
        {
          "internalType": "uint256",
          "name": "",
          "type": "uint256"
        }
      ],
      "stateMutability": "view",
      "type": "function",
      "constant": true
    },
    {
      "inputs": [
        {
          "internalType": "address[]",
          "name": "accounts",
          "type": "address[]"
        },
        {
          "internalType": "uint256[]",
          "name": "ids",
          "type": "uint256[]"
        }
      ],
      "name": "balanceOfBatch",
      "outputs": [
        {
          "internalType": "uint256[]",
          "name": "",
          "type": "uint256[]"
        }
      ],
      "stateMutability": "view",
      "type": "function",
      "constant": true
    },
    {
      "inputs": [
        {
          "internalType": "address",
          "name": "account",
          "type": "address"
        },
        {
          "internalType": "address",
          "name": "operator",
          "type": "address"
        }
      ],
      "name": "isApprovedForAll",
      "outputs": [
        {
          "internalType": "bool",
          "name": "",
          "type": "bool"
        }
      ],
      "stateMutability": "view",
      "type": "function",
      "constant": true
    },
    {
      "inputs": [],
      "name": "owner",
      "outputs": [
        {
          "internalType": "address",
          "name": "",
          "type": "address"
        }
      ],
      "stateMutability": "view",
      "type": "function",
      "constant": true
    },
    {
      "inputs": [],
      "name": "renounceOwnership",
      "outputs": [],
      "stateMutability": "nonpayable",
      "type": "function"
    },
    {
      "inputs": [
        {
          "internalType": "address",
          "name": "from",
          "type": "address"
        },
        {
          "internalType": "address",
          "name": "to",
          "type": "address"
        },
        {
          "internalType": "uint256[]",
          "name": "ids",
          "type": "uint256[]"
        },
        {
          "internalType": "uint256[]",
          "name": "amounts",
          "type": "uint256[]"
        },
        {
          "internalType": "bytes",
          "name": "data",
          "type": "bytes"
        }
      ],
      "name": "safeBatchTransferFrom",
      "outputs": [],
      "stateMutability": "nonpayable",
      "type": "function"
    },
    {
      "inputs": [
        {
          "internalType": "address",
          "name": "from",
          "type": "address"
        },
        {
          "internalType": "address",
          "name": "to",
          "type": "address"
        },
        {
          "internalType": "uint256",
          "name": "id",
          "type": "uint256"
        },
        {
          "internalType": "uint256",
          "name": "amount",
          "type": "uint256"
        },
        {
          "internalType": "bytes",
          "name": "data",
          "type": "bytes"
        }
      ],
      "name": "safeTransferFrom",
      "outputs": [],
      "stateMutability": "nonpayable",
      "type": "function"
    },
    {
      "inputs": [
        {
          "internalType": "address",
          "name": "operator",
          "type": "address"
        },
        {
          "internalType": "bool",
          "name": "approved",
          "type": "bool"
        }
      ],
      "name": "setApprovalForAll",
      "outputs": [],
      "stateMutability": "nonpayable",
      "type": "function"
    },
    {
      "inputs": [
        {
          "internalType": "bytes4",
          "name": "interfaceId",
          "type": "bytes4"
        }
      ],
      "name": "supportsInterface",
      "outputs": [
        {
          "internalType": "bool",
          "name": "",
          "type": "bool"
        }
      ],
      "stateMutability": "view",
      "type": "function",
      "constant": true
    },
    {
      "inputs": [
        {
          "internalType": "address",
          "name": "newOwner",
          "type": "address"
        }
      ],
      "name": "transferOwnership",
      "outputs": [],
      "stateMutability": "nonpayable",
      "type": "function"
    },
    {
      "inputs": [
        {
          "internalType": "uint256",
          "name": "",
          "type": "uint256"
        }
      ],
      "name": "uri",
      "outputs": [
        {
          "internalType": "string",
          "name": "",
          "type": "string"
        }
      ],
      "stateMutability": "view",
      "type": "function",
      "constant": true
    },
    {
      "inputs": [
        {
          "internalType": "uint256",
          "name": "tokenId",
          "type": "uint256"
        }
      ],
      "name": "getTokenDetails",
      "outputs": [
        {
          "components": [
            {
              "internalType": "uint256",
              "name": "part",
              "type": "uint256"
            },
            {
              "internalType": "uint256",
              "name": "set",
              "type": "uint256"
            },
            {
              "internalType": "uint256",
              "name": "stars",
              "type": "uint256"
            },
            {
              "components": [
                {
                  "internalType": "uint256",
                  "name": "id",
                  "type": "uint256"
                },
                {
                  "internalType": "uint256",
                  "name": "value",
                  "type": "uint256"
                }
              ],
              "internalType": "struct Token.MainOp",
              "name": "main",
              "type": "tuple"
            },
            {
              "components": [
                {
                  "internalType": "uint256[4]",
                  "name": "id",
                  "type": "uint256[4]"
                },
                {
                  "internalType": "uint256[4]",
                  "name": "value",
                  "type": "uint256[4]"
                },
                {
                  "internalType": "uint256[10]",
                  "name": "cdd",
                  "type": "uint256[10]"
                },
                {
                  "internalType": "uint256",
                  "name": "cddLen",
                  "type": "uint256"
                }
              ],
              "internalType": "struct Token.SubOp",
              "name": "sub",
              "type": "tuple"
            },
            {
              "components": [
                {
                  "internalType": "uint256",
                  "name": "level",
                  "type": "uint256"
                },
                {
                  "internalType": "uint256",
                  "name": "total",
                  "type": "uint256"
                },
                {
                  "internalType": "uint256",
                  "name": "current",
                  "type": "uint256"
                },
                {
                  "internalType": "uint256",
                  "name": "next",
                  "type": "uint256"
                },
                {
                  "internalType": "uint256",
                  "name": "nextTotal",
                  "type": "uint256"
                }
              ],
              "internalType": "struct Token.Exp",
              "name": "exp",
              "type": "tuple"
            }
          ],
          "internalType": "struct Token.Relic",
          "name": "",
          "type": "tuple"
        }
      ],
      "stateMutability": "view",
      "type": "function",
      "constant": true
    },
    {
      "inputs": [
        {
          "internalType": "uint256[10]",
          "name": "arr",
          "type": "uint256[10]"
        },
        {
          "internalType": "uint256",
          "name": "searchFor",
          "type": "uint256"
        }
      ],
      "name": "indexOf",
      "outputs": [
        {
          "internalType": "int256",
          "name": "",
          "type": "int256"
        }
      ],
      "stateMutability": "pure",
      "type": "function",
      "constant": true
    },
    {
      "inputs": [
        {
          "internalType": "uint256",
          "name": "location",
          "type": "uint256"
        },
        {
          "internalType": "uint256",
          "name": "difficulty",
          "type": "uint256"
        }
      ],
      "name": "rand_mint",
      "outputs": [],
      "stateMutability": "nonpayable",
      "type": "function"
    },
    {
      "inputs": [
        {
          "internalType": "uint256",
          "name": "location",
          "type": "uint256"
        },
        {
          "internalType": "uint256",
          "name": "difficulty",
          "type": "uint256"
        },
        {
          "internalType": "uint256",
          "name": "nonce",
          "type": "uint256"
        }
      ],
      "name": "mint",
      "outputs": [],
      "stateMutability": "nonpayable",
      "type": "function"
    },
    {
      "inputs": [
        {
          "internalType": "uint256",
          "name": "nonce",
          "type": "uint256"
        }
      ],
      "name": "getRandomPart",
      "outputs": [
        {
          "internalType": "uint256",
          "name": "",
          "type": "uint256"
        }
      ],
      "stateMutability": "view",
      "type": "function",
      "constant": true
    },
    {
      "inputs": [
        {
          "internalType": "uint256",
          "name": "location",
          "type": "uint256"
        },
        {
          "internalType": "uint256",
          "name": "nonce",
          "type": "uint256"
        }
      ],
      "name": "getRandomSet",
      "outputs": [
        {
          "internalType": "uint256",
          "name": "",
          "type": "uint256"
        }
      ],
      "stateMutability": "view",
      "type": "function",
      "constant": true
    },
    {
      "inputs": [
        {
          "internalType": "uint256",
          "name": "diff",
          "type": "uint256"
        }
      ],
      "name": "getStars",
      "outputs": [
        {
          "internalType": "uint256",
          "name": "",
          "type": "uint256"
        }
      ],
      "stateMutability": "pure",
      "type": "function",
      "constant": true
    },
    {
      "inputs": [
        {
          "internalType": "uint256",
          "name": "part",
          "type": "uint256"
        },
        {
          "internalType": "uint256",
          "name": "nonce",
          "type": "uint256"
        }
      ],
      "name": "getMainStats",
      "outputs": [
        {
          "components": [
            {
              "internalType": "uint256",
              "name": "id",
              "type": "uint256"
            },
            {
              "internalType": "uint256",
              "name": "value",
              "type": "uint256"
            }
          ],
          "internalType": "struct Token.MainOp",
          "name": "",
          "type": "tuple"
        }
      ],
      "stateMutability": "view",
      "type": "function",
      "constant": true
    },
    {
      "inputs": [
        {
          "internalType": "uint256",
          "name": "part",
          "type": "uint256"
        },
        {
          "internalType": "uint256",
          "name": "nonce",
          "type": "uint256"
        }
      ],
      "name": "getMainOpType",
      "outputs": [
        {
          "internalType": "uint256",
          "name": "",
          "type": "uint256"
        }
      ],
      "stateMutability": "view",
      "type": "function",
      "constant": true
    },
    {
      "inputs": [
        {
          "internalType": "uint256",
          "name": "mainOpType",
          "type": "uint256"
        }
      ],
      "name": "getMainOpValue",
      "outputs": [
        {
          "internalType": "uint256",
          "name": "",
          "type": "uint256"
        }
      ],
      "stateMutability": "view",
      "type": "function",
      "constant": true
    },
    {
      "inputs": [
        {
          "internalType": "uint256",
          "name": "mainOpType",
          "type": "uint256"
        },
        {
          "internalType": "uint256",
          "name": "nonce",
          "type": "uint256"
        }
      ],
      "name": "getSubStats",
      "outputs": [
        {
          "components": [
            {
              "internalType": "uint256[4]",
              "name": "id",
              "type": "uint256[4]"
            },
            {
              "internalType": "uint256[4]",
              "name": "value",
              "type": "uint256[4]"
            },
            {
              "internalType": "uint256[10]",
              "name": "cdd",
              "type": "uint256[10]"
            },
            {
              "internalType": "uint256",
              "name": "cddLen",
              "type": "uint256"
            }
          ],
          "internalType": "struct Token.SubOp",
          "name": "",
          "type": "tuple"
        }
      ],
      "stateMutability": "view",
      "type": "function",
      "constant": true
    },
    {
      "inputs": [
        {
          "internalType": "uint256",
          "name": "mainOpType",
          "type": "uint256"
        },
        {
          "internalType": "uint256",
          "name": "nonce",
          "type": "uint256"
        }
      ],
      "name": "getSubOpType",
      "outputs": [
        {
          "internalType": "uint256[4]",
          "name": "",
          "type": "uint256[4]"
        },
        {
          "internalType": "uint256[10]",
          "name": "",
          "type": "uint256[10]"
        },
        {
          "internalType": "uint256",
          "name": "",
          "type": "uint256"
        }
      ],
      "stateMutability": "view",
      "type": "function",
      "constant": true
    },
    {
      "inputs": [
        {
          "internalType": "uint256[4]",
          "name": "subOpType",
          "type": "uint256[4]"
        },
        {
          "internalType": "uint256",
          "name": "nonce",
          "type": "uint256"
        }
      ],
      "name": "getSubOpValue",
      "outputs": [
        {
          "internalType": "uint256[4]",
          "name": "",
          "type": "uint256[4]"
        }
      ],
      "stateMutability": "view",
      "type": "function",
      "constant": true
    },
    {
      "inputs": [],
      "name": "getExpStats",
      "outputs": [
        {
          "components": [
            {
              "internalType": "uint256",
              "name": "level",
              "type": "uint256"
            },
            {
              "internalType": "uint256",
              "name": "total",
              "type": "uint256"
            },
            {
              "internalType": "uint256",
              "name": "current",
              "type": "uint256"
            },
            {
              "internalType": "uint256",
              "name": "next",
              "type": "uint256"
            },
            {
              "internalType": "uint256",
              "name": "nextTotal",
              "type": "uint256"
            }
          ],
          "internalType": "struct Token.Exp",
          "name": "",
          "type": "tuple"
        }
      ],
      "stateMutability": "view",
      "type": "function",
      "constant": true
    },
    {
      "inputs": [
        {
          "internalType": "uint256",
          "name": "tokenId",
          "type": "uint256"
        },
        {
          "internalType": "uint256",
          "name": "add",
          "type": "uint256"
        }
      ],
      "name": "enhance",
      "outputs": [],
      "stateMutability": "nonpayable",
      "type": "function"
    },
    {
      "inputs": [
        {
          "internalType": "uint256",
          "name": "number",
          "type": "uint256"
        },
        {
          "internalType": "uint256",
          "name": "randNonce",
          "type": "uint256"
        }
      ],
      "name": "createRandom",
      "outputs": [
        {
          "internalType": "uint256",
          "name": "",
          "type": "uint256"
        }
      ],
      "stateMutability": "view",
      "type": "function",
      "constant": true
    },
    {
      "inputs": [
        {
          "internalType": "address",
          "name": "user",
          "type": "address"
        }
      ],
      "name": "getAllTokensForUser",
      "outputs": [
        {
          "internalType": "uint256[]",
          "name": "",
          "type": "uint256[]"
        }
      ],
      "stateMutability": "view",
      "type": "function",
      "constant": true
    },
    {
      "inputs": [
        {
          "internalType": "uint256",
          "name": "index",
          "type": "uint256"
        },
        {
          "internalType": "uint256[10]",
          "name": "array",
          "type": "uint256[10]"
        }
      ],
      "name": "remove",
      "outputs": [
        {
          "internalType": "uint256[10]",
          "name": "",
          "type": "uint256[10]"
        }
      ],
      "stateMutability": "pure",
      "type": "function",
      "constant": true
    },
    {
      "inputs": [
        {
          "internalType": "uint256",
          "name": "element",
          "type": "uint256"
        },
        {
          "internalType": "uint256[10]",
          "name": "array",
          "type": "uint256[10]"
        }
      ],
      "name": "removeElement",
      "outputs": [
        {
          "internalType": "uint256[10]",
          "name": "",
          "type": "uint256[10]"
        }
      ],
      "stateMutability": "pure",
      "type": "function",
      "constant": true
    },
    {
      "inputs": [
        {
          "internalType": "address",
          "name": "operator",
          "type": "address"
        },
        {
          "internalType": "address",
          "name": "from",
          "type": "address"
        },
        {
          "internalType": "address",
          "name": "to",
          "type": "address"
        },
        {
          "internalType": "uint256[]",
          "name": "ids",
          "type": "uint256[]"
        },
        {
          "internalType": "uint256[]",
          "name": "amounts",
          "type": "uint256[]"
        },
        {
          "internalType": "string",
          "name": "data",
          "type": "string"
        }
      ],
      "name": "_beforeTokenTransfer",
      "outputs": [],
      "stateMutability": "view",
      "type": "function",
      "constant": true
    }
  ],
  "bytecode": "0x6080604052604051806102800160405280610bb88152602001610e8d8152602001611149815260200161141e815260200161170c8152602001611a138152602001611d4c815260200161209e8152602001612409815260200161278d8152602001612b2a8152602001612ef981526020016132e18152602001613b2e81526020016144c08152602001614f978152602001615bcc81526020016169aa815260200161794a8152602001618af78152506004906014620000c092919062000559565b50604051806102800160405280610bb88152602001611a458152602001612b8e8152602001613fac81526020016156b881526020016170cb8152602001618e17815260200161aeb5815260200161d2be815260200161fa4b81526020016201257581526020016201546e81526020016201874f81526020016201c27d81526020016202073d8152602001620256d481526020016202b2a0815260200162031c4a81526020016203959481526020016204208b81525060189060146200018792919062000559565b50604051806105000160405280608c815260200160a0815260200160b4815260200160be815260200161082a81526020016109568152602001610a828152602001610bae815260200160a0815260200160be815260200160d2815260200160e6815260200160298152602001602f815260200160358152602001603a815260200160298152602001602f815260200160358152602001603a815260200160338152602001603a81526020016042815260200160498152602001601b8152602001601f8152602001602381526020016027815260200160368152602001603e815260200160468152602001604e815260200160a0815260200160be815260200160d2815260200160e68152602001602d815260200160348152602001603a81526020016041815250602c906028620002c09291906200059e565b506040518061024001604052806101d68152602001611c02815260200160008152602001604681526020016046815260200160578152602001602f8152602001605d81526020016101188152602001604e815260200160578152602001604681526020016046815260200160468152602001604681526020016046815260200160468152602001603681525060549060126200035e929190620005e3565b50604051806102400160405280608481526020016107ef815260200160008152602001601481526020016014815260200160188152602001600d8152602001601a8152602001604f81526020016016815260200160198152602001601481526020016014815260200160148152602001601481526020016014815260200160148152602001600f8152506066906012620003fa929190620005e3565b5060006078553480156200040d57600080fd5b50604051620057c8380380620057c8833981810160405281019062000433919062000875565b8062000445816200046f60201b60201c565b50620004666200045a6200048b60201b60201c565b6200049360201b60201c565b50505062000993565b80600290805190602001906200048792919062000628565b5050565b600033905090565b6000600360009054906101000a900473ffffffffffffffffffffffffffffffffffffffff16905081600360006101000a81548173ffffffffffffffffffffffffffffffffffffffff021916908373ffffffffffffffffffffffffffffffffffffffff1602179055508173ffffffffffffffffffffffffffffffffffffffff168173ffffffffffffffffffffffffffffffffffffffff167f8be0079c531659141344cd1fd0a4f28419497f9722a3daafe3b4186f6b6457e060405160405180910390a35050565b82601481019282156200058b579160200282015b828111156200058a5782518255916020019190600101906200056d565b5b5090506200059a9190620006b9565b5090565b8260288101928215620005d0579160200282015b82811115620005cf578251825591602001919060010190620005b2565b5b509050620005df9190620006b9565b5090565b826012810192821562000615579160200282015b8281111562000614578251825591602001919060010190620005f7565b5b509050620006249190620006b9565b5090565b82805462000636906200095d565b90600052602060002090601f0160209004810192826200065a5760008555620006a6565b82601f106200067557805160ff1916838001178555620006a6565b82800160010185558215620006a6579182015b82811115620006a557825182559160200191906001019062000688565b5b509050620006b59190620006b9565b5090565b5b80821115620006d4576000816000905550600101620006ba565b5090565b6000604051905090565b600080fd5b600080fd5b600080fd5b600080fd5b6000601f19601f8301169050919050565b7f4e487b7100000000000000000000000000000000000000000000000000000000600052604160045260246000fd5b6200074182620006f6565b810181811067ffffffffffffffff8211171562000763576200076262000707565b5b80604052505050565b600062000778620006d8565b905062000786828262000736565b919050565b600067ffffffffffffffff821115620007a957620007a862000707565b5b620007b482620006f6565b9050602081019050919050565b60005b83811015620007e1578082015181840152602081019050620007c4565b83811115620007f1576000848401525b50505050565b60006200080e62000808846200078b565b6200076c565b9050828152602081018484840111156200082d576200082c620006f1565b5b6200083a848285620007c1565b509392505050565b600082601f8301126200085a5762000859620006ec565b5b81516200086c848260208601620007f7565b91505092915050565b600080600060608486031215620008915762000890620006e2565b5b600084015167ffffffffffffffff811115620008b257620008b1620006e7565b5b620008c08682870162000842565b935050602084015167ffffffffffffffff811115620008e457620008e3620006e7565b5b620008f28682870162000842565b925050604084015167ffffffffffffffff811115620009165762000915620006e7565b5b620009248682870162000842565b9150509250925092565b7f4e487b7100000000000000000000000000000000000000000000000000000000600052602260045260246000fd5b600060028204905060018216806200097657607f821691505b602082108114156200098d576200098c6200092e565b5b50919050565b614e2580620009a36000396000f3fe608060405234801561001057600080fd5b50600436106101e45760003560e01c8063715018a61161010f578063adf04f20116100a2578063e985e9c511610071578063e985e9c514610639578063f242432a14610669578063f2fde38b14610685578063fac1ce0e146106a1576101e4565b8063adf04f2014610579578063c1e03728146105a9578063c9523f54146105d9578063cf6116d014610609576101e4565b806382de8fe9116100de57806382de8fe9146104df5780638560389e1461050f5780638da5cb5b1461053f578063a22cb4651461055d576101e4565b8063715018a61461045957806371afd2a31461046357806372528d7f146104935780638241cd4b146104af576101e4565b80634987b8ab11610187578063652fda7111610156578063652fda71146103bf578063688e8750146103ef5780636ab6236f1461040d5780636b764a4914610429576101e4565b80634987b8ab146103135780634e1273f4146103435780635c7e773214610373578063640a07591461038f576101e4565b80630e89341c116101c35780630e89341c146102655780632c250177146102955780632eb2c2d6146102c757806344e97b41146102e3576101e4565b8062fdd58e146101e957806301ffc9a71461021957806302acc94b14610249575b600080fd5b61020360048036038101906101fe9190612ef1565b6106d1565b6040516102109190612f40565b60405180910390f35b610233600480360381019061022e9190612fb3565b61079a565b6040516102409190612ffb565b60405180910390f35b610263600480360381019061025e9190613016565b61087c565b005b61027f600480360381019061027a9190613069565b610a2d565b60405161028c919061312f565b60405180910390f35b6102af60048036038101906102aa9190613151565b610ac1565b6040516102be939291906132c0565b60405180910390f35b6102e160048036038101906102dc91906134f6565b610c87565b005b6102fd60048036038101906102f89190613069565b610d28565b60405161030a9190612f40565b60405180910390f35b61032d60048036038101906103289190613676565b610d41565b60405161033a91906136d1565b60405180910390f35b61035d600480360381019061035891906137af565b610db8565b60405161036a91906138be565b60405180910390f35b61038d60048036038101906103889190613151565b610ed1565b005b6103a960048036038101906103a49190613151565b6111a3565b6040516103b69190612f40565b60405180910390f35b6103d960048036038101906103d49190613151565b6111e6565b6040516103e6919061390f565b60405180910390f35b6103f761122e565b6040516104049190613992565b60405180910390f35b61042760048036038101906104229190613a4e565b6112a5565b005b610443600480360381019061043e9190613151565b61135c565b6040516104509190613c4b565b60405180910390f35b6104616113ba565b005b61047d60048036038101906104789190613c67565b611442565b60405161048a9190613ca8565b60405180910390f35b6104ad60048036038101906104a89190613151565b611468565b005b6104c960048036038101906104c49190613151565b611524565b6040516104d69190612f40565b60405180910390f35b6104f960048036038101906104f49190613cc4565b6116c7565b60405161050691906138be565b60405180910390f35b61052960048036038101906105249190613069565b61181c565b6040516105369190612f40565b60405180910390f35b61054761184c565b6040516105549190613d00565b60405180910390f35b61057760048036038101906105729190613d47565b611876565b005b610593600480360381019061058e9190613069565b61188c565b6040516105a09190612f40565b60405180910390f35b6105c360048036038101906105be9190613069565b61189c565b6040516105d09190613ef3565b60405180910390f35b6105f360048036038101906105ee9190613c67565b611a42565b6040516106009190613ca8565b60405180910390f35b610623600480360381019061061e9190613151565b611ac2565b6040516106309190612f40565b60405180910390f35b610653600480360381019061064e9190613f0f565b611af3565b6040516106609190612ffb565b60405180910390f35b610683600480360381019061067e9190613f4f565b611b87565b005b61069f600480360381019061069a9190613cc4565b611c28565b005b6106bb60048036038101906106b69190614097565b611d20565b6040516106c891906140d7565b60405180910390f35b60008073ffffffffffffffffffffffffffffffffffffffff168373ffffffffffffffffffffffffffffffffffffffff161415610742576040517f08c379a000000000000000000000000000000000000000000000000000000000815260040161073990614164565b60405180910390fd5b60008083815260200190815260200160002060008473ffffffffffffffffffffffffffffffffffffffff1673ffffffffffffffffffffffffffffffffffffffff16815260200190815260200160002054905092915050565b60007fd9b67a26000000000000000000000000000000000000000000000000000000007bffffffffffffffffffffffffffffffffffffffffffffffffffffffff1916827bffffffffffffffffffffffffffffffffffffffffffffffffffffffff1916148061086557507f0e89341c000000000000000000000000000000000000000000000000000000007bffffffffffffffffffffffffffffffffffffffffffffffffffffffff1916827bffffffffffffffffffffffffffffffffffffffffffffffffffffffff1916145b80610875575061087482611e2b565b5b9050919050565b60006108888483611ac2565b9050600061089583610d28565b905060006108a28561188c565b905060006108b083866111e6565b905060006108c282600001518761135c565b905060006108ce61122e565b90506040518060c00160405280868152602001878152602001858152602001848152602001838152602001828152506079600060785481526020019081526020016000206000820151816000015560208201518160010155604082015181600201556060820151816003016000820151816000015560208201518160010155505060808201518160050160008201518160000190600461096f929190612c57565b50602082015181600401906004610987929190612c57565b5060408201518160080190600a61099f929190612c97565b5060608201518160120155505060a08201518160180160008201518160000155602082015181600101556040820151816002015560608201518160030155608082015181600401555050905050610a0a33607854600160405180602001604052806000815250611e95565b60786000815480929190610a1d906141b3565b9190505550505050505050505050565b606060028054610a3c9061422b565b80601f0160208091040260200160405190810160405280929190818152602001828054610a689061422b565b8015610ab55780601f10610a8a57610100808354040283529160200191610ab5565b820191906000526020600020905b815481529060010190602001808311610a9857829003601f168201915b50505050509050919050565b610ac9612cd7565b610ad1612cf9565b6000806040518060800160405280600081526020016000815260200160008152602001600081525090506000604051806101400160405280600181526020016002815260200160038152602001600481526020016005815260200160068152602001600781526020016008815260200160098152602001600a81525090506000610b5c6002886111a3565b90506000600a90507fffffffffffffffffffffffffffffffffffffffffffffffffffffffffffffffff610b8f848b610d41565b14610bb057610b9e8984611442565b9250600181610bad919061425d565b90505b60005b6004811015610c495783610bd2838b84610bcd9190614291565b6111a3565b600a8110610be357610be26142eb565b5b6020020151858260048110610bfb57610bfa6142eb565b5b602002018181525050610c25858260048110610c1a57610c196142eb565b5b602002015185611442565b9350600182610c34919061425d565b91508080610c41906141b3565b915050610bb3565b506000821415610c7357600084600360048110610c6957610c686142eb565b5b6020020181815250505b838382965096509650505050509250925092565b610c8f61202b565b73ffffffffffffffffffffffffffffffffffffffff168573ffffffffffffffffffffffffffffffffffffffff161480610cd55750610cd485610ccf61202b565b611af3565b5b610d14576040517f08c379a0000000000000000000000000000000000000000000000000000000008152600401610d0b9061438c565b60405180910390fd5b610d218585858585612033565b5050505050565b600080610d366005846111a3565b905080915050919050565b600080600090505b600a811215610d8d57828482600a8110610d6657610d656142eb565b5b60200201511415610d7a5780915050610db2565b8080610d85906143ac565b915050610d49565b507fffffffffffffffffffffffffffffffffffffffffffffffffffffffffffffffff90505b92915050565b60608151835114610dfe576040517f08c379a0000000000000000000000000000000000000000000000000000000008152600401610df590614467565b60405180910390fd5b6000835167ffffffffffffffff811115610e1b57610e1a6132fe565b5b604051908082528060200260200182016040528015610e495781602001602082028036833780820191505090505b50905060005b8451811015610ec657610e96858281518110610e6e57610e6d6142eb565b5b6020026020010151858381518110610e8957610e886142eb565b5b60200260200101516106d1565b828281518110610ea957610ea86142eb565b5b60200260200101818152505080610ebf906141b3565b9050610e4f565b508091505092915050565b60006079600084815260200190815260200160002090506000816003019050600082600501905060008360180190506000610f0e600460006111a3565b90506000610f1e600460016111a3565b90506000806014856000015410156111975788856001016000828254610f449190614487565b9250508190555088856002016000828254610f5f9190614487565b925050819055508460030154856002015410611196576000856000015490505b601481101561119457856001015460188260148110610fa157610fa06142eb565b5b0154116110d6576001866000016000828254610fbd9190614487565b92505081905550600060048760000154610fd7919061450c565b14156110d157600087600001600360048110610ff657610ff56142eb565b5b0154141561104c576003945086600801611015886012015460026111a3565b600a8110611026576110256142eb565b5b015492508287600001600360048110611042576110416142eb565b5b0181905550611067565b866000018560048110611062576110616142eb565b5b015492505b602c846004600186611079919061425d565b6110839190614291565b61108d9190614487565b6028811061109e5761109d6142eb565b5b01549150818760040186600481106110b9576110b86142eb565b5b0160008282546110c99190614487565b925050819055505b611181565b60186001826110e5919061425d565b601481106110f6576110f56142eb565b5b01548660010154611107919061425d565b8660020181905550606660018960000154611122919061425d565b60128110611133576111326142eb565b5b0154816111409190614291565b8860010160008282546111539190614487565b925050819055506004866000015460148110611172576111716142eb565b5b01548660030181905550611194565b808061118c906141b3565b915050610f7f565b505b5b50505050505050505050565b6000824233846040516020016111bb939291906145a6565b6040516020818303038152906040528051906020012060001c6111de919061450c565b905092915050565b6111ee612d1c565b60006111fa8484611524565b905060006112078261181c565b90506000604051806040016040528084815260200183815250905080935050505092915050565b611236612d36565b600080600080600484601481106112505761124f6142eb565b5b0154905060006018856014811061126a576112696142eb565b5b0154905060006040518060a0016040528087815260200185815260200186815260200184815260200183815250905080965050505050505090565b6112ad61202b565b73ffffffffffffffffffffffffffffffffffffffff166112cb61184c565b73ffffffffffffffffffffffffffffffffffffffff1614611321576040517f08c379a00000000000000000000000000000000000000000000000000000000081526004016113189061462f565b60405180910390fd5b6000607960008560008151811061133b5761133a6142eb565b5b60200260200101518152602001908152602001600020905050505050505050565b611364612d65565b60008060006113738686610ac1565b92509250925060006113858487611d20565b905060006040518060800160405280868152602001838152602001858152602001848152509050809550505050505092915050565b6113c261202b565b73ffffffffffffffffffffffffffffffffffffffff166113e061184c565b73ffffffffffffffffffffffffffffffffffffffff1614611436576040517f08c379a000000000000000000000000000000000000000000000000000000000815260040161142d9061462f565b60405180910390fd5b6114406000612347565b565b61144a612cf9565b61145d6114578385610d41565b83611a42565b915081905092915050565b61147061202b565b73ffffffffffffffffffffffffffffffffffffffff1661148e61184c565b73ffffffffffffffffffffffffffffffffffffffff16146114e4576040517f08c379a00000000000000000000000000000000000000000000000000000000081526004016114db9061462f565b60405180910390fd5b60006114f2600260006111a3565b905060005b600281101561151e5761150b84848361087c565b8080611516906141b3565b9150506114f7565b50505050565b60008060009050600184141561153d57600290506116bd565b600284141561154f57600190506116bc565b60038414156115b857611560612d9f565b6040518060a0016040528060048152602001600581526020016006815260200160098152602001600a81525090508061159a6005866111a3565b600581106115ab576115aa6142eb565b5b60200201519150506116bb565b600484141561164c576115c9612dc1565b60405180610160016040528060048152602001600581526020016006815260200160098152602001600b8152602001600c8152602001600d8152602001600e8152602001600f815260200160108152602001601181525090508061162e600b866111a3565b600b811061163f5761163e6142eb565b5b60200201519150506116ba565b60058414156116b95760006040518060e00160405280600481526020016005815260200160068152602001600781526020016008815260200160098152602001601281525090508061169f6007866111a3565b600781106116b0576116af6142eb565b5b60200201519150505b5b5b5b5b8091505092915050565b60606000805b607854811015611701576116e184826106d1565b826116ec9190614487565b915080806116f9906141b3565b9150506116cd565b600082141561175d57600067ffffffffffffffff811115611725576117246132fe565b5b6040519080825280602002602001820160405280156117535781602001602082028036833780820191505090505b5092505050611817565b60008267ffffffffffffffff811115611779576117786132fe565b5b6040519080825280602002602001820160405280156117a75781602001602082028036833780820191505090505b509050600060785490506000805b8281101561180d576117c68161240d565b156117fa57808483815181106117df576117de6142eb565b5b60200260200101818152505081806117f6906141b3565b9250505b8080611805906141b3565b9150506117b5565b8396505050505050505b919050565b600080605460018461182e919061425d565b6012811061183f5761183e6142eb565b5b0154905080915050919050565b6000600360009054906101000a900473ffffffffffffffffffffffffffffffffffffffff16905090565b61188861188161202b565b8383612423565b5050565b6000806005905080915050919050565b6118a4612de4565b607960008381526020019081526020016000206040518060c0016040529081600082015481526020016001820154815260200160028201548152602001600382016040518060400160405290816000820154815260200160018201548152505081526020016005820160405180608001604052908160008201600480602002604051908101604052809291908260048015611954576020028201915b815481526020019060010190808311611940575b5050505050815260200160048201600480602002604051908101604052809291908260048015611999576020028201915b815481526020019060010190808311611985575b5050505050815260200160088201600a806020026040519081016040528092919082600a80156119de576020028201915b8154815260200190600101908083116119ca575b505050505081526020016012820154815250508152602001601882016040518060a001604052908160008201548152602001600182015481526020016002820154815260200160038201548152602001600482015481525050815250509050919050565b611a4a612cf9565b60008390505b6001600a611a5e919061425d565b811015611ab85782600182611a739190614487565b600a8110611a8457611a836142eb565b5b60200201518382600a8110611a9c57611a9b6142eb565b5b6020020181815250508080611ab0906141b3565b915050611a50565b5081905092915050565b600080611ad06002846111a3565b600285611add9190614291565b611ae79190614487565b90508091505092915050565b6000600160008473ffffffffffffffffffffffffffffffffffffffff1673ffffffffffffffffffffffffffffffffffffffff16815260200190815260200160002060008373ffffffffffffffffffffffffffffffffffffffff1673ffffffffffffffffffffffffffffffffffffffff16815260200190815260200160002060009054906101000a900460ff16905092915050565b611b8f61202b565b73ffffffffffffffffffffffffffffffffffffffff168573ffffffffffffffffffffffffffffffffffffffff161480611bd55750611bd485611bcf61202b565b611af3565b5b611c14576040517f08c379a0000000000000000000000000000000000000000000000000000000008152600401611c0b906146c1565b60405180910390fd5b611c218585858585612590565b5050505050565b611c3061202b565b73ffffffffffffffffffffffffffffffffffffffff16611c4e61184c565b73ffffffffffffffffffffffffffffffffffffffff1614611ca4576040517f08c379a0000000000000000000000000000000000000000000000000000000008152600401611c9b9061462f565b60405180910390fd5b600073ffffffffffffffffffffffffffffffffffffffff168173ffffffffffffffffffffffffffffffffffffffff161415611d14576040517f08c379a0000000000000000000000000000000000000000000000000000000008152600401611d0b90614753565b60405180910390fd5b611d1d81612347565b50565b611d28612cd7565b6000604051806080016040528060008152602001600081526020016000815260200160008152509050600080600090505b6004811015611e1f576000868260048110611d7757611d766142eb565b5b60200201511415611d8757611e0c565b611d9d60048683611d989190614291565b6111a3565b9150602c8260046001898560048110611db957611db86142eb565b5b6020020151611dc8919061425d565b611dd29190614291565b611ddc9190614487565b60288110611ded57611dec6142eb565b5b0154838260048110611e0257611e016142eb565b5b6020020181815250505b8080611e17906141b3565b915050611d59565b50819250505092915050565b60007f01ffc9a7000000000000000000000000000000000000000000000000000000007bffffffffffffffffffffffffffffffffffffffffffffffffffffffff1916827bffffffffffffffffffffffffffffffffffffffffffffffffffffffff1916149050919050565b600073ffffffffffffffffffffffffffffffffffffffff168473ffffffffffffffffffffffffffffffffffffffff161415611f05576040517f08c379a0000000000000000000000000000000000000000000000000000000008152600401611efc906147e5565b60405180910390fd5b6000611f0f61202b565b9050611f3081600087611f2188612812565b611f2a88612812565b8761288c565b8260008086815260200190815260200160002060008773ffffffffffffffffffffffffffffffffffffffff1673ffffffffffffffffffffffffffffffffffffffff1681526020019081526020016000206000828254611f8f9190614487565b925050819055508473ffffffffffffffffffffffffffffffffffffffff16600073ffffffffffffffffffffffffffffffffffffffff168273ffffffffffffffffffffffffffffffffffffffff167fc3d58168c5ae7397731d063d5bbf3d657854427343f4c083240f7aacaa2d0f62878760405161200d929190614805565b60405180910390a461202481600087878787612894565b5050505050565b600033905090565b8151835114612077576040517f08c379a000000000000000000000000000000000000000000000000000000000815260040161206e906148a0565b60405180910390fd5b600073ffffffffffffffffffffffffffffffffffffffff168473ffffffffffffffffffffffffffffffffffffffff1614156120e7576040517f08c379a00000000000000000000000000000000000000000000000000000000081526004016120de90614932565b60405180910390fd5b60006120f161202b565b905061210181878787878761288c565b60005b84518110156122b2576000858281518110612122576121216142eb565b5b602002602001015190506000858381518110612141576121406142eb565b5b60200260200101519050600080600084815260200190815260200160002060008b73ffffffffffffffffffffffffffffffffffffffff1673ffffffffffffffffffffffffffffffffffffffff168152602001908152602001600020549050818110156121e2576040517f08c379a00000000000000000000000000000000000000000000000000000000081526004016121d9906149c4565b60405180910390fd5b81810360008085815260200190815260200160002060008c73ffffffffffffffffffffffffffffffffffffffff1673ffffffffffffffffffffffffffffffffffffffff168152602001908152602001600020819055508160008085815260200190815260200160002060008b73ffffffffffffffffffffffffffffffffffffffff1673ffffffffffffffffffffffffffffffffffffffff16815260200190815260200160002060008282546122979190614487565b92505081905550505050806122ab906141b3565b9050612104565b508473ffffffffffffffffffffffffffffffffffffffff168673ffffffffffffffffffffffffffffffffffffffff168273ffffffffffffffffffffffffffffffffffffffff167f4a39dc06d4c0dbc64b70af90fd698a233a518aa5d07e595d983b8c0526c8f7fb87876040516123299291906149e4565b60405180910390a461233f818787878787612a6c565b505050505050565b6000600360009054906101000a900473ffffffffffffffffffffffffffffffffffffffff16905081600360006101000a81548173ffffffffffffffffffffffffffffffffffffffff021916908373ffffffffffffffffffffffffffffffffffffffff1602179055508173ffffffffffffffffffffffffffffffffffffffff168173ffffffffffffffffffffffffffffffffffffffff167f8be0079c531659141344cd1fd0a4f28419497f9722a3daafe3b4186f6b6457e060405160405180910390a35050565b60008061241a33846106d1565b14159050919050565b8173ffffffffffffffffffffffffffffffffffffffff168373ffffffffffffffffffffffffffffffffffffffff161415612492576040517f08c379a000000000000000000000000000000000000000000000000000000000815260040161248990614a8d565b60405180910390fd5b80600160008573ffffffffffffffffffffffffffffffffffffffff1673ffffffffffffffffffffffffffffffffffffffff16815260200190815260200160002060008473ffffffffffffffffffffffffffffffffffffffff1673ffffffffffffffffffffffffffffffffffffffff16815260200190815260200160002060006101000a81548160ff0219169083151502179055508173ffffffffffffffffffffffffffffffffffffffff168373ffffffffffffffffffffffffffffffffffffffff167f17307eab39ab6107e8899845ad3d59bd9653f200f220920489ca2b5937696c31836040516125839190612ffb565b60405180910390a3505050565b600073ffffffffffffffffffffffffffffffffffffffff168473ffffffffffffffffffffffffffffffffffffffff161415612600576040517f08c379a00000000000000000000000000000000000000000000000000000000081526004016125f790614932565b60405180910390fd5b600061260a61202b565b905061262a81878761261b88612812565b61262488612812565b8761288c565b600080600086815260200190815260200160002060008873ffffffffffffffffffffffffffffffffffffffff1673ffffffffffffffffffffffffffffffffffffffff168152602001908152602001600020549050838110156126c1576040517f08c379a00000000000000000000000000000000000000000000000000000000081526004016126b8906149c4565b60405180910390fd5b83810360008087815260200190815260200160002060008973ffffffffffffffffffffffffffffffffffffffff1673ffffffffffffffffffffffffffffffffffffffff168152602001908152602001600020819055508360008087815260200190815260200160002060008873ffffffffffffffffffffffffffffffffffffffff1673ffffffffffffffffffffffffffffffffffffffff16815260200190815260200160002060008282546127769190614487565b925050819055508573ffffffffffffffffffffffffffffffffffffffff168773ffffffffffffffffffffffffffffffffffffffff168373ffffffffffffffffffffffffffffffffffffffff167fc3d58168c5ae7397731d063d5bbf3d657854427343f4c083240f7aacaa2d0f6288886040516127f3929190614805565b60405180910390a4612809828888888888612894565b50505050505050565b60606000600167ffffffffffffffff811115612831576128306132fe565b5b60405190808252806020026020018201604052801561285f5781602001602082028036833780820191505090505b5090508281600081518110612877576128766142eb565b5b60200260200101818152505080915050919050565b505050505050565b6128b38473ffffffffffffffffffffffffffffffffffffffff16612c44565b15612a64578373ffffffffffffffffffffffffffffffffffffffff1663f23a6e6187878686866040518663ffffffff1660e01b81526004016128f9959493929190614b02565b6020604051808303816000875af192505050801561293557506040513d601f19601f820116820180604052508101906129329190614b71565b60015b6129db57612941614bab565b806308c379a0141561299e5750612956614bcd565b8061296157506129a0565b806040517f08c379a0000000000000000000000000000000000000000000000000000000008152600401612995919061312f565b60405180910390fd5b505b6040517f08c379a00000000000000000000000000000000000000000000000000000000081526004016129d290614cd5565b60405180910390fd5b63f23a6e6160e01b7bffffffffffffffffffffffffffffffffffffffffffffffffffffffff1916817bffffffffffffffffffffffffffffffffffffffffffffffffffffffff191614612a62576040517f08c379a0000000000000000000000000000000000000000000000000000000008152600401612a5990614d67565b60405180910390fd5b505b505050505050565b612a8b8473ffffffffffffffffffffffffffffffffffffffff16612c44565b15612c3c578373ffffffffffffffffffffffffffffffffffffffff1663bc197c8187878686866040518663ffffffff1660e01b8152600401612ad1959493929190614d87565b6020604051808303816000875af1925050508015612b0d57506040513d601f19601f82011682018060405250810190612b0a9190614b71565b60015b612bb357612b19614bab565b806308c379a01415612b765750612b2e614bcd565b80612b395750612b78565b806040517f08c379a0000000000000000000000000000000000000000000000000000000008152600401612b6d919061312f565b60405180910390fd5b505b6040517f08c379a0000000000000000000000000000000000000000000000000000000008152600401612baa90614cd5565b60405180910390fd5b63bc197c8160e01b7bffffffffffffffffffffffffffffffffffffffffffffffffffffffff1916817bffffffffffffffffffffffffffffffffffffffffffffffffffffffff191614612c3a576040517f08c379a0000000000000000000000000000000000000000000000000000000008152600401612c3190614d67565b60405180910390fd5b505b505050505050565b600080823b905060008111915050919050565b8260048101928215612c86579160200282015b82811115612c85578251825591602001919060010190612c6a565b5b509050612c939190612e2c565b5090565b82600a8101928215612cc6579160200282015b82811115612cc5578251825591602001919060010190612caa565b5b509050612cd39190612e2c565b5090565b6040518060800160405280600490602082028036833780820191505090505090565b604051806101400160405280600a90602082028036833780820191505090505090565b604051806040016040528060008152602001600081525090565b6040518060a0016040528060008152602001600081526020016000815260200160008152602001600081525090565b6040518060800160405280612d78612cd7565b8152602001612d85612cd7565b8152602001612d92612cf9565b8152602001600081525090565b6040518060a00160405280600590602082028036833780820191505090505090565b604051806101600160405280600b90602082028036833780820191505090505090565b6040518060c00160405280600081526020016000815260200160008152602001612e0c612d1c565b8152602001612e19612d65565b8152602001612e26612d36565b81525090565b5b80821115612e45576000816000905550600101612e2d565b5090565b6000604051905090565b600080fd5b600080fd5b600073ffffffffffffffffffffffffffffffffffffffff82169050919050565b6000612e8882612e5d565b9050919050565b612e9881612e7d565b8114612ea357600080fd5b50565b600081359050612eb581612e8f565b92915050565b6000819050919050565b612ece81612ebb565b8114612ed957600080fd5b50565b600081359050612eeb81612ec5565b92915050565b60008060408385031215612f0857612f07612e53565b5b6000612f1685828601612ea6565b9250506020612f2785828601612edc565b9150509250929050565b612f3a81612ebb565b82525050565b6000602082019050612f556000830184612f31565b92915050565b60007fffffffff0000000000000000000000000000000000000000000000000000000082169050919050565b612f9081612f5b565b8114612f9b57600080fd5b50565b600081359050612fad81612f87565b92915050565b600060208284031215612fc957612fc8612e53565b5b6000612fd784828501612f9e565b91505092915050565b60008115159050919050565b612ff581612fe0565b82525050565b60006020820190506130106000830184612fec565b92915050565b60008060006060848603121561302f5761302e612e53565b5b600061303d86828701612edc565b935050602061304e86828701612edc565b925050604061305f86828701612edc565b9150509250925092565b60006020828403121561307f5761307e612e53565b5b600061308d84828501612edc565b91505092915050565b600081519050919050565b600082825260208201905092915050565b60005b838110156130d05780820151818401526020810190506130b5565b838111156130df576000848401525b50505050565b6000601f19601f8301169050919050565b600061310182613096565b61310b81856130a1565b935061311b8185602086016130b2565b613124816130e5565b840191505092915050565b6000602082019050818103600083015261314981846130f6565b905092915050565b6000806040838503121561316857613167612e53565b5b600061317685828601612edc565b925050602061318785828601612edc565b9150509250929050565b600060049050919050565b600081905092915050565b6000819050919050565b6131ba81612ebb565b82525050565b60006131cc83836131b1565b60208301905092915050565b6000602082019050919050565b6131ee81613191565b6131f8818461319c565b9250613203826131a7565b8060005b8381101561323457815161321b87826131c0565b9650613226836131d8565b925050600181019050613207565b505050505050565b6000600a9050919050565b600081905092915050565b6000819050919050565b6000602082019050919050565b6132728161323c565b61327c8184613247565b925061328782613252565b8060005b838110156132b857815161329f87826131c0565b96506132aa8361325c565b92505060018101905061328b565b505050505050565b60006101e0820190506132d660008301866131e5565b6132e36080830185613269565b6132f16101c0830184612f31565b949350505050565b600080fd5b7f4e487b7100000000000000000000000000000000000000000000000000000000600052604160045260246000fd5b613336826130e5565b810181811067ffffffffffffffff82111715613355576133546132fe565b5b80604052505050565b6000613368612e49565b9050613374828261332d565b919050565b600067ffffffffffffffff821115613394576133936132fe565b5b602082029050602081019050919050565b600080fd5b60006133bd6133b884613379565b61335e565b905080838252602082019050602084028301858111156133e0576133df6133a5565b5b835b8181101561340957806133f58882612edc565b8452602084019350506020810190506133e2565b5050509392505050565b600082601f830112613428576134276132f9565b5b81356134388482602086016133aa565b91505092915050565b600080fd5b600067ffffffffffffffff821115613461576134606132fe565b5b61346a826130e5565b9050602081019050919050565b82818337600083830152505050565b600061349961349484613446565b61335e565b9050828152602081018484840111156134b5576134b4613441565b5b6134c0848285613477565b509392505050565b600082601f8301126134dd576134dc6132f9565b5b81356134ed848260208601613486565b91505092915050565b600080600080600060a0868803121561351257613511612e53565b5b600061352088828901612ea6565b955050602061353188828901612ea6565b945050604086013567ffffffffffffffff81111561355257613551612e58565b5b61355e88828901613413565b935050606086013567ffffffffffffffff81111561357f5761357e612e58565b5b61358b88828901613413565b925050608086013567ffffffffffffffff8111156135ac576135ab612e58565b5b6135b8888289016134c8565b9150509295509295909350565b600067ffffffffffffffff8211156135e0576135df6132fe565b5b602082029050919050565b60006135fe6135f9846135c5565b61335e565b90508060208402830185811115613618576136176133a5565b5b835b81811015613641578061362d8882612edc565b84526020840193505060208101905061361a565b5050509392505050565b600082601f8301126136605761365f6132f9565b5b600a61366d8482856135eb565b91505092915050565b600080610160838503121561368e5761368d612e53565b5b600061369c8582860161364b565b9250506101406136ae85828601612edc565b9150509250929050565b6000819050919050565b6136cb816136b8565b82525050565b60006020820190506136e660008301846136c2565b92915050565b600067ffffffffffffffff821115613707576137066132fe565b5b602082029050602081019050919050565b600061372b613726846136ec565b61335e565b9050808382526020820190506020840283018581111561374e5761374d6133a5565b5b835b8181101561377757806137638882612ea6565b845260208401935050602081019050613750565b5050509392505050565b600082601f830112613796576137956132f9565b5b81356137a6848260208601613718565b91505092915050565b600080604083850312156137c6576137c5612e53565b5b600083013567ffffffffffffffff8111156137e4576137e3612e58565b5b6137f085828601613781565b925050602083013567ffffffffffffffff81111561381157613810612e58565b5b61381d85828601613413565b9150509250929050565b600081519050919050565b600082825260208201905092915050565b6000819050602082019050919050565b6000602082019050919050565b600061386b82613827565b6138758185613832565b935061388083613843565b8060005b838110156138b157815161389888826131c0565b97506138a383613853565b925050600181019050613884565b5085935050505092915050565b600060208201905081810360008301526138d88184613860565b905092915050565b6040820160008201516138f660008501826131b1565b50602082015161390960208501826131b1565b50505050565b600060408201905061392460008301846138e0565b92915050565b60a08201600082015161394060008501826131b1565b50602082015161395360208501826131b1565b50604082015161396660408501826131b1565b50606082015161397960608501826131b1565b50608082015161398c60808501826131b1565b50505050565b600060a0820190506139a7600083018461392a565b92915050565b600067ffffffffffffffff8211156139c8576139c76132fe565b5b6139d1826130e5565b9050602081019050919050565b60006139f16139ec846139ad565b61335e565b905082815260208101848484011115613a0d57613a0c613441565b5b613a18848285613477565b509392505050565b600082601f830112613a3557613a346132f9565b5b8135613a458482602086016139de565b91505092915050565b60008060008060008060c08789031215613a6b57613a6a612e53565b5b6000613a7989828a01612ea6565b9650506020613a8a89828a01612ea6565b9550506040613a9b89828a01612ea6565b945050606087013567ffffffffffffffff811115613abc57613abb612e58565b5b613ac889828a01613413565b935050608087013567ffffffffffffffff811115613ae957613ae8612e58565b5b613af589828a01613413565b92505060a087013567ffffffffffffffff811115613b1657613b15612e58565b5b613b2289828a01613a20565b9150509295509295509295565b600081905092915050565b613b4381613191565b613b4d8184613b2f565b9250613b58826131a7565b8060005b83811015613b89578151613b7087826131c0565b9650613b7b836131d8565b925050600181019050613b5c565b505050505050565b600081905092915050565b613ba58161323c565b613baf8184613b91565b9250613bba82613252565b8060005b83811015613beb578151613bd287826131c0565b9650613bdd8361325c565b925050600181019050613bbe565b505050505050565b61026082016000820151613c0a6000850182613b3a565b506020820151613c1d6080850182613b3a565b506040820151613c31610100850182613b9c565b506060820151613c456102408501826131b1565b50505050565b600061026082019050613c616000830184613bf3565b92915050565b6000806101608385031215613c7f57613c7e612e53565b5b6000613c8d85828601612edc565b9250506020613c9e8582860161364b565b9150509250929050565b600061014082019050613cbe6000830184613269565b92915050565b600060208284031215613cda57613cd9612e53565b5b6000613ce884828501612ea6565b91505092915050565b613cfa81612e7d565b82525050565b6000602082019050613d156000830184613cf1565b92915050565b613d2481612fe0565b8114613d2f57600080fd5b50565b600081359050613d4181613d1b565b92915050565b60008060408385031215613d5e57613d5d612e53565b5b6000613d6c85828601612ea6565b9250506020613d7d85828601613d32565b9150509250929050565b604082016000820151613d9d60008501826131b1565b506020820151613db060208501826131b1565b50505050565b61026082016000820151613dcd6000850182613b3a565b506020820151613de06080850182613b3a565b506040820151613df4610100850182613b9c565b506060820151613e086102408501826131b1565b50505050565b60a082016000820151613e2460008501826131b1565b506020820151613e3760208501826131b1565b506040820151613e4a60408501826131b1565b506060820151613e5d60608501826131b1565b506080820151613e7060808501826131b1565b50505050565b6103a082016000820151613e8d60008501826131b1565b506020820151613ea060208501826131b1565b506040820151613eb360408501826131b1565b506060820151613ec66060850182613d87565b506080820151613ed960a0850182613db6565b5060a0820151613eed610300850182613e0e565b50505050565b60006103a082019050613f096000830184613e76565b92915050565b60008060408385031215613f2657613f25612e53565b5b6000613f3485828601612ea6565b9250506020613f4585828601612ea6565b9150509250929050565b600080600080600060a08688031215613f6b57613f6a612e53565b5b6000613f7988828901612ea6565b9550506020613f8a88828901612ea6565b9450506040613f9b88828901612edc565b9350506060613fac88828901612edc565b925050608086013567ffffffffffffffff811115613fcd57613fcc612e58565b5b613fd9888289016134c8565b9150509295509295909350565b600067ffffffffffffffff821115614001576140006132fe565b5b602082029050919050565b600061401f61401a84613fe6565b61335e565b90508060208402830185811115614039576140386133a5565b5b835b81811015614062578061404e8882612edc565b84526020840193505060208101905061403b565b5050509392505050565b600082601f830112614081576140806132f9565b5b600461408e84828561400c565b91505092915050565b60008060a083850312156140ae576140ad612e53565b5b60006140bc8582860161406c565b92505060806140cd85828601612edc565b9150509250929050565b60006080820190506140ec60008301846131e5565b92915050565b7f455243313135353a2062616c616e636520717565727920666f7220746865207a60008201527f65726f2061646472657373000000000000000000000000000000000000000000602082015250565b600061414e602b836130a1565b9150614159826140f2565b604082019050919050565b6000602082019050818103600083015261417d81614141565b9050919050565b7f4e487b7100000000000000000000000000000000000000000000000000000000600052601160045260246000fd5b60006141be82612ebb565b91507fffffffffffffffffffffffffffffffffffffffffffffffffffffffffffffffff8214156141f1576141f0614184565b5b600182019050919050565b7f4e487b7100000000000000000000000000000000000000000000000000000000600052602260045260246000fd5b6000600282049050600182168061424357607f821691505b60208210811415614257576142566141fc565b5b50919050565b600061426882612ebb565b915061427383612ebb565b92508282101561428657614285614184565b5b828203905092915050565b600061429c82612ebb565b91506142a783612ebb565b9250817fffffffffffffffffffffffffffffffffffffffffffffffffffffffffffffffff04831182151516156142e0576142df614184565b5b828202905092915050565b7f4e487b7100000000000000000000000000000000000000000000000000000000600052603260045260246000fd5b7f455243313135353a207472616e736665722063616c6c6572206973206e6f742060008201527f6f776e6572206e6f7220617070726f7665640000000000000000000000000000602082015250565b60006143766032836130a1565b91506143818261431a565b604082019050919050565b600060208201905081810360008301526143a581614369565b9050919050565b60006143b7826136b8565b91507f7fffffffffffffffffffffffffffffffffffffffffffffffffffffffffffffff8214156143ea576143e9614184565b5b600182019050919050565b7f455243313135353a206163636f756e747320616e6420696473206c656e67746860008201527f206d69736d617463680000000000000000000000000000000000000000000000602082015250565b60006144516029836130a1565b915061445c826143f5565b604082019050919050565b6000602082019050818103600083015261448081614444565b9050919050565b600061449282612ebb565b915061449d83612ebb565b9250827fffffffffffffffffffffffffffffffffffffffffffffffffffffffffffffffff038211156144d2576144d1614184565b5b828201905092915050565b7f4e487b7100000000000000000000000000000000000000000000000000000000600052601260045260246000fd5b600061451782612ebb565b915061452283612ebb565b925082614532576145316144dd565b5b828206905092915050565b6000819050919050565b61455861455382612ebb565b61453d565b82525050565b60008160601b9050919050565b60006145768261455e565b9050919050565b60006145888261456b565b9050919050565b6145a061459b82612e7d565b61457d565b82525050565b60006145b28286614547565b6020820191506145c2828561458f565b6014820191506145d28284614547565b602082019150819050949350505050565b7f4f776e61626c653a2063616c6c6572206973206e6f7420746865206f776e6572600082015250565b60006146196020836130a1565b9150614624826145e3565b602082019050919050565b600060208201905081810360008301526146488161460c565b9050919050565b7f455243313135353a2063616c6c6572206973206e6f74206f776e6572206e6f7260008201527f20617070726f7665640000000000000000000000000000000000000000000000602082015250565b60006146ab6029836130a1565b91506146b68261464f565b604082019050919050565b600060208201905081810360008301526146da8161469e565b9050919050565b7f4f776e61626c653a206e6577206f776e657220697320746865207a65726f206160008201527f6464726573730000000000000000000000000000000000000000000000000000602082015250565b600061473d6026836130a1565b9150614748826146e1565b604082019050919050565b6000602082019050818103600083015261476c81614730565b9050919050565b7f455243313135353a206d696e7420746f20746865207a65726f2061646472657360008201527f7300000000000000000000000000000000000000000000000000000000000000602082015250565b60006147cf6021836130a1565b91506147da82614773565b604082019050919050565b600060208201905081810360008301526147fe816147c2565b9050919050565b600060408201905061481a6000830185612f31565b6148276020830184612f31565b9392505050565b7f455243313135353a2069647320616e6420616d6f756e7473206c656e6774682060008201527f6d69736d61746368000000000000000000000000000000000000000000000000602082015250565b600061488a6028836130a1565b91506148958261482e565b604082019050919050565b600060208201905081810360008301526148b98161487d565b9050919050565b7f455243313135353a207472616e7366657220746f20746865207a65726f20616460008201527f6472657373000000000000000000000000000000000000000000000000000000602082015250565b600061491c6025836130a1565b9150614927826148c0565b604082019050919050565b6000602082019050818103600083015261494b8161490f565b9050919050565b7f455243313135353a20696e73756666696369656e742062616c616e636520666f60008201527f72207472616e7366657200000000000000000000000000000000000000000000602082015250565b60006149ae602a836130a1565b91506149b982614952565b604082019050919050565b600060208201905081810360008301526149dd816149a1565b9050919050565b600060408201905081810360008301526149fe8185613860565b90508181036020830152614a128184613860565b90509392505050565b7f455243313135353a2073657474696e6720617070726f76616c2073746174757360008201527f20666f722073656c660000000000000000000000000000000000000000000000602082015250565b6000614a776029836130a1565b9150614a8282614a1b565b604082019050919050565b60006020820190508181036000830152614aa681614a6a565b9050919050565b600081519050919050565b600082825260208201905092915050565b6000614ad482614aad565b614ade8185614ab8565b9350614aee8185602086016130b2565b614af7816130e5565b840191505092915050565b600060a082019050614b176000830188613cf1565b614b246020830187613cf1565b614b316040830186612f31565b614b3e6060830185612f31565b8181036080830152614b508184614ac9565b90509695505050505050565b600081519050614b6b81612f87565b92915050565b600060208284031215614b8757614b86612e53565b5b6000614b9584828501614b5c565b91505092915050565b60008160e01c9050919050565b600060033d1115614bca5760046000803e614bc7600051614b9e565b90505b90565b600060443d1015614bdd57614c60565b614be5612e49565b60043d036004823e80513d602482011167ffffffffffffffff82111715614c0d575050614c60565b808201805167ffffffffffffffff811115614c2b5750505050614c60565b80602083010160043d038501811115614c48575050505050614c60565b614c578260200185018661332d565b82955050505050505b90565b7f455243313135353a207472616e7366657220746f206e6f6e204552433131353560008201527f526563656976657220696d706c656d656e746572000000000000000000000000602082015250565b6000614cbf6034836130a1565b9150614cca82614c63565b604082019050919050565b60006020820190508181036000830152614cee81614cb2565b9050919050565b7f455243313135353a204552433131353552656365697665722072656a6563746560008201527f6420746f6b656e73000000000000000000000000000000000000000000000000602082015250565b6000614d516028836130a1565b9150614d5c82614cf5565b604082019050919050565b60006020820190508181036000830152614d8081614d44565b9050919050565b600060a082019050614d9c6000830188613cf1565b614da96020830187613cf1565b8181036040830152614dbb8186613860565b90508181036060830152614dcf8185613860565b90508181036080830152614de38184614ac9565b9050969550505050505056fea2646970667358221220ddd267d802cda99fdf9a5b8295926359d7bcdc37c7121cd33aff5055caa5650c64736f6c634300080c0033",
  "immutableReferences": {},
  "source": "// SPDX-License-Identifier: GPL-3.0-or-later\r\npragma solidity ^0.8.0;\r\n\r\nimport \"../node_modules/@openzeppelin/contracts/token/ERC1155/ERC1155.sol\";\r\nimport \"../node_modules/@openzeppelin/contracts/access/Ownable.sol\";\r\n\r\ncontract Token is ERC1155, Ownable {\r\n\r\n    uint8 constant FLOWER = 1;\r\n    uint8 constant FEATHER = 2;\r\n    uint8 constant SANDS = 3;\r\n    uint8 constant GOBLET = 4;\r\n    uint8 constant CIRCLET = 5;\r\n    uint256[20] EXP_DEMAND = [uint256(3000), 3725, 4425, 5150, 5900, 6675, 7500, 8350, 9225, 10125, 11050, 12025, 13025, 15150, 17600, 20375, 23500, 27050, 31050, 35575];\r\n    uint256[20] EXP_ACC = [uint256(3000), 6725, 11150, 16300, 22200, 28875, 36375, 44725, 53950, 64075, 75125, 87150, 100175, 115325, 132925, 153300, 176800, 203850, 234900, 270475];\r\n    uint256[40] valueArray = \r\n            [uint256(140), 160, 180, 190, \r\n                2090, 2390, 2690, 2990, \r\n                160, 190, 210, 230, \r\n                41, 47, 53, 58,\r\n                41, 47, 53, 58, \r\n                51, 58, 66, 73, \r\n                27, 31, 35, 39, \r\n                54, 62, 70, 78, \r\n                160, 190, 210, 230, \r\n                45, 52, 58, 65];\r\n    uint256[18] mainOpValueArray = [uint256(470), 7170, 0, 70, 70, 87, 47, 93, 280, 78, 87, 70, 70, 70, 70, 70, 70, 54];\r\n    uint256[18] mainOpInc = [uint256(132), 2031, 0, 20, 20, 24, 13, 26, 79, 22, 25, 20, 20, 20, 20, 20, 20, 15];\r\n\r\n    struct MainOp {\r\n        uint256 id;\r\n        uint256 value;\r\n    }\r\n\r\n    struct SubOp {\r\n        uint256[4] id;\r\n        uint256[4] value;\r\n        uint256[10] cdd;\r\n        uint cddLen;\r\n    }\r\n\r\n    struct Exp {\r\n        uint256 level;\r\n        uint256 total;\r\n        uint256 current;\r\n        uint256 next;\r\n        uint256 nextTotal;\r\n    }\r\n\r\n    struct Relic {\r\n        uint256 part;\r\n        uint256 set;\r\n        uint256 stars;\r\n        MainOp main;\r\n        SubOp sub;\r\n        Exp exp;\r\n    }\r\n\r\n    \r\n\r\n    uint256 nextId = 0;\r\n\r\n    mapping(uint256 => Relic) private _tokenDetails;\r\n\r\n    constructor(string memory name, string memory symbol, string memory uri) ERC1155(uri) {\r\n\r\n    }\r\n\r\n    function getTokenDetails(uint256 tokenId) public view returns (Relic memory) {\r\n        return _tokenDetails[tokenId];\r\n    }\r\n\r\n    function indexOf(uint256[10] memory arr, uint256 searchFor) public pure returns (int256) {\r\n        for (int256 i = 0; i < int256(arr.length); i++) {\r\n            if (arr[uint256(i)] == searchFor) {\r\n                return i;\r\n            }\r\n        }\r\n        return -1;\r\n    }\r\n\r\n    function rand_mint(uint256 location, uint256 difficulty) public onlyOwner {\r\n        uint quant = createRandom(2, 0);\r\n\r\n        for (uint i = 0; i < 2; i++) {\r\n            mint(location, difficulty, i);\r\n        }\r\n    }\r\n\r\n    function mint(uint256 location, uint256 difficulty, uint256 nonce) public {\r\n        uint256 set = getRandomSet(location, nonce);\r\n        uint256 part = getRandomPart(nonce);\r\n        uint256 stars = getStars(difficulty);\r\n\r\n        MainOp memory main = getMainStats(part, nonce);\r\n        SubOp memory sub = getSubStats(main.id, nonce);\r\n        Exp memory exp = getExpStats();\r\n\r\n        _tokenDetails[nextId] = Relic(part, set, stars, main, sub, exp);\r\n        _mint(msg.sender, nextId, 1, \"\");\r\n        nextId++;\r\n    }  \r\n\r\n    function getRandomPart(uint256 nonce) public view returns (uint256) {\r\n        uint256 part = uint256(createRandom(5, nonce));\r\n        return part;\r\n    }\r\n\r\n    function getRandomSet(uint256 location, uint nonce) public view returns (uint256) {\r\n        uint256 set = (location * 2) + uint256(createRandom(2, nonce));\r\n        return set;\r\n    }\r\n\r\n    function getStars(uint256 diff) public pure returns (uint256) {\r\n        uint256 stars = 5;\r\n        return stars;\r\n    }\r\n\r\n    function getMainStats(uint256 part, uint nonce) public view returns (MainOp memory) {\r\n        uint256 mainOpType = getMainOpType(part, nonce);\r\n        uint256 mainOpValue = getMainOpValue(mainOpType);\r\n        MainOp memory main = MainOp(mainOpType, mainOpValue);\r\n        return main;\r\n    }\r\n\r\n    function getMainOpType(uint256 part, uint nonce) public view returns (uint256) {\r\n        uint256 mainOpType = 0;\r\n        if (part == 1) {\r\n            mainOpType = 2;\r\n        }\r\n        else if (part == 2) {\r\n            mainOpType = 1;\r\n        }     \r\n        else if (part == 3) {\r\n            uint256[5] memory typeArray;\r\n            typeArray = [uint256(4), 5, 6, 9, 10];\r\n            mainOpType = typeArray[createRandom(typeArray.length, nonce)];\r\n        }\r\n        else if (part == 4) {\r\n            uint256[11] memory typeArray;\r\n            typeArray = [uint256(4), 5, 6, 9, 11, 12, 13, 14, 15, 16, 17];\r\n            mainOpType = typeArray[createRandom(typeArray.length, nonce)];\r\n        }\r\n        else if (part == 5) {\r\n            uint256[7] memory typeArray = [uint256(4), 5, 6, 7, 8, 9, 18];\r\n            mainOpType = typeArray[createRandom(typeArray.length, nonce)];\r\n        }\r\n        return mainOpType;\r\n    }\r\n\r\n    function getMainOpValue(uint256 mainOpType) public view returns (uint256) {\r\n        uint256 mainOpValue = mainOpValueArray[mainOpType-1];\r\n        return mainOpValue;\r\n    }\r\n\r\n    function getSubStats(uint256 mainOpType, uint nonce) public view returns (SubOp memory) {\r\n        (uint256[4] memory subOpType, uint256[10] memory subOpCdd, uint length) = getSubOpType(mainOpType, nonce);\r\n        uint256[4] memory subOpValue = getSubOpValue(subOpType, nonce);\r\n        SubOp memory subStats = SubOp(subOpType, subOpValue, subOpCdd, length);\r\n        return subStats;\r\n    }\r\n\r\n    function getSubOpType(uint256 mainOpType, uint nonce) public view returns (uint256[4] memory, uint256[10] memory, uint) {\r\n        uint256[4] memory subOpType = [uint256(0), 0, 0, 0];\r\n        uint256[10] memory subOpCdd = [uint256(1), 2, 3, 4, 5, 6, 7, 8, 9, 10];\r\n        uint256 isFourLine = uint256(createRandom(2, nonce));\r\n        uint length = 10;\r\n\r\n        if (indexOf(subOpCdd, mainOpType) != -1) {\r\n            subOpCdd = removeElement(mainOpType, subOpCdd);\r\n            length -= 1;\r\n        }\r\n\r\n        for (uint256 i = 0; i < 4; i++) {\r\n            subOpType[i] = subOpCdd[createRandom(length, i * nonce)];\r\n            subOpCdd = removeElement(subOpType[i], subOpCdd);\r\n            length -= 1;\r\n        }\r\n\r\n        if (isFourLine == 0) {\r\n            subOpType[3] = 0;\r\n        }\r\n\r\n        return (subOpType, subOpCdd, length);\r\n    }\r\n\r\n    function getSubOpValue(uint256[4] memory subOpType, uint nonce) public view returns (uint256[4] memory) {\r\n        uint256[4] memory subOpValue = [uint256(0), 0, 0, 0];\r\n        \r\n        uint256 offset;\r\n        for (uint256 i = 0; i < 4; i++) {\r\n            if (subOpType[i] == 0) { continue; }\r\n\r\n            offset = uint256(createRandom(4, i * nonce));\r\n            subOpValue[i] = valueArray[(subOpType[i]-1) * 4 + offset];\r\n        }\r\n\r\n        return subOpValue;\r\n    }\r\n\r\n    function getExpStats() public view returns (Exp memory) {\r\n        uint256 level = 0;\r\n        uint256 curExp = 0;\r\n        uint256 totalExp = 0;\r\n        uint256 nextExp = EXP_DEMAND[level];\r\n        uint256 nextExpAcc = EXP_ACC[level];\r\n        Exp memory expStats = Exp(level, totalExp, curExp, nextExp, nextExpAcc);\r\n        return expStats;\r\n    }\r\n\r\n    function enhance(uint256 tokenId, uint256 add) public {\r\n        Relic storage relic = _tokenDetails[tokenId];\r\n        MainOp storage main = relic.main;\r\n        SubOp storage sub = relic.sub;\r\n        Exp storage exp = relic.exp;\r\n\r\n        uint256 targetIndex = createRandom(4, 0);\r\n        uint256 offsetIndex = createRandom(4, 1);\r\n        uint256 targetType = 0;\r\n        uint256 targetValue = 0;\r\n\r\n        if (exp.level < 20) {\r\n            exp.total += add;\r\n            exp.current += add;\r\n            \r\n            if(exp.current >= exp.next) {\r\n                for (uint256 k = exp.level; k < 20; k++) {\r\n                    if (EXP_ACC[k] <= exp.total) {\r\n                        exp.level += 1;\r\n                        if (exp.level % 4 == 0) {\r\n                            if (sub.id[3] == 0) {\r\n                                targetIndex = 3;\r\n                                targetType = sub.cdd[createRandom(sub.cddLen, 2)];\r\n                                sub.id[3] = targetType;\r\n                            }\r\n                            else {\r\n                                targetType = sub.id[targetIndex];\r\n                            }\r\n                            targetValue = valueArray[(targetType-1) * 4 + offsetIndex];\r\n                            sub.value[targetIndex] += targetValue;\r\n                        }\r\n                        continue;\r\n                    }\r\n                    else {\r\n                        exp.current = exp.total - EXP_ACC[k-1];\r\n                        main.value += k * mainOpInc[main.id-1];\r\n                        exp.next = EXP_DEMAND[exp.level];\r\n                        break;\r\n                    }\r\n                }\r\n            }\r\n        }\r\n    }\r\n\r\n    function createRandom(uint number, uint randNonce) public view returns(uint) {\r\n        return uint(keccak256(abi.encodePacked(block.timestamp, msg.sender, randNonce))) % number;\r\n    }\r\n\r\n    function getAllTokensForUser(address user) public view returns (uint256[] memory) {\r\n        uint256 tokenCount = 0;\r\n        uint256 j;\r\n        for(j = 0; j < nextId; j++) {\r\n            tokenCount = tokenCount + balanceOf(user, j);\r\n        }\r\n        if(tokenCount == 0) {\r\n            return new uint256[](0);\r\n        }\r\n        else {\r\n            uint[] memory result = new uint256[](tokenCount);\r\n            uint256 totalPets = nextId;\r\n            uint256 resultIndex = 0;\r\n            uint256 i;\r\n            for(i = 0; i < totalPets; i++) {\r\n                if(_ownerOf(i)) {\r\n                    result[resultIndex] = i;\r\n                    resultIndex++; \r\n                }\r\n            }\r\n            return result;\r\n        }\r\n    }\r\n\r\n    function remove(uint256 index, uint256[10] memory array) public pure returns (uint256[10] memory){\r\n        for(uint i = index; i < array.length-1; i++) {\r\n            array[i] = array[i+1];\r\n        }\r\n        return array;\r\n    }\r\n\r\n    function removeElement(uint256 element, uint256[10] memory array) public pure returns (uint256[10] memory) {\r\n        array = remove(uint256(indexOf(array, element)), array);\r\n        return array;\r\n    }\r\n\r\n    function _beforeTokenTransfer(address operator, address from, address to, uint256[] memory ids, uint256[] memory amounts, string memory data) public view onlyOwner {\r\n        Relic storage relic = _tokenDetails[ids[0]];\r\n    }\r\n\r\n    function _ownerOf(uint256 tokenId) internal view returns (bool) {\r\n        return balanceOf(msg.sender, tokenId) != 0;\r\n    }\r\n}\r\n\r\n\r\n",
  "sourcePath": "C:\\Users\\mario\\OneDrive\\ \\NFTG\\contracts\\Token.sol",
  "compiler": {
    "name": "solc",
    "version": "0.8.12+commit.f00d7308.Emscripten.clang"
  },
  "schemaVersion": "3.4.3",
  "updatedAt": "2022-04-18T11:45:02.078Z",
  "networkType": "ethereum",
  "devdoc": {
    "kind": "dev",
    "methods": {
      "balanceOf(address,uint256)": {
        "details": "See {IERC1155-balanceOf}. Requirements: - `account` cannot be the zero address."
      },
      "balanceOfBatch(address[],uint256[])": {
        "details": "See {IERC1155-balanceOfBatch}. Requirements: - `accounts` and `ids` must have the same length."
      },
      "isApprovedForAll(address,address)": {
        "details": "See {IERC1155-isApprovedForAll}."
      },
      "owner()": {
        "details": "Returns the address of the current owner."
      },
      "renounceOwnership()": {
        "details": "Leaves the contract without owner. It will not be possible to call `onlyOwner` functions anymore. Can only be called by the current owner. NOTE: Renouncing ownership will leave the contract without an owner, thereby removing any functionality that is only available to the owner."
      },
      "safeBatchTransferFrom(address,address,uint256[],uint256[],bytes)": {
        "details": "See {IERC1155-safeBatchTransferFrom}."
      },
      "safeTransferFrom(address,address,uint256,uint256,bytes)": {
        "details": "See {IERC1155-safeTransferFrom}."
      },
      "setApprovalForAll(address,bool)": {
        "details": "See {IERC1155-setApprovalForAll}."
      },
      "supportsInterface(bytes4)": {
        "details": "See {IERC165-supportsInterface}."
      },
      "transferOwnership(address)": {
        "details": "Transfers ownership of the contract to a new account (`newOwner`). Can only be called by the current owner."
      },
      "uri(uint256)": {
        "details": "See {IERC1155MetadataURI-uri}. This implementation returns the same URI for *all* token types. It relies on the token type ID substitution mechanism https://eips.ethereum.org/EIPS/eip-1155#metadata[defined in the EIP]. Clients calling this function must replace the `\\{id\\}` substring with the actual token type ID."
      }
    },
    "version": 1
  },
  "userdoc": {
    "kind": "user",
    "methods": {},
    "version": 1
  }
}