{
  "contractName": "Token",
  "abi": [
    {
      "inputs": [
        {
          "internalType": "string",
          "name": "name",
          "type": "string"
        },
        {
          "internalType": "string",
          "name": "symbol",
          "type": "string"
        },
        {
          "internalType": "string",
          "name": "uri",
          "type": "string"
        }
      ],
      "stateMutability": "nonpayable",
      "type": "constructor"
    },
    {
      "anonymous": false,
      "inputs": [
        {
          "indexed": true,
          "internalType": "address",
          "name": "account",
          "type": "address"
        },
        {
          "indexed": true,
          "internalType": "address",
          "name": "operator",
          "type": "address"
        },
        {
          "indexed": false,
          "internalType": "bool",
          "name": "approved",
          "type": "bool"
        }
      ],
      "name": "ApprovalForAll",
      "type": "event"
    },
    {
      "anonymous": false,
      "inputs": [
        {
          "indexed": true,
          "internalType": "address",
          "name": "previousOwner",
          "type": "address"
        },
        {
          "indexed": true,
          "internalType": "address",
          "name": "newOwner",
          "type": "address"
        }
      ],
      "name": "OwnershipTransferred",
      "type": "event"
    },
    {
      "anonymous": false,
      "inputs": [
        {
          "indexed": true,
          "internalType": "address",
          "name": "operator",
          "type": "address"
        },
        {
          "indexed": true,
          "internalType": "address",
          "name": "from",
          "type": "address"
        },
        {
          "indexed": true,
          "internalType": "address",
          "name": "to",
          "type": "address"
        },
        {
          "indexed": false,
          "internalType": "uint256[]",
          "name": "ids",
          "type": "uint256[]"
        },
        {
          "indexed": false,
          "internalType": "uint256[]",
          "name": "values",
          "type": "uint256[]"
        }
      ],
      "name": "TransferBatch",
      "type": "event"
    },
    {
      "anonymous": false,
      "inputs": [
        {
          "indexed": true,
          "internalType": "address",
          "name": "operator",
          "type": "address"
        },
        {
          "indexed": true,
          "internalType": "address",
          "name": "from",
          "type": "address"
        },
        {
          "indexed": true,
          "internalType": "address",
          "name": "to",
          "type": "address"
        },
        {
          "indexed": false,
          "internalType": "uint256",
          "name": "id",
          "type": "uint256"
        },
        {
          "indexed": false,
          "internalType": "uint256",
          "name": "value",
          "type": "uint256"
        }
      ],
      "name": "TransferSingle",
      "type": "event"
    },
    {
      "anonymous": false,
      "inputs": [
        {
          "indexed": false,
          "internalType": "string",
          "name": "value",
          "type": "string"
        },
        {
          "indexed": true,
          "internalType": "uint256",
          "name": "id",
          "type": "uint256"
        }
      ],
      "name": "URI",
      "type": "event"
    },
    {
      "inputs": [
        {
          "internalType": "address",
          "name": "account",
          "type": "address"
        },
        {
          "internalType": "uint256",
          "name": "id",
          "type": "uint256"
        }
      ],
      "name": "balanceOf",
      "outputs": [
        {
          "internalType": "uint256",
          "name": "",
          "type": "uint256"
        }
      ],
      "stateMutability": "view",
      "type": "function",
      "constant": true
    },
    {
      "inputs": [
        {
          "internalType": "address[]",
          "name": "accounts",
          "type": "address[]"
        },
        {
          "internalType": "uint256[]",
          "name": "ids",
          "type": "uint256[]"
        }
      ],
      "name": "balanceOfBatch",
      "outputs": [
        {
          "internalType": "uint256[]",
          "name": "",
          "type": "uint256[]"
        }
      ],
      "stateMutability": "view",
      "type": "function",
      "constant": true
    },
    {
      "inputs": [
        {
          "internalType": "address",
          "name": "account",
          "type": "address"
        },
        {
          "internalType": "address",
          "name": "operator",
          "type": "address"
        }
      ],
      "name": "isApprovedForAll",
      "outputs": [
        {
          "internalType": "bool",
          "name": "",
          "type": "bool"
        }
      ],
      "stateMutability": "view",
      "type": "function",
      "constant": true
    },
    {
      "inputs": [],
      "name": "owner",
      "outputs": [
        {
          "internalType": "address",
          "name": "",
          "type": "address"
        }
      ],
      "stateMutability": "view",
      "type": "function",
      "constant": true
    },
    {
      "inputs": [],
      "name": "renounceOwnership",
      "outputs": [],
      "stateMutability": "nonpayable",
      "type": "function"
    },
    {
      "inputs": [
        {
          "internalType": "address",
          "name": "from",
          "type": "address"
        },
        {
          "internalType": "address",
          "name": "to",
          "type": "address"
        },
        {
          "internalType": "uint256[]",
          "name": "ids",
          "type": "uint256[]"
        },
        {
          "internalType": "uint256[]",
          "name": "amounts",
          "type": "uint256[]"
        },
        {
          "internalType": "bytes",
          "name": "data",
          "type": "bytes"
        }
      ],
      "name": "safeBatchTransferFrom",
      "outputs": [],
      "stateMutability": "nonpayable",
      "type": "function"
    },
    {
      "inputs": [
        {
          "internalType": "address",
          "name": "from",
          "type": "address"
        },
        {
          "internalType": "address",
          "name": "to",
          "type": "address"
        },
        {
          "internalType": "uint256",
          "name": "id",
          "type": "uint256"
        },
        {
          "internalType": "uint256",
          "name": "amount",
          "type": "uint256"
        },
        {
          "internalType": "bytes",
          "name": "data",
          "type": "bytes"
        }
      ],
      "name": "safeTransferFrom",
      "outputs": [],
      "stateMutability": "nonpayable",
      "type": "function"
    },
    {
      "inputs": [
        {
          "internalType": "address",
          "name": "operator",
          "type": "address"
        },
        {
          "internalType": "bool",
          "name": "approved",
          "type": "bool"
        }
      ],
      "name": "setApprovalForAll",
      "outputs": [],
      "stateMutability": "nonpayable",
      "type": "function"
    },
    {
      "inputs": [
        {
          "internalType": "bytes4",
          "name": "interfaceId",
          "type": "bytes4"
        }
      ],
      "name": "supportsInterface",
      "outputs": [
        {
          "internalType": "bool",
          "name": "",
          "type": "bool"
        }
      ],
      "stateMutability": "view",
      "type": "function",
      "constant": true
    },
    {
      "inputs": [
        {
          "internalType": "address",
          "name": "newOwner",
          "type": "address"
        }
      ],
      "name": "transferOwnership",
      "outputs": [],
      "stateMutability": "nonpayable",
      "type": "function"
    },
    {
      "inputs": [
        {
          "internalType": "uint256",
          "name": "",
          "type": "uint256"
        }
      ],
      "name": "uri",
      "outputs": [
        {
          "internalType": "string",
          "name": "",
          "type": "string"
        }
      ],
      "stateMutability": "view",
      "type": "function",
      "constant": true
    },
    {
      "inputs": [
        {
          "internalType": "uint256",
          "name": "tokenId",
          "type": "uint256"
        }
      ],
      "name": "getTokenDetails",
      "outputs": [
        {
          "components": [
            {
              "internalType": "uint256",
              "name": "part",
              "type": "uint256"
            },
            {
              "internalType": "uint256",
              "name": "set",
              "type": "uint256"
            },
            {
              "internalType": "uint256",
              "name": "stars",
              "type": "uint256"
            },
            {
              "components": [
                {
                  "internalType": "uint256",
                  "name": "id",
                  "type": "uint256"
                },
                {
                  "internalType": "uint256",
                  "name": "value",
                  "type": "uint256"
                }
              ],
              "internalType": "struct Token.MainOp",
              "name": "main",
              "type": "tuple"
            },
            {
              "components": [
                {
                  "internalType": "uint256[4]",
                  "name": "id",
                  "type": "uint256[4]"
                },
                {
                  "internalType": "uint256[4]",
                  "name": "value",
                  "type": "uint256[4]"
                },
                {
                  "internalType": "uint256[10]",
                  "name": "cdd",
                  "type": "uint256[10]"
                },
                {
                  "internalType": "uint256",
                  "name": "cddLen",
                  "type": "uint256"
                }
              ],
              "internalType": "struct Token.SubOp",
              "name": "sub",
              "type": "tuple"
            },
            {
              "components": [
                {
                  "internalType": "uint256",
                  "name": "level",
                  "type": "uint256"
                },
                {
                  "internalType": "uint256",
                  "name": "total",
                  "type": "uint256"
                },
                {
                  "internalType": "uint256",
                  "name": "current",
                  "type": "uint256"
                },
                {
                  "internalType": "uint256",
                  "name": "next",
                  "type": "uint256"
                },
                {
                  "internalType": "uint256",
                  "name": "nextTotal",
                  "type": "uint256"
                }
              ],
              "internalType": "struct Token.Exp",
              "name": "exp",
              "type": "tuple"
            }
          ],
          "internalType": "struct Token.Relic",
          "name": "",
          "type": "tuple"
        }
      ],
      "stateMutability": "view",
      "type": "function",
      "constant": true
    },
    {
      "inputs": [
        {
          "internalType": "uint256[10]",
          "name": "arr",
          "type": "uint256[10]"
        },
        {
          "internalType": "uint256",
          "name": "searchFor",
          "type": "uint256"
        }
      ],
      "name": "indexOf",
      "outputs": [
        {
          "internalType": "int256",
          "name": "",
          "type": "int256"
        }
      ],
      "stateMutability": "pure",
      "type": "function",
      "constant": true
    },
    {
      "inputs": [
        {
          "internalType": "uint256",
          "name": "location",
          "type": "uint256"
        },
        {
          "internalType": "uint256",
          "name": "difficulty",
          "type": "uint256"
        }
      ],
      "name": "rand_mint",
      "outputs": [],
      "stateMutability": "nonpayable",
      "type": "function"
    },
    {
      "inputs": [
        {
          "internalType": "uint256",
          "name": "location",
          "type": "uint256"
        },
        {
          "internalType": "uint256",
          "name": "difficulty",
          "type": "uint256"
        },
        {
          "internalType": "uint256",
          "name": "nonce",
          "type": "uint256"
        }
      ],
      "name": "mint",
      "outputs": [],
      "stateMutability": "nonpayable",
      "type": "function"
    },
    {
      "inputs": [
        {
          "internalType": "uint256",
          "name": "nonce",
          "type": "uint256"
        }
      ],
      "name": "getRandomPart",
      "outputs": [
        {
          "internalType": "uint256",
          "name": "",
          "type": "uint256"
        }
      ],
      "stateMutability": "view",
      "type": "function",
      "constant": true
    },
    {
      "inputs": [
        {
          "internalType": "uint256",
          "name": "location",
          "type": "uint256"
        },
        {
          "internalType": "uint256",
          "name": "nonce",
          "type": "uint256"
        }
      ],
      "name": "getRandomSet",
      "outputs": [
        {
          "internalType": "uint256",
          "name": "",
          "type": "uint256"
        }
      ],
      "stateMutability": "view",
      "type": "function",
      "constant": true
    },
    {
      "inputs": [
        {
          "internalType": "uint256",
          "name": "diff",
          "type": "uint256"
        }
      ],
      "name": "getStars",
      "outputs": [
        {
          "internalType": "uint256",
          "name": "",
          "type": "uint256"
        }
      ],
      "stateMutability": "pure",
      "type": "function",
      "constant": true
    },
    {
      "inputs": [
        {
          "internalType": "uint256",
          "name": "part",
          "type": "uint256"
        },
        {
          "internalType": "uint256",
          "name": "nonce",
          "type": "uint256"
        }
      ],
      "name": "getMainStats",
      "outputs": [
        {
          "components": [
            {
              "internalType": "uint256",
              "name": "id",
              "type": "uint256"
            },
            {
              "internalType": "uint256",
              "name": "value",
              "type": "uint256"
            }
          ],
          "internalType": "struct Token.MainOp",
          "name": "",
          "type": "tuple"
        }
      ],
      "stateMutability": "view",
      "type": "function",
      "constant": true
    },
    {
      "inputs": [
        {
          "internalType": "uint256",
          "name": "part",
          "type": "uint256"
        },
        {
          "internalType": "uint256",
          "name": "nonce",
          "type": "uint256"
        }
      ],
      "name": "getMainOpType",
      "outputs": [
        {
          "internalType": "uint256",
          "name": "",
          "type": "uint256"
        }
      ],
      "stateMutability": "view",
      "type": "function",
      "constant": true
    },
    {
      "inputs": [
        {
          "internalType": "uint256",
          "name": "mainOpType",
          "type": "uint256"
        }
      ],
      "name": "getMainOpValue",
      "outputs": [
        {
          "internalType": "uint256",
          "name": "",
          "type": "uint256"
        }
      ],
      "stateMutability": "view",
      "type": "function",
      "constant": true
    },
    {
      "inputs": [
        {
          "internalType": "uint256",
          "name": "mainOpType",
          "type": "uint256"
        },
        {
          "internalType": "uint256",
          "name": "nonce",
          "type": "uint256"
        }
      ],
      "name": "getSubStats",
      "outputs": [
        {
          "components": [
            {
              "internalType": "uint256[4]",
              "name": "id",
              "type": "uint256[4]"
            },
            {
              "internalType": "uint256[4]",
              "name": "value",
              "type": "uint256[4]"
            },
            {
              "internalType": "uint256[10]",
              "name": "cdd",
              "type": "uint256[10]"
            },
            {
              "internalType": "uint256",
              "name": "cddLen",
              "type": "uint256"
            }
          ],
          "internalType": "struct Token.SubOp",
          "name": "",
          "type": "tuple"
        }
      ],
      "stateMutability": "view",
      "type": "function",
      "constant": true
    },
    {
      "inputs": [
        {
          "internalType": "uint256",
          "name": "mainOpType",
          "type": "uint256"
        },
        {
          "internalType": "uint256",
          "name": "nonce",
          "type": "uint256"
        }
      ],
      "name": "getSubOpType",
      "outputs": [
        {
          "internalType": "uint256[4]",
          "name": "",
          "type": "uint256[4]"
        },
        {
          "internalType": "uint256[10]",
          "name": "",
          "type": "uint256[10]"
        },
        {
          "internalType": "uint256",
          "name": "",
          "type": "uint256"
        }
      ],
      "stateMutability": "view",
      "type": "function",
      "constant": true
    },
    {
      "inputs": [
        {
          "internalType": "uint256[4]",
          "name": "subOpType",
          "type": "uint256[4]"
        },
        {
          "internalType": "uint256",
          "name": "nonce",
          "type": "uint256"
        }
      ],
      "name": "getSubOpValue",
      "outputs": [
        {
          "internalType": "uint256[4]",
          "name": "",
          "type": "uint256[4]"
        }
      ],
      "stateMutability": "view",
      "type": "function",
      "constant": true
    },
    {
      "inputs": [],
      "name": "getExpStats",
      "outputs": [
        {
          "components": [
            {
              "internalType": "uint256",
              "name": "level",
              "type": "uint256"
            },
            {
              "internalType": "uint256",
              "name": "total",
              "type": "uint256"
            },
            {
              "internalType": "uint256",
              "name": "current",
              "type": "uint256"
            },
            {
              "internalType": "uint256",
              "name": "next",
              "type": "uint256"
            },
            {
              "internalType": "uint256",
              "name": "nextTotal",
              "type": "uint256"
            }
          ],
          "internalType": "struct Token.Exp",
          "name": "",
          "type": "tuple"
        }
      ],
      "stateMutability": "view",
      "type": "function",
      "constant": true
    },
    {
      "inputs": [
        {
          "internalType": "uint256",
          "name": "tokenId",
          "type": "uint256"
        },
        {
          "internalType": "uint256",
          "name": "add",
          "type": "uint256"
        }
      ],
      "name": "enhance",
      "outputs": [],
      "stateMutability": "nonpayable",
      "type": "function"
    },
    {
      "inputs": [
        {
          "internalType": "uint256",
          "name": "number",
          "type": "uint256"
        },
        {
          "internalType": "uint256",
          "name": "randNonce",
          "type": "uint256"
        }
      ],
      "name": "createRandom",
      "outputs": [
        {
          "internalType": "uint256",
          "name": "",
          "type": "uint256"
        }
      ],
      "stateMutability": "view",
      "type": "function",
      "constant": true
    },
    {
      "inputs": [
        {
          "internalType": "address",
          "name": "user",
          "type": "address"
        }
      ],
      "name": "getAllTokensForUser",
      "outputs": [
        {
          "internalType": "uint256[]",
          "name": "",
          "type": "uint256[]"
        }
      ],
      "stateMutability": "view",
      "type": "function",
      "constant": true
    },
    {
      "inputs": [
        {
          "internalType": "uint256",
          "name": "index",
          "type": "uint256"
        },
        {
          "internalType": "uint256[10]",
          "name": "array",
          "type": "uint256[10]"
        }
      ],
      "name": "remove",
      "outputs": [
        {
          "internalType": "uint256[10]",
          "name": "",
          "type": "uint256[10]"
        }
      ],
      "stateMutability": "pure",
      "type": "function",
      "constant": true
    },
    {
      "inputs": [
        {
          "internalType": "uint256",
          "name": "element",
          "type": "uint256"
        },
        {
          "internalType": "uint256[10]",
          "name": "array",
          "type": "uint256[10]"
        }
      ],
      "name": "removeElement",
      "outputs": [
        {
          "internalType": "uint256[10]",
          "name": "",
          "type": "uint256[10]"
        }
      ],
      "stateMutability": "pure",
      "type": "function",
      "constant": true
    },
    {
      "inputs": [
        {
          "internalType": "address",
          "name": "operator",
          "type": "address"
        },
        {
          "internalType": "address",
          "name": "from",
          "type": "address"
        },
        {
          "internalType": "address",
          "name": "to",
          "type": "address"
        },
        {
          "internalType": "uint256[]",
          "name": "ids",
          "type": "uint256[]"
        },
        {
          "internalType": "uint256[]",
          "name": "amounts",
          "type": "uint256[]"
        },
        {
          "internalType": "string",
          "name": "data",
          "type": "string"
        }
      ],
      "name": "_beforeTokenTransfer",
      "outputs": [],
      "stateMutability": "view",
      "type": "function",
      "constant": true
    }
  ],
  "bytecode": "0x6080604052604051806102800160405280610bb88152602001610e8d8152602001611149815260200161141e815260200161170c8152602001611a138152602001611d4c815260200161209e8152602001612409815260200161278d8152602001612b2a8152602001612ef981526020016132e18152602001613b2e81526020016144c08152602001614f978152602001615bcc81526020016169aa815260200161794a8152602001618af78152506004906014620000c092919062000559565b50604051806102800160405280610bb88152602001611a458152602001612b8e8152602001613fac81526020016156b881526020016170cb8152602001618e17815260200161aeb5815260200161d2be815260200161fa4b81526020016201257581526020016201546e81526020016201874f81526020016201c27d81526020016202073d8152602001620256d481526020016202b2a0815260200162031c4a81526020016203959481526020016204208b81525060189060146200018792919062000559565b50604051806105000160405280608c815260200160a0815260200160b4815260200160be815260200161082a81526020016109568152602001610a828152602001610bae815260200160a0815260200160be815260200160d2815260200160e6815260200160298152602001602f815260200160358152602001603a815260200160298152602001602f815260200160358152602001603a815260200160338152602001603a81526020016042815260200160498152602001601b8152602001601f8152602001602381526020016027815260200160368152602001603e815260200160468152602001604e815260200160a0815260200160be815260200160d2815260200160e68152602001602d815260200160348152602001603a81526020016041815250602c906028620002c09291906200059e565b506040518061024001604052806101d68152602001611c02815260200160008152602001604681526020016046815260200160578152602001602f8152602001605d81526020016101188152602001604e815260200160578152602001604681526020016046815260200160468152602001604681526020016046815260200160468152602001603681525060549060126200035e929190620005e3565b50604051806102400160405280608481526020016107ef815260200160008152602001601481526020016014815260200160188152602001600d8152602001601a8152602001604f81526020016016815260200160198152602001601481526020016014815260200160148152602001601481526020016014815260200160148152602001600f8152506066906012620003fa929190620005e3565b5060006078553480156200040d57600080fd5b50604051620057d4380380620057d4833981810160405281019062000433919062000875565b8062000445816200046f60201b60201c565b50620004666200045a6200048b60201b60201c565b6200049360201b60201c565b50505062000993565b80600290805190602001906200048792919062000628565b5050565b600033905090565b6000600360009054906101000a900473ffffffffffffffffffffffffffffffffffffffff16905081600360006101000a81548173ffffffffffffffffffffffffffffffffffffffff021916908373ffffffffffffffffffffffffffffffffffffffff1602179055508173ffffffffffffffffffffffffffffffffffffffff168173ffffffffffffffffffffffffffffffffffffffff167f8be0079c531659141344cd1fd0a4f28419497f9722a3daafe3b4186f6b6457e060405160405180910390a35050565b82601481019282156200058b579160200282015b828111156200058a5782518255916020019190600101906200056d565b5b5090506200059a9190620006b9565b5090565b8260288101928215620005d0579160200282015b82811115620005cf578251825591602001919060010190620005b2565b5b509050620005df9190620006b9565b5090565b826012810192821562000615579160200282015b8281111562000614578251825591602001919060010190620005f7565b5b509050620006249190620006b9565b5090565b82805462000636906200095d565b90600052602060002090601f0160209004810192826200065a5760008555620006a6565b82601f106200067557805160ff1916838001178555620006a6565b82800160010185558215620006a6579182015b82811115620006a557825182559160200191906001019062000688565b5b509050620006b59190620006b9565b5090565b5b80821115620006d4576000816000905550600101620006ba565b5090565b6000604051905090565b600080fd5b600080fd5b600080fd5b600080fd5b6000601f19601f8301169050919050565b7f4e487b7100000000000000000000000000000000000000000000000000000000600052604160045260246000fd5b6200074182620006f6565b810181811067ffffffffffffffff8211171562000763576200076262000707565b5b80604052505050565b600062000778620006d8565b905062000786828262000736565b919050565b600067ffffffffffffffff821115620007a957620007a862000707565b5b620007b482620006f6565b9050602081019050919050565b60005b83811015620007e1578082015181840152602081019050620007c4565b83811115620007f1576000848401525b50505050565b60006200080e62000808846200078b565b6200076c565b9050828152602081018484840111156200082d576200082c620006f1565b5b6200083a848285620007c1565b509392505050565b600082601f8301126200085a5762000859620006ec565b5b81516200086c848260208601620007f7565b91505092915050565b600080600060608486031215620008915762000890620006e2565b5b600084015167ffffffffffffffff811115620008b257620008b1620006e7565b5b620008c08682870162000842565b935050602084015167ffffffffffffffff811115620008e457620008e3620006e7565b5b620008f28682870162000842565b925050604084015167ffffffffffffffff811115620009165762000915620006e7565b5b620009248682870162000842565b9150509250925092565b7f4e487b7100000000000000000000000000000000000000000000000000000000600052602260045260246000fd5b600060028204905060018216806200097657607f821691505b602082108114156200098d576200098c6200092e565b5b50919050565b614e3180620009a36000396000f3fe608060405234801561001057600080fd5b50600436106101e45760003560e01c8063715018a61161010f578063adf04f20116100a2578063e985e9c511610071578063e985e9c514610639578063f242432a14610669578063f2fde38b14610685578063fac1ce0e146106a1576101e4565b8063adf04f2014610579578063c1e03728146105a9578063c9523f54146105d9578063cf6116d014610609576101e4565b806382de8fe9116100de57806382de8fe9146104df5780638560389e1461050f5780638da5cb5b1461053f578063a22cb4651461055d576101e4565b8063715018a61461045957806371afd2a31461046357806372528d7f146104935780638241cd4b146104af576101e4565b80634987b8ab11610187578063652fda7111610156578063652fda71146103bf578063688e8750146103ef5780636ab6236f1461040d5780636b764a4914610429576101e4565b80634987b8ab146103135780634e1273f4146103435780635c7e773214610373578063640a07591461038f576101e4565b80630e89341c116101c35780630e89341c146102655780632c250177146102955780632eb2c2d6146102c757806344e97b41146102e3576101e4565b8062fdd58e146101e957806301ffc9a71461021957806302acc94b14610249575b600080fd5b61020360048036038101906101fe9190612efd565b6106d1565b6040516102109190612f4c565b60405180910390f35b610233600480360381019061022e9190612fbf565b61079a565b6040516102409190613007565b60405180910390f35b610263600480360381019061025e9190613022565b61087c565b005b61027f600480360381019061027a9190613075565b610a2d565b60405161028c919061313b565b60405180910390f35b6102af60048036038101906102aa919061315d565b610ac1565b6040516102be939291906132cc565b60405180910390f35b6102e160048036038101906102dc9190613502565b610c87565b005b6102fd60048036038101906102f89190613075565b610d28565b60405161030a9190612f4c565b60405180910390f35b61032d60048036038101906103289190613682565b610d4d565b60405161033a91906136dd565b60405180910390f35b61035d600480360381019061035891906137bb565b610dc4565b60405161036a91906138ca565b60405180910390f35b61038d6004803603810190610388919061315d565b610edd565b005b6103a960048036038101906103a4919061315d565b6111a4565b6040516103b69190612f4c565b60405180910390f35b6103d960048036038101906103d4919061315d565b6111e7565b6040516103e6919061391b565b60405180910390f35b6103f761122f565b604051610404919061399e565b60405180910390f35b61042760048036038101906104229190613a5a565b6112a6565b005b610443600480360381019061043e919061315d565b61135d565b6040516104509190613c57565b60405180910390f35b6104616113bb565b005b61047d60048036038101906104789190613c73565b611443565b60405161048a9190613cb4565b60405180910390f35b6104ad60048036038101906104a8919061315d565b611469565b005b6104c960048036038101906104c4919061315d565b611530565b6040516104d69190612f4c565b60405180910390f35b6104f960048036038101906104f49190613cd0565b6116d3565b60405161050691906138ca565b60405180910390f35b61052960048036038101906105249190613075565b611828565b6040516105369190612f4c565b60405180910390f35b610547611858565b6040516105549190613d0c565b60405180910390f35b61057760048036038101906105729190613d53565b611882565b005b610593600480360381019061058e9190613075565b611898565b6040516105a09190612f4c565b60405180910390f35b6105c360048036038101906105be9190613075565b6118a8565b6040516105d09190613eff565b60405180910390f35b6105f360048036038101906105ee9190613c73565b611a4e565b6040516106009190613cb4565b60405180910390f35b610623600480360381019061061e919061315d565b611ace565b6040516106309190612f4c565b60405180910390f35b610653600480360381019061064e9190613f1b565b611aff565b6040516106609190613007565b60405180910390f35b610683600480360381019061067e9190613f5b565b611b93565b005b61069f600480360381019061069a9190613cd0565b611c34565b005b6106bb60048036038101906106b691906140a3565b611d2c565b6040516106c891906140e3565b60405180910390f35b60008073ffffffffffffffffffffffffffffffffffffffff168373ffffffffffffffffffffffffffffffffffffffff161415610742576040517f08c379a000000000000000000000000000000000000000000000000000000000815260040161073990614170565b60405180910390fd5b60008083815260200190815260200160002060008473ffffffffffffffffffffffffffffffffffffffff1673ffffffffffffffffffffffffffffffffffffffff16815260200190815260200160002054905092915050565b60007fd9b67a26000000000000000000000000000000000000000000000000000000007bffffffffffffffffffffffffffffffffffffffffffffffffffffffff1916827bffffffffffffffffffffffffffffffffffffffffffffffffffffffff1916148061086557507f0e89341c000000000000000000000000000000000000000000000000000000007bffffffffffffffffffffffffffffffffffffffffffffffffffffffff1916827bffffffffffffffffffffffffffffffffffffffffffffffffffffffff1916145b80610875575061087482611e37565b5b9050919050565b60006108888483611ace565b9050600061089583610d28565b905060006108a285611898565b905060006108b083866111e7565b905060006108c282600001518761135d565b905060006108ce61122f565b90506040518060c00160405280868152602001878152602001858152602001848152602001838152602001828152506079600060785481526020019081526020016000206000820151816000015560208201518160010155604082015181600201556060820151816003016000820151816000015560208201518160010155505060808201518160050160008201518160000190600461096f929190612c63565b50602082015181600401906004610987929190612c63565b5060408201518160080190600a61099f929190612ca3565b5060608201518160120155505060a08201518160180160008201518160000155602082015181600101556040820151816002015560608201518160030155608082015181600401555050905050610a0a33607854600160405180602001604052806000815250611ea1565b60786000815480929190610a1d906141bf565b9190505550505050505050505050565b606060028054610a3c90614237565b80601f0160208091040260200160405190810160405280929190818152602001828054610a6890614237565b8015610ab55780601f10610a8a57610100808354040283529160200191610ab5565b820191906000526020600020905b815481529060010190602001808311610a9857829003601f168201915b50505050509050919050565b610ac9612ce3565b610ad1612d05565b6000806040518060800160405280600081526020016000815260200160008152602001600081525090506000604051806101400160405280600181526020016002815260200160038152602001600481526020016005815260200160068152602001600781526020016008815260200160098152602001600a81525090506000610b5c6002886111a4565b90506000600a90507fffffffffffffffffffffffffffffffffffffffffffffffffffffffffffffffff610b8f848b610d4d565b14610bb057610b9e8984611443565b9250600181610bad9190614269565b90505b60005b6004811015610c495783610bd2838b84610bcd919061429d565b6111a4565b600a8110610be357610be26142f7565b5b6020020151858260048110610bfb57610bfa6142f7565b5b602002018181525050610c25858260048110610c1a57610c196142f7565b5b602002015185611443565b9350600182610c349190614269565b91508080610c41906141bf565b915050610bb3565b506000821415610c7357600084600360048110610c6957610c686142f7565b5b6020020181815250505b838382965096509650505050509250925092565b610c8f612037565b73ffffffffffffffffffffffffffffffffffffffff168573ffffffffffffffffffffffffffffffffffffffff161480610cd55750610cd485610ccf612037565b611aff565b5b610d14576040517f08c379a0000000000000000000000000000000000000000000000000000000008152600401610d0b90614398565b60405180910390fd5b610d21858585858561203f565b5050505050565b6000806001610d386005856111a4565b610d4291906143b8565b905080915050919050565b600080600090505b600a811215610d9957828482600a8110610d7257610d716142f7565b5b60200201511415610d865780915050610dbe565b8080610d919061440e565b915050610d55565b507fffffffffffffffffffffffffffffffffffffffffffffffffffffffffffffffff90505b92915050565b60608151835114610e0a576040517f08c379a0000000000000000000000000000000000000000000000000000000008152600401610e01906144c9565b60405180910390fd5b6000835167ffffffffffffffff811115610e2757610e2661330a565b5b604051908082528060200260200182016040528015610e555781602001602082028036833780820191505090505b50905060005b8451811015610ed257610ea2858281518110610e7a57610e796142f7565b5b6020026020010151858381518110610e9557610e946142f7565b5b60200260200101516106d1565b828281518110610eb557610eb46142f7565b5b60200260200101818152505080610ecb906141bf565b9050610e5b565b508091505092915050565b60006079600084815260200190815260200160002090506000816003019050600082600501905060008360180190506000610f1a600460006111a4565b90506000610f2a600460016111a4565b90506000806014856000015410156111985788856001016000828254610f5091906143b8565b9250508190555088856002016000828254610f6b91906143b8565b925050819055508460030154856002015410611197576000856000015490505b601481101561119557856001015460188260148110610fad57610fac6142f7565b5b015411611122576001866000016000828254610fc991906143b8565b92505081905550600060048760000154610fe39190614518565b14156110dd57600087600001600360048110611002576110016142f7565b5b01541415611058576003945086600801611021886012015460026111a4565b600a8110611032576110316142f7565b5b01549250828760000160036004811061104e5761104d6142f7565b5b0181905550611073565b86600001856004811061106e5761106d6142f7565b5b015492505b602c8460046001866110859190614269565b61108f919061429d565b61109991906143b8565b602881106110aa576110a96142f7565b5b01549150818760040186600481106110c5576110c46142f7565b5b0160008282546110d591906143b8565b925050819055505b6066600189600001546110f09190614269565b60128110611101576111006142f7565b5b015488600101600082825461111691906143b8565b92505081905550611182565b60186001826111319190614269565b60148110611142576111416142f7565b5b015486600101546111539190614269565b86600201819055506004866000015460148110611173576111726142f7565b5b01548660030181905550611195565b808061118d906141bf565b915050610f8b565b505b5b50505050505050505050565b6000824233846040516020016111bc939291906145b2565b6040516020818303038152906040528051906020012060001c6111df9190614518565b905092915050565b6111ef612d28565b60006111fb8484611530565b9050600061120882611828565b90506000604051806040016040528084815260200183815250905080935050505092915050565b611237612d42565b60008060008060048460148110611251576112506142f7565b5b0154905060006018856014811061126b5761126a6142f7565b5b0154905060006040518060a0016040528087815260200185815260200186815260200184815260200183815250905080965050505050505090565b6112ae612037565b73ffffffffffffffffffffffffffffffffffffffff166112cc611858565b73ffffffffffffffffffffffffffffffffffffffff1614611322576040517f08c379a00000000000000000000000000000000000000000000000000000000081526004016113199061463b565b60405180910390fd5b6000607960008560008151811061133c5761133b6142f7565b5b60200260200101518152602001908152602001600020905050505050505050565b611365612d71565b60008060006113748686610ac1565b92509250925060006113868487611d2c565b905060006040518060800160405280868152602001838152602001858152602001848152509050809550505050505092915050565b6113c3612037565b73ffffffffffffffffffffffffffffffffffffffff166113e1611858565b73ffffffffffffffffffffffffffffffffffffffff1614611437576040517f08c379a000000000000000000000000000000000000000000000000000000000815260040161142e9061463b565b60405180910390fd5b6114416000612353565b565b61144b612d05565b61145e6114588385610d4d565b83611a4e565b915081905092915050565b611471612037565b73ffffffffffffffffffffffffffffffffffffffff1661148f611858565b73ffffffffffffffffffffffffffffffffffffffff16146114e5576040517f08c379a00000000000000000000000000000000000000000000000000000000081526004016114dc9061463b565b60405180910390fd5b60006114f3600260006111a4565b905060005b60018261150591906143b8565b81101561152a5761151784848361087c565b8080611522906141bf565b9150506114f8565b50505050565b60008060009050600184141561154957600290506116c9565b600284141561155b57600190506116c8565b60038414156115c45761156c612dab565b6040518060a0016040528060048152602001600581526020016006815260200160098152602001600a8152509050806115a66005866111a4565b600581106115b7576115b66142f7565b5b60200201519150506116c7565b6004841415611658576115d5612dcd565b60405180610160016040528060048152602001600581526020016006815260200160098152602001600b8152602001600c8152602001600d8152602001600e8152602001600f815260200160108152602001601181525090508061163a600b866111a4565b600b811061164b5761164a6142f7565b5b60200201519150506116c6565b60058414156116c55760006040518060e0016040528060048152602001600581526020016006815260200160078152602001600881526020016009815260200160128152509050806116ab6007866111a4565b600781106116bc576116bb6142f7565b5b60200201519150505b5b5b5b5b8091505092915050565b60606000805b60785481101561170d576116ed84826106d1565b826116f891906143b8565b91508080611705906141bf565b9150506116d9565b600082141561176957600067ffffffffffffffff8111156117315761173061330a565b5b60405190808252806020026020018201604052801561175f5781602001602082028036833780820191505090505b5092505050611823565b60008267ffffffffffffffff8111156117855761178461330a565b5b6040519080825280602002602001820160405280156117b35781602001602082028036833780820191505090505b509050600060785490506000805b82811015611819576117d281612419565b1561180657808483815181106117eb576117ea6142f7565b5b6020026020010181815250508180611802906141bf565b9250505b8080611811906141bf565b9150506117c1565b8396505050505050505b919050565b600080605460018461183a9190614269565b6012811061184b5761184a6142f7565b5b0154905080915050919050565b6000600360009054906101000a900473ffffffffffffffffffffffffffffffffffffffff16905090565b61189461188d612037565b838361242f565b5050565b6000806005905080915050919050565b6118b0612df0565b607960008381526020019081526020016000206040518060c0016040529081600082015481526020016001820154815260200160028201548152602001600382016040518060400160405290816000820154815260200160018201548152505081526020016005820160405180608001604052908160008201600480602002604051908101604052809291908260048015611960576020028201915b81548152602001906001019080831161194c575b50505050508152602001600482016004806020026040519081016040528092919082600480156119a5576020028201915b815481526020019060010190808311611991575b5050505050815260200160088201600a806020026040519081016040528092919082600a80156119ea576020028201915b8154815260200190600101908083116119d6575b505050505081526020016012820154815250508152602001601882016040518060a001604052908160008201548152602001600182015481526020016002820154815260200160038201548152602001600482015481525050815250509050919050565b611a56612d05565b60008390505b6001600a611a6a9190614269565b811015611ac45782600182611a7f91906143b8565b600a8110611a9057611a8f6142f7565b5b60200201518382600a8110611aa857611aa76142f7565b5b6020020181815250508080611abc906141bf565b915050611a5c565b5081905092915050565b600080611adc6002846111a4565b600285611ae9919061429d565b611af391906143b8565b90508091505092915050565b6000600160008473ffffffffffffffffffffffffffffffffffffffff1673ffffffffffffffffffffffffffffffffffffffff16815260200190815260200160002060008373ffffffffffffffffffffffffffffffffffffffff1673ffffffffffffffffffffffffffffffffffffffff16815260200190815260200160002060009054906101000a900460ff16905092915050565b611b9b612037565b73ffffffffffffffffffffffffffffffffffffffff168573ffffffffffffffffffffffffffffffffffffffff161480611be15750611be085611bdb612037565b611aff565b5b611c20576040517f08c379a0000000000000000000000000000000000000000000000000000000008152600401611c17906146cd565b60405180910390fd5b611c2d858585858561259c565b5050505050565b611c3c612037565b73ffffffffffffffffffffffffffffffffffffffff16611c5a611858565b73ffffffffffffffffffffffffffffffffffffffff1614611cb0576040517f08c379a0000000000000000000000000000000000000000000000000000000008152600401611ca79061463b565b60405180910390fd5b600073ffffffffffffffffffffffffffffffffffffffff168173ffffffffffffffffffffffffffffffffffffffff161415611d20576040517f08c379a0000000000000000000000000000000000000000000000000000000008152600401611d179061475f565b60405180910390fd5b611d2981612353565b50565b611d34612ce3565b6000604051806080016040528060008152602001600081526020016000815260200160008152509050600080600090505b6004811015611e2b576000868260048110611d8357611d826142f7565b5b60200201511415611d9357611e18565b611da960048683611da4919061429d565b6111a4565b9150602c8260046001898560048110611dc557611dc46142f7565b5b6020020151611dd49190614269565b611dde919061429d565b611de891906143b8565b60288110611df957611df86142f7565b5b0154838260048110611e0e57611e0d6142f7565b5b6020020181815250505b8080611e23906141bf565b915050611d65565b50819250505092915050565b60007f01ffc9a7000000000000000000000000000000000000000000000000000000007bffffffffffffffffffffffffffffffffffffffffffffffffffffffff1916827bffffffffffffffffffffffffffffffffffffffffffffffffffffffff1916149050919050565b600073ffffffffffffffffffffffffffffffffffffffff168473ffffffffffffffffffffffffffffffffffffffff161415611f11576040517f08c379a0000000000000000000000000000000000000000000000000000000008152600401611f08906147f1565b60405180910390fd5b6000611f1b612037565b9050611f3c81600087611f2d8861281e565b611f368861281e565b87612898565b8260008086815260200190815260200160002060008773ffffffffffffffffffffffffffffffffffffffff1673ffffffffffffffffffffffffffffffffffffffff1681526020019081526020016000206000828254611f9b91906143b8565b925050819055508473ffffffffffffffffffffffffffffffffffffffff16600073ffffffffffffffffffffffffffffffffffffffff168273ffffffffffffffffffffffffffffffffffffffff167fc3d58168c5ae7397731d063d5bbf3d657854427343f4c083240f7aacaa2d0f628787604051612019929190614811565b60405180910390a4612030816000878787876128a0565b5050505050565b600033905090565b8151835114612083576040517f08c379a000000000000000000000000000000000000000000000000000000000815260040161207a906148ac565b60405180910390fd5b600073ffffffffffffffffffffffffffffffffffffffff168473ffffffffffffffffffffffffffffffffffffffff1614156120f3576040517f08c379a00000000000000000000000000000000000000000000000000000000081526004016120ea9061493e565b60405180910390fd5b60006120fd612037565b905061210d818787878787612898565b60005b84518110156122be57600085828151811061212e5761212d6142f7565b5b60200260200101519050600085838151811061214d5761214c6142f7565b5b60200260200101519050600080600084815260200190815260200160002060008b73ffffffffffffffffffffffffffffffffffffffff1673ffffffffffffffffffffffffffffffffffffffff168152602001908152602001600020549050818110156121ee576040517f08c379a00000000000000000000000000000000000000000000000000000000081526004016121e5906149d0565b60405180910390fd5b81810360008085815260200190815260200160002060008c73ffffffffffffffffffffffffffffffffffffffff1673ffffffffffffffffffffffffffffffffffffffff168152602001908152602001600020819055508160008085815260200190815260200160002060008b73ffffffffffffffffffffffffffffffffffffffff1673ffffffffffffffffffffffffffffffffffffffff16815260200190815260200160002060008282546122a391906143b8565b92505081905550505050806122b7906141bf565b9050612110565b508473ffffffffffffffffffffffffffffffffffffffff168673ffffffffffffffffffffffffffffffffffffffff168273ffffffffffffffffffffffffffffffffffffffff167f4a39dc06d4c0dbc64b70af90fd698a233a518aa5d07e595d983b8c0526c8f7fb87876040516123359291906149f0565b60405180910390a461234b818787878787612a78565b505050505050565b6000600360009054906101000a900473ffffffffffffffffffffffffffffffffffffffff16905081600360006101000a81548173ffffffffffffffffffffffffffffffffffffffff021916908373ffffffffffffffffffffffffffffffffffffffff1602179055508173ffffffffffffffffffffffffffffffffffffffff168173ffffffffffffffffffffffffffffffffffffffff167f8be0079c531659141344cd1fd0a4f28419497f9722a3daafe3b4186f6b6457e060405160405180910390a35050565b60008061242633846106d1565b14159050919050565b8173ffffffffffffffffffffffffffffffffffffffff168373ffffffffffffffffffffffffffffffffffffffff16141561249e576040517f08c379a000000000000000000000000000000000000000000000000000000000815260040161249590614a99565b60405180910390fd5b80600160008573ffffffffffffffffffffffffffffffffffffffff1673ffffffffffffffffffffffffffffffffffffffff16815260200190815260200160002060008473ffffffffffffffffffffffffffffffffffffffff1673ffffffffffffffffffffffffffffffffffffffff16815260200190815260200160002060006101000a81548160ff0219169083151502179055508173ffffffffffffffffffffffffffffffffffffffff168373ffffffffffffffffffffffffffffffffffffffff167f17307eab39ab6107e8899845ad3d59bd9653f200f220920489ca2b5937696c318360405161258f9190613007565b60405180910390a3505050565b600073ffffffffffffffffffffffffffffffffffffffff168473ffffffffffffffffffffffffffffffffffffffff16141561260c576040517f08c379a00000000000000000000000000000000000000000000000000000000081526004016126039061493e565b60405180910390fd5b6000612616612037565b90506126368187876126278861281e565b6126308861281e565b87612898565b600080600086815260200190815260200160002060008873ffffffffffffffffffffffffffffffffffffffff1673ffffffffffffffffffffffffffffffffffffffff168152602001908152602001600020549050838110156126cd576040517f08c379a00000000000000000000000000000000000000000000000000000000081526004016126c4906149d0565b60405180910390fd5b83810360008087815260200190815260200160002060008973ffffffffffffffffffffffffffffffffffffffff1673ffffffffffffffffffffffffffffffffffffffff168152602001908152602001600020819055508360008087815260200190815260200160002060008873ffffffffffffffffffffffffffffffffffffffff1673ffffffffffffffffffffffffffffffffffffffff168152602001908152602001600020600082825461278291906143b8565b925050819055508573ffffffffffffffffffffffffffffffffffffffff168773ffffffffffffffffffffffffffffffffffffffff168373ffffffffffffffffffffffffffffffffffffffff167fc3d58168c5ae7397731d063d5bbf3d657854427343f4c083240f7aacaa2d0f6288886040516127ff929190614811565b60405180910390a46128158288888888886128a0565b50505050505050565b60606000600167ffffffffffffffff81111561283d5761283c61330a565b5b60405190808252806020026020018201604052801561286b5781602001602082028036833780820191505090505b5090508281600081518110612883576128826142f7565b5b60200260200101818152505080915050919050565b505050505050565b6128bf8473ffffffffffffffffffffffffffffffffffffffff16612c50565b15612a70578373ffffffffffffffffffffffffffffffffffffffff1663f23a6e6187878686866040518663ffffffff1660e01b8152600401612905959493929190614b0e565b6020604051808303816000875af192505050801561294157506040513d601f19601f8201168201806040525081019061293e9190614b7d565b60015b6129e75761294d614bb7565b806308c379a014156129aa5750612962614bd9565b8061296d57506129ac565b806040517f08c379a00000000000000000000000000000000000000000000000000000000081526004016129a1919061313b565b60405180910390fd5b505b6040517f08c379a00000000000000000000000000000000000000000000000000000000081526004016129de90614ce1565b60405180910390fd5b63f23a6e6160e01b7bffffffffffffffffffffffffffffffffffffffffffffffffffffffff1916817bffffffffffffffffffffffffffffffffffffffffffffffffffffffff191614612a6e576040517f08c379a0000000000000000000000000000000000000000000000000000000008152600401612a6590614d73565b60405180910390fd5b505b505050505050565b612a978473ffffffffffffffffffffffffffffffffffffffff16612c50565b15612c48578373ffffffffffffffffffffffffffffffffffffffff1663bc197c8187878686866040518663ffffffff1660e01b8152600401612add959493929190614d93565b6020604051808303816000875af1925050508015612b1957506040513d601f19601f82011682018060405250810190612b169190614b7d565b60015b612bbf57612b25614bb7565b806308c379a01415612b825750612b3a614bd9565b80612b455750612b84565b806040517f08c379a0000000000000000000000000000000000000000000000000000000008152600401612b79919061313b565b60405180910390fd5b505b6040517f08c379a0000000000000000000000000000000000000000000000000000000008152600401612bb690614ce1565b60405180910390fd5b63bc197c8160e01b7bffffffffffffffffffffffffffffffffffffffffffffffffffffffff1916817bffffffffffffffffffffffffffffffffffffffffffffffffffffffff191614612c46576040517f08c379a0000000000000000000000000000000000000000000000000000000008152600401612c3d90614d73565b60405180910390fd5b505b505050505050565b600080823b905060008111915050919050565b8260048101928215612c92579160200282015b82811115612c91578251825591602001919060010190612c76565b5b509050612c9f9190612e38565b5090565b82600a8101928215612cd2579160200282015b82811115612cd1578251825591602001919060010190612cb6565b5b509050612cdf9190612e38565b5090565b6040518060800160405280600490602082028036833780820191505090505090565b604051806101400160405280600a90602082028036833780820191505090505090565b604051806040016040528060008152602001600081525090565b6040518060a0016040528060008152602001600081526020016000815260200160008152602001600081525090565b6040518060800160405280612d84612ce3565b8152602001612d91612ce3565b8152602001612d9e612d05565b8152602001600081525090565b6040518060a00160405280600590602082028036833780820191505090505090565b604051806101600160405280600b90602082028036833780820191505090505090565b6040518060c00160405280600081526020016000815260200160008152602001612e18612d28565b8152602001612e25612d71565b8152602001612e32612d42565b81525090565b5b80821115612e51576000816000905550600101612e39565b5090565b6000604051905090565b600080fd5b600080fd5b600073ffffffffffffffffffffffffffffffffffffffff82169050919050565b6000612e9482612e69565b9050919050565b612ea481612e89565b8114612eaf57600080fd5b50565b600081359050612ec181612e9b565b92915050565b6000819050919050565b612eda81612ec7565b8114612ee557600080fd5b50565b600081359050612ef781612ed1565b92915050565b60008060408385031215612f1457612f13612e5f565b5b6000612f2285828601612eb2565b9250506020612f3385828601612ee8565b9150509250929050565b612f4681612ec7565b82525050565b6000602082019050612f616000830184612f3d565b92915050565b60007fffffffff0000000000000000000000000000000000000000000000000000000082169050919050565b612f9c81612f67565b8114612fa757600080fd5b50565b600081359050612fb981612f93565b92915050565b600060208284031215612fd557612fd4612e5f565b5b6000612fe384828501612faa565b91505092915050565b60008115159050919050565b61300181612fec565b82525050565b600060208201905061301c6000830184612ff8565b92915050565b60008060006060848603121561303b5761303a612e5f565b5b600061304986828701612ee8565b935050602061305a86828701612ee8565b925050604061306b86828701612ee8565b9150509250925092565b60006020828403121561308b5761308a612e5f565b5b600061309984828501612ee8565b91505092915050565b600081519050919050565b600082825260208201905092915050565b60005b838110156130dc5780820151818401526020810190506130c1565b838111156130eb576000848401525b50505050565b6000601f19601f8301169050919050565b600061310d826130a2565b61311781856130ad565b93506131278185602086016130be565b613130816130f1565b840191505092915050565b600060208201905081810360008301526131558184613102565b905092915050565b6000806040838503121561317457613173612e5f565b5b600061318285828601612ee8565b925050602061319385828601612ee8565b9150509250929050565b600060049050919050565b600081905092915050565b6000819050919050565b6131c681612ec7565b82525050565b60006131d883836131bd565b60208301905092915050565b6000602082019050919050565b6131fa8161319d565b61320481846131a8565b925061320f826131b3565b8060005b8381101561324057815161322787826131cc565b9650613232836131e4565b925050600181019050613213565b505050505050565b6000600a9050919050565b600081905092915050565b6000819050919050565b6000602082019050919050565b61327e81613248565b6132888184613253565b92506132938261325e565b8060005b838110156132c45781516132ab87826131cc565b96506132b683613268565b925050600181019050613297565b505050505050565b60006101e0820190506132e260008301866131f1565b6132ef6080830185613275565b6132fd6101c0830184612f3d565b949350505050565b600080fd5b7f4e487b7100000000000000000000000000000000000000000000000000000000600052604160045260246000fd5b613342826130f1565b810181811067ffffffffffffffff821117156133615761336061330a565b5b80604052505050565b6000613374612e55565b90506133808282613339565b919050565b600067ffffffffffffffff8211156133a05761339f61330a565b5b602082029050602081019050919050565b600080fd5b60006133c96133c484613385565b61336a565b905080838252602082019050602084028301858111156133ec576133eb6133b1565b5b835b8181101561341557806134018882612ee8565b8452602084019350506020810190506133ee565b5050509392505050565b600082601f83011261343457613433613305565b5b81356134448482602086016133b6565b91505092915050565b600080fd5b600067ffffffffffffffff82111561346d5761346c61330a565b5b613476826130f1565b9050602081019050919050565b82818337600083830152505050565b60006134a56134a084613452565b61336a565b9050828152602081018484840111156134c1576134c061344d565b5b6134cc848285613483565b509392505050565b600082601f8301126134e9576134e8613305565b5b81356134f9848260208601613492565b91505092915050565b600080600080600060a0868803121561351e5761351d612e5f565b5b600061352c88828901612eb2565b955050602061353d88828901612eb2565b945050604086013567ffffffffffffffff81111561355e5761355d612e64565b5b61356a8882890161341f565b935050606086013567ffffffffffffffff81111561358b5761358a612e64565b5b6135978882890161341f565b925050608086013567ffffffffffffffff8111156135b8576135b7612e64565b5b6135c4888289016134d4565b9150509295509295909350565b600067ffffffffffffffff8211156135ec576135eb61330a565b5b602082029050919050565b600061360a613605846135d1565b61336a565b90508060208402830185811115613624576136236133b1565b5b835b8181101561364d57806136398882612ee8565b845260208401935050602081019050613626565b5050509392505050565b600082601f83011261366c5761366b613305565b5b600a6136798482856135f7565b91505092915050565b600080610160838503121561369a57613699612e5f565b5b60006136a885828601613657565b9250506101406136ba85828601612ee8565b9150509250929050565b6000819050919050565b6136d7816136c4565b82525050565b60006020820190506136f260008301846136ce565b92915050565b600067ffffffffffffffff8211156137135761371261330a565b5b602082029050602081019050919050565b6000613737613732846136f8565b61336a565b9050808382526020820190506020840283018581111561375a576137596133b1565b5b835b81811015613783578061376f8882612eb2565b84526020840193505060208101905061375c565b5050509392505050565b600082601f8301126137a2576137a1613305565b5b81356137b2848260208601613724565b91505092915050565b600080604083850312156137d2576137d1612e5f565b5b600083013567ffffffffffffffff8111156137f0576137ef612e64565b5b6137fc8582860161378d565b925050602083013567ffffffffffffffff81111561381d5761381c612e64565b5b6138298582860161341f565b9150509250929050565b600081519050919050565b600082825260208201905092915050565b6000819050602082019050919050565b6000602082019050919050565b600061387782613833565b613881818561383e565b935061388c8361384f565b8060005b838110156138bd5781516138a488826131cc565b97506138af8361385f565b925050600181019050613890565b5085935050505092915050565b600060208201905081810360008301526138e4818461386c565b905092915050565b60408201600082015161390260008501826131bd565b50602082015161391560208501826131bd565b50505050565b600060408201905061393060008301846138ec565b92915050565b60a08201600082015161394c60008501826131bd565b50602082015161395f60208501826131bd565b50604082015161397260408501826131bd565b50606082015161398560608501826131bd565b50608082015161399860808501826131bd565b50505050565b600060a0820190506139b36000830184613936565b92915050565b600067ffffffffffffffff8211156139d4576139d361330a565b5b6139dd826130f1565b9050602081019050919050565b60006139fd6139f8846139b9565b61336a565b905082815260208101848484011115613a1957613a1861344d565b5b613a24848285613483565b509392505050565b600082601f830112613a4157613a40613305565b5b8135613a518482602086016139ea565b91505092915050565b60008060008060008060c08789031215613a7757613a76612e5f565b5b6000613a8589828a01612eb2565b9650506020613a9689828a01612eb2565b9550506040613aa789828a01612eb2565b945050606087013567ffffffffffffffff811115613ac857613ac7612e64565b5b613ad489828a0161341f565b935050608087013567ffffffffffffffff811115613af557613af4612e64565b5b613b0189828a0161341f565b92505060a087013567ffffffffffffffff811115613b2257613b21612e64565b5b613b2e89828a01613a2c565b9150509295509295509295565b600081905092915050565b613b4f8161319d565b613b598184613b3b565b9250613b64826131b3565b8060005b83811015613b95578151613b7c87826131cc565b9650613b87836131e4565b925050600181019050613b68565b505050505050565b600081905092915050565b613bb181613248565b613bbb8184613b9d565b9250613bc68261325e565b8060005b83811015613bf7578151613bde87826131cc565b9650613be983613268565b925050600181019050613bca565b505050505050565b61026082016000820151613c166000850182613b46565b506020820151613c296080850182613b46565b506040820151613c3d610100850182613ba8565b506060820151613c516102408501826131bd565b50505050565b600061026082019050613c6d6000830184613bff565b92915050565b6000806101608385031215613c8b57613c8a612e5f565b5b6000613c9985828601612ee8565b9250506020613caa85828601613657565b9150509250929050565b600061014082019050613cca6000830184613275565b92915050565b600060208284031215613ce657613ce5612e5f565b5b6000613cf484828501612eb2565b91505092915050565b613d0681612e89565b82525050565b6000602082019050613d216000830184613cfd565b92915050565b613d3081612fec565b8114613d3b57600080fd5b50565b600081359050613d4d81613d27565b92915050565b60008060408385031215613d6a57613d69612e5f565b5b6000613d7885828601612eb2565b9250506020613d8985828601613d3e565b9150509250929050565b604082016000820151613da960008501826131bd565b506020820151613dbc60208501826131bd565b50505050565b61026082016000820151613dd96000850182613b46565b506020820151613dec6080850182613b46565b506040820151613e00610100850182613ba8565b506060820151613e146102408501826131bd565b50505050565b60a082016000820151613e3060008501826131bd565b506020820151613e4360208501826131bd565b506040820151613e5660408501826131bd565b506060820151613e6960608501826131bd565b506080820151613e7c60808501826131bd565b50505050565b6103a082016000820151613e9960008501826131bd565b506020820151613eac60208501826131bd565b506040820151613ebf60408501826131bd565b506060820151613ed26060850182613d93565b506080820151613ee560a0850182613dc2565b5060a0820151613ef9610300850182613e1a565b50505050565b60006103a082019050613f156000830184613e82565b92915050565b60008060408385031215613f3257613f31612e5f565b5b6000613f4085828601612eb2565b9250506020613f5185828601612eb2565b9150509250929050565b600080600080600060a08688031215613f7757613f76612e5f565b5b6000613f8588828901612eb2565b9550506020613f9688828901612eb2565b9450506040613fa788828901612ee8565b9350506060613fb888828901612ee8565b925050608086013567ffffffffffffffff811115613fd957613fd8612e64565b5b613fe5888289016134d4565b9150509295509295909350565b600067ffffffffffffffff82111561400d5761400c61330a565b5b602082029050919050565b600061402b61402684613ff2565b61336a565b90508060208402830185811115614045576140446133b1565b5b835b8181101561406e578061405a8882612ee8565b845260208401935050602081019050614047565b5050509392505050565b600082601f83011261408d5761408c613305565b5b600461409a848285614018565b91505092915050565b60008060a083850312156140ba576140b9612e5f565b5b60006140c885828601614078565b92505060806140d985828601612ee8565b9150509250929050565b60006080820190506140f860008301846131f1565b92915050565b7f455243313135353a2062616c616e636520717565727920666f7220746865207a60008201527f65726f2061646472657373000000000000000000000000000000000000000000602082015250565b600061415a602b836130ad565b9150614165826140fe565b604082019050919050565b600060208201905081810360008301526141898161414d565b9050919050565b7f4e487b7100000000000000000000000000000000000000000000000000000000600052601160045260246000fd5b60006141ca82612ec7565b91507fffffffffffffffffffffffffffffffffffffffffffffffffffffffffffffffff8214156141fd576141fc614190565b5b600182019050919050565b7f4e487b7100000000000000000000000000000000000000000000000000000000600052602260045260246000fd5b6000600282049050600182168061424f57607f821691505b6020821081141561426357614262614208565b5b50919050565b600061427482612ec7565b915061427f83612ec7565b92508282101561429257614291614190565b5b828203905092915050565b60006142a882612ec7565b91506142b383612ec7565b9250817fffffffffffffffffffffffffffffffffffffffffffffffffffffffffffffffff04831182151516156142ec576142eb614190565b5b828202905092915050565b7f4e487b7100000000000000000000000000000000000000000000000000000000600052603260045260246000fd5b7f455243313135353a207472616e736665722063616c6c6572206973206e6f742060008201527f6f776e6572206e6f7220617070726f7665640000000000000000000000000000602082015250565b60006143826032836130ad565b915061438d82614326565b604082019050919050565b600060208201905081810360008301526143b181614375565b9050919050565b60006143c382612ec7565b91506143ce83612ec7565b9250827fffffffffffffffffffffffffffffffffffffffffffffffffffffffffffffffff0382111561440357614402614190565b5b828201905092915050565b6000614419826136c4565b91507f7fffffffffffffffffffffffffffffffffffffffffffffffffffffffffffffff82141561444c5761444b614190565b5b600182019050919050565b7f455243313135353a206163636f756e747320616e6420696473206c656e67746860008201527f206d69736d617463680000000000000000000000000000000000000000000000602082015250565b60006144b36029836130ad565b91506144be82614457565b604082019050919050565b600060208201905081810360008301526144e2816144a6565b9050919050565b7f4e487b7100000000000000000000000000000000000000000000000000000000600052601260045260246000fd5b600061452382612ec7565b915061452e83612ec7565b92508261453e5761453d6144e9565b5b828206905092915050565b6000819050919050565b61456461455f82612ec7565b614549565b82525050565b60008160601b9050919050565b60006145828261456a565b9050919050565b600061459482614577565b9050919050565b6145ac6145a782612e89565b614589565b82525050565b60006145be8286614553565b6020820191506145ce828561459b565b6014820191506145de8284614553565b602082019150819050949350505050565b7f4f776e61626c653a2063616c6c6572206973206e6f7420746865206f776e6572600082015250565b60006146256020836130ad565b9150614630826145ef565b602082019050919050565b6000602082019050818103600083015261465481614618565b9050919050565b7f455243313135353a2063616c6c6572206973206e6f74206f776e6572206e6f7260008201527f20617070726f7665640000000000000000000000000000000000000000000000602082015250565b60006146b76029836130ad565b91506146c28261465b565b604082019050919050565b600060208201905081810360008301526146e6816146aa565b9050919050565b7f4f776e61626c653a206e6577206f776e657220697320746865207a65726f206160008201527f6464726573730000000000000000000000000000000000000000000000000000602082015250565b60006147496026836130ad565b9150614754826146ed565b604082019050919050565b600060208201905081810360008301526147788161473c565b9050919050565b7f455243313135353a206d696e7420746f20746865207a65726f2061646472657360008201527f7300000000000000000000000000000000000000000000000000000000000000602082015250565b60006147db6021836130ad565b91506147e68261477f565b604082019050919050565b6000602082019050818103600083015261480a816147ce565b9050919050565b60006040820190506148266000830185612f3d565b6148336020830184612f3d565b9392505050565b7f455243313135353a2069647320616e6420616d6f756e7473206c656e6774682060008201527f6d69736d61746368000000000000000000000000000000000000000000000000602082015250565b60006148966028836130ad565b91506148a18261483a565b604082019050919050565b600060208201905081810360008301526148c581614889565b9050919050565b7f455243313135353a207472616e7366657220746f20746865207a65726f20616460008201527f6472657373000000000000000000000000000000000000000000000000000000602082015250565b60006149286025836130ad565b9150614933826148cc565b604082019050919050565b600060208201905081810360008301526149578161491b565b9050919050565b7f455243313135353a20696e73756666696369656e742062616c616e636520666f60008201527f72207472616e7366657200000000000000000000000000000000000000000000602082015250565b60006149ba602a836130ad565b91506149c58261495e565b604082019050919050565b600060208201905081810360008301526149e9816149ad565b9050919050565b60006040820190508181036000830152614a0a818561386c565b90508181036020830152614a1e818461386c565b90509392505050565b7f455243313135353a2073657474696e6720617070726f76616c2073746174757360008201527f20666f722073656c660000000000000000000000000000000000000000000000602082015250565b6000614a836029836130ad565b9150614a8e82614a27565b604082019050919050565b60006020820190508181036000830152614ab281614a76565b9050919050565b600081519050919050565b600082825260208201905092915050565b6000614ae082614ab9565b614aea8185614ac4565b9350614afa8185602086016130be565b614b03816130f1565b840191505092915050565b600060a082019050614b236000830188613cfd565b614b306020830187613cfd565b614b3d6040830186612f3d565b614b4a6060830185612f3d565b8181036080830152614b5c8184614ad5565b90509695505050505050565b600081519050614b7781612f93565b92915050565b600060208284031215614b9357614b92612e5f565b5b6000614ba184828501614b68565b91505092915050565b60008160e01c9050919050565b600060033d1115614bd65760046000803e614bd3600051614baa565b90505b90565b600060443d1015614be957614c6c565b614bf1612e55565b60043d036004823e80513d602482011167ffffffffffffffff82111715614c19575050614c6c565b808201805167ffffffffffffffff811115614c375750505050614c6c565b80602083010160043d038501811115614c54575050505050614c6c565b614c6382602001850186613339565b82955050505050505b90565b7f455243313135353a207472616e7366657220746f206e6f6e204552433131353560008201527f526563656976657220696d706c656d656e746572000000000000000000000000602082015250565b6000614ccb6034836130ad565b9150614cd682614c6f565b604082019050919050565b60006020820190508181036000830152614cfa81614cbe565b9050919050565b7f455243313135353a204552433131353552656365697665722072656a6563746560008201527f6420746f6b656e73000000000000000000000000000000000000000000000000602082015250565b6000614d5d6028836130ad565b9150614d6882614d01565b604082019050919050565b60006020820190508181036000830152614d8c81614d50565b9050919050565b600060a082019050614da86000830188613cfd565b614db56020830187613cfd565b8181036040830152614dc7818661386c565b90508181036060830152614ddb818561386c565b90508181036080830152614def8184614ad5565b9050969550505050505056fea264697066735822122087151b87d8bc5b15d33364a06a6ac3f69d1ab092483454e156bf00bb9653a0fc64736f6c634300080c0033",
  "immutableReferences": {},
  "source": "// SPDX-License-Identifier: GPL-3.0-or-later\r\npragma solidity ^0.8.0;\r\n\r\nimport \"../node_modules/@openzeppelin/contracts/token/ERC1155/ERC1155.sol\";\r\nimport \"../node_modules/@openzeppelin/contracts/access/Ownable.sol\";\r\n\r\ncontract Token is ERC1155, Ownable {\r\n\r\n    uint8 constant FLOWER = 1;\r\n    uint8 constant FEATHER = 2;\r\n    uint8 constant SANDS = 3;\r\n    uint8 constant GOBLET = 4;\r\n    uint8 constant CIRCLET = 5;\r\n    uint256[20] EXP_DEMAND = [uint256(3000), 3725, 4425, 5150, 5900, 6675, 7500, 8350, 9225, 10125, 11050, 12025, 13025, 15150, 17600, 20375, 23500, 27050, 31050, 35575];\r\n    uint256[20] EXP_ACC = [uint256(3000), 6725, 11150, 16300, 22200, 28875, 36375, 44725, 53950, 64075, 75125, 87150, 100175, 115325, 132925, 153300, 176800, 203850, 234900, 270475];\r\n    uint256[40] valueArray = \r\n            [uint256(140), 160, 180, 190, \r\n                2090, 2390, 2690, 2990, \r\n                160, 190, 210, 230, \r\n                41, 47, 53, 58,\r\n                41, 47, 53, 58, \r\n                51, 58, 66, 73, \r\n                27, 31, 35, 39, \r\n                54, 62, 70, 78, \r\n                160, 190, 210, 230, \r\n                45, 52, 58, 65];\r\n    uint256[18] mainOpValueArray = [uint256(470), 7170, 0, 70, 70, 87, 47, 93, 280, 78, 87, 70, 70, 70, 70, 70, 70, 54];\r\n    uint256[18] mainOpInc = [uint256(132), 2031, 0, 20, 20, 24, 13, 26, 79, 22, 25, 20, 20, 20, 20, 20, 20, 15];\r\n\r\n    struct MainOp {\r\n        uint256 id;\r\n        uint256 value;\r\n    }\r\n\r\n    struct SubOp {\r\n        uint256[4] id;\r\n        uint256[4] value;\r\n        uint256[10] cdd;\r\n        uint cddLen;\r\n    }\r\n\r\n    struct Exp {\r\n        uint256 level;\r\n        uint256 total;\r\n        uint256 current;\r\n        uint256 next;\r\n        uint256 nextTotal;\r\n    }\r\n\r\n    struct Relic {\r\n        uint256 part;\r\n        uint256 set;\r\n        uint256 stars;\r\n        MainOp main;\r\n        SubOp sub;\r\n        Exp exp;\r\n    }\r\n\r\n    \r\n\r\n    uint256 nextId = 0;\r\n\r\n    mapping(uint256 => Relic) private _tokenDetails;\r\n\r\n    constructor(string memory name, string memory symbol, string memory uri) ERC1155(uri) {\r\n\r\n    }\r\n\r\n    function getTokenDetails(uint256 tokenId) public view returns (Relic memory) {\r\n        return _tokenDetails[tokenId];\r\n    }\r\n\r\n    function indexOf(uint256[10] memory arr, uint256 searchFor) public pure returns (int256) {\r\n        for (int256 i = 0; i < int256(arr.length); i++) {\r\n            if (arr[uint256(i)] == searchFor) {\r\n                return i;\r\n            }\r\n        }\r\n        return -1;\r\n    }\r\n\r\n    function rand_mint(uint256 location, uint256 difficulty) public onlyOwner {\r\n        uint quant = createRandom(2, 0);\r\n\r\n        for (uint i = 0; i < quant+1; i++) {\r\n            mint(location, difficulty, i);\r\n        }\r\n    }\r\n\r\n    function mint(uint256 location, uint256 difficulty, uint256 nonce) public {\r\n        uint256 set = getRandomSet(location, nonce);\r\n        uint256 part = getRandomPart(nonce);\r\n        uint256 stars = getStars(difficulty);\r\n\r\n        MainOp memory main = getMainStats(part, nonce);\r\n        SubOp memory sub = getSubStats(main.id, nonce);\r\n        Exp memory exp = getExpStats();\r\n\r\n        _tokenDetails[nextId] = Relic(part, set, stars, main, sub, exp);\r\n        _mint(msg.sender, nextId, 1, \"\");\r\n        nextId++;\r\n    }  \r\n\r\n    function getRandomPart(uint256 nonce) public view returns (uint256) {\r\n        uint256 part = uint256(createRandom(5, nonce)) + 1;\r\n        return part;\r\n    }\r\n\r\n    function getRandomSet(uint256 location, uint nonce) public view returns (uint256) {\r\n        uint256 set = (location * 2) + uint256(createRandom(2, nonce));\r\n        return set;\r\n    }\r\n\r\n    function getStars(uint256 diff) public pure returns (uint256) {\r\n        uint256 stars = 5;\r\n        return stars;\r\n    }\r\n\r\n    function getMainStats(uint256 part, uint nonce) public view returns (MainOp memory) {\r\n        uint256 mainOpType = getMainOpType(part, nonce);\r\n        uint256 mainOpValue = getMainOpValue(mainOpType);\r\n        MainOp memory main = MainOp(mainOpType, mainOpValue);\r\n        return main;\r\n    }\r\n\r\n    function getMainOpType(uint256 part, uint nonce) public view returns (uint256) {\r\n        uint256 mainOpType = 0;\r\n        if (part == 1) {\r\n            mainOpType = 2;\r\n        }\r\n        else if (part == 2) {\r\n            mainOpType = 1;\r\n        }\r\n        else if (part == 3) {\r\n            uint256[5] memory typeArray;\r\n            typeArray = [uint256(4), 5, 6, 9, 10];\r\n            mainOpType = typeArray[createRandom(typeArray.length, nonce)];\r\n        }\r\n        else if (part == 4) {\r\n            uint256[11] memory typeArray;\r\n            typeArray = [uint256(4), 5, 6, 9, 11, 12, 13, 14, 15, 16, 17];\r\n            mainOpType = typeArray[createRandom(typeArray.length, nonce)];\r\n        }\r\n        else if (part == 5) {\r\n            uint256[7] memory typeArray = [uint256(4), 5, 6, 7, 8, 9, 18];\r\n            mainOpType = typeArray[createRandom(typeArray.length, nonce)];\r\n        }\r\n        return mainOpType;\r\n    }\r\n\r\n    function getMainOpValue(uint256 mainOpType) public view returns (uint256) {\r\n        uint256 mainOpValue = mainOpValueArray[mainOpType-1];\r\n        return mainOpValue;\r\n    }\r\n\r\n    function getSubStats(uint256 mainOpType, uint nonce) public view returns (SubOp memory) {\r\n        (uint256[4] memory subOpType, uint256[10] memory subOpCdd, uint length) = getSubOpType(mainOpType, nonce);\r\n        uint256[4] memory subOpValue = getSubOpValue(subOpType, nonce);\r\n        SubOp memory subStats = SubOp(subOpType, subOpValue, subOpCdd, length);\r\n        return subStats;\r\n    }\r\n\r\n    function getSubOpType(uint256 mainOpType, uint nonce) public view returns (uint256[4] memory, uint256[10] memory, uint) {\r\n        uint256[4] memory subOpType = [uint256(0), 0, 0, 0];\r\n        uint256[10] memory subOpCdd = [uint256(1), 2, 3, 4, 5, 6, 7, 8, 9, 10];\r\n        uint256 isFourLine = uint256(createRandom(2, nonce));\r\n        uint length = 10;\r\n\r\n        if (indexOf(subOpCdd, mainOpType) != -1) {\r\n            subOpCdd = removeElement(mainOpType, subOpCdd);\r\n            length -= 1;\r\n        }\r\n\r\n        for (uint256 i = 0; i < 4; i++) {\r\n            subOpType[i] = subOpCdd[createRandom(length, i * nonce)];\r\n            subOpCdd = removeElement(subOpType[i], subOpCdd);\r\n            length -= 1;\r\n        }\r\n\r\n        if (isFourLine == 0) {\r\n            subOpType[3] = 0;\r\n        }\r\n\r\n        return (subOpType, subOpCdd, length);\r\n    }\r\n\r\n    function getSubOpValue(uint256[4] memory subOpType, uint nonce) public view returns (uint256[4] memory) {\r\n        uint256[4] memory subOpValue = [uint256(0), 0, 0, 0];\r\n        \r\n        uint256 offset;\r\n        for (uint256 i = 0; i < 4; i++) {\r\n            if (subOpType[i] == 0) { continue; }\r\n\r\n            offset = uint256(createRandom(4, i * nonce));\r\n            subOpValue[i] = valueArray[(subOpType[i]-1) * 4 + offset];\r\n        }\r\n\r\n        return subOpValue;\r\n    }\r\n\r\n    function getExpStats() public view returns (Exp memory) {\r\n        uint256 level = 0;\r\n        uint256 curExp = 0;\r\n        uint256 totalExp = 0;\r\n        uint256 nextExp = EXP_DEMAND[level];\r\n        uint256 nextExpAcc = EXP_ACC[level];\r\n        Exp memory expStats = Exp(level, totalExp, curExp, nextExp, nextExpAcc);\r\n        return expStats;\r\n    }\r\n\r\n    function enhance(uint256 tokenId, uint256 add) public {\r\n        Relic storage relic = _tokenDetails[tokenId];\r\n        MainOp storage main = relic.main;\r\n        SubOp storage sub = relic.sub;\r\n        Exp storage exp = relic.exp;\r\n\r\n        uint256 targetIndex = createRandom(4, 0);\r\n        uint256 offsetIndex = createRandom(4, 1);\r\n        uint256 targetType = 0;\r\n        uint256 targetValue = 0;\r\n\r\n        if (exp.level < 20) {\r\n            exp.total += add;\r\n            exp.current += add;\r\n            \r\n            if(exp.current >= exp.next) {\r\n                for (uint256 k = exp.level; k < 20; k++) {\r\n                    if (EXP_ACC[k] <= exp.total) {\r\n                        exp.level += 1;\r\n                        if (exp.level % 4 == 0) {\r\n                            if (sub.id[3] == 0) {\r\n                                targetIndex = 3;\r\n                                targetType = sub.cdd[createRandom(sub.cddLen, 2)];\r\n                                sub.id[3] = targetType;\r\n                            }\r\n                            else {\r\n                                targetType = sub.id[targetIndex];\r\n                            }\r\n                            targetValue = valueArray[(targetType-1) * 4 + offsetIndex];\r\n                            sub.value[targetIndex] += targetValue;\r\n                        }\r\n                        main.value += mainOpInc[main.id-1];\r\n                        continue;\r\n                    }\r\n                    else {\r\n                        exp.current = exp.total - EXP_ACC[k-1];\r\n                        exp.next = EXP_DEMAND[exp.level];\r\n                        break;\r\n                    }\r\n                }\r\n            }\r\n        }\r\n\r\n        // for (uint i = 0; i < matId.length; i++) {\r\n        //     delete _tokenDetails[matId[i]];\r\n        // }\r\n    }\r\n\r\n    function createRandom(uint number, uint randNonce) public view returns(uint) {\r\n        return uint(keccak256(abi.encodePacked(block.timestamp, msg.sender, randNonce))) % number;\r\n    }\r\n\r\n    function getAllTokensForUser(address user) public view returns (uint256[] memory) {\r\n        uint256 tokenCount = 0;\r\n        uint256 j;\r\n        for(j = 0; j < nextId; j++) {\r\n            tokenCount = tokenCount + balanceOf(user, j);\r\n        }\r\n        if(tokenCount == 0) {\r\n            return new uint256[](0);\r\n        }\r\n        else {\r\n            uint[] memory result = new uint256[](tokenCount);\r\n            uint256 totalPets = nextId;\r\n            uint256 resultIndex = 0;\r\n            uint256 i;\r\n            for(i = 0; i < totalPets; i++) {\r\n                if(_ownerOf(i)) {\r\n                    result[resultIndex] = i;\r\n                    resultIndex++; \r\n                }\r\n            }\r\n            return result;\r\n        }\r\n    }\r\n\r\n    function remove(uint256 index, uint256[10] memory array) public pure returns (uint256[10] memory){\r\n        for(uint i = index; i < array.length-1; i++) {\r\n            array[i] = array[i+1];\r\n        }\r\n        return array;\r\n    }\r\n\r\n    function removeElement(uint256 element, uint256[10] memory array) public pure returns (uint256[10] memory) {\r\n        array = remove(uint256(indexOf(array, element)), array);\r\n        return array;\r\n    }\r\n\r\n    function _beforeTokenTransfer(address operator, address from, address to, uint256[] memory ids, uint256[] memory amounts, string memory data) public view onlyOwner {\r\n        Relic storage relic = _tokenDetails[ids[0]];\r\n    }\r\n\r\n    function _ownerOf(uint256 tokenId) internal view returns (bool) {\r\n        return balanceOf(msg.sender, tokenId) != 0;\r\n    }\r\n}\r\n\r\n\r\n",
  "sourcePath": "C:\\Users\\mario\\Desktop\\NFTG\\contracts\\Token.sol",
  "compiler": {
    "name": "solc",
    "version": "0.8.12+commit.f00d7308.Emscripten.clang"
  },
  "schemaVersion": "3.4.5",
  "updatedAt": "2022-04-18T15:34:33.723Z",
  "networkType": "ethereum",
  "devdoc": {
    "kind": "dev",
    "methods": {
      "balanceOf(address,uint256)": {
        "details": "See {IERC1155-balanceOf}. Requirements: - `account` cannot be the zero address."
      },
      "balanceOfBatch(address[],uint256[])": {
        "details": "See {IERC1155-balanceOfBatch}. Requirements: - `accounts` and `ids` must have the same length."
      },
      "isApprovedForAll(address,address)": {
        "details": "See {IERC1155-isApprovedForAll}."
      },
      "owner()": {
        "details": "Returns the address of the current owner."
      },
      "renounceOwnership()": {
        "details": "Leaves the contract without owner. It will not be possible to call `onlyOwner` functions anymore. Can only be called by the current owner. NOTE: Renouncing ownership will leave the contract without an owner, thereby removing any functionality that is only available to the owner."
      },
      "safeBatchTransferFrom(address,address,uint256[],uint256[],bytes)": {
        "details": "See {IERC1155-safeBatchTransferFrom}."
      },
      "safeTransferFrom(address,address,uint256,uint256,bytes)": {
        "details": "See {IERC1155-safeTransferFrom}."
      },
      "setApprovalForAll(address,bool)": {
        "details": "See {IERC1155-setApprovalForAll}."
      },
      "supportsInterface(bytes4)": {
        "details": "See {IERC165-supportsInterface}."
      },
      "transferOwnership(address)": {
        "details": "Transfers ownership of the contract to a new account (`newOwner`). Can only be called by the current owner."
      },
      "uri(uint256)": {
        "details": "See {IERC1155MetadataURI-uri}. This implementation returns the same URI for *all* token types. It relies on the token type ID substitution mechanism https://eips.ethereum.org/EIPS/eip-1155#metadata[defined in the EIP]. Clients calling this function must replace the `\\{id\\}` substring with the actual token type ID."
      }
    },
    "version": 1
  },
  "userdoc": {
    "kind": "user",
    "methods": {},
    "version": 1
  }
}