{
  "contractName": "Token",
  "abi": [
    {
      "inputs": [
        {
          "internalType": "string",
          "name": "name",
          "type": "string"
        },
        {
          "internalType": "string",
          "name": "symbol",
          "type": "string"
        },
        {
          "internalType": "string",
          "name": "uri",
          "type": "string"
        }
      ],
      "stateMutability": "nonpayable",
      "type": "constructor"
    },
    {
      "anonymous": false,
      "inputs": [
        {
          "indexed": true,
          "internalType": "address",
          "name": "account",
          "type": "address"
        },
        {
          "indexed": true,
          "internalType": "address",
          "name": "operator",
          "type": "address"
        },
        {
          "indexed": false,
          "internalType": "bool",
          "name": "approved",
          "type": "bool"
        }
      ],
      "name": "ApprovalForAll",
      "type": "event"
    },
    {
      "anonymous": false,
      "inputs": [
        {
          "indexed": true,
          "internalType": "address",
          "name": "previousOwner",
          "type": "address"
        },
        {
          "indexed": true,
          "internalType": "address",
          "name": "newOwner",
          "type": "address"
        }
      ],
      "name": "OwnershipTransferred",
      "type": "event"
    },
    {
      "anonymous": false,
      "inputs": [
        {
          "indexed": true,
          "internalType": "address",
          "name": "operator",
          "type": "address"
        },
        {
          "indexed": true,
          "internalType": "address",
          "name": "from",
          "type": "address"
        },
        {
          "indexed": true,
          "internalType": "address",
          "name": "to",
          "type": "address"
        },
        {
          "indexed": false,
          "internalType": "uint256[]",
          "name": "ids",
          "type": "uint256[]"
        },
        {
          "indexed": false,
          "internalType": "uint256[]",
          "name": "values",
          "type": "uint256[]"
        }
      ],
      "name": "TransferBatch",
      "type": "event"
    },
    {
      "anonymous": false,
      "inputs": [
        {
          "indexed": true,
          "internalType": "address",
          "name": "operator",
          "type": "address"
        },
        {
          "indexed": true,
          "internalType": "address",
          "name": "from",
          "type": "address"
        },
        {
          "indexed": true,
          "internalType": "address",
          "name": "to",
          "type": "address"
        },
        {
          "indexed": false,
          "internalType": "uint256",
          "name": "id",
          "type": "uint256"
        },
        {
          "indexed": false,
          "internalType": "uint256",
          "name": "value",
          "type": "uint256"
        }
      ],
      "name": "TransferSingle",
      "type": "event"
    },
    {
      "anonymous": false,
      "inputs": [
        {
          "indexed": false,
          "internalType": "string",
          "name": "value",
          "type": "string"
        },
        {
          "indexed": true,
          "internalType": "uint256",
          "name": "id",
          "type": "uint256"
        }
      ],
      "name": "URI",
      "type": "event"
    },
    {
      "inputs": [
        {
          "internalType": "address",
          "name": "account",
          "type": "address"
        },
        {
          "internalType": "uint256",
          "name": "id",
          "type": "uint256"
        }
      ],
      "name": "balanceOf",
      "outputs": [
        {
          "internalType": "uint256",
          "name": "",
          "type": "uint256"
        }
      ],
      "stateMutability": "view",
      "type": "function",
      "constant": true
    },
    {
      "inputs": [
        {
          "internalType": "address[]",
          "name": "accounts",
          "type": "address[]"
        },
        {
          "internalType": "uint256[]",
          "name": "ids",
          "type": "uint256[]"
        }
      ],
      "name": "balanceOfBatch",
      "outputs": [
        {
          "internalType": "uint256[]",
          "name": "",
          "type": "uint256[]"
        }
      ],
      "stateMutability": "view",
      "type": "function",
      "constant": true
    },
    {
      "inputs": [
        {
          "internalType": "address",
          "name": "account",
          "type": "address"
        },
        {
          "internalType": "address",
          "name": "operator",
          "type": "address"
        }
      ],
      "name": "isApprovedForAll",
      "outputs": [
        {
          "internalType": "bool",
          "name": "",
          "type": "bool"
        }
      ],
      "stateMutability": "view",
      "type": "function",
      "constant": true
    },
    {
      "inputs": [],
      "name": "owner",
      "outputs": [
        {
          "internalType": "address",
          "name": "",
          "type": "address"
        }
      ],
      "stateMutability": "view",
      "type": "function",
      "constant": true
    },
    {
      "inputs": [],
      "name": "renounceOwnership",
      "outputs": [],
      "stateMutability": "nonpayable",
      "type": "function"
    },
    {
      "inputs": [
        {
          "internalType": "address",
          "name": "from",
          "type": "address"
        },
        {
          "internalType": "address",
          "name": "to",
          "type": "address"
        },
        {
          "internalType": "uint256[]",
          "name": "ids",
          "type": "uint256[]"
        },
        {
          "internalType": "uint256[]",
          "name": "amounts",
          "type": "uint256[]"
        },
        {
          "internalType": "bytes",
          "name": "data",
          "type": "bytes"
        }
      ],
      "name": "safeBatchTransferFrom",
      "outputs": [],
      "stateMutability": "nonpayable",
      "type": "function"
    },
    {
      "inputs": [
        {
          "internalType": "address",
          "name": "from",
          "type": "address"
        },
        {
          "internalType": "address",
          "name": "to",
          "type": "address"
        },
        {
          "internalType": "uint256",
          "name": "id",
          "type": "uint256"
        },
        {
          "internalType": "uint256",
          "name": "amount",
          "type": "uint256"
        },
        {
          "internalType": "bytes",
          "name": "data",
          "type": "bytes"
        }
      ],
      "name": "safeTransferFrom",
      "outputs": [],
      "stateMutability": "nonpayable",
      "type": "function"
    },
    {
      "inputs": [
        {
          "internalType": "address",
          "name": "operator",
          "type": "address"
        },
        {
          "internalType": "bool",
          "name": "approved",
          "type": "bool"
        }
      ],
      "name": "setApprovalForAll",
      "outputs": [],
      "stateMutability": "nonpayable",
      "type": "function"
    },
    {
      "inputs": [
        {
          "internalType": "bytes4",
          "name": "interfaceId",
          "type": "bytes4"
        }
      ],
      "name": "supportsInterface",
      "outputs": [
        {
          "internalType": "bool",
          "name": "",
          "type": "bool"
        }
      ],
      "stateMutability": "view",
      "type": "function",
      "constant": true
    },
    {
      "inputs": [
        {
          "internalType": "address",
          "name": "newOwner",
          "type": "address"
        }
      ],
      "name": "transferOwnership",
      "outputs": [],
      "stateMutability": "nonpayable",
      "type": "function"
    },
    {
      "inputs": [
        {
          "internalType": "uint256",
          "name": "",
          "type": "uint256"
        }
      ],
      "name": "uri",
      "outputs": [
        {
          "internalType": "string",
          "name": "",
          "type": "string"
        }
      ],
      "stateMutability": "view",
      "type": "function",
      "constant": true
    },
    {
      "inputs": [
        {
          "internalType": "uint256",
          "name": "tokenId",
          "type": "uint256"
        }
      ],
      "name": "getTokenDetails",
      "outputs": [
        {
          "components": [
            {
              "internalType": "uint256",
              "name": "part",
              "type": "uint256"
            },
            {
              "internalType": "uint256",
              "name": "set",
              "type": "uint256"
            },
            {
              "internalType": "uint256",
              "name": "mainOpType",
              "type": "uint256"
            },
            {
              "internalType": "uint256",
              "name": "mainOpValue",
              "type": "uint256"
            },
            {
              "internalType": "uint256[4]",
              "name": "subOpType",
              "type": "uint256[4]"
            },
            {
              "internalType": "uint256[4]",
              "name": "subOpValue",
              "type": "uint256[4]"
            },
            {
              "internalType": "uint256",
              "name": "level",
              "type": "uint256"
            },
            {
              "internalType": "uint256",
              "name": "exp",
              "type": "uint256"
            }
          ],
          "internalType": "struct Token.Relic",
          "name": "",
          "type": "tuple"
        }
      ],
      "stateMutability": "view",
      "type": "function",
      "constant": true
    },
    {
      "inputs": [
        {
          "internalType": "uint256[10]",
          "name": "arr",
          "type": "uint256[10]"
        },
        {
          "internalType": "uint256",
          "name": "searchFor",
          "type": "uint256"
        }
      ],
      "name": "indexOf",
      "outputs": [
        {
          "internalType": "int256",
          "name": "",
          "type": "int256"
        }
      ],
      "stateMutability": "pure",
      "type": "function",
      "constant": true
    },
    {
      "inputs": [
        {
          "internalType": "uint256",
          "name": "location",
          "type": "uint256"
        }
      ],
      "name": "mint",
      "outputs": [],
      "stateMutability": "nonpayable",
      "type": "function"
    },
    {
      "inputs": [],
      "name": "getRandomPart",
      "outputs": [
        {
          "internalType": "uint256",
          "name": "",
          "type": "uint256"
        }
      ],
      "stateMutability": "view",
      "type": "function",
      "constant": true
    },
    {
      "inputs": [
        {
          "internalType": "uint256",
          "name": "location",
          "type": "uint256"
        }
      ],
      "name": "getRandomSet",
      "outputs": [
        {
          "internalType": "uint256",
          "name": "",
          "type": "uint256"
        }
      ],
      "stateMutability": "view",
      "type": "function",
      "constant": true
    },
    {
      "inputs": [
        {
          "internalType": "uint256",
          "name": "part",
          "type": "uint256"
        }
      ],
      "name": "getMainOpType",
      "outputs": [
        {
          "internalType": "uint256",
          "name": "",
          "type": "uint256"
        }
      ],
      "stateMutability": "view",
      "type": "function",
      "constant": true
    },
    {
      "inputs": [
        {
          "internalType": "uint256",
          "name": "mainOpType",
          "type": "uint256"
        }
      ],
      "name": "getMainOpValue",
      "outputs": [
        {
          "internalType": "uint256",
          "name": "",
          "type": "uint256"
        }
      ],
      "stateMutability": "pure",
      "type": "function",
      "constant": true
    },
    {
      "inputs": [
        {
          "internalType": "uint256",
          "name": "mainOpType",
          "type": "uint256"
        }
      ],
      "name": "getSubOpType",
      "outputs": [
        {
          "internalType": "uint256[4]",
          "name": "",
          "type": "uint256[4]"
        }
      ],
      "stateMutability": "view",
      "type": "function",
      "constant": true
    },
    {
      "inputs": [
        {
          "internalType": "uint256[4]",
          "name": "subOpType",
          "type": "uint256[4]"
        }
      ],
      "name": "getSubOpValue",
      "outputs": [
        {
          "internalType": "uint256[4]",
          "name": "",
          "type": "uint256[4]"
        }
      ],
      "stateMutability": "view",
      "type": "function",
      "constant": true
    },
    {
      "inputs": [
        {
          "internalType": "uint256",
          "name": "number",
          "type": "uint256"
        },
        {
          "internalType": "uint256",
          "name": "randNonce",
          "type": "uint256"
        }
      ],
      "name": "createRandom",
      "outputs": [
        {
          "internalType": "uint256",
          "name": "",
          "type": "uint256"
        }
      ],
      "stateMutability": "view",
      "type": "function",
      "constant": true
    },
    {
      "inputs": [
        {
          "internalType": "uint256",
          "name": "tokenId",
          "type": "uint256"
        }
      ],
      "name": "enhance",
      "outputs": [],
      "stateMutability": "nonpayable",
      "type": "function"
    },
    {
      "inputs": [
        {
          "internalType": "address",
          "name": "user",
          "type": "address"
        }
      ],
      "name": "getAllTokensForUser",
      "outputs": [
        {
          "internalType": "uint256[]",
          "name": "",
          "type": "uint256[]"
        }
      ],
      "stateMutability": "view",
      "type": "function",
      "constant": true
    },
    {
      "inputs": [
        {
          "internalType": "uint256",
          "name": "index",
          "type": "uint256"
        },
        {
          "internalType": "uint256[10]",
          "name": "array",
          "type": "uint256[10]"
        }
      ],
      "name": "remove",
      "outputs": [],
      "stateMutability": "pure",
      "type": "function",
      "constant": true
    },
    {
      "inputs": [
        {
          "internalType": "address",
          "name": "operator",
          "type": "address"
        },
        {
          "internalType": "address",
          "name": "from",
          "type": "address"
        },
        {
          "internalType": "address",
          "name": "to",
          "type": "address"
        },
        {
          "internalType": "uint256[]",
          "name": "ids",
          "type": "uint256[]"
        },
        {
          "internalType": "uint256[]",
          "name": "amounts",
          "type": "uint256[]"
        },
        {
          "internalType": "string",
          "name": "data",
          "type": "string"
        }
      ],
      "name": "_beforeTokenTransfer",
      "outputs": [],
      "stateMutability": "view",
      "type": "function",
      "constant": true
    }
  ],
  "bytecode": "0x608060405260006004553480156200001657600080fd5b5060405162004c2438038062004c2483398181016040528101906200003c9190620003af565b806200004e816200007860201b60201c565b506200006f620000636200009460201b60201c565b6200009c60201b60201c565b505050620004cd565b80600290805190602001906200009092919062000162565b5050565b600033905090565b6000600360009054906101000a900473ffffffffffffffffffffffffffffffffffffffff16905081600360006101000a81548173ffffffffffffffffffffffffffffffffffffffff021916908373ffffffffffffffffffffffffffffffffffffffff1602179055508173ffffffffffffffffffffffffffffffffffffffff168173ffffffffffffffffffffffffffffffffffffffff167f8be0079c531659141344cd1fd0a4f28419497f9722a3daafe3b4186f6b6457e060405160405180910390a35050565b828054620001709062000497565b90600052602060002090601f016020900481019282620001945760008555620001e0565b82601f10620001af57805160ff1916838001178555620001e0565b82800160010185558215620001e0579182015b82811115620001df578251825591602001919060010190620001c2565b5b509050620001ef9190620001f3565b5090565b5b808211156200020e576000816000905550600101620001f4565b5090565b6000604051905090565b600080fd5b600080fd5b600080fd5b600080fd5b6000601f19601f8301169050919050565b7f4e487b7100000000000000000000000000000000000000000000000000000000600052604160045260246000fd5b6200027b8262000230565b810181811067ffffffffffffffff821117156200029d576200029c62000241565b5b80604052505050565b6000620002b262000212565b9050620002c0828262000270565b919050565b600067ffffffffffffffff821115620002e357620002e262000241565b5b620002ee8262000230565b9050602081019050919050565b60005b838110156200031b578082015181840152602081019050620002fe565b838111156200032b576000848401525b50505050565b6000620003486200034284620002c5565b620002a6565b9050828152602081018484840111156200036757620003666200022b565b5b62000374848285620002fb565b509392505050565b600082601f83011262000394576200039362000226565b5b8151620003a684826020860162000331565b91505092915050565b600080600060608486031215620003cb57620003ca6200021c565b5b600084015167ffffffffffffffff811115620003ec57620003eb62000221565b5b620003fa868287016200037c565b935050602084015167ffffffffffffffff8111156200041e576200041d62000221565b5b6200042c868287016200037c565b925050604084015167ffffffffffffffff81111562000450576200044f62000221565b5b6200045e868287016200037c565b9150509250925092565b7f4e487b7100000000000000000000000000000000000000000000000000000000600052602260045260246000fd5b60006002820490506001821680620004b057607f821691505b60208210811415620004c757620004c662000468565b5b50919050565b61474780620004dd6000396000f3fe608060405234801561001057600080fd5b50600436106101725760003560e01c806382de8fe9116100de578063c1e0372811610097578063e32a440511610071578063e32a4405146104a5578063e985e9c5146104d5578063f242432a14610505578063f2fde38b1461052157610172565b8063c1e037281461043b578063c9523f541461046b578063d46feaaf1461048757610172565b806382de8fe9146103555780638560389e146103855780638da5cb5b146103b557806394cc25e3146103d3578063a0712d6814610403578063a22cb4651461041f57610172565b80634987b8ab116101305780634987b8ab1461026f5780634e1273f41461029f578063640a0759146102cf5780636ab6236f146102ff578063715018a61461031b57806379e492c91461032557610172565b8062fdd58e1461017757806301ffc9a7146101a75780630e89341c146101d757806313fe8b4a146102075780632eb2c2d61461022357806332282af51461023f575b600080fd5b610191600480360381019061018c9190612bbc565b61053d565b60405161019e9190612c0b565b60405180910390f35b6101c160048036038101906101bc9190612c7e565b610606565b6040516101ce9190612cc6565b60405180910390f35b6101f160048036038101906101ec9190612ce1565b6106e8565b6040516101fe9190612da7565b60405180910390f35b610221600480360381019061021c9190612ce1565b61077c565b005b61023d60048036038101906102389190612fc6565b610aae565b005b61025960048036038101906102549190613146565b610b4f565b604051610266919061321e565b60405180910390f35b610289600480360381019061028491906132ea565b610d7b565b6040516102969190613345565b60405180910390f35b6102b960048036038101906102b49190613423565b610df2565b6040516102c69190613532565b60405180910390f35b6102e960048036038101906102e49190613554565b610f0b565b6040516102f69190612c0b565b60405180910390f35b61031960048036038101906103149190613635565b610f4e565b005b610323611005565b005b61033f600480360381019061033a9190612ce1565b61108d565b60405161034c9190612c0b565b60405180910390f35b61036f600480360381019061036a9190613716565b6110a7565b60405161037c9190613532565b60405180910390f35b61039f600480360381019061039a9190612ce1565b6111fc565b6040516103ac9190612c0b565b60405180910390f35b6103bd6112be565b6040516103ca9190613752565b60405180910390f35b6103ed60048036038101906103e89190612ce1565b6112e8565b6040516103fa919061321e565b60405180910390f35b61041d60048036038101906104189190612ce1565b6114a1565b005b61043960048036038101906104349190613799565b61166c565b005b61045560048036038101906104509190612ce1565b611682565b60405161046291906138e0565b60405180910390f35b610485600480360381019061048091906138fc565b611776565b005b61048f6117e9565b60405161049c9190612c0b565b60405180910390f35b6104bf60048036038101906104ba9190612ce1565b611801565b6040516104cc9190612c0b565b60405180910390f35b6104ef60048036038101906104ea919061393d565b6119a6565b6040516104fc9190612cc6565b60405180910390f35b61051f600480360381019061051a919061397d565b611a3a565b005b61053b60048036038101906105369190613716565b611adb565b005b60008073ffffffffffffffffffffffffffffffffffffffff168373ffffffffffffffffffffffffffffffffffffffff1614156105ae576040517f08c379a00000000000000000000000000000000000000000000000000000000081526004016105a590613a86565b60405180910390fd5b60008083815260200190815260200160002060008473ffffffffffffffffffffffffffffffffffffffff1673ffffffffffffffffffffffffffffffffffffffff16815260200190815260200160002054905092915050565b60007fd9b67a26000000000000000000000000000000000000000000000000000000007bffffffffffffffffffffffffffffffffffffffffffffffffffffffff1916827bffffffffffffffffffffffffffffffffffffffffffffffffffffffff191614806106d157507f0e89341c000000000000000000000000000000000000000000000000000000007bffffffffffffffffffffffffffffffffffffffffffffffffffffffff1916827bffffffffffffffffffffffffffffffffffffffffffffffffffffffff1916145b806106e157506106e082611bd3565b5b9050919050565b6060600280546106f790613ad5565b80601f016020809104026020016040519081016040528092919081815260200182805461072390613ad5565b80156107705780601f1061074557610100808354040283529160200191610770565b820191906000526020600020905b81548152906001019060200180831161075357829003601f168201915b50505050509050919050565b600060056000838152602001908152602001600020905060006107a160046000610f0b565b905060006107b160046001610f0b565b90506000806000604051806101400160405280600181526020016002815260200160038152602001600481526020016005815260200160068152602001600781526020016008815260200160098152602001600a81525090506000604051806105000160405280608c815260200160a0815260200160b4815260200160be815260200161082a81526020016109568152602001610a828152602001610bae815260200160a0815260200160be815260200160d2815260200160e6815260200160298152602001602f815260200160358152602001603a815260200160298152602001602f815260200160358152602001603a815260200160338152602001603a81526020016042815260200160498152602001601b8152602001601f8152602001602381526020016027815260200160368152602001603e815260200160468152602001604e815260200160a0815260200160be815260200160d2815260200160e68152602001602d815260200160348152602001603a8152602001604181525090506000600a90506003600489600c015461094d9190613b36565b1415610a875760008860040160036004811061096c5761096b613b67565b5b01541415610a005760005b60038110156109cc576109aa6109a4858b600401846004811061099d5761099c613b67565b5b0154610d7b565b85611776565b6001826109b79190613bc5565b915080806109c490613bf9565b915050610977565b50600396506109dc816002610f0b565b945084886004016003600481106109f6576109f5613b67565b5b0181905550610a1b565b876004018760048110610a1657610a15613b67565b5b015494505b81866004600188610a2c9190613bc5565b610a369190613c42565b610a409190613c9c565b60288110610a5157610a50613b67565b5b6020020151935083886008018860048110610a6f57610a6e613b67565b5b016000828254610a7f9190613c9c565b925050819055505b600188600c016000828254610a9c9190613c9c565b92505081905550505050505050505050565b610ab6611c3d565b73ffffffffffffffffffffffffffffffffffffffff168573ffffffffffffffffffffffffffffffffffffffff161480610afc5750610afb85610af6611c3d565b6119a6565b5b610b3b576040517f08c379a0000000000000000000000000000000000000000000000000000000008152600401610b3290613d64565b60405180910390fd5b610b488585858585611c45565b5050505050565b610b576129ff565b6000604051806105000160405280608c815260200160a0815260200160b4815260200160be815260200161082a81526020016109568152602001610a828152602001610bae815260200160a0815260200160be815260200160d2815260200160e6815260200160298152602001602f815260200160358152602001603a815260200160298152602001602f815260200160358152602001603a815260200160338152602001603a81526020016042815260200160498152602001601b8152602001601f8152602001602381526020016027815260200160368152602001603e815260200160468152602001604e815260200160a0815260200160be815260200160d2815260200160e68152602001602d815260200160348152602001603a8152602001604181525090506000604051806080016040528060008152602001600081526020016000815260200160008152509050600080600090505b6004811015610d6f576000868260048110610cd057610ccf613b67565b5b60200201511415610ce057610d5c565b610ceb600482610f0b565b9150838260046001898560048110610d0657610d05613b67565b5b6020020151610d159190613bc5565b610d1f9190613c42565b610d299190613c9c565b60288110610d3a57610d39613b67565b5b6020020151838260048110610d5257610d51613b67565b5b6020020181815250505b8080610d6790613bf9565b915050610cb2565b50819350505050919050565b600080600090505b600a811215610dc757828482600a8110610da057610d9f613b67565b5b60200201511415610db45780915050610dec565b8080610dbf90613d84565b915050610d83565b507fffffffffffffffffffffffffffffffffffffffffffffffffffffffffffffffff90505b92915050565b60608151835114610e38576040517f08c379a0000000000000000000000000000000000000000000000000000000008152600401610e2f90613e3f565b60405180910390fd5b6000835167ffffffffffffffff811115610e5557610e54612dce565b5b604051908082528060200260200182016040528015610e835781602001602082028036833780820191505090505b50905060005b8451811015610f0057610ed0858281518110610ea857610ea7613b67565b5b6020026020010151858381518110610ec357610ec2613b67565b5b602002602001015161053d565b828281518110610ee357610ee2613b67565b5b60200260200101818152505080610ef990613bf9565b9050610e89565b508091505092915050565b600082423384604051602001610f2393929190613ec8565b6040516020818303038152906040528051906020012060001c610f469190613b36565b905092915050565b610f56611c3d565b73ffffffffffffffffffffffffffffffffffffffff16610f746112be565b73ffffffffffffffffffffffffffffffffffffffff1614610fca576040517f08c379a0000000000000000000000000000000000000000000000000000000008152600401610fc190613f51565b60405180910390fd5b60006005600085600081518110610fe457610fe3613b67565b5b60200260200101518152602001908152602001600020905050505050505050565b61100d611c3d565b73ffffffffffffffffffffffffffffffffffffffff1661102b6112be565b73ffffffffffffffffffffffffffffffffffffffff1614611081576040517f08c379a000000000000000000000000000000000000000000000000000000000815260040161107890613f51565b60405180910390fd5b61108b6000611f59565b565b60008061109c60026000610f0b565b905080915050919050565b60606000805b6004548110156110e1576110c1848261053d565b826110cc9190613c9c565b915080806110d990613bf9565b9150506110ad565b600082141561113d57600067ffffffffffffffff81111561110557611104612dce565b5b6040519080825280602002602001820160405280156111335781602001602082028036833780820191505090505b50925050506111f7565b60008267ffffffffffffffff81111561115957611158612dce565b5b6040519080825280602002602001820160405280156111875781602001602082028036833780820191505090505b509050600060045490506000805b828110156111ed576111a68161201f565b156111da57808483815181106111bf576111be613b67565b5b60200260200101818152505081806111d690613bf9565b9250505b80806111e590613bf9565b915050611195565b8396505050505050505b919050565b6000806040518061024001604052806101d68152602001611c02815260200160008152602001604681526020016046815260200160578152602001602f8152602001605d81526020016101188152602001604e8152602001605781526020016046815260200160468152602001604681526020016046815260200160468152602001604681526020016036815250905060008160018561129c9190613bc5565b601281106112ad576112ac613b67565b5b602002015190508092505050919050565b6000600360009054906101000a900473ffffffffffffffffffffffffffffffffffffffff16905090565b6112f06129ff565b6000604051806080016040528060008152602001600081526020016000815260200160008152509050600061132760026000610f0b565b90506000604051806101400160405280600181526020016002815260200160038152602001600481526020016005815260200160068152602001600781526020016008815260200160098152602001600a81525090506000600a90507fffffffffffffffffffffffffffffffffffffffffffffffffffffffffffffffff6113ae8388610d7b565b146113d6576113c66113c08388610d7b565b83611776565b6001816113d39190613bc5565b90505b60005b600481101561146b57826113ed8383610f0b565b600a81106113fe576113fd613b67565b5b602002015185826004811061141657611415613b67565b5b6020020181815250506114496114438487846004811061143957611438613b67565b5b6020020151610d7b565b84611776565b6001826114569190613bc5565b9150808061146390613bf9565b9150506113d9565b5060008314156114955760008460036004811061148b5761148a613b67565b5b6020020181815250505b83945050505050919050565b6114a9611c3d565b73ffffffffffffffffffffffffffffffffffffffff166114c76112be565b73ffffffffffffffffffffffffffffffffffffffff161461151d576040517f08c379a000000000000000000000000000000000000000000000000000000000815260040161151490613f51565b60405180910390fd5b600080600061152b8461108d565b905060006115376117e9565b9050600061154482611801565b90506000611551826111fc565b9050600061155e836112e8565b9050600061156b82610b4f565b905060405180610100016040528086815260200187815260200185815260200184815260200183815260200182815260200189815260200188815250600560006004548152602001908152602001600020600082015181600001556020820151816001015560408201518160020155606082015181600301556080820151816004019060046115fb929190612a21565b5060a082015181600801906004611613929190612a21565b5060c082015181600c015560e082015181600d015590505061164933600454600160405180602001604052806000815250612035565b6004600081548092919061165c90613bf9565b9190505550505050505050505050565b61167e611677611c3d565b83836121cb565b5050565b61168a612a61565b6005600083815260200190815260200160002060405180610100016040529081600082015481526020016001820154815260200160028201548152602001600382015481526020016004820160048060200260405190810160405280929190826004801561170d576020028201915b8154815260200190600101908083116116f9575b5050505050815260200160088201600480602002604051908101604052809291908260048015611752576020028201915b81548152602001906001019080831161173e575b50505050508152602001600c8201548152602001600d820154815250509050919050565b60008290505b6001600a61178a9190613bc5565b8110156117e4578160018261179f9190613c9c565b600a81106117b0576117af613b67565b5b60200201518282600a81106117c8576117c7613b67565b5b60200201818152505080806117dc90613bf9565b91505061177c565b505050565b6000806117f860056000610f0b565b90508091505090565b60008060009050600183141561181a576002905061199d565b600283141561182c576001905061199c565b60038314156118965761183d612ab2565b6040518060a0016040528060048152602001600581526020016006815260200160098152602001600a81525090508061187860056000610f0b565b6005811061188957611888613b67565b5b602002015191505061199b565b600483141561192b576118a7612ad4565b60405180610160016040528060048152602001600581526020016006815260200160098152602001600b8152602001600c8152602001600d8152602001600e8152602001600f815260200160108152602001601181525090508061190d600b6000610f0b565b600b811061191e5761191d613b67565b5b602002015191505061199a565b60058314156119995760006040518060e00160405280600481526020016005815260200160068152602001600781526020016008815260200160098152602001601281525090508061197f60076000610f0b565b600781106119905761198f613b67565b5b60200201519150505b5b5b5b5b80915050919050565b6000600160008473ffffffffffffffffffffffffffffffffffffffff1673ffffffffffffffffffffffffffffffffffffffff16815260200190815260200160002060008373ffffffffffffffffffffffffffffffffffffffff1673ffffffffffffffffffffffffffffffffffffffff16815260200190815260200160002060009054906101000a900460ff16905092915050565b611a42611c3d565b73ffffffffffffffffffffffffffffffffffffffff168573ffffffffffffffffffffffffffffffffffffffff161480611a885750611a8785611a82611c3d565b6119a6565b5b611ac7576040517f08c379a0000000000000000000000000000000000000000000000000000000008152600401611abe90613fe3565b60405180910390fd5b611ad48585858585612338565b5050505050565b611ae3611c3d565b73ffffffffffffffffffffffffffffffffffffffff16611b016112be565b73ffffffffffffffffffffffffffffffffffffffff1614611b57576040517f08c379a0000000000000000000000000000000000000000000000000000000008152600401611b4e90613f51565b60405180910390fd5b600073ffffffffffffffffffffffffffffffffffffffff168173ffffffffffffffffffffffffffffffffffffffff161415611bc7576040517f08c379a0000000000000000000000000000000000000000000000000000000008152600401611bbe90614075565b60405180910390fd5b611bd081611f59565b50565b60007f01ffc9a7000000000000000000000000000000000000000000000000000000007bffffffffffffffffffffffffffffffffffffffffffffffffffffffff1916827bffffffffffffffffffffffffffffffffffffffffffffffffffffffff1916149050919050565b600033905090565b8151835114611c89576040517f08c379a0000000000000000000000000000000000000000000000000000000008152600401611c8090614107565b60405180910390fd5b600073ffffffffffffffffffffffffffffffffffffffff168473ffffffffffffffffffffffffffffffffffffffff161415611cf9576040517f08c379a0000000000000000000000000000000000000000000000000000000008152600401611cf090614199565b60405180910390fd5b6000611d03611c3d565b9050611d138187878787876125ba565b60005b8451811015611ec4576000858281518110611d3457611d33613b67565b5b602002602001015190506000858381518110611d5357611d52613b67565b5b60200260200101519050600080600084815260200190815260200160002060008b73ffffffffffffffffffffffffffffffffffffffff1673ffffffffffffffffffffffffffffffffffffffff16815260200190815260200160002054905081811015611df4576040517f08c379a0000000000000000000000000000000000000000000000000000000008152600401611deb9061422b565b60405180910390fd5b81810360008085815260200190815260200160002060008c73ffffffffffffffffffffffffffffffffffffffff1673ffffffffffffffffffffffffffffffffffffffff168152602001908152602001600020819055508160008085815260200190815260200160002060008b73ffffffffffffffffffffffffffffffffffffffff1673ffffffffffffffffffffffffffffffffffffffff1681526020019081526020016000206000828254611ea99190613c9c565b9250508190555050505080611ebd90613bf9565b9050611d16565b508473ffffffffffffffffffffffffffffffffffffffff168673ffffffffffffffffffffffffffffffffffffffff168273ffffffffffffffffffffffffffffffffffffffff167f4a39dc06d4c0dbc64b70af90fd698a233a518aa5d07e595d983b8c0526c8f7fb8787604051611f3b92919061424b565b60405180910390a4611f518187878787876125c2565b505050505050565b6000600360009054906101000a900473ffffffffffffffffffffffffffffffffffffffff16905081600360006101000a81548173ffffffffffffffffffffffffffffffffffffffff021916908373ffffffffffffffffffffffffffffffffffffffff1602179055508173ffffffffffffffffffffffffffffffffffffffff168173ffffffffffffffffffffffffffffffffffffffff167f8be0079c531659141344cd1fd0a4f28419497f9722a3daafe3b4186f6b6457e060405160405180910390a35050565b60008061202c338461053d565b14159050919050565b600073ffffffffffffffffffffffffffffffffffffffff168473ffffffffffffffffffffffffffffffffffffffff1614156120a5576040517f08c379a000000000000000000000000000000000000000000000000000000000815260040161209c906142f4565b60405180910390fd5b60006120af611c3d565b90506120d0816000876120c18861279a565b6120ca8861279a565b876125ba565b8260008086815260200190815260200160002060008773ffffffffffffffffffffffffffffffffffffffff1673ffffffffffffffffffffffffffffffffffffffff168152602001908152602001600020600082825461212f9190613c9c565b925050819055508473ffffffffffffffffffffffffffffffffffffffff16600073ffffffffffffffffffffffffffffffffffffffff168273ffffffffffffffffffffffffffffffffffffffff167fc3d58168c5ae7397731d063d5bbf3d657854427343f4c083240f7aacaa2d0f6287876040516121ad929190614314565b60405180910390a46121c481600087878787612814565b5050505050565b8173ffffffffffffffffffffffffffffffffffffffff168373ffffffffffffffffffffffffffffffffffffffff16141561223a576040517f08c379a0000000000000000000000000000000000000000000000000000000008152600401612231906143af565b60405180910390fd5b80600160008573ffffffffffffffffffffffffffffffffffffffff1673ffffffffffffffffffffffffffffffffffffffff16815260200190815260200160002060008473ffffffffffffffffffffffffffffffffffffffff1673ffffffffffffffffffffffffffffffffffffffff16815260200190815260200160002060006101000a81548160ff0219169083151502179055508173ffffffffffffffffffffffffffffffffffffffff168373ffffffffffffffffffffffffffffffffffffffff167f17307eab39ab6107e8899845ad3d59bd9653f200f220920489ca2b5937696c318360405161232b9190612cc6565b60405180910390a3505050565b600073ffffffffffffffffffffffffffffffffffffffff168473ffffffffffffffffffffffffffffffffffffffff1614156123a8576040517f08c379a000000000000000000000000000000000000000000000000000000000815260040161239f90614199565b60405180910390fd5b60006123b2611c3d565b90506123d28187876123c38861279a565b6123cc8861279a565b876125ba565b600080600086815260200190815260200160002060008873ffffffffffffffffffffffffffffffffffffffff1673ffffffffffffffffffffffffffffffffffffffff16815260200190815260200160002054905083811015612469576040517f08c379a00000000000000000000000000000000000000000000000000000000081526004016124609061422b565b60405180910390fd5b83810360008087815260200190815260200160002060008973ffffffffffffffffffffffffffffffffffffffff1673ffffffffffffffffffffffffffffffffffffffff168152602001908152602001600020819055508360008087815260200190815260200160002060008873ffffffffffffffffffffffffffffffffffffffff1673ffffffffffffffffffffffffffffffffffffffff168152602001908152602001600020600082825461251e9190613c9c565b925050819055508573ffffffffffffffffffffffffffffffffffffffff168773ffffffffffffffffffffffffffffffffffffffff168373ffffffffffffffffffffffffffffffffffffffff167fc3d58168c5ae7397731d063d5bbf3d657854427343f4c083240f7aacaa2d0f62888860405161259b929190614314565b60405180910390a46125b1828888888888612814565b50505050505050565b505050505050565b6125e18473ffffffffffffffffffffffffffffffffffffffff166129ec565b15612792578373ffffffffffffffffffffffffffffffffffffffff1663bc197c8187878686866040518663ffffffff1660e01b8152600401612627959493929190614424565b6020604051808303816000875af192505050801561266357506040513d601f19601f8201168201806040525081019061266091906144a1565b60015b6127095761266f6144db565b806308c379a014156126cc57506126846144fd565b8061268f57506126ce565b806040517f08c379a00000000000000000000000000000000000000000000000000000000081526004016126c39190612da7565b60405180910390fd5b505b6040517f08c379a000000000000000000000000000000000000000000000000000000000815260040161270090614605565b60405180910390fd5b63bc197c8160e01b7bffffffffffffffffffffffffffffffffffffffffffffffffffffffff1916817bffffffffffffffffffffffffffffffffffffffffffffffffffffffff191614612790576040517f08c379a000000000000000000000000000000000000000000000000000000000815260040161278790614697565b60405180910390fd5b505b505050505050565b60606000600167ffffffffffffffff8111156127b9576127b8612dce565b5b6040519080825280602002602001820160405280156127e75781602001602082028036833780820191505090505b50905082816000815181106127ff576127fe613b67565b5b60200260200101818152505080915050919050565b6128338473ffffffffffffffffffffffffffffffffffffffff166129ec565b156129e4578373ffffffffffffffffffffffffffffffffffffffff1663f23a6e6187878686866040518663ffffffff1660e01b81526004016128799594939291906146b7565b6020604051808303816000875af19250505080156128b557506040513d601f19601f820116820180604052508101906128b291906144a1565b60015b61295b576128c16144db565b806308c379a0141561291e57506128d66144fd565b806128e15750612920565b806040517f08c379a00000000000000000000000000000000000000000000000000000000081526004016129159190612da7565b60405180910390fd5b505b6040517f08c379a000000000000000000000000000000000000000000000000000000000815260040161295290614605565b60405180910390fd5b63f23a6e6160e01b7bffffffffffffffffffffffffffffffffffffffffffffffffffffffff1916817bffffffffffffffffffffffffffffffffffffffffffffffffffffffff1916146129e2576040517f08c379a00000000000000000000000000000000000000000000000000000000081526004016129d990614697565b60405180910390fd5b505b505050505050565b600080823b905060008111915050919050565b6040518060800160405280600490602082028036833780820191505090505090565b8260048101928215612a50579160200282015b82811115612a4f578251825591602001919060010190612a34565b5b509050612a5d9190612af7565b5090565b60405180610100016040528060008152602001600081526020016000815260200160008152602001612a916129ff565b8152602001612a9e6129ff565b815260200160008152602001600081525090565b6040518060a00160405280600590602082028036833780820191505090505090565b604051806101600160405280600b90602082028036833780820191505090505090565b5b80821115612b10576000816000905550600101612af8565b5090565b6000604051905090565b600080fd5b600080fd5b600073ffffffffffffffffffffffffffffffffffffffff82169050919050565b6000612b5382612b28565b9050919050565b612b6381612b48565b8114612b6e57600080fd5b50565b600081359050612b8081612b5a565b92915050565b6000819050919050565b612b9981612b86565b8114612ba457600080fd5b50565b600081359050612bb681612b90565b92915050565b60008060408385031215612bd357612bd2612b1e565b5b6000612be185828601612b71565b9250506020612bf285828601612ba7565b9150509250929050565b612c0581612b86565b82525050565b6000602082019050612c206000830184612bfc565b92915050565b60007fffffffff0000000000000000000000000000000000000000000000000000000082169050919050565b612c5b81612c26565b8114612c6657600080fd5b50565b600081359050612c7881612c52565b92915050565b600060208284031215612c9457612c93612b1e565b5b6000612ca284828501612c69565b91505092915050565b60008115159050919050565b612cc081612cab565b82525050565b6000602082019050612cdb6000830184612cb7565b92915050565b600060208284031215612cf757612cf6612b1e565b5b6000612d0584828501612ba7565b91505092915050565b600081519050919050565b600082825260208201905092915050565b60005b83811015612d48578082015181840152602081019050612d2d565b83811115612d57576000848401525b50505050565b6000601f19601f8301169050919050565b6000612d7982612d0e565b612d838185612d19565b9350612d93818560208601612d2a565b612d9c81612d5d565b840191505092915050565b60006020820190508181036000830152612dc18184612d6e565b905092915050565b600080fd5b7f4e487b7100000000000000000000000000000000000000000000000000000000600052604160045260246000fd5b612e0682612d5d565b810181811067ffffffffffffffff82111715612e2557612e24612dce565b5b80604052505050565b6000612e38612b14565b9050612e448282612dfd565b919050565b600067ffffffffffffffff821115612e6457612e63612dce565b5b602082029050602081019050919050565b600080fd5b6000612e8d612e8884612e49565b612e2e565b90508083825260208201905060208402830185811115612eb057612eaf612e75565b5b835b81811015612ed95780612ec58882612ba7565b845260208401935050602081019050612eb2565b5050509392505050565b600082601f830112612ef857612ef7612dc9565b5b8135612f08848260208601612e7a565b91505092915050565b600080fd5b600067ffffffffffffffff821115612f3157612f30612dce565b5b612f3a82612d5d565b9050602081019050919050565b82818337600083830152505050565b6000612f69612f6484612f16565b612e2e565b905082815260208101848484011115612f8557612f84612f11565b5b612f90848285612f47565b509392505050565b600082601f830112612fad57612fac612dc9565b5b8135612fbd848260208601612f56565b91505092915050565b600080600080600060a08688031215612fe257612fe1612b1e565b5b6000612ff088828901612b71565b955050602061300188828901612b71565b945050604086013567ffffffffffffffff81111561302257613021612b23565b5b61302e88828901612ee3565b935050606086013567ffffffffffffffff81111561304f5761304e612b23565b5b61305b88828901612ee3565b925050608086013567ffffffffffffffff81111561307c5761307b612b23565b5b61308888828901612f98565b9150509295509295909350565b600067ffffffffffffffff8211156130b0576130af612dce565b5b602082029050919050565b60006130ce6130c984613095565b612e2e565b905080602084028301858111156130e8576130e7612e75565b5b835b8181101561311157806130fd8882612ba7565b8452602084019350506020810190506130ea565b5050509392505050565b600082601f8301126131305761312f612dc9565b5b600461313d8482856130bb565b91505092915050565b60006080828403121561315c5761315b612b1e565b5b600061316a8482850161311b565b91505092915050565b600060049050919050565b600081905092915050565b6000819050919050565b61319c81612b86565b82525050565b60006131ae8383613193565b60208301905092915050565b6000602082019050919050565b6131d081613173565b6131da818461317e565b92506131e582613189565b8060005b838110156132165781516131fd87826131a2565b9650613208836131ba565b9250506001810190506131e9565b505050505050565b600060808201905061323360008301846131c7565b92915050565b600067ffffffffffffffff82111561325457613253612dce565b5b602082029050919050565b600061327261326d84613239565b612e2e565b9050806020840283018581111561328c5761328b612e75565b5b835b818110156132b557806132a18882612ba7565b84526020840193505060208101905061328e565b5050509392505050565b600082601f8301126132d4576132d3612dc9565b5b600a6132e184828561325f565b91505092915050565b600080610160838503121561330257613301612b1e565b5b6000613310858286016132bf565b92505061014061332285828601612ba7565b9150509250929050565b6000819050919050565b61333f8161332c565b82525050565b600060208201905061335a6000830184613336565b92915050565b600067ffffffffffffffff82111561337b5761337a612dce565b5b602082029050602081019050919050565b600061339f61339a84613360565b612e2e565b905080838252602082019050602084028301858111156133c2576133c1612e75565b5b835b818110156133eb57806133d78882612b71565b8452602084019350506020810190506133c4565b5050509392505050565b600082601f83011261340a57613409612dc9565b5b813561341a84826020860161338c565b91505092915050565b6000806040838503121561343a57613439612b1e565b5b600083013567ffffffffffffffff81111561345857613457612b23565b5b613464858286016133f5565b925050602083013567ffffffffffffffff81111561348557613484612b23565b5b61349185828601612ee3565b9150509250929050565b600081519050919050565b600082825260208201905092915050565b6000819050602082019050919050565b6000602082019050919050565b60006134df8261349b565b6134e981856134a6565b93506134f4836134b7565b8060005b8381101561352557815161350c88826131a2565b9750613517836134c7565b9250506001810190506134f8565b5085935050505092915050565b6000602082019050818103600083015261354c81846134d4565b905092915050565b6000806040838503121561356b5761356a612b1e565b5b600061357985828601612ba7565b925050602061358a85828601612ba7565b9150509250929050565b600067ffffffffffffffff8211156135af576135ae612dce565b5b6135b882612d5d565b9050602081019050919050565b60006135d86135d384613594565b612e2e565b9050828152602081018484840111156135f4576135f3612f11565b5b6135ff848285612f47565b509392505050565b600082601f83011261361c5761361b612dc9565b5b813561362c8482602086016135c5565b91505092915050565b60008060008060008060c0878903121561365257613651612b1e565b5b600061366089828a01612b71565b965050602061367189828a01612b71565b955050604061368289828a01612b71565b945050606087013567ffffffffffffffff8111156136a3576136a2612b23565b5b6136af89828a01612ee3565b935050608087013567ffffffffffffffff8111156136d0576136cf612b23565b5b6136dc89828a01612ee3565b92505060a087013567ffffffffffffffff8111156136fd576136fc612b23565b5b61370989828a01613607565b9150509295509295509295565b60006020828403121561372c5761372b612b1e565b5b600061373a84828501612b71565b91505092915050565b61374c81612b48565b82525050565b60006020820190506137676000830184613743565b92915050565b61377681612cab565b811461378157600080fd5b50565b6000813590506137938161376d565b92915050565b600080604083850312156137b0576137af612b1e565b5b60006137be85828601612b71565b92505060206137cf85828601613784565b9150509250929050565b600081905092915050565b6137ed81613173565b6137f781846137d9565b925061380282613189565b8060005b8381101561383357815161381a87826131a2565b9650613825836131ba565b925050600181019050613806565b505050505050565b6101c0820160008201516138526000850182613193565b5060208201516138656020850182613193565b5060408201516138786040850182613193565b50606082015161388b6060850182613193565b50608082015161389e60808501826137e4565b5060a08201516138b26101008501826137e4565b5060c08201516138c6610180850182613193565b5060e08201516138da6101a0850182613193565b50505050565b60006101c0820190506138f6600083018461383b565b92915050565b600080610160838503121561391457613913612b1e565b5b600061392285828601612ba7565b9250506020613933858286016132bf565b9150509250929050565b6000806040838503121561395457613953612b1e565b5b600061396285828601612b71565b925050602061397385828601612b71565b9150509250929050565b600080600080600060a0868803121561399957613998612b1e565b5b60006139a788828901612b71565b95505060206139b888828901612b71565b94505060406139c988828901612ba7565b93505060606139da88828901612ba7565b925050608086013567ffffffffffffffff8111156139fb576139fa612b23565b5b613a0788828901612f98565b9150509295509295909350565b7f455243313135353a2062616c616e636520717565727920666f7220746865207a60008201527f65726f2061646472657373000000000000000000000000000000000000000000602082015250565b6000613a70602b83612d19565b9150613a7b82613a14565b604082019050919050565b60006020820190508181036000830152613a9f81613a63565b9050919050565b7f4e487b7100000000000000000000000000000000000000000000000000000000600052602260045260246000fd5b60006002820490506001821680613aed57607f821691505b60208210811415613b0157613b00613aa6565b5b50919050565b7f4e487b7100000000000000000000000000000000000000000000000000000000600052601260045260246000fd5b6000613b4182612b86565b9150613b4c83612b86565b925082613b5c57613b5b613b07565b5b828206905092915050565b7f4e487b7100000000000000000000000000000000000000000000000000000000600052603260045260246000fd5b7f4e487b7100000000000000000000000000000000000000000000000000000000600052601160045260246000fd5b6000613bd082612b86565b9150613bdb83612b86565b925082821015613bee57613bed613b96565b5b828203905092915050565b6000613c0482612b86565b91507fffffffffffffffffffffffffffffffffffffffffffffffffffffffffffffffff821415613c3757613c36613b96565b5b600182019050919050565b6000613c4d82612b86565b9150613c5883612b86565b9250817fffffffffffffffffffffffffffffffffffffffffffffffffffffffffffffffff0483118215151615613c9157613c90613b96565b5b828202905092915050565b6000613ca782612b86565b9150613cb283612b86565b9250827fffffffffffffffffffffffffffffffffffffffffffffffffffffffffffffffff03821115613ce757613ce6613b96565b5b828201905092915050565b7f455243313135353a207472616e736665722063616c6c6572206973206e6f742060008201527f6f776e6572206e6f7220617070726f7665640000000000000000000000000000602082015250565b6000613d4e603283612d19565b9150613d5982613cf2565b604082019050919050565b60006020820190508181036000830152613d7d81613d41565b9050919050565b6000613d8f8261332c565b91507f7fffffffffffffffffffffffffffffffffffffffffffffffffffffffffffffff821415613dc257613dc1613b96565b5b600182019050919050565b7f455243313135353a206163636f756e747320616e6420696473206c656e67746860008201527f206d69736d617463680000000000000000000000000000000000000000000000602082015250565b6000613e29602983612d19565b9150613e3482613dcd565b604082019050919050565b60006020820190508181036000830152613e5881613e1c565b9050919050565b6000819050919050565b613e7a613e7582612b86565b613e5f565b82525050565b60008160601b9050919050565b6000613e9882613e80565b9050919050565b6000613eaa82613e8d565b9050919050565b613ec2613ebd82612b48565b613e9f565b82525050565b6000613ed48286613e69565b602082019150613ee48285613eb1565b601482019150613ef48284613e69565b602082019150819050949350505050565b7f4f776e61626c653a2063616c6c6572206973206e6f7420746865206f776e6572600082015250565b6000613f3b602083612d19565b9150613f4682613f05565b602082019050919050565b60006020820190508181036000830152613f6a81613f2e565b9050919050565b7f455243313135353a2063616c6c6572206973206e6f74206f776e6572206e6f7260008201527f20617070726f7665640000000000000000000000000000000000000000000000602082015250565b6000613fcd602983612d19565b9150613fd882613f71565b604082019050919050565b60006020820190508181036000830152613ffc81613fc0565b9050919050565b7f4f776e61626c653a206e6577206f776e657220697320746865207a65726f206160008201527f6464726573730000000000000000000000000000000000000000000000000000602082015250565b600061405f602683612d19565b915061406a82614003565b604082019050919050565b6000602082019050818103600083015261408e81614052565b9050919050565b7f455243313135353a2069647320616e6420616d6f756e7473206c656e6774682060008201527f6d69736d61746368000000000000000000000000000000000000000000000000602082015250565b60006140f1602883612d19565b91506140fc82614095565b604082019050919050565b60006020820190508181036000830152614120816140e4565b9050919050565b7f455243313135353a207472616e7366657220746f20746865207a65726f20616460008201527f6472657373000000000000000000000000000000000000000000000000000000602082015250565b6000614183602583612d19565b915061418e82614127565b604082019050919050565b600060208201905081810360008301526141b281614176565b9050919050565b7f455243313135353a20696e73756666696369656e742062616c616e636520666f60008201527f72207472616e7366657200000000000000000000000000000000000000000000602082015250565b6000614215602a83612d19565b9150614220826141b9565b604082019050919050565b6000602082019050818103600083015261424481614208565b9050919050565b6000604082019050818103600083015261426581856134d4565b9050818103602083015261427981846134d4565b90509392505050565b7f455243313135353a206d696e7420746f20746865207a65726f2061646472657360008201527f7300000000000000000000000000000000000000000000000000000000000000602082015250565b60006142de602183612d19565b91506142e982614282565b604082019050919050565b6000602082019050818103600083015261430d816142d1565b9050919050565b60006040820190506143296000830185612bfc565b6143366020830184612bfc565b9392505050565b7f455243313135353a2073657474696e6720617070726f76616c2073746174757360008201527f20666f722073656c660000000000000000000000000000000000000000000000602082015250565b6000614399602983612d19565b91506143a48261433d565b604082019050919050565b600060208201905081810360008301526143c88161438c565b9050919050565b600081519050919050565b600082825260208201905092915050565b60006143f6826143cf565b61440081856143da565b9350614410818560208601612d2a565b61441981612d5d565b840191505092915050565b600060a0820190506144396000830188613743565b6144466020830187613743565b818103604083015261445881866134d4565b9050818103606083015261446c81856134d4565b9050818103608083015261448081846143eb565b90509695505050505050565b60008151905061449b81612c52565b92915050565b6000602082840312156144b7576144b6612b1e565b5b60006144c58482850161448c565b91505092915050565b60008160e01c9050919050565b600060033d11156144fa5760046000803e6144f76000516144ce565b90505b90565b600060443d101561450d57614590565b614515612b14565b60043d036004823e80513d602482011167ffffffffffffffff8211171561453d575050614590565b808201805167ffffffffffffffff81111561455b5750505050614590565b80602083010160043d038501811115614578575050505050614590565b61458782602001850186612dfd565b82955050505050505b90565b7f455243313135353a207472616e7366657220746f206e6f6e204552433131353560008201527f526563656976657220696d706c656d656e746572000000000000000000000000602082015250565b60006145ef603483612d19565b91506145fa82614593565b604082019050919050565b6000602082019050818103600083015261461e816145e2565b9050919050565b7f455243313135353a204552433131353552656365697665722072656a6563746560008201527f6420746f6b656e73000000000000000000000000000000000000000000000000602082015250565b6000614681602883612d19565b915061468c82614625565b604082019050919050565b600060208201905081810360008301526146b081614674565b9050919050565b600060a0820190506146cc6000830188613743565b6146d96020830187613743565b6146e66040830186612bfc565b6146f36060830185612bfc565b818103608083015261470581846143eb565b9050969550505050505056fea2646970667358221220a4a1e329084d25c2f2f2151d631fee5f008839b34ac1897e17a6046b80a26c0e64736f6c634300080c0033",
  "immutableReferences": {},
  "source": "// SPDX-License-Identifier: GPL-3.0-or-later\r\npragma solidity ^0.8.0;\r\n\r\nimport \"../node_modules/@openzeppelin/contracts/token/ERC1155/ERC1155.sol\";\r\nimport \"../node_modules/@openzeppelin/contracts/access/Ownable.sol\";\r\n\r\ncontract Token is ERC1155, Ownable {\r\n\r\n    uint8 constant FLOWER = 1;\r\n    uint8 constant FEATHER = 2;\r\n    uint8 constant SANDS = 3;\r\n    uint8 constant GOBLET = 4;\r\n    uint8 constant CIRCLET = 5;\r\n\r\n    struct Relic {\r\n        uint256 part;\r\n        uint256 set;\r\n        uint256 mainOpType;\r\n        uint256 mainOpValue;\r\n        uint256[4] subOpType;\r\n        uint256[4] subOpValue;\r\n        uint256 level;\r\n        uint256 exp;\r\n    }\r\n\r\n    uint256 nextId = 0;\r\n\r\n    mapping(uint256 => Relic) private _tokenDetails;\r\n\r\n    constructor(string memory name, string memory symbol, string memory uri) ERC1155(uri) {\r\n\r\n    }\r\n\r\n    function getTokenDetails(uint256 tokenId) public view returns (Relic memory) {\r\n        return _tokenDetails[tokenId];\r\n    }\r\n\r\n    function indexOf(uint256[10] memory arr, uint256 searchFor) public pure returns (int256) {\r\n        for (int256 i = 0; i < int256(arr.length); i++) {\r\n            if (arr[uint256(i)] == searchFor) {\r\n                return i;\r\n            }\r\n        }\r\n        return -1;\r\n    }\r\n\r\n    function mint(uint256 location) public onlyOwner {\r\n        uint256 level = 0;\r\n        uint256 exp = 0;\r\n\r\n        uint256 set = getRandomSet(location);\r\n        uint256 part = getRandomPart();\r\n        uint256 mainOpType = getMainOpType(part);\r\n        uint256 mainOpValue = getMainOpValue(mainOpType);\r\n        uint256[4] memory subOpType = getSubOpType(mainOpType);\r\n        uint256[4] memory subOpValue = getSubOpValue(subOpType);\r\n\r\n        _tokenDetails[nextId] = Relic(part, set, mainOpType, mainOpValue, subOpType, subOpValue, level, exp);\r\n        _mint(msg.sender, nextId, 1, \"\");\r\n        nextId++;\r\n    }\r\n\r\n    function getRandomPart() public view returns (uint256) {\r\n        uint256 part = uint256(createRandom(5, 0));\r\n        return part;\r\n    }\r\n\r\n    function getRandomSet(uint256 location) public view returns (uint256) {\r\n        uint256 part = uint256(createRandom(2, 0));\r\n        return part;\r\n    }\r\n\r\n    function getMainOpType(uint256 part) public view returns (uint256) {\r\n        uint256 mainOpType = 0;\r\n        if (part == 1) {\r\n            mainOpType = 2;\r\n        }\r\n        else if (part == 2) {\r\n            mainOpType = 1;\r\n        }     \r\n        else if (part == 3) {\r\n            uint256[5] memory typeArray;\r\n            typeArray = [uint256(4), 5, 6, 9, 10];\r\n            mainOpType = typeArray[createRandom(typeArray.length, 0)];\r\n        }\r\n        else if (part == 4) {\r\n            uint256[11] memory typeArray;\r\n            typeArray = [uint256(4), 5, 6, 9, 11, 12, 13, 14, 15, 16, 17];\r\n            mainOpType = typeArray[createRandom(typeArray.length, 0)];\r\n        }\r\n        else if (part == 5) {\r\n            uint256[7] memory typeArray = [uint256(4), 5, 6, 7, 8, 9, 18];\r\n            mainOpType = typeArray[createRandom(typeArray.length, 0)];\r\n        }\r\n        return mainOpType;\r\n    }\r\n\r\n    function getMainOpValue(uint256 mainOpType) public pure returns (uint256) {\r\n        uint256[18] memory valueArray = [uint256(470), 7170, 0, 70, 70, 87, 47, 93, 280, 78, 87, 70, 70, 70, 70, 70, 70, 54];\r\n        uint256 mainOpValue = valueArray[mainOpType-1];\r\n        return mainOpValue;\r\n    }\r\n\r\n    function getSubOpType(uint256 mainOpType) public view returns (uint256[4] memory) {\r\n        uint256[4] memory subOpType = [uint256(0), 0, 0, 0];\r\n        uint256 isFourLine = uint256(createRandom(2, 0));\r\n        uint256[10] memory typeArray = [uint256(1), 2, 3, 4, 5, 6, 7, 8, 9, 10];\r\n        uint length = 10;\r\n\r\n        if (indexOf(typeArray, mainOpType) != -1) {\r\n            remove(uint256(indexOf(typeArray, mainOpType)), typeArray);\r\n            length -= 1;\r\n        }\r\n\r\n        for (uint256 i = 0; i < 4; i++) {\r\n            subOpType[i] = typeArray[createRandom(length, i)];\r\n            remove(uint256(indexOf(typeArray, subOpType[i])), typeArray);\r\n            length -= 1;\r\n        }\r\n\r\n        if (isFourLine == 0) {\r\n            subOpType[3] = 0;\r\n        }\r\n\r\n        return subOpType;\r\n    }\r\n\r\n    function getSubOpValue(uint256[4] memory subOpType) public view returns (uint256[4] memory) {\r\n        uint256[40] memory valueArray = \r\n            [uint256(140), 160, 180, 190, \r\n                2090, 2390, 2690, 2990, \r\n                160, 190, 210, 230, \r\n                41, 47, 53, 58,\r\n                41, 47, 53, 58, \r\n                51, 58, 66, 73, \r\n                27, 31, 35, 39, \r\n                54, 62, 70, 78, \r\n                160, 190, 210, 230, \r\n                45, 52, 58, 65];\r\n        uint256[4] memory subOpValue = [uint256(0), 0, 0, 0];\r\n        \r\n        uint256 offset;\r\n        for (uint256 i = 0; i < 4; i++) {\r\n            if (subOpType[i] == 0) { continue; }\r\n\r\n            offset = uint256(createRandom(4, i));\r\n            subOpValue[i] = valueArray[(subOpType[i]-1) * 4 + offset];\r\n        }\r\n\r\n        return subOpValue;\r\n    }\r\n\r\n    function createRandom(uint number, uint randNonce) public view returns(uint) {\r\n        return uint(keccak256(abi.encodePacked(block.timestamp, msg.sender, randNonce))) % number;\r\n    }\r\n\r\n    function enhance(uint256 tokenId) public {\r\n        Relic storage relic = _tokenDetails[tokenId];\r\n\r\n        uint256 targetIndex = createRandom(4, 0);\r\n        uint256 offsetIndex = createRandom(4, 1);\r\n        uint256 targetType = 0;\r\n        uint256 targetValue = 0;\r\n        uint256[10] memory typeArray = [uint256(1), 2, 3, 4, 5, 6, 7, 8, 9, 10];\r\n        uint256[40] memory valueArray = \r\n            [uint256(140), 160, 180, 190, \r\n                2090, 2390, 2690, 2990, \r\n                160, 190, 210, 230, \r\n                41, 47, 53, 58,\r\n                41, 47, 53, 58, \r\n                51, 58, 66, 73, \r\n                27, 31, 35, 39, \r\n                54, 62, 70, 78, \r\n                160, 190, 210, 230, \r\n                45, 52, 58, 65];\r\n        uint length = 10;\r\n\r\n        if (relic.level % 4 == 3) {\r\n            if (relic.subOpType[3] == 0) {\r\n                for (uint256 i = 0; i < 3; i++) {\r\n                    remove(uint256(indexOf(typeArray, relic.subOpType[i])), typeArray);\r\n                    length -= 1;\r\n                }\r\n                targetIndex = 3;\r\n                targetType = createRandom(length, 2);\r\n                relic.subOpType[3] = targetType;        \r\n            }\r\n            else {\r\n                targetType = relic.subOpType[targetIndex];\r\n            }\r\n\r\n            targetValue = valueArray[(targetType-1) * 4 + offsetIndex];\r\n            relic.subOpValue[targetIndex] += targetValue;\r\n        }\r\n\r\n        relic.level += 1;\r\n    }\r\n\r\n    function getAllTokensForUser(address user) public view returns (uint256[] memory) {\r\n        uint256 tokenCount = 0;\r\n        uint256 j;\r\n        for(j = 0; j < nextId; j++) {\r\n            tokenCount = tokenCount + balanceOf(user, j);\r\n        }\r\n        if(tokenCount == 0) {\r\n            return new uint256[](0);\r\n        }\r\n        else {\r\n            uint[] memory result = new uint256[](tokenCount);\r\n            uint256 totalPets = nextId;\r\n            uint256 resultIndex = 0;\r\n            uint256 i;\r\n            for(i = 0; i < totalPets; i++) {\r\n                if(_ownerOf(i)) {\r\n                    result[resultIndex] = i;\r\n                    resultIndex++; \r\n                }\r\n            }\r\n            return result;\r\n        }\r\n    }\r\n\r\n    function remove(uint256 index, uint256[10] memory array) public pure {\r\n        for(uint i = index; i < array.length-1; i++) {\r\n            array[i] = array[i+1];\r\n        }\r\n    }\r\n\r\n    function _beforeTokenTransfer(address operator, address from, address to, uint256[] memory ids, uint256[] memory amounts, string memory data) public view onlyOwner {\r\n        Relic storage relic = _tokenDetails[ids[0]];\r\n    }\r\n\r\n    function _ownerOf(uint256 tokenId) internal view returns (bool) {\r\n        return balanceOf(msg.sender, tokenId) != 0;\r\n    }\r\n}\r\n\r\n\r\n",
  "sourcePath": "C:\\Users\\mario\\Desktop\\NFTG\\contracts\\Token.sol",
  "compiler": {
    "name": "solc",
    "version": "0.8.12+commit.f00d7308.Emscripten.clang"
  },
  "schemaVersion": "3.4.5",
  "updatedAt": "2022-04-10T14:26:04.644Z",
  "networkType": "ethereum",
  "devdoc": {
    "kind": "dev",
    "methods": {
      "balanceOf(address,uint256)": {
        "details": "See {IERC1155-balanceOf}. Requirements: - `account` cannot be the zero address."
      },
      "balanceOfBatch(address[],uint256[])": {
        "details": "See {IERC1155-balanceOfBatch}. Requirements: - `accounts` and `ids` must have the same length."
      },
      "isApprovedForAll(address,address)": {
        "details": "See {IERC1155-isApprovedForAll}."
      },
      "owner()": {
        "details": "Returns the address of the current owner."
      },
      "renounceOwnership()": {
        "details": "Leaves the contract without owner. It will not be possible to call `onlyOwner` functions anymore. Can only be called by the current owner. NOTE: Renouncing ownership will leave the contract without an owner, thereby removing any functionality that is only available to the owner."
      },
      "safeBatchTransferFrom(address,address,uint256[],uint256[],bytes)": {
        "details": "See {IERC1155-safeBatchTransferFrom}."
      },
      "safeTransferFrom(address,address,uint256,uint256,bytes)": {
        "details": "See {IERC1155-safeTransferFrom}."
      },
      "setApprovalForAll(address,bool)": {
        "details": "See {IERC1155-setApprovalForAll}."
      },
      "supportsInterface(bytes4)": {
        "details": "See {IERC165-supportsInterface}."
      },
      "transferOwnership(address)": {
        "details": "Transfers ownership of the contract to a new account (`newOwner`). Can only be called by the current owner."
      },
      "uri(uint256)": {
        "details": "See {IERC1155MetadataURI-uri}. This implementation returns the same URI for *all* token types. It relies on the token type ID substitution mechanism https://eips.ethereum.org/EIPS/eip-1155#metadata[defined in the EIP]. Clients calling this function must replace the `\\{id\\}` substring with the actual token type ID."
      }
    },
    "version": 1
  },
  "userdoc": {
    "kind": "user",
    "methods": {},
    "version": 1
  }
}