{
  "contractName": "Token",
  "abi": [
    {
      "inputs": [
        {
          "internalType": "string",
          "name": "name",
          "type": "string"
        },
        {
          "internalType": "string",
          "name": "symbol",
          "type": "string"
        },
        {
          "internalType": "string",
          "name": "uri",
          "type": "string"
        }
      ],
      "stateMutability": "nonpayable",
      "type": "constructor"
    },
    {
      "anonymous": false,
      "inputs": [
        {
          "indexed": true,
          "internalType": "address",
          "name": "account",
          "type": "address"
        },
        {
          "indexed": true,
          "internalType": "address",
          "name": "operator",
          "type": "address"
        },
        {
          "indexed": false,
          "internalType": "bool",
          "name": "approved",
          "type": "bool"
        }
      ],
      "name": "ApprovalForAll",
      "type": "event"
    },
    {
      "anonymous": false,
      "inputs": [
        {
          "indexed": true,
          "internalType": "address",
          "name": "previousOwner",
          "type": "address"
        },
        {
          "indexed": true,
          "internalType": "address",
          "name": "newOwner",
          "type": "address"
        }
      ],
      "name": "OwnershipTransferred",
      "type": "event"
    },
    {
      "anonymous": false,
      "inputs": [
        {
          "indexed": true,
          "internalType": "address",
          "name": "operator",
          "type": "address"
        },
        {
          "indexed": true,
          "internalType": "address",
          "name": "from",
          "type": "address"
        },
        {
          "indexed": true,
          "internalType": "address",
          "name": "to",
          "type": "address"
        },
        {
          "indexed": false,
          "internalType": "uint256[]",
          "name": "ids",
          "type": "uint256[]"
        },
        {
          "indexed": false,
          "internalType": "uint256[]",
          "name": "values",
          "type": "uint256[]"
        }
      ],
      "name": "TransferBatch",
      "type": "event"
    },
    {
      "anonymous": false,
      "inputs": [
        {
          "indexed": true,
          "internalType": "address",
          "name": "operator",
          "type": "address"
        },
        {
          "indexed": true,
          "internalType": "address",
          "name": "from",
          "type": "address"
        },
        {
          "indexed": true,
          "internalType": "address",
          "name": "to",
          "type": "address"
        },
        {
          "indexed": false,
          "internalType": "uint256",
          "name": "id",
          "type": "uint256"
        },
        {
          "indexed": false,
          "internalType": "uint256",
          "name": "value",
          "type": "uint256"
        }
      ],
      "name": "TransferSingle",
      "type": "event"
    },
    {
      "anonymous": false,
      "inputs": [
        {
          "indexed": false,
          "internalType": "string",
          "name": "value",
          "type": "string"
        },
        {
          "indexed": true,
          "internalType": "uint256",
          "name": "id",
          "type": "uint256"
        }
      ],
      "name": "URI",
      "type": "event"
    },
    {
      "inputs": [
        {
          "internalType": "address",
          "name": "account",
          "type": "address"
        },
        {
          "internalType": "uint256",
          "name": "id",
          "type": "uint256"
        }
      ],
      "name": "balanceOf",
      "outputs": [
        {
          "internalType": "uint256",
          "name": "",
          "type": "uint256"
        }
      ],
      "stateMutability": "view",
      "type": "function",
      "constant": true
    },
    {
      "inputs": [
        {
          "internalType": "address[]",
          "name": "accounts",
          "type": "address[]"
        },
        {
          "internalType": "uint256[]",
          "name": "ids",
          "type": "uint256[]"
        }
      ],
      "name": "balanceOfBatch",
      "outputs": [
        {
          "internalType": "uint256[]",
          "name": "",
          "type": "uint256[]"
        }
      ],
      "stateMutability": "view",
      "type": "function",
      "constant": true
    },
    {
      "inputs": [
        {
          "internalType": "address",
          "name": "account",
          "type": "address"
        },
        {
          "internalType": "address",
          "name": "operator",
          "type": "address"
        }
      ],
      "name": "isApprovedForAll",
      "outputs": [
        {
          "internalType": "bool",
          "name": "",
          "type": "bool"
        }
      ],
      "stateMutability": "view",
      "type": "function",
      "constant": true
    },
    {
      "inputs": [],
      "name": "owner",
      "outputs": [
        {
          "internalType": "address",
          "name": "",
          "type": "address"
        }
      ],
      "stateMutability": "view",
      "type": "function",
      "constant": true
    },
    {
      "inputs": [],
      "name": "renounceOwnership",
      "outputs": [],
      "stateMutability": "nonpayable",
      "type": "function"
    },
    {
      "inputs": [
        {
          "internalType": "address",
          "name": "from",
          "type": "address"
        },
        {
          "internalType": "address",
          "name": "to",
          "type": "address"
        },
        {
          "internalType": "uint256[]",
          "name": "ids",
          "type": "uint256[]"
        },
        {
          "internalType": "uint256[]",
          "name": "amounts",
          "type": "uint256[]"
        },
        {
          "internalType": "bytes",
          "name": "data",
          "type": "bytes"
        }
      ],
      "name": "safeBatchTransferFrom",
      "outputs": [],
      "stateMutability": "nonpayable",
      "type": "function"
    },
    {
      "inputs": [
        {
          "internalType": "address",
          "name": "from",
          "type": "address"
        },
        {
          "internalType": "address",
          "name": "to",
          "type": "address"
        },
        {
          "internalType": "uint256",
          "name": "id",
          "type": "uint256"
        },
        {
          "internalType": "uint256",
          "name": "amount",
          "type": "uint256"
        },
        {
          "internalType": "bytes",
          "name": "data",
          "type": "bytes"
        }
      ],
      "name": "safeTransferFrom",
      "outputs": [],
      "stateMutability": "nonpayable",
      "type": "function"
    },
    {
      "inputs": [
        {
          "internalType": "address",
          "name": "operator",
          "type": "address"
        },
        {
          "internalType": "bool",
          "name": "approved",
          "type": "bool"
        }
      ],
      "name": "setApprovalForAll",
      "outputs": [],
      "stateMutability": "nonpayable",
      "type": "function"
    },
    {
      "inputs": [
        {
          "internalType": "bytes4",
          "name": "interfaceId",
          "type": "bytes4"
        }
      ],
      "name": "supportsInterface",
      "outputs": [
        {
          "internalType": "bool",
          "name": "",
          "type": "bool"
        }
      ],
      "stateMutability": "view",
      "type": "function",
      "constant": true
    },
    {
      "inputs": [
        {
          "internalType": "address",
          "name": "newOwner",
          "type": "address"
        }
      ],
      "name": "transferOwnership",
      "outputs": [],
      "stateMutability": "nonpayable",
      "type": "function"
    },
    {
      "inputs": [
        {
          "internalType": "uint256",
          "name": "",
          "type": "uint256"
        }
      ],
      "name": "uri",
      "outputs": [
        {
          "internalType": "string",
          "name": "",
          "type": "string"
        }
      ],
      "stateMutability": "view",
      "type": "function",
      "constant": true
    },
    {
      "inputs": [
        {
          "internalType": "uint256",
          "name": "tokenId",
          "type": "uint256"
        }
      ],
      "name": "getTokenDetails",
      "outputs": [
        {
          "components": [
            {
              "internalType": "uint256",
              "name": "part",
              "type": "uint256"
            },
            {
              "internalType": "uint256",
              "name": "set",
              "type": "uint256"
            },
            {
              "internalType": "uint256",
              "name": "stars",
              "type": "uint256"
            },
            {
              "components": [
                {
                  "internalType": "uint256",
                  "name": "id",
                  "type": "uint256"
                },
                {
                  "internalType": "uint256",
                  "name": "value",
                  "type": "uint256"
                }
              ],
              "internalType": "struct Token.MainOp",
              "name": "main",
              "type": "tuple"
            },
            {
              "components": [
                {
                  "internalType": "uint256[4]",
                  "name": "id",
                  "type": "uint256[4]"
                },
                {
                  "internalType": "uint256[4]",
                  "name": "value",
                  "type": "uint256[4]"
                },
                {
                  "internalType": "uint256[10]",
                  "name": "cdd",
                  "type": "uint256[10]"
                },
                {
                  "internalType": "uint256",
                  "name": "cddLen",
                  "type": "uint256"
                }
              ],
              "internalType": "struct Token.SubOp",
              "name": "sub",
              "type": "tuple"
            },
            {
              "components": [
                {
                  "internalType": "uint256",
                  "name": "level",
                  "type": "uint256"
                },
                {
                  "internalType": "uint256",
                  "name": "total",
                  "type": "uint256"
                },
                {
                  "internalType": "uint256",
                  "name": "current",
                  "type": "uint256"
                },
                {
                  "internalType": "uint256",
                  "name": "next",
                  "type": "uint256"
                },
                {
                  "internalType": "uint256",
                  "name": "nextTotal",
                  "type": "uint256"
                }
              ],
              "internalType": "struct Token.Exp",
              "name": "exp",
              "type": "tuple"
            }
          ],
          "internalType": "struct Token.Relic",
          "name": "",
          "type": "tuple"
        }
      ],
      "stateMutability": "view",
      "type": "function",
      "constant": true
    },
    {
      "inputs": [
        {
          "internalType": "uint256[10]",
          "name": "arr",
          "type": "uint256[10]"
        },
        {
          "internalType": "uint256",
          "name": "searchFor",
          "type": "uint256"
        }
      ],
      "name": "indexOf",
      "outputs": [
        {
          "internalType": "int256",
          "name": "",
          "type": "int256"
        }
      ],
      "stateMutability": "pure",
      "type": "function",
      "constant": true
    },
    {
      "inputs": [
        {
          "internalType": "uint256",
          "name": "location",
          "type": "uint256"
        },
        {
          "internalType": "uint256",
          "name": "difficulty",
          "type": "uint256"
        }
      ],
      "name": "mint",
      "outputs": [],
      "stateMutability": "nonpayable",
      "type": "function"
    },
    {
      "inputs": [],
      "name": "getRandomPart",
      "outputs": [
        {
          "internalType": "uint256",
          "name": "",
          "type": "uint256"
        }
      ],
      "stateMutability": "view",
      "type": "function",
      "constant": true
    },
    {
      "inputs": [
        {
          "internalType": "uint256",
          "name": "location",
          "type": "uint256"
        }
      ],
      "name": "getRandomSet",
      "outputs": [
        {
          "internalType": "uint256",
          "name": "",
          "type": "uint256"
        }
      ],
      "stateMutability": "view",
      "type": "function",
      "constant": true
    },
    {
      "inputs": [
        {
          "internalType": "uint256",
          "name": "diff",
          "type": "uint256"
        }
      ],
      "name": "getStars",
      "outputs": [
        {
          "internalType": "uint256",
          "name": "",
          "type": "uint256"
        }
      ],
      "stateMutability": "pure",
      "type": "function",
      "constant": true
    },
    {
      "inputs": [
        {
          "internalType": "uint256",
          "name": "part",
          "type": "uint256"
        }
      ],
      "name": "getMainStats",
      "outputs": [
        {
          "components": [
            {
              "internalType": "uint256",
              "name": "id",
              "type": "uint256"
            },
            {
              "internalType": "uint256",
              "name": "value",
              "type": "uint256"
            }
          ],
          "internalType": "struct Token.MainOp",
          "name": "",
          "type": "tuple"
        }
      ],
      "stateMutability": "view",
      "type": "function",
      "constant": true
    },
    {
      "inputs": [
        {
          "internalType": "uint256",
          "name": "part",
          "type": "uint256"
        }
      ],
      "name": "getMainOpType",
      "outputs": [
        {
          "internalType": "uint256",
          "name": "",
          "type": "uint256"
        }
      ],
      "stateMutability": "view",
      "type": "function",
      "constant": true
    },
    {
      "inputs": [
        {
          "internalType": "uint256",
          "name": "mainOpType",
          "type": "uint256"
        }
      ],
      "name": "getMainOpValue",
      "outputs": [
        {
          "internalType": "uint256",
          "name": "",
          "type": "uint256"
        }
      ],
      "stateMutability": "view",
      "type": "function",
      "constant": true
    },
    {
      "inputs": [
        {
          "internalType": "uint256",
          "name": "mainOpType",
          "type": "uint256"
        }
      ],
      "name": "getSubStats",
      "outputs": [
        {
          "components": [
            {
              "internalType": "uint256[4]",
              "name": "id",
              "type": "uint256[4]"
            },
            {
              "internalType": "uint256[4]",
              "name": "value",
              "type": "uint256[4]"
            },
            {
              "internalType": "uint256[10]",
              "name": "cdd",
              "type": "uint256[10]"
            },
            {
              "internalType": "uint256",
              "name": "cddLen",
              "type": "uint256"
            }
          ],
          "internalType": "struct Token.SubOp",
          "name": "",
          "type": "tuple"
        }
      ],
      "stateMutability": "view",
      "type": "function",
      "constant": true
    },
    {
      "inputs": [
        {
          "internalType": "uint256",
          "name": "mainOpType",
          "type": "uint256"
        }
      ],
      "name": "getSubOpType",
      "outputs": [
        {
          "internalType": "uint256[4]",
          "name": "",
          "type": "uint256[4]"
        },
        {
          "internalType": "uint256[10]",
          "name": "",
          "type": "uint256[10]"
        },
        {
          "internalType": "uint256",
          "name": "",
          "type": "uint256"
        }
      ],
      "stateMutability": "view",
      "type": "function",
      "constant": true
    },
    {
      "inputs": [
        {
          "internalType": "uint256[4]",
          "name": "subOpType",
          "type": "uint256[4]"
        }
      ],
      "name": "getSubOpValue",
      "outputs": [
        {
          "internalType": "uint256[4]",
          "name": "",
          "type": "uint256[4]"
        }
      ],
      "stateMutability": "view",
      "type": "function",
      "constant": true
    },
    {
      "inputs": [],
      "name": "getExpStats",
      "outputs": [
        {
          "components": [
            {
              "internalType": "uint256",
              "name": "level",
              "type": "uint256"
            },
            {
              "internalType": "uint256",
              "name": "total",
              "type": "uint256"
            },
            {
              "internalType": "uint256",
              "name": "current",
              "type": "uint256"
            },
            {
              "internalType": "uint256",
              "name": "next",
              "type": "uint256"
            },
            {
              "internalType": "uint256",
              "name": "nextTotal",
              "type": "uint256"
            }
          ],
          "internalType": "struct Token.Exp",
          "name": "",
          "type": "tuple"
        }
      ],
      "stateMutability": "view",
      "type": "function",
      "constant": true
    },
    {
      "inputs": [
        {
          "internalType": "uint256",
          "name": "tokenId",
          "type": "uint256"
        },
        {
          "internalType": "uint256",
          "name": "add",
          "type": "uint256"
        }
      ],
      "name": "enhance",
      "outputs": [],
      "stateMutability": "nonpayable",
      "type": "function"
    },
    {
      "inputs": [
        {
          "internalType": "uint256",
          "name": "number",
          "type": "uint256"
        },
        {
          "internalType": "uint256",
          "name": "randNonce",
          "type": "uint256"
        }
      ],
      "name": "createRandom",
      "outputs": [
        {
          "internalType": "uint256",
          "name": "",
          "type": "uint256"
        }
      ],
      "stateMutability": "view",
      "type": "function",
      "constant": true
    },
    {
      "inputs": [
        {
          "internalType": "address",
          "name": "user",
          "type": "address"
        }
      ],
      "name": "getAllTokensForUser",
      "outputs": [
        {
          "internalType": "uint256[]",
          "name": "",
          "type": "uint256[]"
        }
      ],
      "stateMutability": "view",
      "type": "function",
      "constant": true
    },
    {
      "inputs": [
        {
          "internalType": "uint256",
          "name": "index",
          "type": "uint256"
        },
        {
          "internalType": "uint256[10]",
          "name": "array",
          "type": "uint256[10]"
        }
      ],
      "name": "remove",
      "outputs": [
        {
          "internalType": "uint256[10]",
          "name": "",
          "type": "uint256[10]"
        }
      ],
      "stateMutability": "pure",
      "type": "function",
      "constant": true
    },
    {
      "inputs": [
        {
          "internalType": "uint256",
          "name": "element",
          "type": "uint256"
        },
        {
          "internalType": "uint256[10]",
          "name": "array",
          "type": "uint256[10]"
        }
      ],
      "name": "removeElement",
      "outputs": [
        {
          "internalType": "uint256[10]",
          "name": "",
          "type": "uint256[10]"
        }
      ],
      "stateMutability": "pure",
      "type": "function",
      "constant": true
    },
    {
      "inputs": [
        {
          "internalType": "address",
          "name": "operator",
          "type": "address"
        },
        {
          "internalType": "address",
          "name": "from",
          "type": "address"
        },
        {
          "internalType": "address",
          "name": "to",
          "type": "address"
        },
        {
          "internalType": "uint256[]",
          "name": "ids",
          "type": "uint256[]"
        },
        {
          "internalType": "uint256[]",
          "name": "amounts",
          "type": "uint256[]"
        },
        {
          "internalType": "string",
          "name": "data",
          "type": "string"
        }
      ],
      "name": "_beforeTokenTransfer",
      "outputs": [],
      "stateMutability": "view",
      "type": "function",
      "constant": true
    }
  ],
  "bytecode": "0x6080604052604051806102800160405280610bb88152602001610e8d8152602001611149815260200161141e815260200161170c8152602001611a138152602001611d4c815260200161209e8152602001612409815260200161278d8152602001612b2a8152602001612ef981526020016132e18152602001613b2e81526020016144c08152602001614f978152602001615bcc81526020016169aa815260200161794a8152602001618af78152506004906014620000c092919062000559565b50604051806102800160405280610bb88152602001611a458152602001612b8e8152602001613fac81526020016156b881526020016170cb8152602001618e17815260200161aeb5815260200161d2be815260200161fa4b81526020016201257581526020016201546e81526020016201874f81526020016201c27d81526020016202073d8152602001620256d481526020016202b2a0815260200162031c4a81526020016203959481526020016204208b81525060189060146200018792919062000559565b50604051806105000160405280608c815260200160a0815260200160b4815260200160be815260200161082a81526020016109568152602001610a828152602001610bae815260200160a0815260200160be815260200160d2815260200160e6815260200160298152602001602f815260200160358152602001603a815260200160298152602001602f815260200160358152602001603a815260200160338152602001603a81526020016042815260200160498152602001601b8152602001601f8152602001602381526020016027815260200160368152602001603e815260200160468152602001604e815260200160a0815260200160be815260200160d2815260200160e68152602001602d815260200160348152602001603a81526020016041815250602c906028620002c09291906200059e565b506040518061024001604052806101d68152602001611c02815260200160008152602001604681526020016046815260200160578152602001602f8152602001605d81526020016101188152602001604e815260200160578152602001604681526020016046815260200160468152602001604681526020016046815260200160468152602001603681525060549060126200035e929190620005e3565b50604051806102400160405280608481526020016107ef815260200160008152602001601481526020016014815260200160188152602001600d8152602001601a8152602001604f81526020016016815260200160198152602001601481526020016014815260200160148152602001601481526020016014815260200160148152602001600f8152506066906012620003fa929190620005e3565b5060006078553480156200040d57600080fd5b50604051620056ca380380620056ca833981810160405281019062000433919062000875565b8062000445816200046f60201b60201c565b50620004666200045a6200048b60201b60201c565b6200049360201b60201c565b50505062000993565b80600290805190602001906200048792919062000628565b5050565b600033905090565b6000600360009054906101000a900473ffffffffffffffffffffffffffffffffffffffff16905081600360006101000a81548173ffffffffffffffffffffffffffffffffffffffff021916908373ffffffffffffffffffffffffffffffffffffffff1602179055508173ffffffffffffffffffffffffffffffffffffffff168173ffffffffffffffffffffffffffffffffffffffff167f8be0079c531659141344cd1fd0a4f28419497f9722a3daafe3b4186f6b6457e060405160405180910390a35050565b82601481019282156200058b579160200282015b828111156200058a5782518255916020019190600101906200056d565b5b5090506200059a9190620006b9565b5090565b8260288101928215620005d0579160200282015b82811115620005cf578251825591602001919060010190620005b2565b5b509050620005df9190620006b9565b5090565b826012810192821562000615579160200282015b8281111562000614578251825591602001919060010190620005f7565b5b509050620006249190620006b9565b5090565b82805462000636906200095d565b90600052602060002090601f0160209004810192826200065a5760008555620006a6565b82601f106200067557805160ff1916838001178555620006a6565b82800160010185558215620006a6579182015b82811115620006a557825182559160200191906001019062000688565b5b509050620006b59190620006b9565b5090565b5b80821115620006d4576000816000905550600101620006ba565b5090565b6000604051905090565b600080fd5b600080fd5b600080fd5b600080fd5b6000601f19601f8301169050919050565b7f4e487b7100000000000000000000000000000000000000000000000000000000600052604160045260246000fd5b6200074182620006f6565b810181811067ffffffffffffffff8211171562000763576200076262000707565b5b80604052505050565b600062000778620006d8565b905062000786828262000736565b919050565b600067ffffffffffffffff821115620007a957620007a862000707565b5b620007b482620006f6565b9050602081019050919050565b60005b83811015620007e1578082015181840152602081019050620007c4565b83811115620007f1576000848401525b50505050565b60006200080e62000808846200078b565b6200076c565b9050828152602081018484840111156200082d576200082c620006f1565b5b6200083a848285620007c1565b509392505050565b600082601f8301126200085a5762000859620006ec565b5b81516200086c848260208601620007f7565b91505092915050565b600080600060608486031215620008915762000890620006e2565b5b600084015167ffffffffffffffff811115620008b257620008b1620006e7565b5b620008c08682870162000842565b935050602084015167ffffffffffffffff811115620008e457620008e3620006e7565b5b620008f28682870162000842565b925050604084015167ffffffffffffffff811115620009165762000915620006e7565b5b620009248682870162000842565b9150509250925092565b7f4e487b7100000000000000000000000000000000000000000000000000000000600052602260045260246000fd5b600060028204905060018216806200097657607f821691505b602082108114156200098d576200098c6200092e565b5b50919050565b614d2780620009a36000396000f3fe608060405234801561001057600080fd5b50600436106101d95760003560e01c806379e492c911610104578063adf04f20116100a2578063e32a440511610071578063e32a440514610600578063e985e9c514610630578063f242432a14610660578063f2fde38b1461067c576101d9565b8063adf04f2014610552578063c1e0372814610582578063c9523f54146105b2578063d46feaaf146105e2576101d9565b80638da5cb5b116100de5780638da5cb5b146104b6578063940b0813146104d457806394cc25e314610504578063a22cb46514610536576101d9565b806379e492c91461042657806382de8fe9146104565780638560389e14610486576101d9565b80634987b8ab1161017c578063688e87501161014b578063688e8750146103b25780636ab6236f146103d0578063715018a6146103ec57806371afd2a3146103f6576101d9565b80634987b8ab146103065780634e1273f4146103365780635c7e773214610366578063640a075914610382576101d9565b80631b2ef1ca116101b85780631b2ef1ca1461026e5780632eb2c2d61461028a57806332282af5146102a6578063465ee9e7146102d6576101d9565b8062fdd58e146101de57806301ffc9a71461020e5780630e89341c1461023e575b600080fd5b6101f860048036038101906101f39190612e59565b610698565b6040516102059190612ea8565b60405180910390f35b61022860048036038101906102239190612f1b565b610761565b6040516102359190612f63565b60405180910390f35b61025860048036038101906102539190612f7e565b610843565b6040516102659190613044565b60405180910390f35b61028860048036038101906102839190613066565b6108d7565b005b6102a4600480360381019061029f91906132a3565b610aff565b005b6102c060048036038101906102bb9190613423565b610ba0565b6040516102cd91906134fb565b60405180910390f35b6102f060048036038101906102eb9190612f7e565b610c9f565b6040516102fd9190613654565b60405180910390f35b610320600480360381019061031b9190613721565b610cfa565b60405161032d919061377c565b60405180910390f35b610350600480360381019061034b919061385a565b610d71565b60405161035d9190613969565b60405180910390f35b610380600480360381019061037b9190613066565b610e8a565b005b61039c60048036038101906103979190613066565b61115c565b6040516103a99190612ea8565b60405180910390f35b6103ba61119f565b6040516103c791906139f3565b60405180910390f35b6103ea60048036038101906103e59190613aaf565b611216565b005b6103f46112cd565b005b610410600480360381019061040b9190613b90565b611355565b60405161041d9190613c33565b60405180910390f35b610440600480360381019061043b9190612f7e565b61137b565b60405161044d9190612ea8565b60405180910390f35b610470600480360381019061046b9190613c4f565b6113ac565b60405161047d9190613969565b60405180910390f35b6104a0600480360381019061049b9190612f7e565b611501565b6040516104ad9190612ea8565b60405180910390f35b6104be611531565b6040516104cb9190613c8b565b60405180910390f35b6104ee60048036038101906104e99190612f7e565b61155b565b6040516104fb9190613cd5565b60405180910390f35b61051e60048036038101906105199190612f7e565b6115a1565b60405161052d93929190613cf0565b60405180910390f35b610550600480360381019061054b9190613d55565b61175d565b005b61056c60048036038101906105679190612f7e565b611773565b6040516105799190612ea8565b60405180910390f35b61059c60048036038101906105979190612f7e565b611783565b6040516105a99190613f01565b60405180910390f35b6105cc60048036038101906105c79190613b90565b611929565b6040516105d99190613c33565b60405180910390f35b6105ea6119a9565b6040516105f79190612ea8565b60405180910390f35b61061a60048036038101906106159190612f7e565b6119c1565b6040516106279190612ea8565b60405180910390f35b61064a60048036038101906106459190613f1d565b611b66565b6040516106579190612f63565b60405180910390f35b61067a60048036038101906106759190613f5d565b611bfa565b005b61069660048036038101906106919190613c4f565b611c9b565b005b60008073ffffffffffffffffffffffffffffffffffffffff168373ffffffffffffffffffffffffffffffffffffffff161415610709576040517f08c379a000000000000000000000000000000000000000000000000000000000815260040161070090614066565b60405180910390fd5b60008083815260200190815260200160002060008473ffffffffffffffffffffffffffffffffffffffff1673ffffffffffffffffffffffffffffffffffffffff16815260200190815260200160002054905092915050565b60007fd9b67a26000000000000000000000000000000000000000000000000000000007bffffffffffffffffffffffffffffffffffffffffffffffffffffffff1916827bffffffffffffffffffffffffffffffffffffffffffffffffffffffff1916148061082c57507f0e89341c000000000000000000000000000000000000000000000000000000007bffffffffffffffffffffffffffffffffffffffffffffffffffffffff1916827bffffffffffffffffffffffffffffffffffffffffffffffffffffffff1916145b8061083c575061083b82611d93565b5b9050919050565b606060028054610852906140b5565b80601f016020809104026020016040519081016040528092919081815260200182805461087e906140b5565b80156108cb5780601f106108a0576101008083540402835291602001916108cb565b820191906000526020600020905b8154815290600101906020018083116108ae57829003601f168201915b50505050509050919050565b6108df611dfd565b73ffffffffffffffffffffffffffffffffffffffff166108fd611531565b73ffffffffffffffffffffffffffffffffffffffff1614610953576040517f08c379a000000000000000000000000000000000000000000000000000000000815260040161094a90614133565b60405180910390fd5b600061095e8361137b565b9050600061096a6119a9565b9050600061097784611773565b905060006109848361155b565b905060006109958260000151610c9f565b905060006109a161119f565b90506040518060c001604052808681526020018781526020018581526020018481526020018381526020018281525060796000607854815260200190815260200160002060008201518160000155602082015181600101556040820151816002015560608201518160030160008201518160000155602082015181600101555050608082015181600501600082015181600001906004610a42929190612bbf565b50602082015181600401906004610a5a929190612bbf565b5060408201518160080190600a610a72929190612bff565b5060608201518160120155505060a08201518160180160008201518160000155602082015181600101556040820151816002015560608201518160030155608082015181600401555050905050610add33607854600160405180602001604052806000815250611e05565b60786000815480929190610af090614182565b91905055505050505050505050565b610b07611dfd565b73ffffffffffffffffffffffffffffffffffffffff168573ffffffffffffffffffffffffffffffffffffffff161480610b4d5750610b4c85610b47611dfd565b611b66565b5b610b8c576040517f08c379a0000000000000000000000000000000000000000000000000000000008152600401610b839061423d565b60405180910390fd5b610b998585858585611f9b565b5050505050565b610ba8612c3f565b6000604051806080016040528060008152602001600081526020016000815260200160008152509050600080600090505b6004811015610c94576000858260048110610bf757610bf661425d565b5b60200201511415610c0757610c81565b610c1260048261115c565b9150602c8260046001888560048110610c2e57610c2d61425d565b5b6020020151610c3d919061428c565b610c4791906142c0565b610c51919061431a565b60288110610c6257610c6161425d565b5b0154838260048110610c7757610c7661425d565b5b6020020181815250505b8080610c8c90614182565b915050610bd9565b508192505050919050565b610ca7612c61565b6000806000610cb5856115a1565b9250925092506000610cc684610ba0565b9050600060405180608001604052808681526020018381526020018581526020018481525090508095505050505050919050565b600080600090505b600a811215610d4657828482600a8110610d1f57610d1e61425d565b5b60200201511415610d335780915050610d6b565b8080610d3e90614370565b915050610d02565b507fffffffffffffffffffffffffffffffffffffffffffffffffffffffffffffffff90505b92915050565b60608151835114610db7576040517f08c379a0000000000000000000000000000000000000000000000000000000008152600401610dae9061442b565b60405180910390fd5b6000835167ffffffffffffffff811115610dd457610dd36130ab565b5b604051908082528060200260200182016040528015610e025781602001602082028036833780820191505090505b50905060005b8451811015610e7f57610e4f858281518110610e2757610e2661425d565b5b6020026020010151858381518110610e4257610e4161425d565b5b6020026020010151610698565b828281518110610e6257610e6161425d565b5b60200260200101818152505080610e7890614182565b9050610e08565b508091505092915050565b60006079600084815260200190815260200160002090506000816003019050600082600501905060008360180190506000610ec76004600061115c565b90506000610ed76004600161115c565b90506000806014856000015410156111505788856001016000828254610efd919061431a565b9250508190555088856002016000828254610f18919061431a565b92505081905550846003015485600201541061114f576000856000015490505b601481101561114d57856001015460188260148110610f5a57610f5961425d565b5b01541161108f576001866000016000828254610f76919061431a565b92505081905550600060048760000154610f90919061447a565b141561108a57600087600001600360048110610faf57610fae61425d565b5b01541415611005576003945086600801610fce8860120154600261115c565b600a8110610fdf57610fde61425d565b5b015492508287600001600360048110610ffb57610ffa61425d565b5b0181905550611020565b86600001856004811061101b5761101a61425d565b5b015492505b602c846004600186611032919061428c565b61103c91906142c0565b611046919061431a565b602881106110575761105661425d565b5b01549150818760040186600481106110725761107161425d565b5b016000828254611082919061431a565b925050819055505b61113a565b601860018261109e919061428c565b601481106110af576110ae61425d565b5b015486600101546110c0919061428c565b86600201819055506066600189600001546110db919061428c565b601281106110ec576110eb61425d565b5b0154816110f991906142c0565b88600101600082825461110c919061431a565b92505081905550600486600001546014811061112b5761112a61425d565b5b0154866003018190555061114d565b808061114590614182565b915050610f38565b505b5b50505050505050505050565b60008242338460405160200161117493929190614514565b6040516020818303038152906040528051906020012060001c611197919061447a565b905092915050565b6111a7612c9b565b600080600080600484601481106111c1576111c061425d565b5b015490506000601885601481106111db576111da61425d565b5b0154905060006040518060a0016040528087815260200185815260200186815260200184815260200183815250905080965050505050505090565b61121e611dfd565b73ffffffffffffffffffffffffffffffffffffffff1661123c611531565b73ffffffffffffffffffffffffffffffffffffffff1614611292576040517f08c379a000000000000000000000000000000000000000000000000000000000815260040161128990614133565b60405180910390fd5b600060796000856000815181106112ac576112ab61425d565b5b60200260200101518152602001908152602001600020905050505050505050565b6112d5611dfd565b73ffffffffffffffffffffffffffffffffffffffff166112f3611531565b73ffffffffffffffffffffffffffffffffffffffff1614611349576040517f08c379a000000000000000000000000000000000000000000000000000000000815260040161134090614133565b60405180910390fd5b61135360006122af565b565b61135d612cca565b61137061136a8385610cfa565b83611929565b915081905092915050565b60008061138a6002600061115c565b60028461139791906142c0565b6113a1919061431a565b905080915050919050565b60606000805b6078548110156113e6576113c68482610698565b826113d1919061431a565b915080806113de90614182565b9150506113b2565b600082141561144257600067ffffffffffffffff81111561140a576114096130ab565b5b6040519080825280602002602001820160405280156114385781602001602082028036833780820191505090505b50925050506114fc565b60008267ffffffffffffffff81111561145e5761145d6130ab565b5b60405190808252806020026020018201604052801561148c5781602001602082028036833780820191505090505b509050600060785490506000805b828110156114f2576114ab81612375565b156114df57808483815181106114c4576114c361425d565b5b60200260200101818152505081806114db90614182565b9250505b80806114ea90614182565b91505061149a565b8396505050505050505b919050565b6000806054600184611513919061428c565b601281106115245761152361425d565b5b0154905080915050919050565b6000600360009054906101000a900473ffffffffffffffffffffffffffffffffffffffff16905090565b611563612ced565b600061156e836119c1565b9050600061157b82611501565b905060006040518060400160405280848152602001838152509050809350505050919050565b6115a9612c3f565b6115b1612cca565b6000806040518060800160405280600081526020016000815260200160008152602001600081525090506000604051806101400160405280600181526020016002815260200160038152602001600481526020016005815260200160068152602001600781526020016008815260200160098152602001600a8152509050600061163d6002600061115c565b90506000600a90507fffffffffffffffffffffffffffffffffffffffffffffffffffffffffffffffff611670848a610cfa565b146116915761167f8884611355565b925060018161168e919061428c565b90505b60005b600481101561171f57836116a8838361115c565b600a81106116b9576116b861425d565b5b60200201518582600481106116d1576116d061425d565b5b6020020181815250506116fb8582600481106116f0576116ef61425d565b5b602002015185611355565b935060018261170a919061428c565b9150808061171790614182565b915050611694565b5060008214156117495760008460036004811061173f5761173e61425d565b5b6020020181815250505b838382965096509650505050509193909250565b61176f611768611dfd565b838361238b565b5050565b6000806005905080915050919050565b61178b612d07565b607960008381526020019081526020016000206040518060c001604052908160008201548152602001600182015481526020016002820154815260200160038201604051806040016040529081600082015481526020016001820154815250508152602001600582016040518060800160405290816000820160048060200260405190810160405280929190826004801561183b576020028201915b815481526020019060010190808311611827575b5050505050815260200160048201600480602002604051908101604052809291908260048015611880576020028201915b81548152602001906001019080831161186c575b5050505050815260200160088201600a806020026040519081016040528092919082600a80156118c5576020028201915b8154815260200190600101908083116118b1575b505050505081526020016012820154815250508152602001601882016040518060a001604052908160008201548152602001600182015481526020016002820154815260200160038201548152602001600482015481525050815250509050919050565b611931612cca565b60008390505b6001600a611945919061428c565b81101561199f578260018261195a919061431a565b600a811061196b5761196a61425d565b5b60200201518382600a81106119835761198261425d565b5b602002018181525050808061199790614182565b915050611937565b5081905092915050565b6000806119b86005600061115c565b90508091505090565b6000806000905060018314156119da5760029050611b5d565b60028314156119ec5760019050611b5c565b6003831415611a56576119fd612d4f565b6040518060a0016040528060048152602001600581526020016006815260200160098152602001600a815250905080611a386005600061115c565b60058110611a4957611a4861425d565b5b6020020151915050611b5b565b6004831415611aeb57611a67612d71565b60405180610160016040528060048152602001600581526020016006815260200160098152602001600b8152602001600c8152602001600d8152602001600e8152602001600f8152602001601081526020016011815250905080611acd600b600061115c565b600b8110611ade57611add61425d565b5b6020020151915050611b5a565b6005831415611b595760006040518060e001604052806004815260200160058152602001600681526020016007815260200160088152602001600981526020016012815250905080611b3f6007600061115c565b60078110611b5057611b4f61425d565b5b60200201519150505b5b5b5b5b80915050919050565b6000600160008473ffffffffffffffffffffffffffffffffffffffff1673ffffffffffffffffffffffffffffffffffffffff16815260200190815260200160002060008373ffffffffffffffffffffffffffffffffffffffff1673ffffffffffffffffffffffffffffffffffffffff16815260200190815260200160002060009054906101000a900460ff16905092915050565b611c02611dfd565b73ffffffffffffffffffffffffffffffffffffffff168573ffffffffffffffffffffffffffffffffffffffff161480611c485750611c4785611c42611dfd565b611b66565b5b611c87576040517f08c379a0000000000000000000000000000000000000000000000000000000008152600401611c7e906145c3565b60405180910390fd5b611c9485858585856124f8565b5050505050565b611ca3611dfd565b73ffffffffffffffffffffffffffffffffffffffff16611cc1611531565b73ffffffffffffffffffffffffffffffffffffffff1614611d17576040517f08c379a0000000000000000000000000000000000000000000000000000000008152600401611d0e90614133565b60405180910390fd5b600073ffffffffffffffffffffffffffffffffffffffff168173ffffffffffffffffffffffffffffffffffffffff161415611d87576040517f08c379a0000000000000000000000000000000000000000000000000000000008152600401611d7e90614655565b60405180910390fd5b611d90816122af565b50565b60007f01ffc9a7000000000000000000000000000000000000000000000000000000007bffffffffffffffffffffffffffffffffffffffffffffffffffffffff1916827bffffffffffffffffffffffffffffffffffffffffffffffffffffffff1916149050919050565b600033905090565b600073ffffffffffffffffffffffffffffffffffffffff168473ffffffffffffffffffffffffffffffffffffffff161415611e75576040517f08c379a0000000000000000000000000000000000000000000000000000000008152600401611e6c906146e7565b60405180910390fd5b6000611e7f611dfd565b9050611ea081600087611e918861277a565b611e9a8861277a565b876127f4565b8260008086815260200190815260200160002060008773ffffffffffffffffffffffffffffffffffffffff1673ffffffffffffffffffffffffffffffffffffffff1681526020019081526020016000206000828254611eff919061431a565b925050819055508473ffffffffffffffffffffffffffffffffffffffff16600073ffffffffffffffffffffffffffffffffffffffff168273ffffffffffffffffffffffffffffffffffffffff167fc3d58168c5ae7397731d063d5bbf3d657854427343f4c083240f7aacaa2d0f628787604051611f7d929190614707565b60405180910390a4611f94816000878787876127fc565b5050505050565b8151835114611fdf576040517f08c379a0000000000000000000000000000000000000000000000000000000008152600401611fd6906147a2565b60405180910390fd5b600073ffffffffffffffffffffffffffffffffffffffff168473ffffffffffffffffffffffffffffffffffffffff16141561204f576040517f08c379a000000000000000000000000000000000000000000000000000000000815260040161204690614834565b60405180910390fd5b6000612059611dfd565b90506120698187878787876127f4565b60005b845181101561221a57600085828151811061208a5761208961425d565b5b6020026020010151905060008583815181106120a9576120a861425d565b5b60200260200101519050600080600084815260200190815260200160002060008b73ffffffffffffffffffffffffffffffffffffffff1673ffffffffffffffffffffffffffffffffffffffff1681526020019081526020016000205490508181101561214a576040517f08c379a0000000000000000000000000000000000000000000000000000000008152600401612141906148c6565b60405180910390fd5b81810360008085815260200190815260200160002060008c73ffffffffffffffffffffffffffffffffffffffff1673ffffffffffffffffffffffffffffffffffffffff168152602001908152602001600020819055508160008085815260200190815260200160002060008b73ffffffffffffffffffffffffffffffffffffffff1673ffffffffffffffffffffffffffffffffffffffff16815260200190815260200160002060008282546121ff919061431a565b925050819055505050508061221390614182565b905061206c565b508473ffffffffffffffffffffffffffffffffffffffff168673ffffffffffffffffffffffffffffffffffffffff168273ffffffffffffffffffffffffffffffffffffffff167f4a39dc06d4c0dbc64b70af90fd698a233a518aa5d07e595d983b8c0526c8f7fb87876040516122919291906148e6565b60405180910390a46122a78187878787876129d4565b505050505050565b6000600360009054906101000a900473ffffffffffffffffffffffffffffffffffffffff16905081600360006101000a81548173ffffffffffffffffffffffffffffffffffffffff021916908373ffffffffffffffffffffffffffffffffffffffff1602179055508173ffffffffffffffffffffffffffffffffffffffff168173ffffffffffffffffffffffffffffffffffffffff167f8be0079c531659141344cd1fd0a4f28419497f9722a3daafe3b4186f6b6457e060405160405180910390a35050565b6000806123823384610698565b14159050919050565b8173ffffffffffffffffffffffffffffffffffffffff168373ffffffffffffffffffffffffffffffffffffffff1614156123fa576040517f08c379a00000000000000000000000000000000000000000000000000000000081526004016123f19061498f565b60405180910390fd5b80600160008573ffffffffffffffffffffffffffffffffffffffff1673ffffffffffffffffffffffffffffffffffffffff16815260200190815260200160002060008473ffffffffffffffffffffffffffffffffffffffff1673ffffffffffffffffffffffffffffffffffffffff16815260200190815260200160002060006101000a81548160ff0219169083151502179055508173ffffffffffffffffffffffffffffffffffffffff168373ffffffffffffffffffffffffffffffffffffffff167f17307eab39ab6107e8899845ad3d59bd9653f200f220920489ca2b5937696c31836040516124eb9190612f63565b60405180910390a3505050565b600073ffffffffffffffffffffffffffffffffffffffff168473ffffffffffffffffffffffffffffffffffffffff161415612568576040517f08c379a000000000000000000000000000000000000000000000000000000000815260040161255f90614834565b60405180910390fd5b6000612572611dfd565b90506125928187876125838861277a565b61258c8861277a565b876127f4565b600080600086815260200190815260200160002060008873ffffffffffffffffffffffffffffffffffffffff1673ffffffffffffffffffffffffffffffffffffffff16815260200190815260200160002054905083811015612629576040517f08c379a0000000000000000000000000000000000000000000000000000000008152600401612620906148c6565b60405180910390fd5b83810360008087815260200190815260200160002060008973ffffffffffffffffffffffffffffffffffffffff1673ffffffffffffffffffffffffffffffffffffffff168152602001908152602001600020819055508360008087815260200190815260200160002060008873ffffffffffffffffffffffffffffffffffffffff1673ffffffffffffffffffffffffffffffffffffffff16815260200190815260200160002060008282546126de919061431a565b925050819055508573ffffffffffffffffffffffffffffffffffffffff168773ffffffffffffffffffffffffffffffffffffffff168373ffffffffffffffffffffffffffffffffffffffff167fc3d58168c5ae7397731d063d5bbf3d657854427343f4c083240f7aacaa2d0f62888860405161275b929190614707565b60405180910390a46127718288888888886127fc565b50505050505050565b60606000600167ffffffffffffffff811115612799576127986130ab565b5b6040519080825280602002602001820160405280156127c75781602001602082028036833780820191505090505b50905082816000815181106127df576127de61425d565b5b60200260200101818152505080915050919050565b505050505050565b61281b8473ffffffffffffffffffffffffffffffffffffffff16612bac565b156129cc578373ffffffffffffffffffffffffffffffffffffffff1663f23a6e6187878686866040518663ffffffff1660e01b8152600401612861959493929190614a04565b6020604051808303816000875af192505050801561289d57506040513d601f19601f8201168201806040525081019061289a9190614a73565b60015b612943576128a9614aad565b806308c379a0141561290657506128be614acf565b806128c95750612908565b806040517f08c379a00000000000000000000000000000000000000000000000000000000081526004016128fd9190613044565b60405180910390fd5b505b6040517f08c379a000000000000000000000000000000000000000000000000000000000815260040161293a90614bd7565b60405180910390fd5b63f23a6e6160e01b7bffffffffffffffffffffffffffffffffffffffffffffffffffffffff1916817bffffffffffffffffffffffffffffffffffffffffffffffffffffffff1916146129ca576040517f08c379a00000000000000000000000000000000000000000000000000000000081526004016129c190614c69565b60405180910390fd5b505b505050505050565b6129f38473ffffffffffffffffffffffffffffffffffffffff16612bac565b15612ba4578373ffffffffffffffffffffffffffffffffffffffff1663bc197c8187878686866040518663ffffffff1660e01b8152600401612a39959493929190614c89565b6020604051808303816000875af1925050508015612a7557506040513d601f19601f82011682018060405250810190612a729190614a73565b60015b612b1b57612a81614aad565b806308c379a01415612ade5750612a96614acf565b80612aa15750612ae0565b806040517f08c379a0000000000000000000000000000000000000000000000000000000008152600401612ad59190613044565b60405180910390fd5b505b6040517f08c379a0000000000000000000000000000000000000000000000000000000008152600401612b1290614bd7565b60405180910390fd5b63bc197c8160e01b7bffffffffffffffffffffffffffffffffffffffffffffffffffffffff1916817bffffffffffffffffffffffffffffffffffffffffffffffffffffffff191614612ba2576040517f08c379a0000000000000000000000000000000000000000000000000000000008152600401612b9990614c69565b60405180910390fd5b505b505050505050565b600080823b905060008111915050919050565b8260048101928215612bee579160200282015b82811115612bed578251825591602001919060010190612bd2565b5b509050612bfb9190612d94565b5090565b82600a8101928215612c2e579160200282015b82811115612c2d578251825591602001919060010190612c12565b5b509050612c3b9190612d94565b5090565b6040518060800160405280600490602082028036833780820191505090505090565b6040518060800160405280612c74612c3f565b8152602001612c81612c3f565b8152602001612c8e612cca565b8152602001600081525090565b6040518060a0016040528060008152602001600081526020016000815260200160008152602001600081525090565b604051806101400160405280600a90602082028036833780820191505090505090565b604051806040016040528060008152602001600081525090565b6040518060c00160405280600081526020016000815260200160008152602001612d2f612ced565b8152602001612d3c612c61565b8152602001612d49612c9b565b81525090565b6040518060a00160405280600590602082028036833780820191505090505090565b604051806101600160405280600b90602082028036833780820191505090505090565b5b80821115612dad576000816000905550600101612d95565b5090565b6000604051905090565b600080fd5b600080fd5b600073ffffffffffffffffffffffffffffffffffffffff82169050919050565b6000612df082612dc5565b9050919050565b612e0081612de5565b8114612e0b57600080fd5b50565b600081359050612e1d81612df7565b92915050565b6000819050919050565b612e3681612e23565b8114612e4157600080fd5b50565b600081359050612e5381612e2d565b92915050565b60008060408385031215612e7057612e6f612dbb565b5b6000612e7e85828601612e0e565b9250506020612e8f85828601612e44565b9150509250929050565b612ea281612e23565b82525050565b6000602082019050612ebd6000830184612e99565b92915050565b60007fffffffff0000000000000000000000000000000000000000000000000000000082169050919050565b612ef881612ec3565b8114612f0357600080fd5b50565b600081359050612f1581612eef565b92915050565b600060208284031215612f3157612f30612dbb565b5b6000612f3f84828501612f06565b91505092915050565b60008115159050919050565b612f5d81612f48565b82525050565b6000602082019050612f786000830184612f54565b92915050565b600060208284031215612f9457612f93612dbb565b5b6000612fa284828501612e44565b91505092915050565b600081519050919050565b600082825260208201905092915050565b60005b83811015612fe5578082015181840152602081019050612fca565b83811115612ff4576000848401525b50505050565b6000601f19601f8301169050919050565b600061301682612fab565b6130208185612fb6565b9350613030818560208601612fc7565b61303981612ffa565b840191505092915050565b6000602082019050818103600083015261305e818461300b565b905092915050565b6000806040838503121561307d5761307c612dbb565b5b600061308b85828601612e44565b925050602061309c85828601612e44565b9150509250929050565b600080fd5b7f4e487b7100000000000000000000000000000000000000000000000000000000600052604160045260246000fd5b6130e382612ffa565b810181811067ffffffffffffffff82111715613102576131016130ab565b5b80604052505050565b6000613115612db1565b905061312182826130da565b919050565b600067ffffffffffffffff821115613141576131406130ab565b5b602082029050602081019050919050565b600080fd5b600061316a61316584613126565b61310b565b9050808382526020820190506020840283018581111561318d5761318c613152565b5b835b818110156131b657806131a28882612e44565b84526020840193505060208101905061318f565b5050509392505050565b600082601f8301126131d5576131d46130a6565b5b81356131e5848260208601613157565b91505092915050565b600080fd5b600067ffffffffffffffff82111561320e5761320d6130ab565b5b61321782612ffa565b9050602081019050919050565b82818337600083830152505050565b6000613246613241846131f3565b61310b565b905082815260208101848484011115613262576132616131ee565b5b61326d848285613224565b509392505050565b600082601f83011261328a576132896130a6565b5b813561329a848260208601613233565b91505092915050565b600080600080600060a086880312156132bf576132be612dbb565b5b60006132cd88828901612e0e565b95505060206132de88828901612e0e565b945050604086013567ffffffffffffffff8111156132ff576132fe612dc0565b5b61330b888289016131c0565b935050606086013567ffffffffffffffff81111561332c5761332b612dc0565b5b613338888289016131c0565b925050608086013567ffffffffffffffff81111561335957613358612dc0565b5b61336588828901613275565b9150509295509295909350565b600067ffffffffffffffff82111561338d5761338c6130ab565b5b602082029050919050565b60006133ab6133a684613372565b61310b565b905080602084028301858111156133c5576133c4613152565b5b835b818110156133ee57806133da8882612e44565b8452602084019350506020810190506133c7565b5050509392505050565b600082601f83011261340d5761340c6130a6565b5b600461341a848285613398565b91505092915050565b60006080828403121561343957613438612dbb565b5b6000613447848285016133f8565b91505092915050565b600060049050919050565b600081905092915050565b6000819050919050565b61347981612e23565b82525050565b600061348b8383613470565b60208301905092915050565b6000602082019050919050565b6134ad81613450565b6134b7818461345b565b92506134c282613466565b8060005b838110156134f35781516134da878261347f565b96506134e583613497565b9250506001810190506134c6565b505050505050565b600060808201905061351060008301846134a4565b92915050565b600081905092915050565b61352a81613450565b6135348184613516565b925061353f82613466565b8060005b83811015613570578151613557878261347f565b965061356283613497565b925050600181019050613543565b505050505050565b6000600a9050919050565b600081905092915050565b6000819050919050565b6000602082019050919050565b6135ae81613578565b6135b88184613583565b92506135c38261358e565b8060005b838110156135f45781516135db878261347f565b96506135e683613598565b9250506001810190506135c7565b505050505050565b610260820160008201516136136000850182613521565b5060208201516136266080850182613521565b50604082015161363a6101008501826135a5565b50606082015161364e610240850182613470565b50505050565b60006102608201905061366a60008301846135fc565b92915050565b600067ffffffffffffffff82111561368b5761368a6130ab565b5b602082029050919050565b60006136a96136a484613670565b61310b565b905080602084028301858111156136c3576136c2613152565b5b835b818110156136ec57806136d88882612e44565b8452602084019350506020810190506136c5565b5050509392505050565b600082601f83011261370b5761370a6130a6565b5b600a613718848285613696565b91505092915050565b600080610160838503121561373957613738612dbb565b5b6000613747858286016136f6565b92505061014061375985828601612e44565b9150509250929050565b6000819050919050565b61377681613763565b82525050565b6000602082019050613791600083018461376d565b92915050565b600067ffffffffffffffff8211156137b2576137b16130ab565b5b602082029050602081019050919050565b60006137d66137d184613797565b61310b565b905080838252602082019050602084028301858111156137f9576137f8613152565b5b835b81811015613822578061380e8882612e0e565b8452602084019350506020810190506137fb565b5050509392505050565b600082601f830112613841576138406130a6565b5b81356138518482602086016137c3565b91505092915050565b6000806040838503121561387157613870612dbb565b5b600083013567ffffffffffffffff81111561388f5761388e612dc0565b5b61389b8582860161382c565b925050602083013567ffffffffffffffff8111156138bc576138bb612dc0565b5b6138c8858286016131c0565b9150509250929050565b600081519050919050565b600082825260208201905092915050565b6000819050602082019050919050565b6000602082019050919050565b6000613916826138d2565b61392081856138dd565b935061392b836138ee565b8060005b8381101561395c578151613943888261347f565b975061394e836138fe565b92505060018101905061392f565b5085935050505092915050565b60006020820190508181036000830152613983818461390b565b905092915050565b60a0820160008201516139a16000850182613470565b5060208201516139b46020850182613470565b5060408201516139c76040850182613470565b5060608201516139da6060850182613470565b5060808201516139ed6080850182613470565b50505050565b600060a082019050613a08600083018461398b565b92915050565b600067ffffffffffffffff821115613a2957613a286130ab565b5b613a3282612ffa565b9050602081019050919050565b6000613a52613a4d84613a0e565b61310b565b905082815260208101848484011115613a6e57613a6d6131ee565b5b613a79848285613224565b509392505050565b600082601f830112613a9657613a956130a6565b5b8135613aa6848260208601613a3f565b91505092915050565b60008060008060008060c08789031215613acc57613acb612dbb565b5b6000613ada89828a01612e0e565b9650506020613aeb89828a01612e0e565b9550506040613afc89828a01612e0e565b945050606087013567ffffffffffffffff811115613b1d57613b1c612dc0565b5b613b2989828a016131c0565b935050608087013567ffffffffffffffff811115613b4a57613b49612dc0565b5b613b5689828a016131c0565b92505060a087013567ffffffffffffffff811115613b7757613b76612dc0565b5b613b8389828a01613a81565b9150509295509295509295565b6000806101608385031215613ba857613ba7612dbb565b5b6000613bb685828601612e44565b9250506020613bc7858286016136f6565b9150509250929050565b600081905092915050565b613be581613578565b613bef8184613bd1565b9250613bfa8261358e565b8060005b83811015613c2b578151613c12878261347f565b9650613c1d83613598565b925050600181019050613bfe565b505050505050565b600061014082019050613c496000830184613bdc565b92915050565b600060208284031215613c6557613c64612dbb565b5b6000613c7384828501612e0e565b91505092915050565b613c8581612de5565b82525050565b6000602082019050613ca06000830184613c7c565b92915050565b604082016000820151613cbc6000850182613470565b506020820151613ccf6020850182613470565b50505050565b6000604082019050613cea6000830184613ca6565b92915050565b60006101e082019050613d0660008301866134a4565b613d136080830185613bdc565b613d216101c0830184612e99565b949350505050565b613d3281612f48565b8114613d3d57600080fd5b50565b600081359050613d4f81613d29565b92915050565b60008060408385031215613d6c57613d6b612dbb565b5b6000613d7a85828601612e0e565b9250506020613d8b85828601613d40565b9150509250929050565b604082016000820151613dab6000850182613470565b506020820151613dbe6020850182613470565b50505050565b61026082016000820151613ddb6000850182613521565b506020820151613dee6080850182613521565b506040820151613e026101008501826135a5565b506060820151613e16610240850182613470565b50505050565b60a082016000820151613e326000850182613470565b506020820151613e456020850182613470565b506040820151613e586040850182613470565b506060820151613e6b6060850182613470565b506080820151613e7e6080850182613470565b50505050565b6103a082016000820151613e9b6000850182613470565b506020820151613eae6020850182613470565b506040820151613ec16040850182613470565b506060820151613ed46060850182613d95565b506080820151613ee760a0850182613dc4565b5060a0820151613efb610300850182613e1c565b50505050565b60006103a082019050613f176000830184613e84565b92915050565b60008060408385031215613f3457613f33612dbb565b5b6000613f4285828601612e0e565b9250506020613f5385828601612e0e565b9150509250929050565b600080600080600060a08688031215613f7957613f78612dbb565b5b6000613f8788828901612e0e565b9550506020613f9888828901612e0e565b9450506040613fa988828901612e44565b9350506060613fba88828901612e44565b925050608086013567ffffffffffffffff811115613fdb57613fda612dc0565b5b613fe788828901613275565b9150509295509295909350565b7f455243313135353a2062616c616e636520717565727920666f7220746865207a60008201527f65726f2061646472657373000000000000000000000000000000000000000000602082015250565b6000614050602b83612fb6565b915061405b82613ff4565b604082019050919050565b6000602082019050818103600083015261407f81614043565b9050919050565b7f4e487b7100000000000000000000000000000000000000000000000000000000600052602260045260246000fd5b600060028204905060018216806140cd57607f821691505b602082108114156140e1576140e0614086565b5b50919050565b7f4f776e61626c653a2063616c6c6572206973206e6f7420746865206f776e6572600082015250565b600061411d602083612fb6565b9150614128826140e7565b602082019050919050565b6000602082019050818103600083015261414c81614110565b9050919050565b7f4e487b7100000000000000000000000000000000000000000000000000000000600052601160045260246000fd5b600061418d82612e23565b91507fffffffffffffffffffffffffffffffffffffffffffffffffffffffffffffffff8214156141c0576141bf614153565b5b600182019050919050565b7f455243313135353a207472616e736665722063616c6c6572206973206e6f742060008201527f6f776e6572206e6f7220617070726f7665640000000000000000000000000000602082015250565b6000614227603283612fb6565b9150614232826141cb565b604082019050919050565b600060208201905081810360008301526142568161421a565b9050919050565b7f4e487b7100000000000000000000000000000000000000000000000000000000600052603260045260246000fd5b600061429782612e23565b91506142a283612e23565b9250828210156142b5576142b4614153565b5b828203905092915050565b60006142cb82612e23565b91506142d683612e23565b9250817fffffffffffffffffffffffffffffffffffffffffffffffffffffffffffffffff048311821515161561430f5761430e614153565b5b828202905092915050565b600061432582612e23565b915061433083612e23565b9250827fffffffffffffffffffffffffffffffffffffffffffffffffffffffffffffffff0382111561436557614364614153565b5b828201905092915050565b600061437b82613763565b91507f7fffffffffffffffffffffffffffffffffffffffffffffffffffffffffffffff8214156143ae576143ad614153565b5b600182019050919050565b7f455243313135353a206163636f756e747320616e6420696473206c656e67746860008201527f206d69736d617463680000000000000000000000000000000000000000000000602082015250565b6000614415602983612fb6565b9150614420826143b9565b604082019050919050565b6000602082019050818103600083015261444481614408565b9050919050565b7f4e487b7100000000000000000000000000000000000000000000000000000000600052601260045260246000fd5b600061448582612e23565b915061449083612e23565b9250826144a05761449f61444b565b5b828206905092915050565b6000819050919050565b6144c66144c182612e23565b6144ab565b82525050565b60008160601b9050919050565b60006144e4826144cc565b9050919050565b60006144f6826144d9565b9050919050565b61450e61450982612de5565b6144eb565b82525050565b600061452082866144b5565b60208201915061453082856144fd565b60148201915061454082846144b5565b602082019150819050949350505050565b7f455243313135353a2063616c6c6572206973206e6f74206f776e6572206e6f7260008201527f20617070726f7665640000000000000000000000000000000000000000000000602082015250565b60006145ad602983612fb6565b91506145b882614551565b604082019050919050565b600060208201905081810360008301526145dc816145a0565b9050919050565b7f4f776e61626c653a206e6577206f776e657220697320746865207a65726f206160008201527f6464726573730000000000000000000000000000000000000000000000000000602082015250565b600061463f602683612fb6565b915061464a826145e3565b604082019050919050565b6000602082019050818103600083015261466e81614632565b9050919050565b7f455243313135353a206d696e7420746f20746865207a65726f2061646472657360008201527f7300000000000000000000000000000000000000000000000000000000000000602082015250565b60006146d1602183612fb6565b91506146dc82614675565b604082019050919050565b60006020820190508181036000830152614700816146c4565b9050919050565b600060408201905061471c6000830185612e99565b6147296020830184612e99565b9392505050565b7f455243313135353a2069647320616e6420616d6f756e7473206c656e6774682060008201527f6d69736d61746368000000000000000000000000000000000000000000000000602082015250565b600061478c602883612fb6565b915061479782614730565b604082019050919050565b600060208201905081810360008301526147bb8161477f565b9050919050565b7f455243313135353a207472616e7366657220746f20746865207a65726f20616460008201527f6472657373000000000000000000000000000000000000000000000000000000602082015250565b600061481e602583612fb6565b9150614829826147c2565b604082019050919050565b6000602082019050818103600083015261484d81614811565b9050919050565b7f455243313135353a20696e73756666696369656e742062616c616e636520666f60008201527f72207472616e7366657200000000000000000000000000000000000000000000602082015250565b60006148b0602a83612fb6565b91506148bb82614854565b604082019050919050565b600060208201905081810360008301526148df816148a3565b9050919050565b60006040820190508181036000830152614900818561390b565b90508181036020830152614914818461390b565b90509392505050565b7f455243313135353a2073657474696e6720617070726f76616c2073746174757360008201527f20666f722073656c660000000000000000000000000000000000000000000000602082015250565b6000614979602983612fb6565b91506149848261491d565b604082019050919050565b600060208201905081810360008301526149a88161496c565b9050919050565b600081519050919050565b600082825260208201905092915050565b60006149d6826149af565b6149e081856149ba565b93506149f0818560208601612fc7565b6149f981612ffa565b840191505092915050565b600060a082019050614a196000830188613c7c565b614a266020830187613c7c565b614a336040830186612e99565b614a406060830185612e99565b8181036080830152614a5281846149cb565b90509695505050505050565b600081519050614a6d81612eef565b92915050565b600060208284031215614a8957614a88612dbb565b5b6000614a9784828501614a5e565b91505092915050565b60008160e01c9050919050565b600060033d1115614acc5760046000803e614ac9600051614aa0565b90505b90565b600060443d1015614adf57614b62565b614ae7612db1565b60043d036004823e80513d602482011167ffffffffffffffff82111715614b0f575050614b62565b808201805167ffffffffffffffff811115614b2d5750505050614b62565b80602083010160043d038501811115614b4a575050505050614b62565b614b59826020018501866130da565b82955050505050505b90565b7f455243313135353a207472616e7366657220746f206e6f6e204552433131353560008201527f526563656976657220696d706c656d656e746572000000000000000000000000602082015250565b6000614bc1603483612fb6565b9150614bcc82614b65565b604082019050919050565b60006020820190508181036000830152614bf081614bb4565b9050919050565b7f455243313135353a204552433131353552656365697665722072656a6563746560008201527f6420746f6b656e73000000000000000000000000000000000000000000000000602082015250565b6000614c53602883612fb6565b9150614c5e82614bf7565b604082019050919050565b60006020820190508181036000830152614c8281614c46565b9050919050565b600060a082019050614c9e6000830188613c7c565b614cab6020830187613c7c565b8181036040830152614cbd818661390b565b90508181036060830152614cd1818561390b565b90508181036080830152614ce581846149cb565b9050969550505050505056fea26469706673582212204d6a64c46ffd7e855a2d210696cd82a28a9abf670dae596e339864763b108b7a64736f6c634300080c0033",
  "immutableReferences": {},
  "source": "// SPDX-License-Identifier: GPL-3.0-or-later\r\npragma solidity ^0.8.0;\r\n\r\nimport \"../node_modules/@openzeppelin/contracts/token/ERC1155/ERC1155.sol\";\r\nimport \"../node_modules/@openzeppelin/contracts/access/Ownable.sol\";\r\n\r\ncontract Token is ERC1155, Ownable {\r\n\r\n    uint8 constant FLOWER = 1;\r\n    uint8 constant FEATHER = 2;\r\n    uint8 constant SANDS = 3;\r\n    uint8 constant GOBLET = 4;\r\n    uint8 constant CIRCLET = 5;\r\n    uint256[20] EXP_DEMAND = [uint256(3000), 3725, 4425, 5150, 5900, 6675, 7500, 8350, 9225, 10125, 11050, 12025, 13025, 15150, 17600, 20375, 23500, 27050, 31050, 35575];\r\n    uint256[20] EXP_ACC = [uint256(3000), 6725, 11150, 16300, 22200, 28875, 36375, 44725, 53950, 64075, 75125, 87150, 100175, 115325, 132925, 153300, 176800, 203850, 234900, 270475];\r\n    uint256[40] valueArray = \r\n            [uint256(140), 160, 180, 190, \r\n                2090, 2390, 2690, 2990, \r\n                160, 190, 210, 230, \r\n                41, 47, 53, 58,\r\n                41, 47, 53, 58, \r\n                51, 58, 66, 73, \r\n                27, 31, 35, 39, \r\n                54, 62, 70, 78, \r\n                160, 190, 210, 230, \r\n                45, 52, 58, 65];\r\n    uint256[18] mainOpValueArray = [uint256(470), 7170, 0, 70, 70, 87, 47, 93, 280, 78, 87, 70, 70, 70, 70, 70, 70, 54];\r\n    uint256[18] mainOpInc = [uint256(132), 2031, 0, 20, 20, 24, 13, 26, 79, 22, 25, 20, 20, 20, 20, 20, 20, 15];\r\n\r\n    struct MainOp {\r\n        uint256 id;\r\n        uint256 value;\r\n    }\r\n\r\n    struct SubOp {\r\n        uint256[4] id;\r\n        uint256[4] value;\r\n        uint256[10] cdd;\r\n        uint cddLen;\r\n    }\r\n\r\n    struct Exp {\r\n        uint256 level;\r\n        uint256 total;\r\n        uint256 current;\r\n        uint256 next;\r\n        uint256 nextTotal;\r\n    }\r\n\r\n    struct Relic {\r\n        uint256 part;\r\n        uint256 set;\r\n        uint256 stars;\r\n        MainOp main;\r\n        SubOp sub;\r\n        Exp exp;\r\n    }\r\n\r\n    \r\n\r\n    uint256 nextId = 0;\r\n\r\n    mapping(uint256 => Relic) private _tokenDetails;\r\n\r\n    constructor(string memory name, string memory symbol, string memory uri) ERC1155(uri) {\r\n\r\n    }\r\n\r\n    function getTokenDetails(uint256 tokenId) public view returns (Relic memory) {\r\n        return _tokenDetails[tokenId];\r\n    }\r\n\r\n    function indexOf(uint256[10] memory arr, uint256 searchFor) public pure returns (int256) {\r\n        for (int256 i = 0; i < int256(arr.length); i++) {\r\n            if (arr[uint256(i)] == searchFor) {\r\n                return i;\r\n            }\r\n        }\r\n        return -1;\r\n    }\r\n\r\n    function mint(uint256 location, uint256 difficulty) public onlyOwner {\r\n        uint256 set = getRandomSet(location);\r\n        uint256 part = getRandomPart();\r\n        uint256 stars = getStars(difficulty);\r\n\r\n        MainOp memory main = getMainStats(part);\r\n        SubOp memory sub = getSubStats(main.id);\r\n        Exp memory exp = getExpStats();\r\n\r\n        _tokenDetails[nextId] = Relic(part, set, stars, main, sub, exp);\r\n        _mint(msg.sender, nextId, 1, \"\");\r\n        nextId++;\r\n    }  \r\n\r\n    function getRandomPart() public view returns (uint256) {\r\n        uint256 part = uint256(createRandom(5, 0));\r\n        return part;\r\n    }\r\n\r\n    function getRandomSet(uint256 location) public view returns (uint256) {\r\n        uint256 set = (location * 2) + uint256(createRandom(2, 0));\r\n        return set;\r\n    }\r\n\r\n    function getStars(uint256 diff) public pure returns (uint256) {\r\n        uint256 stars = 5;\r\n        return stars;\r\n    }\r\n\r\n    function getMainStats(uint256 part) public view returns (MainOp memory) {\r\n        uint256 mainOpType = getMainOpType(part);\r\n        uint256 mainOpValue = getMainOpValue(mainOpType);\r\n        MainOp memory main = MainOp(mainOpType, mainOpValue);\r\n        return main;\r\n    }\r\n\r\n    function getMainOpType(uint256 part) public view returns (uint256) {\r\n        uint256 mainOpType = 0;\r\n        if (part == 1) {\r\n            mainOpType = 2;\r\n        }\r\n        else if (part == 2) {\r\n            mainOpType = 1;\r\n        }     \r\n        else if (part == 3) {\r\n            uint256[5] memory typeArray;\r\n            typeArray = [uint256(4), 5, 6, 9, 10];\r\n            mainOpType = typeArray[createRandom(typeArray.length, 0)];\r\n        }\r\n        else if (part == 4) {\r\n            uint256[11] memory typeArray;\r\n            typeArray = [uint256(4), 5, 6, 9, 11, 12, 13, 14, 15, 16, 17];\r\n            mainOpType = typeArray[createRandom(typeArray.length, 0)];\r\n        }\r\n        else if (part == 5) {\r\n            uint256[7] memory typeArray = [uint256(4), 5, 6, 7, 8, 9, 18];\r\n            mainOpType = typeArray[createRandom(typeArray.length, 0)];\r\n        }\r\n        return mainOpType;\r\n    }\r\n\r\n    function getMainOpValue(uint256 mainOpType) public view returns (uint256) {\r\n        uint256 mainOpValue = mainOpValueArray[mainOpType-1];\r\n        return mainOpValue;\r\n    }\r\n\r\n    function getSubStats(uint256 mainOpType) public view returns (SubOp memory) {\r\n        (uint256[4] memory subOpType, uint256[10] memory subOpCdd, uint length) = getSubOpType(mainOpType);\r\n        uint256[4] memory subOpValue = getSubOpValue(subOpType);\r\n        SubOp memory subStats = SubOp(subOpType, subOpValue, subOpCdd, length);\r\n        return subStats;\r\n    }\r\n\r\n    function getSubOpType(uint256 mainOpType) public view returns (uint256[4] memory, uint256[10] memory, uint) {\r\n        uint256[4] memory subOpType = [uint256(0), 0, 0, 0];\r\n        uint256[10] memory subOpCdd = [uint256(1), 2, 3, 4, 5, 6, 7, 8, 9, 10];\r\n        uint256 isFourLine = uint256(createRandom(2, 0));\r\n        uint length = 10;\r\n\r\n        if (indexOf(subOpCdd, mainOpType) != -1) {\r\n            subOpCdd = removeElement(mainOpType, subOpCdd);\r\n            length -= 1;\r\n        }\r\n\r\n        for (uint256 i = 0; i < 4; i++) {\r\n            subOpType[i] = subOpCdd[createRandom(length, i)];\r\n            subOpCdd = removeElement(subOpType[i], subOpCdd);\r\n            length -= 1;\r\n        }\r\n\r\n        if (isFourLine == 0) {\r\n            subOpType[3] = 0;\r\n        }\r\n\r\n        return (subOpType, subOpCdd, length);\r\n    }\r\n\r\n    function getSubOpValue(uint256[4] memory subOpType) public view returns (uint256[4] memory) {\r\n        uint256[4] memory subOpValue = [uint256(0), 0, 0, 0];\r\n        \r\n        uint256 offset;\r\n        for (uint256 i = 0; i < 4; i++) {\r\n            if (subOpType[i] == 0) { continue; }\r\n\r\n            offset = uint256(createRandom(4, i));\r\n            subOpValue[i] = valueArray[(subOpType[i]-1) * 4 + offset];\r\n        }\r\n\r\n        return subOpValue;\r\n    }\r\n\r\n    function getExpStats() public view returns (Exp memory) {\r\n        uint256 level = 0;\r\n        uint256 curExp = 0;\r\n        uint256 totalExp = 0;\r\n        uint256 nextExp = EXP_DEMAND[level];\r\n        uint256 nextExpAcc = EXP_ACC[level];\r\n        Exp memory expStats = Exp(level, totalExp, curExp, nextExp, nextExpAcc);\r\n        return expStats;\r\n    }\r\n\r\n    function enhance(uint256 tokenId, uint256 add) public {\r\n        Relic storage relic = _tokenDetails[tokenId];\r\n        MainOp storage main = relic.main;\r\n        SubOp storage sub = relic.sub;\r\n        Exp storage exp = relic.exp;\r\n\r\n        uint256 targetIndex = createRandom(4, 0);\r\n        uint256 offsetIndex = createRandom(4, 1);\r\n        uint256 targetType = 0;\r\n        uint256 targetValue = 0;\r\n\r\n        if (exp.level < 20) {\r\n            exp.total += add;\r\n            exp.current += add;\r\n            \r\n            if(exp.current >= exp.next) {\r\n                for (uint256 k = exp.level; k < 20; k++) {\r\n                    if (EXP_ACC[k] <= exp.total) {\r\n                        exp.level += 1;\r\n                        if (exp.level % 4 == 0) {\r\n                            if (sub.id[3] == 0) {\r\n                                targetIndex = 3;\r\n                                targetType = sub.cdd[createRandom(sub.cddLen, 2)];\r\n                                sub.id[3] = targetType;\r\n                            }\r\n                            else {\r\n                                targetType = sub.id[targetIndex];\r\n                            }\r\n                            targetValue = valueArray[(targetType-1) * 4 + offsetIndex];\r\n                            sub.value[targetIndex] += targetValue;\r\n                        }\r\n                        continue;\r\n                    }\r\n                    else {\r\n                        exp.current = exp.total - EXP_ACC[k-1];\r\n                        main.value += k * mainOpInc[main.id-1];\r\n                        exp.next = EXP_DEMAND[exp.level];\r\n                        break;\r\n                    }\r\n                }\r\n            }\r\n        }\r\n    }\r\n\r\n    function createRandom(uint number, uint randNonce) public view returns(uint) {\r\n        return uint(keccak256(abi.encodePacked(block.timestamp, msg.sender, randNonce))) % number;\r\n    }\r\n\r\n    function getAllTokensForUser(address user) public view returns (uint256[] memory) {\r\n        uint256 tokenCount = 0;\r\n        uint256 j;\r\n        for(j = 0; j < nextId; j++) {\r\n            tokenCount = tokenCount + balanceOf(user, j);\r\n        }\r\n        if(tokenCount == 0) {\r\n            return new uint256[](0);\r\n        }\r\n        else {\r\n            uint[] memory result = new uint256[](tokenCount);\r\n            uint256 totalPets = nextId;\r\n            uint256 resultIndex = 0;\r\n            uint256 i;\r\n            for(i = 0; i < totalPets; i++) {\r\n                if(_ownerOf(i)) {\r\n                    result[resultIndex] = i;\r\n                    resultIndex++; \r\n                }\r\n            }\r\n            return result;\r\n        }\r\n    }\r\n\r\n    function remove(uint256 index, uint256[10] memory array) public pure returns (uint256[10] memory){\r\n        for(uint i = index; i < array.length-1; i++) {\r\n            array[i] = array[i+1];\r\n        }\r\n        return array;\r\n    }\r\n\r\n    function removeElement(uint256 element, uint256[10] memory array) public pure returns (uint256[10] memory) {\r\n        array = remove(uint256(indexOf(array, element)), array);\r\n        return array;\r\n    }\r\n\r\n    function _beforeTokenTransfer(address operator, address from, address to, uint256[] memory ids, uint256[] memory amounts, string memory data) public view onlyOwner {\r\n        Relic storage relic = _tokenDetails[ids[0]];\r\n    }\r\n\r\n    function _ownerOf(uint256 tokenId) internal view returns (bool) {\r\n        return balanceOf(msg.sender, tokenId) != 0;\r\n    }\r\n}\r\n\r\n\r\n",
  "sourcePath": "C:\\Users\\mario\\Desktop\\NFTG\\contracts\\Token.sol",
  "compiler": {
    "name": "solc",
    "version": "0.8.12+commit.f00d7308.Emscripten.clang"
  },
  "schemaVersion": "3.4.5",
  "updatedAt": "2022-04-17T14:37:25.737Z",
  "networkType": "ethereum",
  "devdoc": {
    "kind": "dev",
    "methods": {
      "balanceOf(address,uint256)": {
        "details": "See {IERC1155-balanceOf}. Requirements: - `account` cannot be the zero address."
      },
      "balanceOfBatch(address[],uint256[])": {
        "details": "See {IERC1155-balanceOfBatch}. Requirements: - `accounts` and `ids` must have the same length."
      },
      "isApprovedForAll(address,address)": {
        "details": "See {IERC1155-isApprovedForAll}."
      },
      "owner()": {
        "details": "Returns the address of the current owner."
      },
      "renounceOwnership()": {
        "details": "Leaves the contract without owner. It will not be possible to call `onlyOwner` functions anymore. Can only be called by the current owner. NOTE: Renouncing ownership will leave the contract without an owner, thereby removing any functionality that is only available to the owner."
      },
      "safeBatchTransferFrom(address,address,uint256[],uint256[],bytes)": {
        "details": "See {IERC1155-safeBatchTransferFrom}."
      },
      "safeTransferFrom(address,address,uint256,uint256,bytes)": {
        "details": "See {IERC1155-safeTransferFrom}."
      },
      "setApprovalForAll(address,bool)": {
        "details": "See {IERC1155-setApprovalForAll}."
      },
      "supportsInterface(bytes4)": {
        "details": "See {IERC165-supportsInterface}."
      },
      "transferOwnership(address)": {
        "details": "Transfers ownership of the contract to a new account (`newOwner`). Can only be called by the current owner."
      },
      "uri(uint256)": {
        "details": "See {IERC1155MetadataURI-uri}. This implementation returns the same URI for *all* token types. It relies on the token type ID substitution mechanism https://eips.ethereum.org/EIPS/eip-1155#metadata[defined in the EIP]. Clients calling this function must replace the `\\{id\\}` substring with the actual token type ID."
      }
    },
    "version": 1
  },
  "userdoc": {
    "kind": "user",
    "methods": {},
    "version": 1
  }
}