{
  "contractName": "Token",
  "abi": [
    {
      "inputs": [
        {
          "internalType": "string",
          "name": "name",
          "type": "string"
        },
        {
          "internalType": "string",
          "name": "symbol",
          "type": "string"
        },
        {
          "internalType": "string",
          "name": "uri",
          "type": "string"
        }
      ],
      "stateMutability": "nonpayable",
      "type": "constructor"
    },
    {
      "anonymous": false,
      "inputs": [
        {
          "indexed": true,
          "internalType": "address",
          "name": "account",
          "type": "address"
        },
        {
          "indexed": true,
          "internalType": "address",
          "name": "operator",
          "type": "address"
        },
        {
          "indexed": false,
          "internalType": "bool",
          "name": "approved",
          "type": "bool"
        }
      ],
      "name": "ApprovalForAll",
      "type": "event"
    },
    {
      "anonymous": false,
      "inputs": [
        {
          "indexed": true,
          "internalType": "address",
          "name": "previousOwner",
          "type": "address"
        },
        {
          "indexed": true,
          "internalType": "address",
          "name": "newOwner",
          "type": "address"
        }
      ],
      "name": "OwnershipTransferred",
      "type": "event"
    },
    {
      "anonymous": false,
      "inputs": [
        {
          "indexed": true,
          "internalType": "address",
          "name": "operator",
          "type": "address"
        },
        {
          "indexed": true,
          "internalType": "address",
          "name": "from",
          "type": "address"
        },
        {
          "indexed": true,
          "internalType": "address",
          "name": "to",
          "type": "address"
        },
        {
          "indexed": false,
          "internalType": "uint256[]",
          "name": "ids",
          "type": "uint256[]"
        },
        {
          "indexed": false,
          "internalType": "uint256[]",
          "name": "values",
          "type": "uint256[]"
        }
      ],
      "name": "TransferBatch",
      "type": "event"
    },
    {
      "anonymous": false,
      "inputs": [
        {
          "indexed": true,
          "internalType": "address",
          "name": "operator",
          "type": "address"
        },
        {
          "indexed": true,
          "internalType": "address",
          "name": "from",
          "type": "address"
        },
        {
          "indexed": true,
          "internalType": "address",
          "name": "to",
          "type": "address"
        },
        {
          "indexed": false,
          "internalType": "uint256",
          "name": "id",
          "type": "uint256"
        },
        {
          "indexed": false,
          "internalType": "uint256",
          "name": "value",
          "type": "uint256"
        }
      ],
      "name": "TransferSingle",
      "type": "event"
    },
    {
      "anonymous": false,
      "inputs": [
        {
          "indexed": false,
          "internalType": "string",
          "name": "value",
          "type": "string"
        },
        {
          "indexed": true,
          "internalType": "uint256",
          "name": "id",
          "type": "uint256"
        }
      ],
      "name": "URI",
      "type": "event"
    },
    {
      "inputs": [
        {
          "internalType": "address",
          "name": "account",
          "type": "address"
        },
        {
          "internalType": "uint256",
          "name": "id",
          "type": "uint256"
        }
      ],
      "name": "balanceOf",
      "outputs": [
        {
          "internalType": "uint256",
          "name": "",
          "type": "uint256"
        }
      ],
      "stateMutability": "view",
      "type": "function",
      "constant": true
    },
    {
      "inputs": [
        {
          "internalType": "address[]",
          "name": "accounts",
          "type": "address[]"
        },
        {
          "internalType": "uint256[]",
          "name": "ids",
          "type": "uint256[]"
        }
      ],
      "name": "balanceOfBatch",
      "outputs": [
        {
          "internalType": "uint256[]",
          "name": "",
          "type": "uint256[]"
        }
      ],
      "stateMutability": "view",
      "type": "function",
      "constant": true
    },
    {
      "inputs": [
        {
          "internalType": "address",
          "name": "account",
          "type": "address"
        },
        {
          "internalType": "address",
          "name": "operator",
          "type": "address"
        }
      ],
      "name": "isApprovedForAll",
      "outputs": [
        {
          "internalType": "bool",
          "name": "",
          "type": "bool"
        }
      ],
      "stateMutability": "view",
      "type": "function",
      "constant": true
    },
    {
      "inputs": [],
      "name": "owner",
      "outputs": [
        {
          "internalType": "address",
          "name": "",
          "type": "address"
        }
      ],
      "stateMutability": "view",
      "type": "function",
      "constant": true
    },
    {
      "inputs": [],
      "name": "renounceOwnership",
      "outputs": [],
      "stateMutability": "nonpayable",
      "type": "function"
    },
    {
      "inputs": [
        {
          "internalType": "address",
          "name": "from",
          "type": "address"
        },
        {
          "internalType": "address",
          "name": "to",
          "type": "address"
        },
        {
          "internalType": "uint256[]",
          "name": "ids",
          "type": "uint256[]"
        },
        {
          "internalType": "uint256[]",
          "name": "amounts",
          "type": "uint256[]"
        },
        {
          "internalType": "bytes",
          "name": "data",
          "type": "bytes"
        }
      ],
      "name": "safeBatchTransferFrom",
      "outputs": [],
      "stateMutability": "nonpayable",
      "type": "function"
    },
    {
      "inputs": [
        {
          "internalType": "address",
          "name": "from",
          "type": "address"
        },
        {
          "internalType": "address",
          "name": "to",
          "type": "address"
        },
        {
          "internalType": "uint256",
          "name": "id",
          "type": "uint256"
        },
        {
          "internalType": "uint256",
          "name": "amount",
          "type": "uint256"
        },
        {
          "internalType": "bytes",
          "name": "data",
          "type": "bytes"
        }
      ],
      "name": "safeTransferFrom",
      "outputs": [],
      "stateMutability": "nonpayable",
      "type": "function"
    },
    {
      "inputs": [
        {
          "internalType": "address",
          "name": "operator",
          "type": "address"
        },
        {
          "internalType": "bool",
          "name": "approved",
          "type": "bool"
        }
      ],
      "name": "setApprovalForAll",
      "outputs": [],
      "stateMutability": "nonpayable",
      "type": "function"
    },
    {
      "inputs": [
        {
          "internalType": "bytes4",
          "name": "interfaceId",
          "type": "bytes4"
        }
      ],
      "name": "supportsInterface",
      "outputs": [
        {
          "internalType": "bool",
          "name": "",
          "type": "bool"
        }
      ],
      "stateMutability": "view",
      "type": "function",
      "constant": true
    },
    {
      "inputs": [
        {
          "internalType": "address",
          "name": "newOwner",
          "type": "address"
        }
      ],
      "name": "transferOwnership",
      "outputs": [],
      "stateMutability": "nonpayable",
      "type": "function"
    },
    {
      "inputs": [
        {
          "internalType": "uint256",
          "name": "",
          "type": "uint256"
        }
      ],
      "name": "uri",
      "outputs": [
        {
          "internalType": "string",
          "name": "",
          "type": "string"
        }
      ],
      "stateMutability": "view",
      "type": "function",
      "constant": true
    },
    {
      "inputs": [
        {
          "internalType": "uint256",
          "name": "tokenId",
          "type": "uint256"
        }
      ],
      "name": "getTokenDetails",
      "outputs": [
        {
          "components": [
            {
              "internalType": "uint8",
              "name": "damage",
              "type": "uint8"
            },
            {
              "internalType": "uint8",
              "name": "magic",
              "type": "uint8"
            },
            {
              "internalType": "uint256",
              "name": "lastMeal",
              "type": "uint256"
            },
            {
              "internalType": "uint256",
              "name": "endurance",
              "type": "uint256"
            }
          ],
          "internalType": "struct Token.Pet",
          "name": "",
          "type": "tuple"
        }
      ],
      "stateMutability": "view",
      "type": "function",
      "constant": true
    },
    {
      "inputs": [
        {
          "internalType": "uint8",
          "name": "damage",
          "type": "uint8"
        },
        {
          "internalType": "uint8",
          "name": "magic",
          "type": "uint8"
        },
        {
          "internalType": "uint256",
          "name": "endurance",
          "type": "uint256"
        }
      ],
      "name": "mint",
      "outputs": [],
      "stateMutability": "nonpayable",
      "type": "function"
    },
    {
      "inputs": [
        {
          "internalType": "uint256",
          "name": "tokenId",
          "type": "uint256"
        }
      ],
      "name": "feed",
      "outputs": [],
      "stateMutability": "nonpayable",
      "type": "function"
    },
    {
      "inputs": [
        {
          "internalType": "address",
          "name": "user",
          "type": "address"
        }
      ],
      "name": "getAllTokensForUser",
      "outputs": [
        {
          "internalType": "uint256[]",
          "name": "",
          "type": "uint256[]"
        }
      ],
      "stateMutability": "view",
      "type": "function",
      "constant": true
    },
    {
      "inputs": [
        {
          "internalType": "address",
          "name": "operator",
          "type": "address"
        },
        {
          "internalType": "address",
          "name": "from",
          "type": "address"
        },
        {
          "internalType": "address",
          "name": "to",
          "type": "address"
        },
        {
          "internalType": "uint256[]",
          "name": "ids",
          "type": "uint256[]"
        },
        {
          "internalType": "uint256[]",
          "name": "amounts",
          "type": "uint256[]"
        },
        {
          "internalType": "string",
          "name": "data",
          "type": "string"
        }
      ],
      "name": "_beforeTokenTransfer",
      "outputs": [],
      "stateMutability": "view",
      "type": "function",
      "constant": true
    }
  ],
  "bytecode": "0x608060405260006004553480156200001657600080fd5b50604051620038813803806200388183398181016040528101906200003c919062000284565b806200004e816200007860201b60201c565b506200006f620000636200009460201b60201c565b6200009c60201b60201c565b50505062000456565b80600290805190602001906200009092919062000162565b5050565b600033905090565b6000600360009054906101000a900473ffffffffffffffffffffffffffffffffffffffff16905081600360006101000a81548173ffffffffffffffffffffffffffffffffffffffff021916908373ffffffffffffffffffffffffffffffffffffffff1602179055508173ffffffffffffffffffffffffffffffffffffffff168173ffffffffffffffffffffffffffffffffffffffff167f8be0079c531659141344cd1fd0a4f28419497f9722a3daafe3b4186f6b6457e060405160405180910390a35050565b8280546200017090620003c2565b90600052602060002090601f016020900481019282620001945760008555620001e0565b82601f10620001af57805160ff1916838001178555620001e0565b82800160010185558215620001e0579182015b82811115620001df578251825591602001919060010190620001c2565b5b509050620001ef9190620001f3565b5090565b5b808211156200020e576000816000905550600101620001f4565b5090565b600062000229620002238462000359565b62000325565b9050828152602081018484840111156200024257600080fd5b6200024f8482856200038c565b509392505050565b600082601f8301126200026957600080fd5b81516200027b84826020860162000212565b91505092915050565b6000806000606084860312156200029a57600080fd5b600084015167ffffffffffffffff811115620002b557600080fd5b620002c38682870162000257565b935050602084015167ffffffffffffffff811115620002e157600080fd5b620002ef8682870162000257565b925050604084015167ffffffffffffffff8111156200030d57600080fd5b6200031b8682870162000257565b9150509250925092565b6000604051905081810181811067ffffffffffffffff821117156200034f576200034e62000427565b5b8060405250919050565b600067ffffffffffffffff82111562000377576200037662000427565b5b601f19601f8301169050602081019050919050565b60005b83811015620003ac5780820151818401526020810190506200038f565b83811115620003bc576000848401525b50505050565b60006002820490506001821680620003db57607f821691505b60208210811415620003f257620003f1620003f8565b5b50919050565b7f4e487b7100000000000000000000000000000000000000000000000000000000600052602260045260246000fd5b7f4e487b7100000000000000000000000000000000000000000000000000000000600052604160045260246000fd5b61341b80620004666000396000f3fe608060405234801561001057600080fd5b50600436106100ff5760003560e01c80638da5cb5b11610097578063eb22ed3211610066578063eb22ed32146102d0578063f242432a146102ec578063f2fde38b14610308578063f59dfdfb14610324576100ff565b80638da5cb5b14610236578063a22cb46514610254578063c1e0372814610270578063e985e9c5146102a0576100ff565b80634e1273f4116100d35780634e1273f4146101b05780636ab6236f146101e0578063715018a6146101fc57806382de8fe914610206576100ff565b8062fdd58e1461010457806301ffc9a7146101345780630e89341c146101645780632eb2c2d614610194575b600080fd5b61011e600480360381019061011991906123af565b610340565b60405161012b9190612edf565b60405180910390f35b61014e60048036038101906101499190612457565b610409565b60405161015b9190612ce7565b60405180910390f35b61017e600480360381019061017991906124a9565b6104eb565b60405161018b9190612d02565b60405180910390f35b6101ae60048036038101906101a99190612225565b61057f565b005b6101ca60048036038101906101c591906123eb565b610620565b6040516101d79190612c8e565b60405180910390f35b6101fa60048036038101906101f59190612154565b6107d1565b005b6102046108cd565b005b610220600480360381019061021b91906120ef565b610955565b60405161022d9190612c8e565b60405180910390f35b61023e610b1c565b60405161024b9190612bb1565b60405180910390f35b61026e60048036038101906102699190612373565b610b46565b005b61028a600480360381019061028591906124a9565b610b5c565b6040516102979190612ec4565b60405180910390f35b6102ba60048036038101906102b59190612118565b610bd7565b6040516102c79190612ce7565b60405180910390f35b6102ea60048036038101906102e591906124d2565b610c6b565b005b610306600480360381019061030191906122e4565b610db7565b005b610322600480360381019061031d91906120ef565b610e58565b005b61033e600480360381019061033991906124a9565b610f50565b005b60008073ffffffffffffffffffffffffffffffffffffffff168373ffffffffffffffffffffffffffffffffffffffff1614156103b1576040517f08c379a00000000000000000000000000000000000000000000000000000000081526004016103a890612d64565b60405180910390fd5b60008083815260200190815260200160002060008473ffffffffffffffffffffffffffffffffffffffff1673ffffffffffffffffffffffffffffffffffffffff16815260200190815260200160002054905092915050565b60007fd9b67a26000000000000000000000000000000000000000000000000000000007bffffffffffffffffffffffffffffffffffffffffffffffffffffffff1916827bffffffffffffffffffffffffffffffffffffffffffffffffffffffff191614806104d457507f0e89341c000000000000000000000000000000000000000000000000000000007bffffffffffffffffffffffffffffffffffffffffffffffffffffffff1916827bffffffffffffffffffffffffffffffffffffffffffffffffffffffff1916145b806104e457506104e382610f93565b5b9050919050565b6060600280546104fa90613196565b80601f016020809104026020016040519081016040528092919081815260200182805461052690613196565b80156105735780601f1061054857610100808354040283529160200191610573565b820191906000526020600020905b81548152906001019060200180831161055657829003601f168201915b50505050509050919050565b610587610ffd565b73ffffffffffffffffffffffffffffffffffffffff168573ffffffffffffffffffffffffffffffffffffffff1614806105cd57506105cc856105c7610ffd565b610bd7565b5b61060c576040517f08c379a000000000000000000000000000000000000000000000000000000000815260040161060390612de4565b60405180910390fd5b6106198585858585611005565b5050505050565b60608151835114610666576040517f08c379a000000000000000000000000000000000000000000000000000000000815260040161065d90612e64565b60405180910390fd5b6000835167ffffffffffffffff8111156106a9577f4e487b7100000000000000000000000000000000000000000000000000000000600052604160045260246000fd5b6040519080825280602002602001820160405280156106d75781602001602082028036833780820191505090505b50905060005b84518110156107c657610770858281518110610722577f4e487b7100000000000000000000000000000000000000000000000000000000600052603260045260246000fd5b6020026020010151858381518110610763577f4e487b7100000000000000000000000000000000000000000000000000000000600052603260045260246000fd5b6020026020010151610340565b8282815181106107a9577f4e487b7100000000000000000000000000000000000000000000000000000000600052603260045260246000fd5b602002602001018181525050806107bf906131c8565b90506106dd565b508091505092915050565b6107d9610ffd565b73ffffffffffffffffffffffffffffffffffffffff166107f7610b1c565b73ffffffffffffffffffffffffffffffffffffffff161461084d576040517f08c379a000000000000000000000000000000000000000000000000000000000815260040161084490612e24565b60405180910390fd5b6000600560008560008151811061088d577f4e487b7100000000000000000000000000000000000000000000000000000000600052603260045260246000fd5b60200260200101518152602001908152602001600020905042816002015482600101546108ba919061307d565b116108c457600080fd5b50505050505050565b6108d5610ffd565b73ffffffffffffffffffffffffffffffffffffffff166108f3610b1c565b73ffffffffffffffffffffffffffffffffffffffff1614610949576040517f08c379a000000000000000000000000000000000000000000000000000000000815260040161094090612e24565b60405180910390fd5b6109536000611365565b565b60606000805b60045481101561098f5761096f8482610340565b8261097a919061307d565b91508080610987906131c8565b91505061095b565b6000821415610a1157600067ffffffffffffffff8111156109d9577f4e487b7100000000000000000000000000000000000000000000000000000000600052604160045260246000fd5b604051908082528060200260200182016040528015610a075781602001602082028036833780820191505090505b5092505050610b17565b60008267ffffffffffffffff811115610a53577f4e487b7100000000000000000000000000000000000000000000000000000000600052604160045260246000fd5b604051908082528060200260200182016040528015610a815781602001602082028036833780820191505090505b509050600060045490506000805b82811015610b0d57610aa08161142b565b15610afa5780848381518110610adf577f4e487b7100000000000000000000000000000000000000000000000000000000600052603260045260246000fd5b6020026020010181815250508180610af6906131c8565b9250505b8080610b05906131c8565b915050610a8f565b8396505050505050505b919050565b6000600360009054906101000a900473ffffffffffffffffffffffffffffffffffffffff16905090565b610b58610b51610ffd565b8383611441565b5050565b610b64611e47565b600560008381526020019081526020016000206040518060800160405290816000820160009054906101000a900460ff1660ff1660ff1681526020016000820160019054906101000a900460ff1660ff1660ff168152602001600182015481526020016002820154815250509050919050565b6000600160008473ffffffffffffffffffffffffffffffffffffffff1673ffffffffffffffffffffffffffffffffffffffff16815260200190815260200160002060008373ffffffffffffffffffffffffffffffffffffffff1673ffffffffffffffffffffffffffffffffffffffff16815260200190815260200160002060009054906101000a900460ff16905092915050565b610c73610ffd565b73ffffffffffffffffffffffffffffffffffffffff16610c91610b1c565b73ffffffffffffffffffffffffffffffffffffffff1614610ce7576040517f08c379a0000000000000000000000000000000000000000000000000000000008152600401610cde90612e24565b60405180910390fd5b60405180608001604052808460ff1681526020018360ff1681526020014281526020018281525060056000600454815260200190815260200160002060008201518160000160006101000a81548160ff021916908360ff16021790555060208201518160000160016101000a81548160ff021916908360ff1602179055506040820151816001015560608201518160020155905050610d9a336004546001604051806020016040528060008152506115ae565b60046000815480929190610dad906131c8565b9190505550505050565b610dbf610ffd565b73ffffffffffffffffffffffffffffffffffffffff168573ffffffffffffffffffffffffffffffffffffffff161480610e055750610e0485610dff610ffd565b610bd7565b5b610e44576040517f08c379a0000000000000000000000000000000000000000000000000000000008152600401610e3b90612da4565b60405180910390fd5b610e518585858585611744565b5050505050565b610e60610ffd565b73ffffffffffffffffffffffffffffffffffffffff16610e7e610b1c565b73ffffffffffffffffffffffffffffffffffffffff1614610ed4576040517f08c379a0000000000000000000000000000000000000000000000000000000008152600401610ecb90612e24565b60405180910390fd5b600073ffffffffffffffffffffffffffffffffffffffff168173ffffffffffffffffffffffffffffffffffffffff161415610f44576040517f08c379a0000000000000000000000000000000000000000000000000000000008152600401610f3b90612d84565b60405180910390fd5b610f4d81611365565b50565b60006005600083815260200190815260200160002090504281600201548260010154610f7c919061307d565b11610f8657600080fd5b4281600101819055505050565b60007f01ffc9a7000000000000000000000000000000000000000000000000000000007bffffffffffffffffffffffffffffffffffffffffffffffffffffffff1916827bffffffffffffffffffffffffffffffffffffffffffffffffffffffff1916149050919050565b600033905090565b8151835114611049576040517f08c379a000000000000000000000000000000000000000000000000000000000815260040161104090612e84565b60405180910390fd5b600073ffffffffffffffffffffffffffffffffffffffff168473ffffffffffffffffffffffffffffffffffffffff1614156110b9576040517f08c379a00000000000000000000000000000000000000000000000000000000081526004016110b090612dc4565b60405180910390fd5b60006110c3610ffd565b90506110d38187878787876119c6565b60005b84518110156112d057600085828151811061111a577f4e487b7100000000000000000000000000000000000000000000000000000000600052603260045260246000fd5b60200260200101519050600085838151811061115f577f4e487b7100000000000000000000000000000000000000000000000000000000600052603260045260246000fd5b60200260200101519050600080600084815260200190815260200160002060008b73ffffffffffffffffffffffffffffffffffffffff1673ffffffffffffffffffffffffffffffffffffffff16815260200190815260200160002054905081811015611200576040517f08c379a00000000000000000000000000000000000000000000000000000000081526004016111f790612e04565b60405180910390fd5b81810360008085815260200190815260200160002060008c73ffffffffffffffffffffffffffffffffffffffff1673ffffffffffffffffffffffffffffffffffffffff168152602001908152602001600020819055508160008085815260200190815260200160002060008b73ffffffffffffffffffffffffffffffffffffffff1673ffffffffffffffffffffffffffffffffffffffff16815260200190815260200160002060008282546112b5919061307d565b92505081905550505050806112c9906131c8565b90506110d6565b508473ffffffffffffffffffffffffffffffffffffffff168673ffffffffffffffffffffffffffffffffffffffff168273ffffffffffffffffffffffffffffffffffffffff167f4a39dc06d4c0dbc64b70af90fd698a233a518aa5d07e595d983b8c0526c8f7fb8787604051611347929190612cb0565b60405180910390a461135d8187878787876119ce565b505050505050565b6000600360009054906101000a900473ffffffffffffffffffffffffffffffffffffffff16905081600360006101000a81548173ffffffffffffffffffffffffffffffffffffffff021916908373ffffffffffffffffffffffffffffffffffffffff1602179055508173ffffffffffffffffffffffffffffffffffffffff168173ffffffffffffffffffffffffffffffffffffffff167f8be0079c531659141344cd1fd0a4f28419497f9722a3daafe3b4186f6b6457e060405160405180910390a35050565b6000806114383384610340565b14159050919050565b8173ffffffffffffffffffffffffffffffffffffffff168373ffffffffffffffffffffffffffffffffffffffff1614156114b0576040517f08c379a00000000000000000000000000000000000000000000000000000000081526004016114a790612e44565b60405180910390fd5b80600160008573ffffffffffffffffffffffffffffffffffffffff1673ffffffffffffffffffffffffffffffffffffffff16815260200190815260200160002060008473ffffffffffffffffffffffffffffffffffffffff1673ffffffffffffffffffffffffffffffffffffffff16815260200190815260200160002060006101000a81548160ff0219169083151502179055508173ffffffffffffffffffffffffffffffffffffffff168373ffffffffffffffffffffffffffffffffffffffff167f17307eab39ab6107e8899845ad3d59bd9653f200f220920489ca2b5937696c31836040516115a19190612ce7565b60405180910390a3505050565b600073ffffffffffffffffffffffffffffffffffffffff168473ffffffffffffffffffffffffffffffffffffffff16141561161e576040517f08c379a000000000000000000000000000000000000000000000000000000000815260040161161590612ea4565b60405180910390fd5b6000611628610ffd565b90506116498160008761163a88611b9e565b61164388611b9e565b876119c6565b8260008086815260200190815260200160002060008773ffffffffffffffffffffffffffffffffffffffff1673ffffffffffffffffffffffffffffffffffffffff16815260200190815260200160002060008282546116a8919061307d565b925050819055508473ffffffffffffffffffffffffffffffffffffffff16600073ffffffffffffffffffffffffffffffffffffffff168273ffffffffffffffffffffffffffffffffffffffff167fc3d58168c5ae7397731d063d5bbf3d657854427343f4c083240f7aacaa2d0f628787604051611726929190612efa565b60405180910390a461173d81600087878787611c64565b5050505050565b600073ffffffffffffffffffffffffffffffffffffffff168473ffffffffffffffffffffffffffffffffffffffff1614156117b4576040517f08c379a00000000000000000000000000000000000000000000000000000000081526004016117ab90612dc4565b60405180910390fd5b60006117be610ffd565b90506117de8187876117cf88611b9e565b6117d888611b9e565b876119c6565b600080600086815260200190815260200160002060008873ffffffffffffffffffffffffffffffffffffffff1673ffffffffffffffffffffffffffffffffffffffff16815260200190815260200160002054905083811015611875576040517f08c379a000000000000000000000000000000000000000000000000000000000815260040161186c90612e04565b60405180910390fd5b83810360008087815260200190815260200160002060008973ffffffffffffffffffffffffffffffffffffffff1673ffffffffffffffffffffffffffffffffffffffff168152602001908152602001600020819055508360008087815260200190815260200160002060008873ffffffffffffffffffffffffffffffffffffffff1673ffffffffffffffffffffffffffffffffffffffff168152602001908152602001600020600082825461192a919061307d565b925050819055508573ffffffffffffffffffffffffffffffffffffffff168773ffffffffffffffffffffffffffffffffffffffff168373ffffffffffffffffffffffffffffffffffffffff167fc3d58168c5ae7397731d063d5bbf3d657854427343f4c083240f7aacaa2d0f6288886040516119a7929190612efa565b60405180910390a46119bd828888888888611c64565b50505050505050565b505050505050565b6119ed8473ffffffffffffffffffffffffffffffffffffffff16611e34565b15611b96578373ffffffffffffffffffffffffffffffffffffffff1663bc197c8187878686866040518663ffffffff1660e01b8152600401611a33959493929190612bcc565b602060405180830381600087803b158015611a4d57600080fd5b505af1925050508015611a7e57506040513d601f19601f82011682018060405250810190611a7b9190612480565b60015b611b0d57611a8a6132bc565b80611a955750611ad2565b806040517f08c379a0000000000000000000000000000000000000000000000000000000008152600401611ac99190612d02565b60405180910390fd5b6040517f08c379a0000000000000000000000000000000000000000000000000000000008152600401611b0490612d24565b60405180910390fd5b63bc197c8160e01b7bffffffffffffffffffffffffffffffffffffffffffffffffffffffff1916817bffffffffffffffffffffffffffffffffffffffffffffffffffffffff191614611b94576040517f08c379a0000000000000000000000000000000000000000000000000000000008152600401611b8b90612d44565b60405180910390fd5b505b505050505050565b60606000600167ffffffffffffffff811115611be3577f4e487b7100000000000000000000000000000000000000000000000000000000600052604160045260246000fd5b604051908082528060200260200182016040528015611c115781602001602082028036833780820191505090505b5090508281600081518110611c4f577f4e487b7100000000000000000000000000000000000000000000000000000000600052603260045260246000fd5b60200260200101818152505080915050919050565b611c838473ffffffffffffffffffffffffffffffffffffffff16611e34565b15611e2c578373ffffffffffffffffffffffffffffffffffffffff1663f23a6e6187878686866040518663ffffffff1660e01b8152600401611cc9959493929190612c34565b602060405180830381600087803b158015611ce357600080fd5b505af1925050508015611d1457506040513d601f19601f82011682018060405250810190611d119190612480565b60015b611da357611d206132bc565b80611d2b5750611d68565b806040517f08c379a0000000000000000000000000000000000000000000000000000000008152600401611d5f9190612d02565b60405180910390fd5b6040517f08c379a0000000000000000000000000000000000000000000000000000000008152600401611d9a90612d24565b60405180910390fd5b63f23a6e6160e01b7bffffffffffffffffffffffffffffffffffffffffffffffffffffffff1916817bffffffffffffffffffffffffffffffffffffffffffffffffffffffff191614611e2a576040517f08c379a0000000000000000000000000000000000000000000000000000000008152600401611e2190612d44565b60405180910390fd5b505b505050505050565b600080823b905060008111915050919050565b6040518060800160405280600060ff168152602001600060ff16815260200160008152602001600081525090565b6000611e88611e8384612f54565b612f23565b90508083825260208201905082856020860282011115611ea757600080fd5b60005b85811015611ed75781611ebd8882611fc9565b845260208401935060208301925050600181019050611eaa565b5050509392505050565b6000611ef4611eef84612f80565b612f23565b90508083825260208201905082856020860282011115611f1357600080fd5b60005b85811015611f435781611f2988826120c5565b845260208401935060208301925050600181019050611f16565b5050509392505050565b6000611f60611f5b84612fac565b612f23565b905082815260208101848484011115611f7857600080fd5b611f83848285613154565b509392505050565b6000611f9e611f9984612fdc565b612f23565b905082815260208101848484011115611fb657600080fd5b611fc1848285613154565b509392505050565b600081359050611fd881613372565b92915050565b600082601f830112611fef57600080fd5b8135611fff848260208601611e75565b91505092915050565b600082601f83011261201957600080fd5b8135612029848260208601611ee1565b91505092915050565b60008135905061204181613389565b92915050565b600081359050612056816133a0565b92915050565b60008151905061206b816133a0565b92915050565b600082601f83011261208257600080fd5b8135612092848260208601611f4d565b91505092915050565b600082601f8301126120ac57600080fd5b81356120bc848260208601611f8b565b91505092915050565b6000813590506120d4816133b7565b92915050565b6000813590506120e9816133ce565b92915050565b60006020828403121561210157600080fd5b600061210f84828501611fc9565b91505092915050565b6000806040838503121561212b57600080fd5b600061213985828601611fc9565b925050602061214a85828601611fc9565b9150509250929050565b60008060008060008060c0878903121561216d57600080fd5b600061217b89828a01611fc9565b965050602061218c89828a01611fc9565b955050604061219d89828a01611fc9565b945050606087013567ffffffffffffffff8111156121ba57600080fd5b6121c689828a01612008565b935050608087013567ffffffffffffffff8111156121e357600080fd5b6121ef89828a01612008565b92505060a087013567ffffffffffffffff81111561220c57600080fd5b61221889828a0161209b565b9150509295509295509295565b600080600080600060a0868803121561223d57600080fd5b600061224b88828901611fc9565b955050602061225c88828901611fc9565b945050604086013567ffffffffffffffff81111561227957600080fd5b61228588828901612008565b935050606086013567ffffffffffffffff8111156122a257600080fd5b6122ae88828901612008565b925050608086013567ffffffffffffffff8111156122cb57600080fd5b6122d788828901612071565b9150509295509295909350565b600080600080600060a086880312156122fc57600080fd5b600061230a88828901611fc9565b955050602061231b88828901611fc9565b945050604061232c888289016120c5565b935050606061233d888289016120c5565b925050608086013567ffffffffffffffff81111561235a57600080fd5b61236688828901612071565b9150509295509295909350565b6000806040838503121561238657600080fd5b600061239485828601611fc9565b92505060206123a585828601612032565b9150509250929050565b600080604083850312156123c257600080fd5b60006123d085828601611fc9565b92505060206123e1858286016120c5565b9150509250929050565b600080604083850312156123fe57600080fd5b600083013567ffffffffffffffff81111561241857600080fd5b61242485828601611fde565b925050602083013567ffffffffffffffff81111561244157600080fd5b61244d85828601612008565b9150509250929050565b60006020828403121561246957600080fd5b600061247784828501612047565b91505092915050565b60006020828403121561249257600080fd5b60006124a08482850161205c565b91505092915050565b6000602082840312156124bb57600080fd5b60006124c9848285016120c5565b91505092915050565b6000806000606084860312156124e757600080fd5b60006124f5868287016120da565b9350506020612506868287016120da565b9250506040612517868287016120c5565b9150509250925092565b600061252d8383612b84565b60208301905092915050565b612542816130d3565b82525050565b60006125538261301c565b61255d818561304a565b93506125688361300c565b8060005b838110156125995781516125808882612521565b975061258b8361303d565b92505060018101905061256c565b5085935050505092915050565b6125af816130e5565b82525050565b60006125c082613027565b6125ca818561305b565b93506125da818560208601613163565b6125e38161329e565b840191505092915050565b60006125f982613032565b612603818561306c565b9350612613818560208601613163565b61261c8161329e565b840191505092915050565b600061263460348361306c565b91507f455243313135353a207472616e7366657220746f206e6f6e204552433131353560008301527f526563656976657220696d706c656d656e7465720000000000000000000000006020830152604082019050919050565b600061269a60288361306c565b91507f455243313135353a204552433131353552656365697665722072656a6563746560008301527f6420746f6b656e730000000000000000000000000000000000000000000000006020830152604082019050919050565b6000612700602b8361306c565b91507f455243313135353a2062616c616e636520717565727920666f7220746865207a60008301527f65726f20616464726573730000000000000000000000000000000000000000006020830152604082019050919050565b600061276660268361306c565b91507f4f776e61626c653a206e6577206f776e657220697320746865207a65726f206160008301527f64647265737300000000000000000000000000000000000000000000000000006020830152604082019050919050565b60006127cc60298361306c565b91507f455243313135353a2063616c6c6572206973206e6f74206f776e6572206e6f7260008301527f20617070726f76656400000000000000000000000000000000000000000000006020830152604082019050919050565b600061283260258361306c565b91507f455243313135353a207472616e7366657220746f20746865207a65726f20616460008301527f64726573730000000000000000000000000000000000000000000000000000006020830152604082019050919050565b600061289860328361306c565b91507f455243313135353a207472616e736665722063616c6c6572206973206e6f742060008301527f6f776e6572206e6f7220617070726f76656400000000000000000000000000006020830152604082019050919050565b60006128fe602a8361306c565b91507f455243313135353a20696e73756666696369656e742062616c616e636520666f60008301527f72207472616e73666572000000000000000000000000000000000000000000006020830152604082019050919050565b600061296460208361306c565b91507f4f776e61626c653a2063616c6c6572206973206e6f7420746865206f776e65726000830152602082019050919050565b60006129a460298361306c565b91507f455243313135353a2073657474696e6720617070726f76616c2073746174757360008301527f20666f722073656c6600000000000000000000000000000000000000000000006020830152604082019050919050565b6000612a0a60298361306c565b91507f455243313135353a206163636f756e747320616e6420696473206c656e67746860008301527f206d69736d6174636800000000000000000000000000000000000000000000006020830152604082019050919050565b6000612a7060288361306c565b91507f455243313135353a2069647320616e6420616d6f756e7473206c656e6774682060008301527f6d69736d617463680000000000000000000000000000000000000000000000006020830152604082019050919050565b6000612ad660218361306c565b91507f455243313135353a206d696e7420746f20746865207a65726f2061646472657360008301527f73000000000000000000000000000000000000000000000000000000000000006020830152604082019050919050565b608082016000820151612b456000850182612ba2565b506020820151612b586020850182612ba2565b506040820151612b6b6040850182612b84565b506060820151612b7e6060850182612b84565b50505050565b612b8d8161313d565b82525050565b612b9c8161313d565b82525050565b612bab81613147565b82525050565b6000602082019050612bc66000830184612539565b92915050565b600060a082019050612be16000830188612539565b612bee6020830187612539565b8181036040830152612c008186612548565b90508181036060830152612c148185612548565b90508181036080830152612c2881846125b5565b90509695505050505050565b600060a082019050612c496000830188612539565b612c566020830187612539565b612c636040830186612b93565b612c706060830185612b93565b8181036080830152612c8281846125b5565b90509695505050505050565b60006020820190508181036000830152612ca88184612548565b905092915050565b60006040820190508181036000830152612cca8185612548565b90508181036020830152612cde8184612548565b90509392505050565b6000602082019050612cfc60008301846125a6565b92915050565b60006020820190508181036000830152612d1c81846125ee565b905092915050565b60006020820190508181036000830152612d3d81612627565b9050919050565b60006020820190508181036000830152612d5d8161268d565b9050919050565b60006020820190508181036000830152612d7d816126f3565b9050919050565b60006020820190508181036000830152612d9d81612759565b9050919050565b60006020820190508181036000830152612dbd816127bf565b9050919050565b60006020820190508181036000830152612ddd81612825565b9050919050565b60006020820190508181036000830152612dfd8161288b565b9050919050565b60006020820190508181036000830152612e1d816128f1565b9050919050565b60006020820190508181036000830152612e3d81612957565b9050919050565b60006020820190508181036000830152612e5d81612997565b9050919050565b60006020820190508181036000830152612e7d816129fd565b9050919050565b60006020820190508181036000830152612e9d81612a63565b9050919050565b60006020820190508181036000830152612ebd81612ac9565b9050919050565b6000608082019050612ed96000830184612b2f565b92915050565b6000602082019050612ef46000830184612b93565b92915050565b6000604082019050612f0f6000830185612b93565b612f1c6020830184612b93565b9392505050565b6000604051905081810181811067ffffffffffffffff82111715612f4a57612f4961326f565b5b8060405250919050565b600067ffffffffffffffff821115612f6f57612f6e61326f565b5b602082029050602081019050919050565b600067ffffffffffffffff821115612f9b57612f9a61326f565b5b602082029050602081019050919050565b600067ffffffffffffffff821115612fc757612fc661326f565b5b601f19601f8301169050602081019050919050565b600067ffffffffffffffff821115612ff757612ff661326f565b5b601f19601f8301169050602081019050919050565b6000819050602082019050919050565b600081519050919050565b600081519050919050565b600081519050919050565b6000602082019050919050565b600082825260208201905092915050565b600082825260208201905092915050565b600082825260208201905092915050565b60006130888261313d565b91506130938361313d565b9250827fffffffffffffffffffffffffffffffffffffffffffffffffffffffffffffffff038211156130c8576130c7613211565b5b828201905092915050565b60006130de8261311d565b9050919050565b60008115159050919050565b60007fffffffff0000000000000000000000000000000000000000000000000000000082169050919050565b600073ffffffffffffffffffffffffffffffffffffffff82169050919050565b6000819050919050565b600060ff82169050919050565b82818337600083830152505050565b60005b83811015613181578082015181840152602081019050613166565b83811115613190576000848401525b50505050565b600060028204905060018216806131ae57607f821691505b602082108114156131c2576131c1613240565b5b50919050565b60006131d38261313d565b91507fffffffffffffffffffffffffffffffffffffffffffffffffffffffffffffffff82141561320657613205613211565b5b600182019050919050565b7f4e487b7100000000000000000000000000000000000000000000000000000000600052601160045260246000fd5b7f4e487b7100000000000000000000000000000000000000000000000000000000600052602260045260246000fd5b7f4e487b7100000000000000000000000000000000000000000000000000000000600052604160045260246000fd5b6000601f19601f8301169050919050565b60008160e01c9050919050565b600060443d10156132cc5761336f565b60046000803e6132dd6000516132af565b6308c379a081146132ee575061336f565b60405160043d036004823e80513d602482011167ffffffffffffffff8211171561331a5750505061336f565b808201805167ffffffffffffffff81111561333957505050505061336f565b8060208301013d85018111156133545750505050505061336f565b61335d8261329e565b60208401016040528296505050505050505b90565b61337b816130d3565b811461338657600080fd5b50565b613392816130e5565b811461339d57600080fd5b50565b6133a9816130f1565b81146133b457600080fd5b50565b6133c08161313d565b81146133cb57600080fd5b50565b6133d781613147565b81146133e257600080fd5b5056fea2646970667358221220e443fb392d315bfb511f5a05efed6d40e10206b82952c864793c3617fe3f23e464736f6c63430008000033",
  "immutableReferences": {},
  "source": "// SPDX-License-Identifier: GPL-3.0-or-later\r\npragma solidity ^0.8.0;\r\n\r\nimport \"../node_modules/@openzeppelin/contracts/token/ERC1155/ERC1155.sol\";\r\nimport \"../node_modules/@openzeppelin/contracts/access/Ownable.sol\";\r\n\r\ncontract Token is ERC1155, Ownable {\r\n\r\n    struct Pet {\r\n        uint8 damage;\r\n        uint8 magic;\r\n        uint256 lastMeal;\r\n        uint256 endurance;\r\n    }\r\n\r\n    uint256 nextId = 0;\r\n\r\n    mapping(uint256 => Pet) private _tokenDetails;\r\n\r\n    constructor(string memory name, string memory symbol, string memory uri) ERC1155(uri) {\r\n\r\n    }\r\n\r\n    function getTokenDetails(uint256 tokenId) public view returns (Pet memory) {\r\n        return _tokenDetails[tokenId];\r\n    }\r\n\r\n    function mint(uint8 damage, uint8 magic, uint256 endurance) public onlyOwner {\r\n        _tokenDetails[nextId] = Pet(damage, magic, block.timestamp, endurance);\r\n        _mint(msg.sender, nextId, 1, \"\");\r\n        nextId++;\r\n    }\r\n\r\n    function feed(uint256 tokenId) public {\r\n        Pet storage pet = _tokenDetails[tokenId];\r\n        require(pet.lastMeal + pet.endurance > block.timestamp);\r\n        pet.lastMeal = block.timestamp;\r\n    }\r\n\r\n    function getAllTokensForUser(address user) public view returns (uint256[] memory) {\r\n        uint256 tokenCount = 0;\r\n        uint256 j;\r\n        for(j = 0; j < nextId; j++) {\r\n            tokenCount = tokenCount + balanceOf(user, j);\r\n        }\r\n        if(tokenCount == 0) {\r\n            return new uint256[](0);\r\n        }\r\n        else {\r\n            uint[] memory result = new uint256[](tokenCount);\r\n            uint256 totalPets = nextId;\r\n            uint256 resultIndex = 0;\r\n            uint256 i;\r\n            for(i = 0; i < totalPets; i++) {\r\n                if(_ownerOf(i)) {\r\n                    result[resultIndex] = i;\r\n                    resultIndex++; \r\n                }\r\n            }\r\n            return result;\r\n        }\r\n    }\r\n\r\n    function _beforeTokenTransfer(address operator, address from, address to, uint256[] memory ids, uint256[] memory amounts, string memory data) public view onlyOwner {\r\n        Pet storage pet = _tokenDetails[ids[0]];\r\n        require(pet.lastMeal + pet.endurance > block.timestamp);\r\n    }\r\n\r\n    function _ownerOf(uint256 tokenId) internal view returns (bool) {\r\n        return balanceOf(msg.sender, tokenId) != 0;\r\n    }\r\n}\r\n\r\n\r\n",
  "sourcePath": "C:\\Users\\mario\\Desktop\\NFTG\\contracts\\Token.sol",
  "compiler": {
    "name": "solc",
    "version": "0.8.0+commit.c7dfd78e.Emscripten.clang"
  },
  "schemaVersion": "3.4.5",
  "updatedAt": "2022-03-08T06:29:18.109Z",
  "networkType": "ethereum",
  "devdoc": {
    "kind": "dev",
    "methods": {
      "balanceOf(address,uint256)": {
        "details": "See {IERC1155-balanceOf}. Requirements: - `account` cannot be the zero address."
      },
      "balanceOfBatch(address[],uint256[])": {
        "details": "See {IERC1155-balanceOfBatch}. Requirements: - `accounts` and `ids` must have the same length."
      },
      "isApprovedForAll(address,address)": {
        "details": "See {IERC1155-isApprovedForAll}."
      },
      "owner()": {
        "details": "Returns the address of the current owner."
      },
      "renounceOwnership()": {
        "details": "Leaves the contract without owner. It will not be possible to call `onlyOwner` functions anymore. Can only be called by the current owner. NOTE: Renouncing ownership will leave the contract without an owner, thereby removing any functionality that is only available to the owner."
      },
      "safeBatchTransferFrom(address,address,uint256[],uint256[],bytes)": {
        "details": "See {IERC1155-safeBatchTransferFrom}."
      },
      "safeTransferFrom(address,address,uint256,uint256,bytes)": {
        "details": "See {IERC1155-safeTransferFrom}."
      },
      "setApprovalForAll(address,bool)": {
        "details": "See {IERC1155-setApprovalForAll}."
      },
      "supportsInterface(bytes4)": {
        "details": "See {IERC165-supportsInterface}."
      },
      "transferOwnership(address)": {
        "details": "Transfers ownership of the contract to a new account (`newOwner`). Can only be called by the current owner."
      },
      "uri(uint256)": {
        "details": "See {IERC1155MetadataURI-uri}. This implementation returns the same URI for *all* token types. It relies on the token type ID substitution mechanism https://eips.ethereum.org/EIPS/eip-1155#metadata[defined in the EIP]. Clients calling this function must replace the `\\{id\\}` substring with the actual token type ID."
      }
    },
    "version": 1
  },
  "userdoc": {
    "kind": "user",
    "methods": {},
    "version": 1
  }
}